{
	"solidity.sol": {
		"test": {
			"abi": [
				{
					"inputs": [],
					"stateMutability": "payable",
					"type": "constructor"
				},
				{
					"inputs": [],
					"name": "Counter",
					"outputs": [],
					"stateMutability": "nonpayable",
					"type": "function"
				},
				{
					"inputs": [],
					"name": "_bytes1",
					"outputs": [
						{
							"internalType": "bytes1",
							"name": "",
							"type": "bytes1"
						}
					],
					"stateMutability": "view",
					"type": "function"
				},
				{
					"inputs": [],
					"name": "_bytes2",
					"outputs": [
						{
							"internalType": "bytes2",
							"name": "",
							"type": "bytes2"
						}
					],
					"stateMutability": "view",
					"type": "function"
				},
				{
					"inputs": [
						{
							"internalType": "bytes",
							"name": "_byteArray",
							"type": "bytes"
						}
					],
					"name": "_bytes3Setter",
					"outputs": [],
					"stateMutability": "nonpayable",
					"type": "function"
				},
				{
					"inputs": [],
					"name": "_bytesArray",
					"outputs": [
						{
							"internalType": "bytes",
							"name": "",
							"type": "bytes"
						}
					],
					"stateMutability": "view",
					"type": "function"
				},
				{
					"inputs": [
						{
							"internalType": "uint16",
							"name": "_agregar",
							"type": "uint16"
						}
					],
					"name": "agregarValor",
					"outputs": [],
					"stateMutability": "nonpayable",
					"type": "function"
				},
				{
					"inputs": [],
					"name": "bloque",
					"outputs": [
						{
							"internalType": "uint256",
							"name": "",
							"type": "uint256"
						},
						{
							"internalType": "uint256",
							"name": "",
							"type": "uint256"
						},
						{
							"internalType": "uint256",
							"name": "",
							"type": "uint256"
						},
						{
							"internalType": "address",
							"name": "",
							"type": "address"
						}
					],
					"stateMutability": "view",
					"type": "function"
				},
				{
					"inputs": [
						{
							"internalType": "string",
							"name": "_name",
							"type": "string"
						},
						{
							"internalType": "uint256",
							"name": "_id",
							"type": "uint256"
						}
					],
					"name": "cargarDatos",
					"outputs": [],
					"stateMutability": "nonpayable",
					"type": "function"
				},
				{
					"inputs": [
						{
							"internalType": "string",
							"name": "_name",
							"type": "string"
						},
						{
							"internalType": "uint256",
							"name": "_id",
							"type": "uint256"
						}
					],
					"name": "cargarDatosArray",
					"outputs": [],
					"stateMutability": "nonpayable",
					"type": "function"
				},
				{
					"inputs": [
						{
							"internalType": "string",
							"name": "a",
							"type": "string"
						},
						{
							"internalType": "string",
							"name": "b",
							"type": "string"
						}
					],
					"name": "comparar",
					"outputs": [
						{
							"internalType": "string",
							"name": "",
							"type": "string"
						}
					],
					"stateMutability": "pure",
					"type": "function"
				},
				{
					"inputs": [
						{
							"internalType": "bool",
							"name": "_choice",
							"type": "bool"
						}
					],
					"name": "compararMoneda",
					"outputs": [
						{
							"internalType": "bool",
							"name": "",
							"type": "bool"
						}
					],
					"stateMutability": "pure",
					"type": "function"
				},
				{
					"inputs": [
						{
							"internalType": "bool",
							"name": "_choice",
							"type": "bool"
						}
					],
					"name": "compararTiempo",
					"outputs": [
						{
							"internalType": "bool",
							"name": "",
							"type": "bool"
						}
					],
					"stateMutability": "pure",
					"type": "function"
				},
				{
					"inputs": [],
					"name": "counter",
					"outputs": [
						{
							"internalType": "uint256",
							"name": "",
							"type": "uint256"
						}
					],
					"stateMutability": "view",
					"type": "function"
				},
				{
					"inputs": [],
					"name": "curso",
					"outputs": [
						{
							"internalType": "string",
							"name": "",
							"type": "string"
						}
					],
					"stateMutability": "view",
					"type": "function"
				},
				{
					"inputs": [],
					"name": "destroy",
					"outputs": [],
					"stateMutability": "nonpayable",
					"type": "function"
				},
				{
					"inputs": [],
					"name": "getMyInfoArray",
					"outputs": [
						{
							"components": [
								{
									"internalType": "string",
									"name": "name",
									"type": "string"
								},
								{
									"internalType": "uint256",
									"name": "id",
									"type": "uint256"
								}
							],
							"internalType": "struct test.Person[]",
							"name": "",
							"type": "tuple[]"
						}
					],
					"stateMutability": "view",
					"type": "function"
				},
				{
					"inputs": [],
					"name": "intLimits",
					"outputs": [
						{
							"internalType": "int8",
							"name": "",
							"type": "int8"
						},
						{
							"internalType": "int8",
							"name": "",
							"type": "int8"
						}
					],
					"stateMutability": "pure",
					"type": "function"
				},
				{
					"inputs": [],
					"name": "mensaje",
					"outputs": [
						{
							"internalType": "bytes",
							"name": "",
							"type": "bytes"
						},
						{
							"internalType": "uint256",
							"name": "",
							"type": "uint256"
						},
						{
							"internalType": "bytes4",
							"name": "",
							"type": "bytes4"
						}
					],
					"stateMutability": "view",
					"type": "function"
				},
				{
					"inputs": [
						{
							"internalType": "bytes1",
							"name": "_letra",
							"type": "bytes1"
						}
					],
					"name": "modificarCurso",
					"outputs": [],
					"stateMutability": "nonpayable",
					"type": "function"
				},
				{
					"inputs": [
						{
							"internalType": "uint32",
							"name": "_number",
							"type": "uint32"
						}
					],
					"name": "modificarReferencia",
					"outputs": [],
					"stateMutability": "nonpayable",
					"type": "function"
				},
				{
					"inputs": [
						{
							"internalType": "address",
							"name": "",
							"type": "address"
						}
					],
					"name": "myInfo",
					"outputs": [
						{
							"internalType": "string",
							"name": "name",
							"type": "string"
						},
						{
							"internalType": "uint256",
							"name": "id",
							"type": "uint256"
						}
					],
					"stateMutability": "view",
					"type": "function"
				},
				{
					"inputs": [
						{
							"internalType": "uint256",
							"name": "",
							"type": "uint256"
						}
					],
					"name": "myInfoArray",
					"outputs": [
						{
							"internalType": "string",
							"name": "name",
							"type": "string"
						},
						{
							"internalType": "uint256",
							"name": "id",
							"type": "uint256"
						}
					],
					"stateMutability": "view",
					"type": "function"
				},
				{
					"inputs": [],
					"name": "random",
					"outputs": [
						{
							"internalType": "uint256",
							"name": "",
							"type": "uint256"
						}
					],
					"stateMutability": "view",
					"type": "function"
				},
				{
					"inputs": [
						{
							"internalType": "uint256",
							"name": "",
							"type": "uint256"
						}
					],
					"name": "referencia",
					"outputs": [
						{
							"internalType": "uint32",
							"name": "",
							"type": "uint32"
						}
					],
					"stateMutability": "view",
					"type": "function"
				},
				{
					"inputs": [
						{
							"internalType": "bool",
							"name": "_choice",
							"type": "bool"
						}
					],
					"name": "revertir",
					"outputs": [],
					"stateMutability": "nonpayable",
					"type": "function"
				},
				{
					"inputs": [],
					"name": "state",
					"outputs": [
						{
							"internalType": "enum test.Estado",
							"name": "",
							"type": "uint8"
						}
					],
					"stateMutability": "view",
					"type": "function"
				},
				{
					"inputs": [],
					"name": "sumaConstante",
					"outputs": [
						{
							"internalType": "uint256",
							"name": "",
							"type": "uint256"
						}
					],
					"stateMutability": "pure",
					"type": "function"
				},
				{
					"inputs": [],
					"name": "toggleState",
					"outputs": [],
					"stateMutability": "nonpayable",
					"type": "function"
				},
				{
					"inputs": [],
					"name": "transaccion",
					"outputs": [
						{
							"internalType": "uint256",
							"name": "",
							"type": "uint256"
						},
						{
							"internalType": "address",
							"name": "",
							"type": "address"
						}
					],
					"stateMutability": "view",
					"type": "function"
				},
				{
					"inputs": [],
					"name": "transferEtherAny",
					"outputs": [],
					"stateMutability": "nonpayable",
					"type": "function"
				},
				{
					"inputs": [],
					"name": "transferEtherOwner",
					"outputs": [],
					"stateMutability": "nonpayable",
					"type": "function"
				},
				{
					"inputs": [],
					"name": "underflow",
					"outputs": [
						{
							"internalType": "int8",
							"name": "",
							"type": "int8"
						}
					],
					"stateMutability": "pure",
					"type": "function"
				},
				{
					"inputs": [],
					"name": "underflow2",
					"outputs": [
						{
							"internalType": "uint16",
							"name": "",
							"type": "uint16"
						}
					],
					"stateMutability": "pure",
					"type": "function"
				},
				{
					"inputs": [
						{
							"internalType": "uint256",
							"name": "",
							"type": "uint256"
						}
					],
					"name": "valuePushed",
					"outputs": [
						{
							"internalType": "uint16",
							"name": "",
							"type": "uint16"
						}
					],
					"stateMutability": "view",
					"type": "function"
				},
				{
					"inputs": [],
					"name": "valueSent",
					"outputs": [
						{
							"internalType": "uint256",
							"name": "",
							"type": "uint256"
						}
					],
					"stateMutability": "payable",
					"type": "function"
				},
				{
					"inputs": [
						{
							"internalType": "uint256",
							"name": "_i",
							"type": "uint256"
						}
					],
					"name": "varArrMem",
					"outputs": [
						{
							"internalType": "uint256[]",
							"name": "",
							"type": "uint256[]"
						},
						{
							"internalType": "uint256",
							"name": "",
							"type": "uint256"
						}
					],
					"stateMutability": "pure",
					"type": "function"
				}
			],
			"devdoc": {
				"kind": "dev",
				"methods": {},
				"version": 1
			},
			"evm": {
				"assembly": "    /* \"solidity.sol\":68:7413  contract test{... */\n  mstore(0x40, 0x80)\n    /* \"solidity.sol\":2757:2782  bytes1 public _bytes1=\"a\" */\n  0x6100000000000000000000000000000000000000000000000000000000000000\n  0x04\n  exp(0x0100, 0x00)\n  dup2\n  sload\n  dup2\n  0xff\n  mul\n  not\n  and\n  swap1\n  dup4\n  0xf8\n  shr\n  mul\n  or\n  swap1\n  sstore\n  pop\n    /* \"solidity.sol\":2789:2815  bytes2 public _bytes2=\"ab\" */\n  0x6162000000000000000000000000000000000000000000000000000000000000\n  0x04\n  exp(0x0100, 0x01)\n  dup2\n  sload\n  dup2\n  0xffff\n  mul\n  not\n  and\n  swap1\n  dup4\n  0xf0\n  shr\n  mul\n  or\n  swap1\n  sstore\n  pop\n    /* \"solidity.sol\":4834:4866  string public curso=\"Blockchain\" */\n  mload(0x40)\n  dup1\n  0x40\n  add\n  0x40\n  mstore\n  dup1\n  0x0a\n  dup2\n  mstore\n  0x20\n  add\n  0x426c6f636b636861696e00000000000000000000000000000000000000000000\n  dup2\n  mstore\n  pop\n  0x09\n  swap1\n  dup2\n  tag_1\n  swap2\n  swap1\n  tag_2\n  jump\t// in\ntag_1:\n  pop\n    /* \"solidity.sol\":289:299  msg.sender */\n  caller\n    /* \"solidity.sol\":283:288  owner */\n  0x01\n  0x00\n    /* \"solidity.sol\":283:299  owner=msg.sender */\n  0x0100\n  exp\n  dup2\n  sload\n  dup2\n  0xffffffffffffffffffffffffffffffffffffffff\n  mul\n  not\n  and\n  swap1\n  dup4\n  0xffffffffffffffffffffffffffffffffffffffff\n  and\n  mul\n  or\n  swap1\n  sstore\n  pop\n    /* \"solidity.sol\":68:7413  contract test{... */\n  jump(tag_5)\n    /* \"#utility.yul\":7:106   */\ntag_6:\n    /* \"#utility.yul\":59:65   */\n  0x00\n    /* \"#utility.yul\":93:98   */\n  dup2\n    /* \"#utility.yul\":87:99   */\n  mload\n    /* \"#utility.yul\":77:99   */\n  swap1\n  pop\n    /* \"#utility.yul\":7:106   */\n  swap2\n  swap1\n  pop\n  jump\t// out\n    /* \"#utility.yul\":112:292   */\ntag_7:\n    /* \"#utility.yul\":160:237   */\n  0x4e487b7100000000000000000000000000000000000000000000000000000000\n    /* \"#utility.yul\":157:158   */\n  0x00\n    /* \"#utility.yul\":150:238   */\n  mstore\n    /* \"#utility.yul\":257:261   */\n  0x41\n    /* \"#utility.yul\":254:255   */\n  0x04\n    /* \"#utility.yul\":247:262   */\n  mstore\n    /* \"#utility.yul\":281:285   */\n  0x24\n    /* \"#utility.yul\":278:279   */\n  0x00\n    /* \"#utility.yul\":271:286   */\n  revert\n    /* \"#utility.yul\":298:478   */\ntag_8:\n    /* \"#utility.yul\":346:423   */\n  0x4e487b7100000000000000000000000000000000000000000000000000000000\n    /* \"#utility.yul\":343:344   */\n  0x00\n    /* \"#utility.yul\":336:424   */\n  mstore\n    /* \"#utility.yul\":443:447   */\n  0x22\n    /* \"#utility.yul\":440:441   */\n  0x04\n    /* \"#utility.yul\":433:448   */\n  mstore\n    /* \"#utility.yul\":467:471   */\n  0x24\n    /* \"#utility.yul\":464:465   */\n  0x00\n    /* \"#utility.yul\":457:472   */\n  revert\n    /* \"#utility.yul\":484:804   */\ntag_9:\n    /* \"#utility.yul\":528:534   */\n  0x00\n    /* \"#utility.yul\":565:566   */\n  0x02\n    /* \"#utility.yul\":559:563   */\n  dup3\n    /* \"#utility.yul\":555:567   */\n  div\n    /* \"#utility.yul\":545:567   */\n  swap1\n  pop\n    /* \"#utility.yul\":612:613   */\n  0x01\n    /* \"#utility.yul\":606:610   */\n  dup3\n    /* \"#utility.yul\":602:614   */\n  and\n    /* \"#utility.yul\":633:651   */\n  dup1\n    /* \"#utility.yul\":623:704   */\n  tag_31\n  jumpi\n    /* \"#utility.yul\":689:693   */\n  0x7f\n    /* \"#utility.yul\":681:687   */\n  dup3\n    /* \"#utility.yul\":677:694   */\n  and\n    /* \"#utility.yul\":667:694   */\n  swap2\n  pop\n    /* \"#utility.yul\":623:704   */\ntag_31:\n    /* \"#utility.yul\":751:753   */\n  0x20\n    /* \"#utility.yul\":743:749   */\n  dup3\n    /* \"#utility.yul\":740:754   */\n  lt\n    /* \"#utility.yul\":720:738   */\n  dup2\n    /* \"#utility.yul\":717:755   */\n  sub\n    /* \"#utility.yul\":714:798   */\n  tag_32\n  jumpi\n    /* \"#utility.yul\":770:788   */\n  tag_33\n  tag_8\n  jump\t// in\ntag_33:\n    /* \"#utility.yul\":714:798   */\ntag_32:\n    /* \"#utility.yul\":535:804   */\n  pop\n    /* \"#utility.yul\":484:804   */\n  swap2\n  swap1\n  pop\n  jump\t// out\n    /* \"#utility.yul\":810:951   */\ntag_10:\n    /* \"#utility.yul\":859:863   */\n  0x00\n    /* \"#utility.yul\":882:885   */\n  dup2\n    /* \"#utility.yul\":874:885   */\n  swap1\n  pop\n    /* \"#utility.yul\":905:908   */\n  dup2\n    /* \"#utility.yul\":902:903   */\n  0x00\n    /* \"#utility.yul\":895:909   */\n  mstore\n    /* \"#utility.yul\":939:943   */\n  0x20\n    /* \"#utility.yul\":936:937   */\n  0x00\n    /* \"#utility.yul\":926:944   */\n  keccak256\n    /* \"#utility.yul\":918:944   */\n  swap1\n  pop\n    /* \"#utility.yul\":810:951   */\n  swap2\n  swap1\n  pop\n  jump\t// out\n    /* \"#utility.yul\":957:1050   */\ntag_11:\n    /* \"#utility.yul\":994:1000   */\n  0x00\n    /* \"#utility.yul\":1041:1043   */\n  0x20\n    /* \"#utility.yul\":1036:1038   */\n  0x1f\n    /* \"#utility.yul\":1029:1034   */\n  dup4\n    /* \"#utility.yul\":1025:1039   */\n  add\n    /* \"#utility.yul\":1021:1044   */\n  div\n    /* \"#utility.yul\":1011:1044   */\n  swap1\n  pop\n    /* \"#utility.yul\":957:1050   */\n  swap2\n  swap1\n  pop\n  jump\t// out\n    /* \"#utility.yul\":1056:1163   */\ntag_12:\n    /* \"#utility.yul\":1100:1108   */\n  0x00\n    /* \"#utility.yul\":1150:1155   */\n  dup3\n    /* \"#utility.yul\":1144:1148   */\n  dup3\n    /* \"#utility.yul\":1140:1156   */\n  shl\n    /* \"#utility.yul\":1119:1156   */\n  swap1\n  pop\n    /* \"#utility.yul\":1056:1163   */\n  swap3\n  swap2\n  pop\n  pop\n  jump\t// out\n    /* \"#utility.yul\":1169:1562   */\ntag_13:\n    /* \"#utility.yul\":1238:1244   */\n  0x00\n    /* \"#utility.yul\":1288:1289   */\n  0x08\n    /* \"#utility.yul\":1276:1286   */\n  dup4\n    /* \"#utility.yul\":1272:1290   */\n  mul\n    /* \"#utility.yul\":1311:1408   */\n  tag_38\n    /* \"#utility.yul\":1341:1407   */\n  0xffffffffffffffffffffffffffffffffffffffffffffffffffffffffffffffff\n    /* \"#utility.yul\":1330:1339   */\n  dup3\n    /* \"#utility.yul\":1311:1408   */\n  tag_12\n  jump\t// in\ntag_38:\n    /* \"#utility.yul\":1429:1468   */\n  tag_39\n    /* \"#utility.yul\":1459:1467   */\n  dup7\n    /* \"#utility.yul\":1448:1457   */\n  dup4\n    /* \"#utility.yul\":1429:1468   */\n  tag_12\n  jump\t// in\ntag_39:\n    /* \"#utility.yul\":1417:1468   */\n  swap6\n  pop\n    /* \"#utility.yul\":1501:1505   */\n  dup1\n    /* \"#utility.yul\":1497:1506   */\n  not\n    /* \"#utility.yul\":1490:1495   */\n  dup5\n    /* \"#utility.yul\":1486:1507   */\n  and\n    /* \"#utility.yul\":1477:1507   */\n  swap4\n  pop\n    /* \"#utility.yul\":1550:1554   */\n  dup1\n    /* \"#utility.yul\":1540:1548   */\n  dup7\n    /* \"#utility.yul\":1536:1555   */\n  and\n    /* \"#utility.yul\":1529:1534   */\n  dup5\n    /* \"#utility.yul\":1526:1556   */\n  or\n    /* \"#utility.yul\":1516:1556   */\n  swap3\n  pop\n    /* \"#utility.yul\":1245:1562   */\n  pop\n  pop\n    /* \"#utility.yul\":1169:1562   */\n  swap4\n  swap3\n  pop\n  pop\n  pop\n  jump\t// out\n    /* \"#utility.yul\":1568:1645   */\ntag_14:\n    /* \"#utility.yul\":1605:1612   */\n  0x00\n    /* \"#utility.yul\":1634:1639   */\n  dup2\n    /* \"#utility.yul\":1623:1639   */\n  swap1\n  pop\n    /* \"#utility.yul\":1568:1645   */\n  swap2\n  swap1\n  pop\n  jump\t// out\n    /* \"#utility.yul\":1651:1711   */\ntag_15:\n    /* \"#utility.yul\":1679:1682   */\n  0x00\n    /* \"#utility.yul\":1700:1705   */\n  dup2\n    /* \"#utility.yul\":1693:1705   */\n  swap1\n  pop\n    /* \"#utility.yul\":1651:1711   */\n  swap2\n  swap1\n  pop\n  jump\t// out\n    /* \"#utility.yul\":1717:1859   */\ntag_16:\n    /* \"#utility.yul\":1767:1776   */\n  0x00\n    /* \"#utility.yul\":1800:1853   */\n  tag_43\n    /* \"#utility.yul\":1818:1852   */\n  tag_44\n    /* \"#utility.yul\":1827:1851   */\n  tag_45\n    /* \"#utility.yul\":1845:1850   */\n  dup5\n    /* \"#utility.yul\":1827:1851   */\n  tag_14\n  jump\t// in\ntag_45:\n    /* \"#utility.yul\":1818:1852   */\n  tag_15\n  jump\t// in\ntag_44:\n    /* \"#utility.yul\":1800:1853   */\n  tag_14\n  jump\t// in\ntag_43:\n    /* \"#utility.yul\":1787:1853   */\n  swap1\n  pop\n    /* \"#utility.yul\":1717:1859   */\n  swap2\n  swap1\n  pop\n  jump\t// out\n    /* \"#utility.yul\":1865:1940   */\ntag_17:\n    /* \"#utility.yul\":1908:1911   */\n  0x00\n    /* \"#utility.yul\":1929:1934   */\n  dup2\n    /* \"#utility.yul\":1922:1934   */\n  swap1\n  pop\n    /* \"#utility.yul\":1865:1940   */\n  swap2\n  swap1\n  pop\n  jump\t// out\n    /* \"#utility.yul\":1946:2215   */\ntag_18:\n    /* \"#utility.yul\":2056:2095   */\n  tag_48\n    /* \"#utility.yul\":2087:2094   */\n  dup4\n    /* \"#utility.yul\":2056:2095   */\n  tag_16\n  jump\t// in\ntag_48:\n    /* \"#utility.yul\":2117:2208   */\n  tag_49\n    /* \"#utility.yul\":2166:2207   */\n  tag_50\n    /* \"#utility.yul\":2190:2206   */\n  dup3\n    /* \"#utility.yul\":2166:2207   */\n  tag_17\n  jump\t// in\ntag_50:\n    /* \"#utility.yul\":2158:2164   */\n  dup5\n    /* \"#utility.yul\":2151:2155   */\n  dup5\n    /* \"#utility.yul\":2145:2156   */\n  sload\n    /* \"#utility.yul\":2117:2208   */\n  tag_13\n  jump\t// in\ntag_49:\n    /* \"#utility.yul\":2111:2115   */\n  dup3\n    /* \"#utility.yul\":2104:2209   */\n  sstore\n    /* \"#utility.yul\":2022:2215   */\n  pop\n    /* \"#utility.yul\":1946:2215   */\n  pop\n  pop\n  pop\n  jump\t// out\n    /* \"#utility.yul\":2221:2294   */\ntag_19:\n    /* \"#utility.yul\":2266:2269   */\n  0x00\n    /* \"#utility.yul\":2287:2288   */\n  0x00\n    /* \"#utility.yul\":2280:2288   */\n  swap1\n  pop\n    /* \"#utility.yul\":2221:2294   */\n  swap1\n  jump\t// out\n    /* \"#utility.yul\":2300:2489   */\ntag_20:\n    /* \"#utility.yul\":2377:2409   */\n  tag_53\n  tag_19\n  jump\t// in\ntag_53:\n    /* \"#utility.yul\":2418:2483   */\n  tag_54\n    /* \"#utility.yul\":2476:2482   */\n  dup2\n    /* \"#utility.yul\":2468:2474   */\n  dup5\n    /* \"#utility.yul\":2462:2466   */\n  dup5\n    /* \"#utility.yul\":2418:2483   */\n  tag_18\n  jump\t// in\ntag_54:\n    /* \"#utility.yul\":2353:2489   */\n  pop\n    /* \"#utility.yul\":2300:2489   */\n  pop\n  pop\n  jump\t// out\n    /* \"#utility.yul\":2495:2681   */\ntag_21:\n    /* \"#utility.yul\":2555:2675   */\ntag_56:\n    /* \"#utility.yul\":2572:2575   */\n  dup2\n    /* \"#utility.yul\":2565:2570   */\n  dup2\n    /* \"#utility.yul\":2562:2576   */\n  lt\n    /* \"#utility.yul\":2555:2675   */\n  iszero\n  tag_58\n  jumpi\n    /* \"#utility.yul\":2626:2665   */\n  tag_59\n    /* \"#utility.yul\":2663:2664   */\n  0x00\n    /* \"#utility.yul\":2656:2661   */\n  dup3\n    /* \"#utility.yul\":2626:2665   */\n  tag_20\n  jump\t// in\ntag_59:\n    /* \"#utility.yul\":2599:2600   */\n  0x01\n    /* \"#utility.yul\":2592:2597   */\n  dup2\n    /* \"#utility.yul\":2588:2601   */\n  add\n    /* \"#utility.yul\":2579:2601   */\n  swap1\n  pop\n    /* \"#utility.yul\":2555:2675   */\n  jump(tag_56)\ntag_58:\n    /* \"#utility.yul\":2495:2681   */\n  pop\n  pop\n  jump\t// out\n    /* \"#utility.yul\":2687:3230   */\ntag_22:\n    /* \"#utility.yul\":2788:2790   */\n  0x1f\n    /* \"#utility.yul\":2783:2786   */\n  dup3\n    /* \"#utility.yul\":2780:2791   */\n  gt\n    /* \"#utility.yul\":2777:3223   */\n  iszero\n  tag_61\n  jumpi\n    /* \"#utility.yul\":2822:2860   */\n  tag_62\n    /* \"#utility.yul\":2854:2859   */\n  dup2\n    /* \"#utility.yul\":2822:2860   */\n  tag_10\n  jump\t// in\ntag_62:\n    /* \"#utility.yul\":2906:2935   */\n  tag_63\n    /* \"#utility.yul\":2924:2934   */\n  dup5\n    /* \"#utility.yul\":2906:2935   */\n  tag_11\n  jump\t// in\ntag_63:\n    /* \"#utility.yul\":2896:2904   */\n  dup2\n    /* \"#utility.yul\":2892:2936   */\n  add\n    /* \"#utility.yul\":3089:3091   */\n  0x20\n    /* \"#utility.yul\":3077:3087   */\n  dup6\n    /* \"#utility.yul\":3074:3092   */\n  lt\n    /* \"#utility.yul\":3071:3120   */\n  iszero\n  tag_64\n  jumpi\n    /* \"#utility.yul\":3110:3118   */\n  dup2\n    /* \"#utility.yul\":3095:3118   */\n  swap1\n  pop\n    /* \"#utility.yul\":3071:3120   */\ntag_64:\n    /* \"#utility.yul\":3133:3213   */\n  tag_65\n    /* \"#utility.yul\":3189:3211   */\n  tag_66\n    /* \"#utility.yul\":3207:3210   */\n  dup6\n    /* \"#utility.yul\":3189:3211   */\n  tag_11\n  jump\t// in\ntag_66:\n    /* \"#utility.yul\":3179:3187   */\n  dup4\n    /* \"#utility.yul\":3175:3212   */\n  add\n    /* \"#utility.yul\":3162:3173   */\n  dup3\n    /* \"#utility.yul\":3133:3213   */\n  tag_21\n  jump\t// in\ntag_65:\n    /* \"#utility.yul\":2792:3223   */\n  pop\n  pop\n    /* \"#utility.yul\":2777:3223   */\ntag_61:\n    /* \"#utility.yul\":2687:3230   */\n  pop\n  pop\n  pop\n  jump\t// out\n    /* \"#utility.yul\":3236:3353   */\ntag_23:\n    /* \"#utility.yul\":3290:3298   */\n  0x00\n    /* \"#utility.yul\":3340:3345   */\n  dup3\n    /* \"#utility.yul\":3334:3338   */\n  dup3\n    /* \"#utility.yul\":3330:3346   */\n  shr\n    /* \"#utility.yul\":3309:3346   */\n  swap1\n  pop\n    /* \"#utility.yul\":3236:3353   */\n  swap3\n  swap2\n  pop\n  pop\n  jump\t// out\n    /* \"#utility.yul\":3359:3528   */\ntag_24:\n    /* \"#utility.yul\":3403:3409   */\n  0x00\n    /* \"#utility.yul\":3436:3487   */\n  tag_69\n    /* \"#utility.yul\":3484:3485   */\n  0x00\n    /* \"#utility.yul\":3480:3486   */\n  not\n    /* \"#utility.yul\":3472:3477   */\n  dup5\n    /* \"#utility.yul\":3469:3470   */\n  0x08\n    /* \"#utility.yul\":3465:3478   */\n  mul\n    /* \"#utility.yul\":3436:3487   */\n  tag_23\n  jump\t// in\ntag_69:\n    /* \"#utility.yul\":3432:3488   */\n  not\n    /* \"#utility.yul\":3517:3521   */\n  dup1\n    /* \"#utility.yul\":3511:3515   */\n  dup4\n    /* \"#utility.yul\":3507:3522   */\n  and\n    /* \"#utility.yul\":3497:3522   */\n  swap2\n  pop\n    /* \"#utility.yul\":3410:3528   */\n  pop\n    /* \"#utility.yul\":3359:3528   */\n  swap3\n  swap2\n  pop\n  pop\n  jump\t// out\n    /* \"#utility.yul\":3533:3828   */\ntag_25:\n    /* \"#utility.yul\":3609:3613   */\n  0x00\n    /* \"#utility.yul\":3755:3784   */\n  tag_71\n    /* \"#utility.yul\":3780:3783   */\n  dup4\n    /* \"#utility.yul\":3774:3778   */\n  dup4\n    /* \"#utility.yul\":3755:3784   */\n  tag_24\n  jump\t// in\ntag_71:\n    /* \"#utility.yul\":3747:3784   */\n  swap2\n  pop\n    /* \"#utility.yul\":3817:3820   */\n  dup3\n    /* \"#utility.yul\":3814:3815   */\n  0x02\n    /* \"#utility.yul\":3810:3821   */\n  mul\n    /* \"#utility.yul\":3804:3808   */\n  dup3\n    /* \"#utility.yul\":3801:3822   */\n  or\n    /* \"#utility.yul\":3793:3822   */\n  swap1\n  pop\n    /* \"#utility.yul\":3533:3828   */\n  swap3\n  swap2\n  pop\n  pop\n  jump\t// out\n    /* \"#utility.yul\":3833:5228   */\ntag_2:\n    /* \"#utility.yul\":3950:3987   */\n  tag_73\n    /* \"#utility.yul\":3983:3986   */\n  dup3\n    /* \"#utility.yul\":3950:3987   */\n  tag_6\n  jump\t// in\ntag_73:\n    /* \"#utility.yul\":4052:4070   */\n  0xffffffffffffffff\n    /* \"#utility.yul\":4044:4050   */\n  dup2\n    /* \"#utility.yul\":4041:4071   */\n  gt\n    /* \"#utility.yul\":4038:4094   */\n  iszero\n  tag_74\n  jumpi\n    /* \"#utility.yul\":4074:4092   */\n  tag_75\n  tag_7\n  jump\t// in\ntag_75:\n    /* \"#utility.yul\":4038:4094   */\ntag_74:\n    /* \"#utility.yul\":4118:4156   */\n  tag_76\n    /* \"#utility.yul\":4150:4154   */\n  dup3\n    /* \"#utility.yul\":4144:4155   */\n  sload\n    /* \"#utility.yul\":4118:4156   */\n  tag_9\n  jump\t// in\ntag_76:\n    /* \"#utility.yul\":4203:4270   */\n  tag_77\n    /* \"#utility.yul\":4263:4269   */\n  dup3\n    /* \"#utility.yul\":4255:4261   */\n  dup3\n    /* \"#utility.yul\":4249:4253   */\n  dup6\n    /* \"#utility.yul\":4203:4270   */\n  tag_22\n  jump\t// in\ntag_77:\n    /* \"#utility.yul\":4297:4298   */\n  0x00\n    /* \"#utility.yul\":4321:4325   */\n  0x20\n    /* \"#utility.yul\":4308:4325   */\n  swap1\n  pop\n    /* \"#utility.yul\":4353:4355   */\n  0x1f\n    /* \"#utility.yul\":4345:4351   */\n  dup4\n    /* \"#utility.yul\":4342:4356   */\n  gt\n    /* \"#utility.yul\":4370:4371   */\n  0x01\n    /* \"#utility.yul\":4365:4983   */\n  dup2\n  eq\n  tag_79\n  jumpi\n    /* \"#utility.yul\":5027:5028   */\n  0x00\n    /* \"#utility.yul\":5044:5050   */\n  dup5\n    /* \"#utility.yul\":5041:5118   */\n  iszero\n  tag_80\n  jumpi\n    /* \"#utility.yul\":5093:5102   */\n  dup3\n    /* \"#utility.yul\":5088:5091   */\n  dup8\n    /* \"#utility.yul\":5084:5103   */\n  add\n    /* \"#utility.yul\":5078:5104   */\n  mload\n    /* \"#utility.yul\":5069:5104   */\n  swap1\n  pop\n    /* \"#utility.yul\":5041:5118   */\ntag_80:\n    /* \"#utility.yul\":5144:5211   */\n  tag_81\n    /* \"#utility.yul\":5204:5210   */\n  dup6\n    /* \"#utility.yul\":5197:5202   */\n  dup3\n    /* \"#utility.yul\":5144:5211   */\n  tag_25\n  jump\t// in\ntag_81:\n    /* \"#utility.yul\":5138:5142   */\n  dup7\n    /* \"#utility.yul\":5131:5212   */\n  sstore\n    /* \"#utility.yul\":5000:5222   */\n  pop\n    /* \"#utility.yul\":4335:5222   */\n  jump(tag_78)\n    /* \"#utility.yul\":4365:4983   */\ntag_79:\n    /* \"#utility.yul\":4417:4421   */\n  0x1f\n    /* \"#utility.yul\":4413:4422   */\n  not\n    /* \"#utility.yul\":4405:4411   */\n  dup5\n    /* \"#utility.yul\":4401:4423   */\n  and\n    /* \"#utility.yul\":4451:4488   */\n  tag_82\n    /* \"#utility.yul\":4483:4487   */\n  dup7\n    /* \"#utility.yul\":4451:4488   */\n  tag_10\n  jump\t// in\ntag_82:\n    /* \"#utility.yul\":4510:4511   */\n  0x00\n    /* \"#utility.yul\":4524:4732   */\ntag_83:\n    /* \"#utility.yul\":4538:4545   */\n  dup3\n    /* \"#utility.yul\":4535:4536   */\n  dup2\n    /* \"#utility.yul\":4532:4546   */\n  lt\n    /* \"#utility.yul\":4524:4732   */\n  iszero\n  tag_85\n  jumpi\n    /* \"#utility.yul\":4617:4626   */\n  dup5\n    /* \"#utility.yul\":4612:4615   */\n  dup10\n    /* \"#utility.yul\":4608:4627   */\n  add\n    /* \"#utility.yul\":4602:4628   */\n  mload\n    /* \"#utility.yul\":4594:4600   */\n  dup3\n    /* \"#utility.yul\":4587:4629   */\n  sstore\n    /* \"#utility.yul\":4668:4669   */\n  0x01\n    /* \"#utility.yul\":4660:4666   */\n  dup3\n    /* \"#utility.yul\":4656:4670   */\n  add\n    /* \"#utility.yul\":4646:4670   */\n  swap2\n  pop\n    /* \"#utility.yul\":4715:4717   */\n  0x20\n    /* \"#utility.yul\":4704:4713   */\n  dup6\n    /* \"#utility.yul\":4700:4718   */\n  add\n    /* \"#utility.yul\":4687:4718   */\n  swap5\n  pop\n    /* \"#utility.yul\":4561:4565   */\n  0x20\n    /* \"#utility.yul\":4558:4559   */\n  dup2\n    /* \"#utility.yul\":4554:4566   */\n  add\n    /* \"#utility.yul\":4549:4566   */\n  swap1\n  pop\n    /* \"#utility.yul\":4524:4732   */\n  jump(tag_83)\ntag_85:\n    /* \"#utility.yul\":4760:4766   */\n  dup7\n    /* \"#utility.yul\":4751:4758   */\n  dup4\n    /* \"#utility.yul\":4748:4767   */\n  lt\n    /* \"#utility.yul\":4745:4924   */\n  iszero\n  tag_86\n  jumpi\n    /* \"#utility.yul\":4818:4827   */\n  dup5\n    /* \"#utility.yul\":4813:4816   */\n  dup10\n    /* \"#utility.yul\":4809:4828   */\n  add\n    /* \"#utility.yul\":4803:4829   */\n  mload\n    /* \"#utility.yul\":4861:4909   */\n  tag_87\n    /* \"#utility.yul\":4903:4907   */\n  0x1f\n    /* \"#utility.yul\":4895:4901   */\n  dup10\n    /* \"#utility.yul\":4891:4908   */\n  and\n    /* \"#utility.yul\":4880:4889   */\n  dup3\n    /* \"#utility.yul\":4861:4909   */\n  tag_24\n  jump\t// in\ntag_87:\n    /* \"#utility.yul\":4853:4859   */\n  dup4\n    /* \"#utility.yul\":4846:4910   */\n  sstore\n    /* \"#utility.yul\":4768:4924   */\n  pop\n    /* \"#utility.yul\":4745:4924   */\ntag_86:\n    /* \"#utility.yul\":4970:4971   */\n  0x01\n    /* \"#utility.yul\":4966:4967   */\n  0x02\n    /* \"#utility.yul\":4958:4964   */\n  dup9\n    /* \"#utility.yul\":4954:4968   */\n  mul\n    /* \"#utility.yul\":4950:4972   */\n  add\n    /* \"#utility.yul\":4944:4948   */\n  dup9\n    /* \"#utility.yul\":4937:4973   */\n  sstore\n    /* \"#utility.yul\":4372:4983   */\n  pop\n  pop\n  pop\n    /* \"#utility.yul\":4335:5222   */\ntag_78:\n  pop\n    /* \"#utility.yul\":3925:5228   */\n  pop\n  pop\n  pop\n    /* \"#utility.yul\":3833:5228   */\n  pop\n  pop\n  jump\t// out\n    /* \"solidity.sol\":68:7413  contract test{... */\ntag_5:\n  dataSize(sub_0)\n  dup1\n  dataOffset(sub_0)\n  0x00\n  codecopy\n  0x00\n  return\nstop\n\nsub_0: assembly {\n        /* \"solidity.sol\":68:7413  contract test{... */\n      mstore(0x40, 0x80)\n      jumpi(tag_1, lt(calldatasize, 0x04))\n      shr(0xe0, calldataload(0x00))\n      dup1\n      0x7499854e\n      gt\n      tag_38\n      jumpi\n      dup1\n      0xcb737b50\n      gt\n      tag_39\n      jumpi\n      dup1\n      0xdc75bec7\n      gt\n      tag_40\n      jumpi\n      dup1\n      0xdc75bec7\n      eq\n      tag_33\n      jumpi\n      dup1\n      0xdeafcc41\n      eq\n      tag_34\n      jumpi\n      dup1\n      0xed481113\n      eq\n      tag_35\n      jumpi\n      dup1\n      0xeda1d252\n      eq\n      tag_36\n      jumpi\n      dup1\n      0xedb046dc\n      eq\n      tag_37\n      jumpi\n      jump(tag_1)\n    tag_40:\n      dup1\n      0xcb737b50\n      eq\n      tag_29\n      jumpi\n      dup1\n      0xd080bd88\n      eq\n      tag_30\n      jumpi\n      dup1\n      0xd37e5104\n      eq\n      tag_31\n      jumpi\n      dup1\n      0xdaf55985\n      eq\n      tag_32\n      jumpi\n      jump(tag_1)\n    tag_39:\n      dup1\n      0x8a9db001\n      gt\n      tag_41\n      jumpi\n      dup1\n      0x8a9db001\n      eq\n      tag_24\n      jumpi\n      dup1\n      0x960e3e17\n      eq\n      tag_25\n      jumpi\n      dup1\n      0x9fb76f1b\n      eq\n      tag_26\n      jumpi\n      dup1\n      0xac5beef9\n      eq\n      tag_27\n      jumpi\n      dup1\n      0xc19d93fb\n      eq\n      tag_28\n      jumpi\n      jump(tag_1)\n    tag_41:\n      dup1\n      0x7499854e\n      eq\n      tag_20\n      jumpi\n      dup1\n      0x826da11d\n      eq\n      tag_21\n      jumpi\n      dup1\n      0x83197ef0\n      eq\n      tag_22\n      jumpi\n      dup1\n      0x88aa112b\n      eq\n      tag_23\n      jumpi\n      jump(tag_1)\n    tag_38:\n      dup1\n      0x32af93f7\n      gt\n      tag_42\n      jumpi\n      dup1\n      0x5ae6c085\n      gt\n      tag_43\n      jumpi\n      dup1\n      0x5ae6c085\n      eq\n      tag_15\n      jumpi\n      dup1\n      0x5ec01e4d\n      eq\n      tag_16\n      jumpi\n      dup1\n      0x61bc221a\n      eq\n      tag_17\n      jumpi\n      dup1\n      0x65eaca04\n      eq\n      tag_18\n      jumpi\n      dup1\n      0x72f9b22e\n      eq\n      tag_19\n      jumpi\n      jump(tag_1)\n    tag_43:\n      dup1\n      0x32af93f7\n      eq\n      tag_11\n      jumpi\n      dup1\n      0x4eeca076\n      eq\n      tag_12\n      jumpi\n      dup1\n      0x4fb8aaf4\n      eq\n      tag_13\n      jumpi\n      dup1\n      0x53946c2c\n      eq\n      tag_14\n      jumpi\n      jump(tag_1)\n    tag_42:\n      dup1\n      0x2480cad4\n      gt\n      tag_44\n      jumpi\n      dup1\n      0x2480cad4\n      eq\n      tag_6\n      jumpi\n      dup1\n      0x27b8a349\n      eq\n      tag_7\n      jumpi\n      dup1\n      0x29f789e9\n      eq\n      tag_8\n      jumpi\n      dup1\n      0x2d5d677b\n      eq\n      tag_9\n      jumpi\n      dup1\n      0x2fdbbb9b\n      eq\n      tag_10\n      jumpi\n      jump(tag_1)\n    tag_44:\n      dup1\n      0x08b9a761\n      eq\n      tag_2\n      jumpi\n      dup1\n      0x1882fc11\n      eq\n      tag_3\n      jumpi\n      dup1\n      0x1ccb95ea\n      eq\n      tag_4\n      jumpi\n      dup1\n      0x1f5b1b48\n      eq\n      tag_5\n      jumpi\n    tag_1:\n      revert(0x00, 0x00)\n        /* \"solidity.sol\":1882:1923  mapping (address => Person) public myInfo */\n    tag_2:\n      callvalue\n      dup1\n      iszero\n      tag_45\n      jumpi\n      revert(0x00, 0x00)\n    tag_45:\n      pop\n      tag_46\n      0x04\n      dup1\n      calldatasize\n      sub\n      dup2\n      add\n      swap1\n      tag_47\n      swap2\n      swap1\n      tag_48\n      jump\t// in\n    tag_47:\n      tag_49\n      jump\t// in\n    tag_46:\n      mload(0x40)\n      tag_50\n      swap3\n      swap2\n      swap1\n      tag_51\n      jump\t// in\n    tag_50:\n      mload(0x40)\n      dup1\n      swap2\n      sub\n      swap1\n      return\n        /* \"solidity.sol\":2822:2846  bytes public _bytesArray */\n    tag_3:\n      callvalue\n      dup1\n      iszero\n      tag_52\n      jumpi\n      revert(0x00, 0x00)\n    tag_52:\n      pop\n      tag_53\n      tag_54\n      jump\t// in\n    tag_53:\n      mload(0x40)\n      tag_55\n      swap2\n      swap1\n      tag_56\n      jump\t// in\n    tag_55:\n      mload(0x40)\n      dup1\n      swap2\n      sub\n      swap1\n      return\n        /* \"solidity.sol\":4249:4448  function agregarValor(uint16 _agregar) public {... */\n    tag_4:\n      callvalue\n      dup1\n      iszero\n      tag_57\n      jumpi\n      revert(0x00, 0x00)\n    tag_57:\n      pop\n      tag_58\n      0x04\n      dup1\n      calldatasize\n      sub\n      dup2\n      add\n      swap1\n      tag_59\n      swap2\n      swap1\n      tag_60\n      jump\t// in\n    tag_59:\n      tag_61\n      jump\t// in\n    tag_58:\n      stop\n        /* \"solidity.sol\":6690:7034  function revertir(bool _choice) external {... */\n    tag_5:\n      callvalue\n      dup1\n      iszero\n      tag_62\n      jumpi\n      revert(0x00, 0x00)\n    tag_62:\n      pop\n      tag_63\n      0x04\n      dup1\n      calldatasize\n      sub\n      dup2\n      add\n      swap1\n      tag_64\n      swap2\n      swap1\n      tag_65\n      jump\t// in\n    tag_64:\n      tag_66\n      jump\t// in\n    tag_63:\n      stop\n        /* \"solidity.sol\":2789:2815  bytes2 public _bytes2=\"ab\" */\n    tag_6:\n      callvalue\n      dup1\n      iszero\n      tag_67\n      jumpi\n      revert(0x00, 0x00)\n    tag_67:\n      pop\n      tag_68\n      tag_69\n      jump\t// in\n    tag_68:\n      mload(0x40)\n      tag_70\n      swap2\n      swap1\n      tag_71\n      jump\t// in\n    tag_70:\n      mload(0x40)\n      dup1\n      swap2\n      sub\n      swap1\n      return\n        /* \"solidity.sol\":4614:4640  uint32[] public referencia */\n    tag_7:\n      callvalue\n      dup1\n      iszero\n      tag_72\n      jumpi\n      revert(0x00, 0x00)\n    tag_72:\n      pop\n      tag_73\n      0x04\n      dup1\n      calldatasize\n      sub\n      dup2\n      add\n      swap1\n      tag_74\n      swap2\n      swap1\n      tag_75\n      jump\t// in\n    tag_74:\n      tag_76\n      jump\t// in\n    tag_73:\n      mload(0x40)\n      tag_77\n      swap2\n      swap1\n      tag_78\n      jump\t// in\n    tag_77:\n      mload(0x40)\n      dup1\n      swap2\n      sub\n      swap1\n      return\n        /* \"solidity.sol\":2757:2782  bytes1 public _bytes1=\"a\" */\n    tag_8:\n      callvalue\n      dup1\n      iszero\n      tag_79\n      jumpi\n      revert(0x00, 0x00)\n    tag_79:\n      pop\n      tag_80\n      tag_81\n      jump\t// in\n    tag_80:\n      mload(0x40)\n      tag_82\n      swap2\n      swap1\n      tag_83\n      jump\t// in\n    tag_82:\n      mload(0x40)\n      dup1\n      swap2\n      sub\n      swap1\n      return\n        /* \"solidity.sol\":2214:2521  function cargarDatosArray(string calldata _name, uint256 _id) external {... */\n    tag_9:\n      callvalue\n      dup1\n      iszero\n      tag_84\n      jumpi\n      revert(0x00, 0x00)\n    tag_84:\n      pop\n      tag_85\n      0x04\n      dup1\n      calldatasize\n      sub\n      dup2\n      add\n      swap1\n      tag_86\n      swap2\n      swap1\n      tag_87\n      jump\t// in\n    tag_86:\n      tag_88\n      jump\t// in\n    tag_85:\n      stop\n        /* \"solidity.sol\":6170:6344  function mensaje() external view returns(bytes memory,uint256,bytes4){... */\n    tag_10:\n      callvalue\n      dup1\n      iszero\n      tag_89\n      jumpi\n      revert(0x00, 0x00)\n    tag_89:\n      pop\n      tag_90\n      tag_91\n      jump\t// in\n    tag_90:\n      mload(0x40)\n      tag_92\n      swap4\n      swap3\n      swap2\n      swap1\n      tag_93\n      jump\t// in\n    tag_92:\n      mload(0x40)\n      dup1\n      swap2\n      sub\n      swap1\n      return\n        /* \"solidity.sol\":5207:5475  function comparar(string calldata a, string calldata b) pure external returns (string memory) {... */\n    tag_11:\n      callvalue\n      dup1\n      iszero\n      tag_94\n      jumpi\n      revert(0x00, 0x00)\n    tag_94:\n      pop\n      tag_95\n      0x04\n      dup1\n      calldatasize\n      sub\n      dup2\n      add\n      swap1\n      tag_96\n      swap2\n      swap1\n      tag_97\n      jump\t// in\n    tag_96:\n      tag_98\n      jump\t// in\n    tag_95:\n      mload(0x40)\n      tag_99\n      swap2\n      swap1\n      tag_100\n      jump\t// in\n    tag_99:\n      mload(0x40)\n      dup1\n      swap2\n      sub\n      swap1\n      return\n        /* \"solidity.sol\":666:781  function Counter() external {... */\n    tag_12:\n      callvalue\n      dup1\n      iszero\n      tag_101\n      jumpi\n      revert(0x00, 0x00)\n    tag_101:\n      pop\n      tag_102\n      tag_103\n      jump\t// in\n    tag_102:\n      stop\n        /* \"solidity.sol\":6350:6441  function valueSent() external payable returns(uint256){... */\n    tag_13:\n      tag_104\n      tag_105\n      jump\t// in\n    tag_104:\n      mload(0x40)\n      tag_106\n      swap2\n      swap1\n      tag_107\n      jump\t// in\n    tag_106:\n      mload(0x40)\n      dup1\n      swap2\n      sub\n      swap1\n      return\n        /* \"solidity.sol\":2631:2734  function getMyInfoArray() external view returns (Person[] memory) {... */\n    tag_14:\n      callvalue\n      dup1\n      iszero\n      tag_108\n      jumpi\n      revert(0x00, 0x00)\n    tag_108:\n      pop\n      tag_109\n      tag_110\n      jump\t// in\n    tag_109:\n      mload(0x40)\n      tag_111\n      swap2\n      swap1\n      tag_112\n      jump\t// in\n    tag_111:\n      mload(0x40)\n      dup1\n      swap2\n      sub\n      swap1\n      return\n        /* \"solidity.sol\":5514:5676  function bloque() view external returns(uint256,uint256,uint256,address){... */\n    tag_15:\n      callvalue\n      dup1\n      iszero\n      tag_113\n      jumpi\n      revert(0x00, 0x00)\n    tag_113:\n      pop\n      tag_114\n      tag_115\n      jump\t// in\n    tag_114:\n      mload(0x40)\n      tag_116\n      swap5\n      swap4\n      swap3\n      swap2\n      swap1\n      tag_117\n      jump\t// in\n    tag_116:\n      mload(0x40)\n      dup1\n      swap2\n      sub\n      swap1\n      return\n        /* \"solidity.sol\":5750:5945  function random() view external returns(uint256){... */\n    tag_16:\n      callvalue\n      dup1\n      iszero\n      tag_118\n      jumpi\n      revert(0x00, 0x00)\n    tag_118:\n      pop\n      tag_119\n      tag_120\n      jump\t// in\n    tag_119:\n      mload(0x40)\n      tag_121\n      swap2\n      swap1\n      tag_107\n      jump\t// in\n    tag_121:\n      mload(0x40)\n      dup1\n      swap2\n      sub\n      swap1\n      return\n        /* \"solidity.sol\":88:110  uint256 public counter */\n    tag_17:\n      callvalue\n      dup1\n      iszero\n      tag_122\n      jumpi\n      revert(0x00, 0x00)\n    tag_122:\n      pop\n      tag_123\n      tag_124\n      jump\t// in\n    tag_123:\n      mload(0x40)\n      tag_125\n      swap2\n      swap1\n      tag_107\n      jump\t// in\n    tag_125:\n      mload(0x40)\n      dup1\n      swap2\n      sub\n      swap1\n      return\n        /* \"solidity.sol\":1096:1289  function transferEtherAny() external {... */\n    tag_18:\n      callvalue\n      dup1\n      iszero\n      tag_126\n      jumpi\n      revert(0x00, 0x00)\n    tag_126:\n      pop\n      tag_127\n      tag_128\n      jump\t// in\n    tag_127:\n      stop\n        /* \"solidity.sol\":1932:2086  function cargarDatos(string calldata _name, uint256 _id) external {... */\n    tag_19:\n      callvalue\n      dup1\n      iszero\n      tag_129\n      jumpi\n      revert(0x00, 0x00)\n    tag_129:\n      pop\n      tag_130\n      0x04\n      dup1\n      calldatasize\n      sub\n      dup2\n      add\n      swap1\n      tag_131\n      swap2\n      swap1\n      tag_87\n      jump\t// in\n    tag_131:\n      tag_132\n      jump\t// in\n    tag_130:\n      stop\n        /* \"solidity.sol\":5988:6131  function transaccion() external view returns (uint256, address) {... */\n    tag_20:\n      callvalue\n      dup1\n      iszero\n      tag_133\n      jumpi\n      revert(0x00, 0x00)\n    tag_133:\n      pop\n      tag_134\n      tag_135\n      jump\t// in\n    tag_134:\n      mload(0x40)\n      tag_136\n      swap3\n      swap2\n      swap1\n      tag_137\n      jump\t// in\n    tag_136:\n      mload(0x40)\n      dup1\n      swap2\n      sub\n      swap1\n      return\n        /* \"solidity.sol\":3256:3482  function compararTiempo(bool _choice) external pure returns(bool)... */\n    tag_21:\n      callvalue\n      dup1\n      iszero\n      tag_138\n      jumpi\n      revert(0x00, 0x00)\n    tag_138:\n      pop\n      tag_139\n      0x04\n      dup1\n      calldatasize\n      sub\n      dup2\n      add\n      swap1\n      tag_140\n      swap2\n      swap1\n      tag_65\n      jump\t// in\n    tag_140:\n      tag_141\n      jump\t// in\n    tag_139:\n      mload(0x40)\n      tag_142\n      swap2\n      swap1\n      tag_143\n      jump\t// in\n    tag_142:\n      mload(0x40)\n      dup1\n      swap2\n      sub\n      swap1\n      return\n        /* \"solidity.sol\":6560:6642  function destroy() external {... */\n    tag_22:\n      callvalue\n      dup1\n      iszero\n      tag_144\n      jumpi\n      revert(0x00, 0x00)\n    tag_144:\n      pop\n      tag_145\n      tag_146\n      jump\t// in\n    tag_145:\n      stop\n        /* \"solidity.sol\":1526:1757  function transferEtherOwner() external onlyOwner {... */\n    tag_23:\n      callvalue\n      dup1\n      iszero\n      tag_147\n      jumpi\n      revert(0x00, 0x00)\n    tag_147:\n      pop\n      tag_148\n      tag_149\n      jump\t// in\n    tag_148:\n      stop\n        /* \"solidity.sol\":4875:5108  function modificarCurso(bytes1 _letra) external {... */\n    tag_24:\n      callvalue\n      dup1\n      iszero\n      tag_150\n      jumpi\n      revert(0x00, 0x00)\n    tag_150:\n      pop\n      tag_151\n      0x04\n      dup1\n      calldatasize\n      sub\n      dup2\n      add\n      swap1\n      tag_152\n      swap2\n      swap1\n      tag_153\n      jump\t// in\n    tag_152:\n      tag_154\n      jump\t// in\n    tag_151:\n      stop\n        /* \"solidity.sol\":4649:4799  function modificarReferencia(uint32 _number) external {... */\n    tag_25:\n      callvalue\n      dup1\n      iszero\n      tag_155\n      jumpi\n      revert(0x00, 0x00)\n    tag_155:\n      pop\n      tag_156\n      0x04\n      dup1\n      calldatasize\n      sub\n      dup2\n      add\n      swap1\n      tag_157\n      swap2\n      swap1\n      tag_158\n      jump\t// in\n    tag_157:\n      tag_159\n      jump\t// in\n    tag_156:\n      stop\n        /* \"solidity.sol\":2178:2205  Person[] public myInfoArray */\n    tag_26:\n      callvalue\n      dup1\n      iszero\n      tag_160\n      jumpi\n      revert(0x00, 0x00)\n    tag_160:\n      pop\n      tag_161\n      0x04\n      dup1\n      calldatasize\n      sub\n      dup2\n      add\n      swap1\n      tag_162\n      swap2\n      swap1\n      tag_75\n      jump\t// in\n    tag_162:\n      tag_163\n      jump\t// in\n    tag_161:\n      mload(0x40)\n      tag_164\n      swap3\n      swap2\n      swap1\n      tag_51\n      jump\t// in\n    tag_164:\n      mload(0x40)\n      dup1\n      swap2\n      sub\n      swap1\n      return\n        /* \"solidity.sol\":3070:3248  function sumaConstante() external pure returns(uint256){... */\n    tag_27:\n      callvalue\n      dup1\n      iszero\n      tag_165\n      jumpi\n      revert(0x00, 0x00)\n    tag_165:\n      pop\n      tag_166\n      tag_167\n      jump\t// in\n    tag_166:\n      mload(0x40)\n      tag_168\n      swap2\n      swap1\n      tag_107\n      jump\t// in\n    tag_168:\n      mload(0x40)\n      dup1\n      swap2\n      sub\n      swap1\n      return\n        /* \"solidity.sol\":3952:3971  Estado public state */\n    tag_28:\n      callvalue\n      dup1\n      iszero\n      tag_169\n      jumpi\n      revert(0x00, 0x00)\n    tag_169:\n      pop\n      tag_170\n      tag_171\n      jump\t// in\n    tag_170:\n      mload(0x40)\n      tag_172\n      swap2\n      swap1\n      tag_173\n      jump\t// in\n    tag_172:\n      mload(0x40)\n      dup1\n      swap2\n      sub\n      swap1\n      return\n        /* \"solidity.sol\":363:482  function intLimits() external pure returns (int8,int8) {... */\n    tag_29:\n      callvalue\n      dup1\n      iszero\n      tag_174\n      jumpi\n      revert(0x00, 0x00)\n    tag_174:\n      pop\n      tag_175\n      tag_176\n      jump\t// in\n    tag_175:\n      mload(0x40)\n      tag_177\n      swap3\n      swap2\n      swap1\n      tag_178\n      jump\t// in\n    tag_177:\n      mload(0x40)\n      dup1\n      swap2\n      sub\n      swap1\n      return\n        /* \"solidity.sol\":4215:4242  uint16[] public valuePushed */\n    tag_30:\n      callvalue\n      dup1\n      iszero\n      tag_179\n      jumpi\n      revert(0x00, 0x00)\n    tag_179:\n      pop\n      tag_180\n      0x04\n      dup1\n      calldatasize\n      sub\n      dup2\n      add\n      swap1\n      tag_181\n      swap2\n      swap1\n      tag_75\n      jump\t// in\n    tag_181:\n      tag_182\n      jump\t// in\n    tag_180:\n      mload(0x40)\n      tag_183\n      swap2\n      swap1\n      tag_184\n      jump\t// in\n    tag_183:\n      mload(0x40)\n      dup1\n      swap2\n      sub\n      swap1\n      return\n        /* \"solidity.sol\":3978:4165  function toggleState() external {... */\n    tag_31:\n      callvalue\n      dup1\n      iszero\n      tag_185\n      jumpi\n      revert(0x00, 0x00)\n    tag_185:\n      pop\n      tag_186\n      tag_187\n      jump\t// in\n    tag_186:\n      stop\n        /* \"solidity.sol\":7147:7408  function varArrMem(uint256 _i) external pure returns(uint256[] memory,uint256) {... */\n    tag_32:\n      callvalue\n      dup1\n      iszero\n      tag_188\n      jumpi\n      revert(0x00, 0x00)\n    tag_188:\n      pop\n      tag_189\n      0x04\n      dup1\n      calldatasize\n      sub\n      dup2\n      add\n      swap1\n      tag_190\n      swap2\n      swap1\n      tag_75\n      jump\t// in\n    tag_190:\n      tag_191\n      jump\t// in\n    tag_189:\n      mload(0x40)\n      tag_192\n      swap3\n      swap2\n      swap1\n      tag_193\n      jump\t// in\n    tag_192:\n      mload(0x40)\n      dup1\n      swap2\n      sub\n      swap1\n      return\n        /* \"solidity.sol\":525:626  function underflow() external pure returns (int8) {... */\n    tag_33:\n      callvalue\n      dup1\n      iszero\n      tag_194\n      jumpi\n      revert(0x00, 0x00)\n    tag_194:\n      pop\n      tag_195\n      tag_196\n      jump\t// in\n    tag_195:\n      mload(0x40)\n      tag_197\n      swap2\n      swap1\n      tag_198\n      jump\t// in\n    tag_197:\n      mload(0x40)\n      dup1\n      swap2\n      sub\n      swap1\n      return\n        /* \"solidity.sol\":4834:4866  string public curso=\"Blockchain\" */\n    tag_34:\n      callvalue\n      dup1\n      iszero\n      tag_199\n      jumpi\n      revert(0x00, 0x00)\n    tag_199:\n      pop\n      tag_200\n      tag_201\n      jump\t// in\n    tag_200:\n      mload(0x40)\n      tag_202\n      swap2\n      swap1\n      tag_100\n      jump\t// in\n    tag_202:\n      mload(0x40)\n      dup1\n      swap2\n      sub\n      swap1\n      return\n        /* \"solidity.sol\":2899:3027  function _bytes3Setter(bytes calldata _byteArray) external { // ver memory vs calldata... */\n    tag_35:\n      callvalue\n      dup1\n      iszero\n      tag_203\n      jumpi\n      revert(0x00, 0x00)\n    tag_203:\n      pop\n      tag_204\n      0x04\n      dup1\n      calldatasize\n      sub\n      dup2\n      add\n      swap1\n      tag_205\n      swap2\n      swap1\n      tag_206\n      jump\t// in\n    tag_205:\n      tag_207\n      jump\t// in\n    tag_204:\n      stop\n        /* \"solidity.sol\":931:1053  function underflow2() external pure returns (uint16) {... */\n    tag_36:\n      callvalue\n      dup1\n      iszero\n      tag_208\n      jumpi\n      revert(0x00, 0x00)\n    tag_208:\n      pop\n      tag_209\n      tag_210\n      jump\t// in\n    tag_209:\n      mload(0x40)\n      tag_211\n      swap2\n      swap1\n      tag_184\n      jump\t// in\n    tag_211:\n      mload(0x40)\n      dup1\n      swap2\n      sub\n      swap1\n      return\n        /* \"solidity.sol\":3490:3742  function compararMoneda(bool _choice) external pure returns(bool)... */\n    tag_37:\n      callvalue\n      dup1\n      iszero\n      tag_212\n      jumpi\n      revert(0x00, 0x00)\n    tag_212:\n      pop\n      tag_213\n      0x04\n      dup1\n      calldatasize\n      sub\n      dup2\n      add\n      swap1\n      tag_214\n      swap2\n      swap1\n      tag_65\n      jump\t// in\n    tag_214:\n      tag_215\n      jump\t// in\n    tag_213:\n      mload(0x40)\n      tag_216\n      swap2\n      swap1\n      tag_143\n      jump\t// in\n    tag_216:\n      mload(0x40)\n      dup1\n      swap2\n      sub\n      swap1\n      return\n        /* \"solidity.sol\":1882:1923  mapping (address => Person) public myInfo */\n    tag_49:\n      mstore(0x20, 0x02)\n      dup1\n      0x00\n      mstore\n      keccak256(0x00, 0x40)\n      0x00\n      swap2\n      pop\n      swap1\n      pop\n      dup1\n      0x00\n      add\n      dup1\n      sload\n      tag_217\n      swap1\n      tag_218\n      jump\t// in\n    tag_217:\n      dup1\n      0x1f\n      add\n      0x20\n      dup1\n      swap2\n      div\n      mul\n      0x20\n      add\n      mload(0x40)\n      swap1\n      dup2\n      add\n      0x40\n      mstore\n      dup1\n      swap3\n      swap2\n      swap1\n      dup2\n      dup2\n      mstore\n      0x20\n      add\n      dup3\n      dup1\n      sload\n      tag_219\n      swap1\n      tag_218\n      jump\t// in\n    tag_219:\n      dup1\n      iszero\n      tag_220\n      jumpi\n      dup1\n      0x1f\n      lt\n      tag_221\n      jumpi\n      0x0100\n      dup1\n      dup4\n      sload\n      div\n      mul\n      dup4\n      mstore\n      swap2\n      0x20\n      add\n      swap2\n      jump(tag_220)\n    tag_221:\n      dup3\n      add\n      swap2\n      swap1\n      0x00\n      mstore\n      keccak256(0x00, 0x20)\n      swap1\n    tag_222:\n      dup2\n      sload\n      dup2\n      mstore\n      swap1\n      0x01\n      add\n      swap1\n      0x20\n      add\n      dup1\n      dup4\n      gt\n      tag_222\n      jumpi\n      dup3\n      swap1\n      sub\n      0x1f\n      and\n      dup3\n      add\n      swap2\n    tag_220:\n      pop\n      pop\n      pop\n      pop\n      pop\n      swap1\n      dup1\n      0x01\n      add\n      sload\n      swap1\n      pop\n      dup3\n      jump\t// out\n        /* \"solidity.sol\":2822:2846  bytes public _bytesArray */\n    tag_54:\n      0x05\n      dup1\n      sload\n      tag_223\n      swap1\n      tag_218\n      jump\t// in\n    tag_223:\n      dup1\n      0x1f\n      add\n      0x20\n      dup1\n      swap2\n      div\n      mul\n      0x20\n      add\n      mload(0x40)\n      swap1\n      dup2\n      add\n      0x40\n      mstore\n      dup1\n      swap3\n      swap2\n      swap1\n      dup2\n      dup2\n      mstore\n      0x20\n      add\n      dup3\n      dup1\n      sload\n      tag_224\n      swap1\n      tag_218\n      jump\t// in\n    tag_224:\n      dup1\n      iszero\n      tag_225\n      jumpi\n      dup1\n      0x1f\n      lt\n      tag_226\n      jumpi\n      0x0100\n      dup1\n      dup4\n      sload\n      div\n      mul\n      dup4\n      mstore\n      swap2\n      0x20\n      add\n      swap2\n      jump(tag_225)\n    tag_226:\n      dup3\n      add\n      swap2\n      swap1\n      0x00\n      mstore\n      keccak256(0x00, 0x20)\n      swap1\n    tag_227:\n      dup2\n      sload\n      dup2\n      mstore\n      swap1\n      0x01\n      add\n      swap1\n      0x20\n      add\n      dup1\n      dup4\n      gt\n      tag_227\n      jumpi\n      dup3\n      swap1\n      sub\n      0x1f\n      and\n      dup3\n      add\n      swap2\n    tag_225:\n      pop\n      pop\n      pop\n      pop\n      pop\n      dup2\n      jump\t// out\n        /* \"solidity.sol\":4249:4448  function agregarValor(uint16 _agregar) public {... */\n    tag_61:\n        /* \"solidity.sol\":4306:4317  valuePushed */\n      0x07\n        /* \"solidity.sol\":4323:4331  _agregar */\n      dup2\n        /* \"solidity.sol\":4306:4332  valuePushed.push(_agregar) */\n      swap1\n      dup1\n      0x01\n      dup2\n      sload\n      add\n      dup1\n      dup3\n      sstore\n      dup1\n      swap2\n      pop\n      pop\n      0x01\n      swap1\n      sub\n      swap1\n      0x00\n      mstore\n      keccak256(0x00, 0x20)\n      swap1\n      0x10\n      swap2\n      dup3\n      dup3\n      div\n      add\n      swap2\n      swap1\n      mod\n      0x02\n      mul\n      swap1\n      swap2\n      swap1\n      swap2\n      swap1\n      swap2\n      0x0100\n      exp\n      dup2\n      sload\n      dup2\n      0xffff\n      mul\n      not\n      and\n      swap1\n      dup4\n      0xffff\n      and\n      mul\n      or\n      swap1\n      sstore\n      pop\n        /* \"solidity.sol\":4249:4448  function agregarValor(uint16 _agregar) public {... */\n      pop\n      jump\t// out\n        /* \"solidity.sol\":6690:7034  function revertir(bool _choice) external {... */\n    tag_66:\n        /* \"solidity.sol\":6745:6752  _choice */\n      dup1\n        /* \"solidity.sol\":6742:6869  if(_choice) {... */\n      iszero\n      tag_231\n      jumpi\n        /* \"solidity.sol\":6779:6780  0 */\n      0x00\n        /* \"solidity.sol\":6776:6777  1 */\n      0x01\n        /* \"solidity.sol\":6776:6780  1==0 */\n      eq\n        /* \"solidity.sol\":6769:6781  assert(1==0) */\n      tag_232\n      jumpi\n      tag_233\n      tag_234\n      jump\t// in\n    tag_233:\n    tag_232:\n        /* \"solidity.sol\":6742:6869  if(_choice) {... */\n      jump(tag_235)\n    tag_231:\n        /* \"solidity.sol\":6834:6835  0 */\n      0x00\n        /* \"solidity.sol\":6831:6832  1 */\n      0x01\n        /* \"solidity.sol\":6831:6835  1==0 */\n      eq\n        /* \"solidity.sol\":6823:6857  require(1==0, \"1 no es igual a 0\") */\n      tag_236\n      jumpi\n      mload(0x40)\n      0x08c379a000000000000000000000000000000000000000000000000000000000\n      dup2\n      mstore\n      0x04\n      add\n      tag_237\n      swap1\n      tag_238\n      jump\t// in\n    tag_237:\n      mload(0x40)\n      dup1\n      swap2\n      sub\n      swap1\n      revert\n    tag_236:\n        /* \"solidity.sol\":6742:6869  if(_choice) {... */\n    tag_235:\n        /* \"solidity.sol\":6879:6886  counter */\n      0x00\n      0x00\n        /* \"solidity.sol\":6879:6888  counter++ */\n      dup2\n      sload\n      dup1\n      swap3\n      swap2\n      swap1\n      tag_239\n      swap1\n      tag_240\n      jump\t// in\n    tag_239:\n      swap2\n      swap1\n      pop\n      sstore\n      pop\n        /* \"solidity.sol\":6690:7034  function revertir(bool _choice) external {... */\n      pop\n      jump\t// out\n        /* \"solidity.sol\":2789:2815  bytes2 public _bytes2=\"ab\" */\n    tag_69:\n      0x04\n      0x01\n      swap1\n      sload\n      swap1\n      0x0100\n      exp\n      swap1\n      div\n      0xf0\n      shl\n      dup2\n      jump\t// out\n        /* \"solidity.sol\":4614:4640  uint32[] public referencia */\n    tag_76:\n      0x08\n      dup2\n      dup2\n      sload\n      dup2\n      lt\n      tag_241\n      jumpi\n      0x00\n      dup1\n      revert\n    tag_241:\n      swap1\n      0x00\n      mstore\n      keccak256(0x00, 0x20)\n      swap1\n      0x08\n      swap2\n      dup3\n      dup3\n      div\n      add\n      swap2\n      swap1\n      mod\n      0x04\n      mul\n      swap2\n      pop\n      sload\n      swap1\n      0x0100\n      exp\n      swap1\n      div\n      0xffffffff\n      and\n      dup2\n      jump\t// out\n        /* \"solidity.sol\":2757:2782  bytes1 public _bytes1=\"a\" */\n    tag_81:\n      0x04\n      0x00\n      swap1\n      sload\n      swap1\n      0x0100\n      exp\n      swap1\n      div\n      0xf8\n      shl\n      dup2\n      jump\t// out\n        /* \"solidity.sol\":2214:2521  function cargarDatosArray(string calldata _name, uint256 _id) external {... */\n    tag_88:\n        /* \"solidity.sol\":2296:2313  Person memory aux */\n      tag_244\n      tag_245\n      jump\t// in\n    tag_244:\n        /* \"solidity.sol\":2374:2379  _name */\n      dup4\n      dup4\n        /* \"solidity.sol\":2363:2379  aux.name = _name */\n      dup1\n      dup1\n      0x1f\n      add\n      0x20\n      dup1\n      swap2\n      div\n      mul\n      0x20\n      add\n      mload(0x40)\n      swap1\n      dup2\n      add\n      0x40\n      mstore\n      dup1\n      swap4\n      swap3\n      swap2\n      swap1\n      dup2\n      dup2\n      mstore\n      0x20\n      add\n      dup4\n      dup4\n      dup1\n      dup3\n      dup5\n      calldatacopy\n      0x00\n      dup2\n      dup5\n      add\n      mstore\n      not(0x1f)\n      0x1f\n      dup3\n      add\n      and\n      swap1\n      pop\n      dup1\n      dup4\n      add\n      swap3\n      pop\n      pop\n      pop\n      pop\n      pop\n      pop\n      pop\n        /* \"solidity.sol\":2363:2366  aux */\n      dup2\n        /* \"solidity.sol\":2363:2371  aux.name */\n      0x00\n      add\n        /* \"solidity.sol\":2363:2379  aux.name = _name */\n      dup2\n      swap1\n      mstore\n      pop\n        /* \"solidity.sol\":2399:2402  _id */\n      dup2\n        /* \"solidity.sol\":2390:2393  aux */\n      dup2\n        /* \"solidity.sol\":2390:2396  aux.id */\n      0x20\n      add\n        /* \"solidity.sol\":2390:2402  aux.id = _id */\n      dup2\n      dup2\n      mstore\n      pop\n      pop\n        /* \"solidity.sol\":2413:2424  myInfoArray */\n      0x03\n        /* \"solidity.sol\":2430:2433  aux */\n      dup2\n        /* \"solidity.sol\":2413:2434  myInfoArray.push(aux) */\n      swap1\n      dup1\n      0x01\n      dup2\n      sload\n      add\n      dup1\n      dup3\n      sstore\n      dup1\n      swap2\n      pop\n      pop\n      0x01\n      swap1\n      sub\n      swap1\n      0x00\n      mstore\n      keccak256(0x00, 0x20)\n      swap1\n      0x02\n      mul\n      add\n      0x00\n      swap1\n      swap2\n      swap1\n      swap2\n      swap1\n      swap2\n      pop\n      0x00\n      dup3\n      add\n      mload\n      dup2\n      0x00\n      add\n      swap1\n      dup2\n      tag_247\n      swap2\n      swap1\n      tag_248\n      jump\t// in\n    tag_247:\n      pop\n      0x20\n      dup3\n      add\n      mload\n      dup2\n      0x01\n      add\n      sstore\n      pop\n      pop\n        /* \"solidity.sol\":2285:2521  {... */\n      pop\n        /* \"solidity.sol\":2214:2521  function cargarDatosArray(string calldata _name, uint256 _id) external {... */\n      pop\n      pop\n      pop\n      jump\t// out\n        /* \"solidity.sol\":6170:6344  function mensaje() external view returns(bytes memory,uint256,bytes4){... */\n    tag_91:\n        /* \"solidity.sol\":6211:6223  bytes memory */\n      0x60\n        /* \"solidity.sol\":6224:6231  uint256 */\n      0x00\n        /* \"solidity.sol\":6232:6238  bytes4 */\n      0x00\n        /* \"solidity.sol\":6250:6259  uint256 a */\n      0x00\n        /* \"solidity.sol\":6262:6271  gasleft() */\n      gas\n        /* \"solidity.sol\":6250:6271  uint256 a = gasleft() */\n      swap1\n      pop\n        /* \"solidity.sol\":6315:6323  msg.data */\n      0x00\n      calldatasize\n        /* \"solidity.sol\":6325:6326  a */\n      dup3\n        /* \"solidity.sol\":6328:6335  msg.sig */\n      and(0xffffffff00000000000000000000000000000000000000000000000000000000, calldataload(0x00))\n        /* \"solidity.sol\":6307:6336  return (msg.data, a, msg.sig) */\n      dup4\n      dup4\n      dup1\n      dup1\n      0x1f\n      add\n      0x20\n      dup1\n      swap2\n      div\n      mul\n      0x20\n      add\n      mload(0x40)\n      swap1\n      dup2\n      add\n      0x40\n      mstore\n      dup1\n      swap4\n      swap3\n      swap2\n      swap1\n      dup2\n      dup2\n      mstore\n      0x20\n      add\n      dup4\n      dup4\n      dup1\n      dup3\n      dup5\n      calldatacopy\n      0x00\n      dup2\n      dup5\n      add\n      mstore\n      not(0x1f)\n      0x1f\n      dup3\n      add\n      and\n      swap1\n      pop\n      dup1\n      dup4\n      add\n      swap3\n      pop\n      pop\n      pop\n      pop\n      pop\n      pop\n      pop\n      swap3\n      pop\n      swap1\n      swap2\n      swap3\n      pop\n      swap4\n      pop\n      swap4\n      pop\n      swap4\n      pop\n      pop\n        /* \"solidity.sol\":6170:6344  function mensaje() external view returns(bytes memory,uint256,bytes4){... */\n      swap1\n      swap2\n      swap3\n      jump\t// out\n        /* \"solidity.sol\":5207:5475  function comparar(string calldata a, string calldata b) pure external returns (string memory) {... */\n    tag_98:\n        /* \"solidity.sol\":5286:5299  string memory */\n      0x60\n        /* \"solidity.sol\":5355:5356  b */\n      dup3\n      dup3\n        /* \"solidity.sol\":5339:5358  keccak256(bytes(b)) */\n      mload(0x40)\n      tag_251\n      swap3\n      swap2\n      swap1\n      tag_252\n      jump\t// in\n    tag_251:\n      mload(0x40)\n      dup1\n      swap2\n      sub\n      swap1\n      keccak256\n        /* \"solidity.sol\":5332:5333  a */\n      dup6\n      dup6\n        /* \"solidity.sol\":5316:5335  keccak256(bytes(a)) */\n      mload(0x40)\n      tag_253\n      swap3\n      swap2\n      swap1\n      tag_252\n      jump\t// in\n    tag_253:\n      mload(0x40)\n      dup1\n      swap2\n      sub\n      swap1\n      keccak256\n        /* \"solidity.sol\":5316:5358  keccak256(bytes(a)) == keccak256(bytes(b)) */\n      sub\n        /* \"solidity.sol\":5312:5468  if( keccak256(bytes(a)) == keccak256(bytes(b)) ) {... */\n      tag_254\n      jumpi\n        /* \"solidity.sol\":5376:5394  return (\"iguales\") */\n      mload(0x40)\n      dup1\n      0x40\n      add\n      0x40\n      mstore\n      dup1\n      0x07\n      dup2\n      mstore\n      0x20\n      add\n      0x696775616c657300000000000000000000000000000000000000000000000000\n      dup2\n      mstore\n      pop\n      swap1\n      pop\n      jump(tag_250)\n        /* \"solidity.sol\":5312:5468  if( keccak256(bytes(a)) == keccak256(bytes(b)) ) {... */\n    tag_254:\n        /* \"solidity.sol\":5436:5456  return (\"distintos\") */\n      mload(0x40)\n      dup1\n      0x40\n      add\n      0x40\n      mstore\n      dup1\n      0x09\n      dup2\n      mstore\n      0x20\n      add\n      0x64697374696e746f730000000000000000000000000000000000000000000000\n      dup2\n      mstore\n      pop\n      swap1\n      pop\n        /* \"solidity.sol\":5207:5475  function comparar(string calldata a, string calldata b) pure external returns (string memory) {... */\n    tag_250:\n      swap5\n      swap4\n      pop\n      pop\n      pop\n      pop\n      jump\t// out\n        /* \"solidity.sol\":666:781  function Counter() external {... */\n    tag_103:\n        /* \"solidity.sol\":714:715  0 */\n      0x00\n        /* \"solidity.sol\":709:710  1 */\n      0x01\n        /* \"solidity.sol\":709:715  1 == 0 */\n      eq\n        /* \"solidity.sol\":709:726  1 == 0 && count() */\n      dup1\n      iszero\n      tag_257\n      jumpi\n      pop\n        /* \"solidity.sol\":719:726  count() */\n      tag_258\n        /* \"solidity.sol\":719:724  count */\n      tag_259\n        /* \"solidity.sol\":719:726  count() */\n      jump\t// in\n    tag_258:\n        /* \"solidity.sol\":709:726  1 == 0 && count() */\n    tag_257:\n        /* \"solidity.sol\":705:729  if (1 == 0 && count()){} */\n      pop\n        /* \"solidity.sol\":666:781  function Counter() external {... */\n      jump\t// out\n        /* \"solidity.sol\":6350:6441  function valueSent() external payable returns(uint256){... */\n    tag_105:\n        /* \"solidity.sol\":6396:6403  uint256 */\n      0x00\n        /* \"solidity.sol\":6423:6432  msg.value */\n      callvalue\n        /* \"solidity.sol\":6415:6433  return (msg.value) */\n      swap1\n      pop\n        /* \"solidity.sol\":6350:6441  function valueSent() external payable returns(uint256){... */\n      swap1\n      jump\t// out\n        /* \"solidity.sol\":2631:2734  function getMyInfoArray() external view returns (Person[] memory) {... */\n    tag_110:\n        /* \"solidity.sol\":2680:2695  Person[] memory */\n      0x60\n        /* \"solidity.sol\":2715:2726  myInfoArray */\n      0x03\n        /* \"solidity.sol\":2708:2726  return myInfoArray */\n      dup1\n      sload\n      dup1\n      0x20\n      mul\n      0x20\n      add\n      mload(0x40)\n      swap1\n      dup2\n      add\n      0x40\n      mstore\n      dup1\n      swap3\n      swap2\n      swap1\n      dup2\n      dup2\n      mstore\n      0x20\n      add\n      0x00\n      swap1\n    tag_263:\n      dup3\n      dup3\n      lt\n      iszero\n      tag_264\n      jumpi\n      dup4\n      dup3\n      swap1\n      0x00\n      mstore\n      keccak256(0x00, 0x20)\n      swap1\n      0x02\n      mul\n      add\n      mload(0x40)\n      dup1\n      0x40\n      add\n      0x40\n      mstore\n      swap1\n      dup2\n      0x00\n      dup3\n      add\n      dup1\n      sload\n      tag_266\n      swap1\n      tag_218\n      jump\t// in\n    tag_266:\n      dup1\n      0x1f\n      add\n      0x20\n      dup1\n      swap2\n      div\n      mul\n      0x20\n      add\n      mload(0x40)\n      swap1\n      dup2\n      add\n      0x40\n      mstore\n      dup1\n      swap3\n      swap2\n      swap1\n      dup2\n      dup2\n      mstore\n      0x20\n      add\n      dup3\n      dup1\n      sload\n      tag_267\n      swap1\n      tag_218\n      jump\t// in\n    tag_267:\n      dup1\n      iszero\n      tag_268\n      jumpi\n      dup1\n      0x1f\n      lt\n      tag_269\n      jumpi\n      0x0100\n      dup1\n      dup4\n      sload\n      div\n      mul\n      dup4\n      mstore\n      swap2\n      0x20\n      add\n      swap2\n      jump(tag_268)\n    tag_269:\n      dup3\n      add\n      swap2\n      swap1\n      0x00\n      mstore\n      keccak256(0x00, 0x20)\n      swap1\n    tag_270:\n      dup2\n      sload\n      dup2\n      mstore\n      swap1\n      0x01\n      add\n      swap1\n      0x20\n      add\n      dup1\n      dup4\n      gt\n      tag_270\n      jumpi\n      dup3\n      swap1\n      sub\n      0x1f\n      and\n      dup3\n      add\n      swap2\n    tag_268:\n      pop\n      pop\n      pop\n      pop\n      pop\n      dup2\n      mstore\n      0x20\n      add\n      0x01\n      dup3\n      add\n      sload\n      dup2\n      mstore\n      pop\n      pop\n      dup2\n      mstore\n      0x20\n      add\n      swap1\n      0x01\n      add\n      swap1\n      jump(tag_263)\n    tag_264:\n      pop\n      pop\n      pop\n      pop\n      swap1\n      pop\n        /* \"solidity.sol\":2631:2734  function getMyInfoArray() external view returns (Person[] memory) {... */\n      swap1\n      jump\t// out\n        /* \"solidity.sol\":5514:5676  function bloque() view external returns(uint256,uint256,uint256,address){... */\n    tag_115:\n        /* \"solidity.sol\":5554:5561  uint256 */\n      0x00\n        /* \"solidity.sol\":5562:5569  uint256 */\n      0x00\n        /* \"solidity.sol\":5570:5577  uint256 */\n      0x00\n        /* \"solidity.sol\":5578:5585  address */\n      0x00\n        /* \"solidity.sol\":5605:5621  block.difficulty */\n      prevrandao\n        /* \"solidity.sol\":5623:5637  block.gaslimit */\n      gaslimit\n        /* \"solidity.sol\":5639:5651  block.number */\n      number\n        /* \"solidity.sol\":5653:5667  block.coinbase */\n      coinbase\n        /* \"solidity.sol\":5597:5668  return (block.difficulty, block.gaslimit, block.number, block.coinbase) */\n      swap4\n      pop\n      swap4\n      pop\n      swap4\n      pop\n      swap4\n      pop\n        /* \"solidity.sol\":5514:5676  function bloque() view external returns(uint256,uint256,uint256,address){... */\n      swap1\n      swap2\n      swap3\n      swap4\n      jump\t// out\n        /* \"solidity.sol\":5750:5945  function random() view external returns(uint256){... */\n    tag_120:\n        /* \"solidity.sol\":5790:5797  uint256 */\n      0x00\n        /* \"solidity.sol\":5809:5827  uint256 _aleatorio */\n      0x00\n        /* \"solidity.sol\":5904:5907  100 */\n      0x64\n        /* \"solidity.sol\":5865:5880  block.timestamp */\n      timestamp\n        /* \"solidity.sol\":5882:5898  block.difficulty */\n      prevrandao\n        /* \"solidity.sol\":5848:5899  abi.encodePacked(block.timestamp, block.difficulty) */\n      add(0x20, mload(0x40))\n      tag_273\n      swap3\n      swap2\n      swap1\n      tag_274\n      jump\t// in\n    tag_273:\n      mload(0x40)\n      0x20\n      dup2\n      dup4\n      sub\n      sub\n      dup2\n      mstore\n      swap1\n      0x40\n      mstore\n        /* \"solidity.sol\":5838:5900  keccak256(abi.encodePacked(block.timestamp, block.difficulty)) */\n      dup1\n      mload\n      swap1\n      0x20\n      add\n      keccak256\n        /* \"solidity.sol\":5830:5901  uint256(keccak256(abi.encodePacked(block.timestamp, block.difficulty))) */\n      0x00\n      shr\n        /* \"solidity.sol\":5830:5907  uint256(keccak256(abi.encodePacked(block.timestamp, block.difficulty))) % 100 */\n      tag_275\n      swap2\n      swap1\n      tag_276\n      jump\t// in\n    tag_275:\n        /* \"solidity.sol\":5809:5907  uint256 _aleatorio = uint256(keccak256(abi.encodePacked(block.timestamp, block.difficulty))) % 100 */\n      swap1\n      pop\n        /* \"solidity.sol\":5926:5936  _aleatorio */\n      dup1\n        /* \"solidity.sol\":5918:5937  return (_aleatorio) */\n      swap2\n      pop\n      pop\n        /* \"solidity.sol\":5750:5945  function random() view external returns(uint256){... */\n      swap1\n      jump\t// out\n        /* \"solidity.sol\":88:110  uint256 public counter */\n    tag_124:\n      sload(0x00)\n      dup2\n      jump\t// out\n        /* \"solidity.sol\":1096:1289  function transferEtherAny() external {... */\n    tag_128:\n        /* \"solidity.sol\":1144:1163  address payable _to */\n      0x00\n        /* \"solidity.sol\":1189:1199  msg.sender */\n      caller\n        /* \"solidity.sol\":1174:1200  _to = payable (msg.sender) */\n      swap1\n      pop\n        /* \"solidity.sol\":1246:1249  _to */\n      dup1\n        /* \"solidity.sol\":1246:1258  _to.transfer */\n      0xffffffffffffffffffffffffffffffffffffffff\n      and\n        /* \"solidity.sol\":1246:1281  _to.transfer(address(this).balance) */\n      0x08fc\n        /* \"solidity.sol\":1259:1280  address(this).balance */\n      selfbalance\n        /* \"solidity.sol\":1246:1281  _to.transfer(address(this).balance) */\n      swap1\n      dup2\n      iszero\n      mul\n      swap1\n      mload(0x40)\n      0x00\n      mload(0x40)\n      dup1\n      dup4\n      sub\n      dup2\n      dup6\n      dup9\n      dup9\n      call\n      swap4\n      pop\n      pop\n      pop\n      pop\n      iszero\n      dup1\n      iszero\n      tag_279\n      jumpi\n      returndatacopy(0x00, 0x00, returndatasize)\n      revert(0x00, returndatasize)\n    tag_279:\n      pop\n        /* \"solidity.sol\":1133:1289  {... */\n      pop\n        /* \"solidity.sol\":1096:1289  function transferEtherAny() external {... */\n      jump\t// out\n        /* \"solidity.sol\":1932:2086  function cargarDatos(string calldata _name, uint256 _id) external {... */\n    tag_132:\n        /* \"solidity.sol\":2035:2040  _name */\n      dup3\n      dup3\n        /* \"solidity.sol\":2009:2015  myInfo */\n      0x02\n        /* \"solidity.sol\":2009:2027  myInfo[msg.sender] */\n      0x00\n        /* \"solidity.sol\":2016:2026  msg.sender */\n      caller\n        /* \"solidity.sol\":2009:2027  myInfo[msg.sender] */\n      0xffffffffffffffffffffffffffffffffffffffff\n      and\n      0xffffffffffffffffffffffffffffffffffffffff\n      and\n      dup2\n      mstore\n      0x20\n      add\n      swap1\n      dup2\n      mstore\n      0x20\n      add\n      0x00\n      keccak256\n        /* \"solidity.sol\":2009:2032  myInfo[msg.sender].name */\n      0x00\n      add\n        /* \"solidity.sol\":2009:2040  myInfo[msg.sender].name = _name */\n      swap2\n      dup3\n      tag_281\n      swap3\n      swap2\n      swap1\n      tag_282\n      jump\t// in\n    tag_281:\n      pop\n        /* \"solidity.sol\":2075:2078  _id */\n      dup1\n        /* \"solidity.sol\":2051:2057  myInfo */\n      0x02\n        /* \"solidity.sol\":2051:2069  myInfo[msg.sender] */\n      0x00\n        /* \"solidity.sol\":2058:2068  msg.sender */\n      caller\n        /* \"solidity.sol\":2051:2069  myInfo[msg.sender] */\n      0xffffffffffffffffffffffffffffffffffffffff\n      and\n      0xffffffffffffffffffffffffffffffffffffffff\n      and\n      dup2\n      mstore\n      0x20\n      add\n      swap1\n      dup2\n      mstore\n      0x20\n      add\n      0x00\n      keccak256\n        /* \"solidity.sol\":2051:2072  myInfo[msg.sender].id */\n      0x01\n      add\n        /* \"solidity.sol\":2051:2078  myInfo[msg.sender].id = _id */\n      dup2\n      swap1\n      sstore\n      pop\n        /* \"solidity.sol\":1932:2086  function cargarDatos(string calldata _name, uint256 _id) external {... */\n      pop\n      pop\n      pop\n      jump\t// out\n        /* \"solidity.sol\":5988:6131  function transaccion() external view returns (uint256, address) {... */\n    tag_135:\n        /* \"solidity.sol\":6034:6041  uint256 */\n      0x00\n        /* \"solidity.sol\":6043:6050  address */\n      0x00\n        /* \"solidity.sol\":6070:6081  tx.gasprice */\n      gasprice\n        /* \"solidity.sol\":6083:6092  tx.origin */\n      origin\n        /* \"solidity.sol\":6063:6093  return(tx.gasprice, tx.origin) */\n      swap2\n      pop\n      swap2\n      pop\n        /* \"solidity.sol\":5988:6131  function transaccion() external view returns (uint256, address) {... */\n      swap1\n      swap2\n      jump\t// out\n        /* \"solidity.sol\":3256:3482  function compararTiempo(bool _choice) external pure returns(bool)... */\n    tag_141:\n        /* \"solidity.sol\":3316:3320  bool */\n      0x00\n        /* \"solidity.sol\":3341:3348  _choice */\n      dup2\n        /* \"solidity.sol\":3338:3475  if(_choice){... */\n      iszero\n      tag_285\n      jumpi\n        /* \"solidity.sol\":3385:3392  1 hours */\n      0x0e10\n        /* \"solidity.sol\":3371:3381  60 minutes */\n      dup1\n        /* \"solidity.sol\":3371:3392  60 minutes == 1 hours */\n      eq\n        /* \"solidity.sol\":3364:3393  return(60 minutes == 1 hours) */\n      swap1\n      pop\n      jump(tag_284)\n        /* \"solidity.sol\":3338:3475  if(_choice){... */\n    tag_285:\n        /* \"solidity.sol\":3455:3462  1 hours */\n      0x0e10\n        /* \"solidity.sol\":3441:3451  61 minutes */\n      0x0e4c\n        /* \"solidity.sol\":3441:3462  61 minutes == 1 hours */\n      eq\n        /* \"solidity.sol\":3434:3463  return(61 minutes == 1 hours) */\n      swap1\n      pop\n        /* \"solidity.sol\":3256:3482  function compararTiempo(bool _choice) external pure returns(bool)... */\n    tag_284:\n      swap2\n      swap1\n      pop\n      jump\t// out\n        /* \"solidity.sol\":6560:6642  function destroy() external {... */\n    tag_146:\n        /* \"solidity.sol\":6621:6631  msg.sender */\n      caller\n        /* \"solidity.sol\":6599:6634  selfdestruct( payable(msg.sender) ) */\n      0xffffffffffffffffffffffffffffffffffffffff\n      and\n      selfdestruct\n        /* \"solidity.sol\":1526:1757  function transferEtherOwner() external onlyOwner {... */\n    tag_149:\n        /* \"solidity.sol\":1470:1480  msg.sender */\n      caller\n        /* \"solidity.sol\":1463:1480  owner==msg.sender */\n      0xffffffffffffffffffffffffffffffffffffffff\n      and\n        /* \"solidity.sol\":1463:1468  owner */\n      0x01\n      0x00\n      swap1\n      sload\n      swap1\n      0x0100\n      exp\n      swap1\n      div\n      0xffffffffffffffffffffffffffffffffffffffff\n      and\n        /* \"solidity.sol\":1463:1480  owner==msg.sender */\n      0xffffffffffffffffffffffffffffffffffffffff\n      and\n      eq\n        /* \"solidity.sol\":1455:1500  require(owner==msg.sender,\"no eres el owner\") */\n      tag_289\n      jumpi\n      mload(0x40)\n      0x08c379a000000000000000000000000000000000000000000000000000000000\n      dup2\n      mstore\n      0x04\n      add\n      tag_290\n      swap1\n      tag_291\n      jump\t// in\n    tag_290:\n      mload(0x40)\n      dup1\n      swap2\n      sub\n      swap1\n      revert\n    tag_289:\n        /* \"solidity.sol\":1586:1605  address payable _to */\n      0x00\n        /* \"solidity.sol\":1631:1641  msg.sender */\n      caller\n        /* \"solidity.sol\":1616:1642  _to = payable (msg.sender) */\n      swap1\n      pop\n        /* \"solidity.sol\":1692:1697  false */\n      0x00\n        /* \"solidity.sol\":1657:1697  _to.send(address(this).balance) == false */\n      iszero\n      iszero\n        /* \"solidity.sol\":1657:1660  _to */\n      dup2\n        /* \"solidity.sol\":1657:1665  _to.send */\n      0xffffffffffffffffffffffffffffffffffffffff\n      and\n        /* \"solidity.sol\":1657:1688  _to.send(address(this).balance) */\n      0x08fc\n        /* \"solidity.sol\":1666:1687  address(this).balance */\n      selfbalance\n        /* \"solidity.sol\":1657:1688  _to.send(address(this).balance) */\n      swap1\n      dup2\n      iszero\n      mul\n      swap1\n      mload(0x40)\n      0x00\n      mload(0x40)\n      dup1\n      dup4\n      sub\n      dup2\n      dup6\n      dup9\n      dup9\n      call\n      swap4\n      pop\n      pop\n      pop\n      pop\n        /* \"solidity.sol\":1657:1697  _to.send(address(this).balance) == false */\n      iszero\n      iszero\n      sub\n        /* \"solidity.sol\":1653:1750  if( _to.send(address(this).balance) == false ){... */\n      tag_294\n      jumpi\n        /* \"solidity.sol\":1714:1738  revert(\"fallo el envio\") */\n      mload(0x40)\n      0x08c379a000000000000000000000000000000000000000000000000000000000\n      dup2\n      mstore\n      0x04\n      add\n      tag_295\n      swap1\n      tag_296\n      jump\t// in\n    tag_295:\n      mload(0x40)\n      dup1\n      swap2\n      sub\n      swap1\n      revert\n        /* \"solidity.sol\":1653:1750  if( _to.send(address(this).balance) == false ){... */\n    tag_294:\n        /* \"solidity.sol\":1575:1757  {... */\n      pop\n        /* \"solidity.sol\":1526:1757  function transferEtherOwner() external onlyOwner {... */\n      jump\t// out\n        /* \"solidity.sol\":4875:5108  function modificarCurso(bytes1 _letra) external {... */\n    tag_154:\n        /* \"solidity.sol\":4993:4999  _letra */\n      dup1\n        /* \"solidity.sol\":4983:4988  curso */\n      0x09\n        /* \"solidity.sol\":4990:4991  0 */\n      0x00\n        /* \"solidity.sol\":4977:4992  bytes(curso)[0] */\n      dup2\n      sload\n      tag_298\n      swap1\n      tag_218\n      jump\t// in\n    tag_298:\n      dup2\n      lt\n      tag_299\n      jumpi\n      tag_300\n      tag_301\n      jump\t// in\n    tag_300:\n    tag_299:\n      dup2\n      sload\n      0x01\n      and\n      iszero\n      tag_302\n      jumpi\n      swap1\n      0x00\n      mstore\n      keccak256(0x00, 0x20)\n      swap1\n      0x20\n      swap2\n      dup3\n      dup3\n      div\n      add\n      swap2\n      swap1\n      mod\n    tag_302:\n        /* \"solidity.sol\":4977:4999  bytes(curso)[0]=_letra */\n      0x1f\n      sub\n      0x0100\n      exp\n      dup2\n      sload\n      dup2\n      0xff\n      mul\n      not\n      and\n      swap1\n      0x0100000000000000000000000000000000000000000000000000000000000000\n      dup5\n      div\n      mul\n      or\n      swap1\n      sstore\n      pop\n        /* \"solidity.sol\":4875:5108  function modificarCurso(bytes1 _letra) external {... */\n      pop\n      jump\t// out\n        /* \"solidity.sol\":4649:4799  function modificarReferencia(uint32 _number) external {... */\n    tag_159:\n        /* \"solidity.sol\":4714:4742  uint32[] storage _referencia */\n      0x00\n        /* \"solidity.sol\":4745:4755  referencia */\n      0x08\n        /* \"solidity.sol\":4714:4755  uint32[] storage _referencia = referencia */\n      swap1\n      pop\n        /* \"solidity.sol\":4766:4777  _referencia */\n      dup1\n        /* \"solidity.sol\":4783:4790  _number */\n      dup3\n        /* \"solidity.sol\":4766:4791  _referencia.push(_number) */\n      swap1\n      dup1\n      0x01\n      dup2\n      sload\n      add\n      dup1\n      dup3\n      sstore\n      dup1\n      swap2\n      pop\n      pop\n      0x01\n      swap1\n      sub\n      swap1\n      0x00\n      mstore\n      keccak256(0x00, 0x20)\n      swap1\n      0x08\n      swap2\n      dup3\n      dup3\n      div\n      add\n      swap2\n      swap1\n      mod\n      0x04\n      mul\n      swap1\n      swap2\n      swap1\n      swap2\n      swap1\n      swap2\n      0x0100\n      exp\n      dup2\n      sload\n      dup2\n      0xffffffff\n      mul\n      not\n      and\n      swap1\n      dup4\n      0xffffffff\n      and\n      mul\n      or\n      swap1\n      sstore\n      pop\n        /* \"solidity.sol\":4703:4799  {... */\n      pop\n        /* \"solidity.sol\":4649:4799  function modificarReferencia(uint32 _number) external {... */\n      pop\n      jump\t// out\n        /* \"solidity.sol\":2178:2205  Person[] public myInfoArray */\n    tag_163:\n      0x03\n      dup2\n      dup2\n      sload\n      dup2\n      lt\n      tag_305\n      jumpi\n      0x00\n      dup1\n      revert\n    tag_305:\n      swap1\n      0x00\n      mstore\n      keccak256(0x00, 0x20)\n      swap1\n      0x02\n      mul\n      add\n      0x00\n      swap2\n      pop\n      swap1\n      pop\n      dup1\n      0x00\n      add\n      dup1\n      sload\n      tag_307\n      swap1\n      tag_218\n      jump\t// in\n    tag_307:\n      dup1\n      0x1f\n      add\n      0x20\n      dup1\n      swap2\n      div\n      mul\n      0x20\n      add\n      mload(0x40)\n      swap1\n      dup2\n      add\n      0x40\n      mstore\n      dup1\n      swap3\n      swap2\n      swap1\n      dup2\n      dup2\n      mstore\n      0x20\n      add\n      dup3\n      dup1\n      sload\n      tag_308\n      swap1\n      tag_218\n      jump\t// in\n    tag_308:\n      dup1\n      iszero\n      tag_309\n      jumpi\n      dup1\n      0x1f\n      lt\n      tag_310\n      jumpi\n      0x0100\n      dup1\n      dup4\n      sload\n      div\n      mul\n      dup4\n      mstore\n      swap2\n      0x20\n      add\n      swap2\n      jump(tag_309)\n    tag_310:\n      dup3\n      add\n      swap2\n      swap1\n      0x00\n      mstore\n      keccak256(0x00, 0x20)\n      swap1\n    tag_311:\n      dup2\n      sload\n      dup2\n      mstore\n      swap1\n      0x01\n      add\n      swap1\n      0x20\n      add\n      dup1\n      dup4\n      gt\n      tag_311\n      jumpi\n      dup3\n      swap1\n      sub\n      0x1f\n      and\n      dup3\n      add\n      swap2\n    tag_309:\n      pop\n      pop\n      pop\n      pop\n      pop\n      swap1\n      dup1\n      0x01\n      add\n      sload\n      swap1\n      pop\n      dup3\n      jump\t// out\n        /* \"solidity.sol\":3070:3248  function sumaConstante() external pure returns(uint256){... */\n    tag_167:\n        /* \"solidity.sol\":3117:3124  uint256 */\n      0x00\n        /* \"solidity.sol\":3136:3145  uint256 a */\n      0x00\n        /* \"solidity.sol\":3146:3147  1 */\n      0x01\n        /* \"solidity.sol\":3136:3147  uint256 a=1 */\n      swap1\n      pop\n        /* \"solidity.sol\":3179:3180  a */\n      dup1\n        /* \"solidity.sol\":3167:3176  2.5 + 2.5 */\n      0x05\n        /* \"solidity.sol\":3167:3180  2.5 + 2.5 + a */\n      tag_313\n      swap2\n      swap1\n      tag_314\n      jump\t// in\n    tag_313:\n        /* \"solidity.sol\":3158:3182  return ( 2.5 + 2.5 + a ) */\n      swap2\n      pop\n      pop\n        /* \"solidity.sol\":3070:3248  function sumaConstante() external pure returns(uint256){... */\n      swap1\n      jump\t// out\n        /* \"solidity.sol\":3952:3971  Estado public state */\n    tag_171:\n      0x06\n      0x00\n      swap1\n      sload\n      swap1\n      0x0100\n      exp\n      swap1\n      div\n      0xff\n      and\n      dup2\n      jump\t// out\n        /* \"solidity.sol\":363:482  function intLimits() external pure returns (int8,int8) {... */\n    tag_176:\n        /* \"solidity.sol\":407:411  int8 */\n      0x00\n        /* \"solidity.sol\":412:416  int8 */\n      0x00\n        /* \"solidity.sol\":439:453  type(int8).min */\n      0xffffffffffffffffffffffffffffffffffffffffffffffffffffffffffffff80\n        /* \"solidity.sol\":456:470  type(int8).max */\n      0x7f\n        /* \"solidity.sol\":429:473  return ( (type(int8).min),(type(int8).max) ) */\n      swap2\n      pop\n      swap2\n      pop\n        /* \"solidity.sol\":363:482  function intLimits() external pure returns (int8,int8) {... */\n      swap1\n      swap2\n      jump\t// out\n        /* \"solidity.sol\":4215:4242  uint16[] public valuePushed */\n    tag_182:\n      0x07\n      dup2\n      dup2\n      sload\n      dup2\n      lt\n      tag_316\n      jumpi\n      0x00\n      dup1\n      revert\n    tag_316:\n      swap1\n      0x00\n      mstore\n      keccak256(0x00, 0x20)\n      swap1\n      0x10\n      swap2\n      dup3\n      dup3\n      div\n      add\n      swap2\n      swap1\n      mod\n      0x02\n      mul\n      swap2\n      pop\n      sload\n      swap1\n      0x0100\n      exp\n      swap1\n      div\n      0xffff\n      and\n      dup2\n      jump\t// out\n        /* \"solidity.sol\":3978:4165  function toggleState() external {... */\n    tag_187:\n        /* \"solidity.sol\":4031:4046  Estado.prendido */\n      0x00\n        /* \"solidity.sol\":4024:4046  state==Estado.prendido */\n      0x01\n      dup2\n      gt\n      iszero\n      tag_319\n      jumpi\n      tag_320\n      tag_321\n      jump\t// in\n    tag_320:\n    tag_319:\n        /* \"solidity.sol\":4024:4029  state */\n      0x06\n      0x00\n      swap1\n      sload\n      swap1\n      0x0100\n      exp\n      swap1\n      div\n      0xff\n      and\n        /* \"solidity.sol\":4024:4046  state==Estado.prendido */\n      0x01\n      dup2\n      gt\n      iszero\n      tag_322\n      jumpi\n      tag_323\n      tag_321\n      jump\t// in\n    tag_323:\n    tag_322:\n      sub\n        /* \"solidity.sol\":4021:4158  if(state==Estado.prendido) {... */\n      tag_324\n      jumpi\n        /* \"solidity.sol\":4069:4083  Estado.apagado */\n      0x01\n        /* \"solidity.sol\":4063:4068  state */\n      0x06\n      0x00\n        /* \"solidity.sol\":4063:4083  state=Estado.apagado */\n      0x0100\n      exp\n      dup2\n      sload\n      dup2\n      0xff\n      mul\n      not\n      and\n      swap1\n      dup4\n      0x01\n      dup2\n      gt\n      iszero\n      tag_325\n      jumpi\n      tag_326\n      tag_321\n      jump\t// in\n    tag_326:\n    tag_325:\n      mul\n      or\n      swap1\n      sstore\n      pop\n        /* \"solidity.sol\":4021:4158  if(state==Estado.prendido) {... */\n      jump(tag_327)\n    tag_324:\n        /* \"solidity.sol\":4131:4146  Estado.prendido */\n      0x00\n        /* \"solidity.sol\":4125:4130  state */\n      0x06\n      0x00\n        /* \"solidity.sol\":4125:4146  state=Estado.prendido */\n      0x0100\n      exp\n      dup2\n      sload\n      dup2\n      0xff\n      mul\n      not\n      and\n      swap1\n      dup4\n      0x01\n      dup2\n      gt\n      iszero\n      tag_328\n      jumpi\n      tag_329\n      tag_321\n      jump\t// in\n    tag_329:\n    tag_328:\n      mul\n      or\n      swap1\n      sstore\n      pop\n        /* \"solidity.sol\":4021:4158  if(state==Estado.prendido) {... */\n    tag_327:\n        /* \"solidity.sol\":3978:4165  function toggleState() external {... */\n      jump\t// out\n        /* \"solidity.sol\":7147:7408  function varArrMem(uint256 _i) external pure returns(uint256[] memory,uint256) {... */\n    tag_191:\n        /* \"solidity.sol\":7200:7216  uint256[] memory */\n      0x60\n        /* \"solidity.sol\":7217:7224  uint256 */\n      0x00\n        /* \"solidity.sol\":7237:7258  uint256[] memory hola */\n      0x00\n        /* \"solidity.sol\":7275:7277  _i */\n      dup4\n        /* \"solidity.sol\":7261:7278  new uint256[](_i) */\n      0xffffffffffffffff\n      dup2\n      gt\n      iszero\n      tag_331\n      jumpi\n      tag_332\n      tag_333\n      jump\t// in\n    tag_332:\n    tag_331:\n      mload(0x40)\n      swap1\n      dup1\n      dup3\n      mstore\n      dup1\n      0x20\n      mul\n      0x20\n      add\n      dup3\n      add\n      0x40\n      mstore\n      dup1\n      iszero\n      tag_334\n      jumpi\n      dup2\n      0x20\n      add\n      0x20\n      dup3\n      mul\n      dup1\n      calldatasize\n      dup4\n      calldatacopy\n      dup1\n      dup3\n      add\n      swap2\n      pop\n      pop\n      swap1\n      pop\n    tag_334:\n      pop\n        /* \"solidity.sol\":7237:7278  uint256[] memory hola = new uint256[](_i) */\n      swap1\n      pop\n        /* \"solidity.sol\":7297:7298  1 */\n      0x01\n        /* \"solidity.sol\":7289:7293  hola */\n      dup2\n        /* \"solidity.sol\":7294:7295  0 */\n      0x00\n        /* \"solidity.sol\":7289:7296  hola[0] */\n      dup2\n      mload\n      dup2\n      lt\n      tag_335\n      jumpi\n      tag_336\n      tag_301\n      jump\t// in\n    tag_336:\n    tag_335:\n      0x20\n      mul\n      0x20\n      add\n      add\n        /* \"solidity.sol\":7289:7298  hola[0]=1 */\n      dup2\n      dup2\n      mstore\n      pop\n      pop\n        /* \"solidity.sol\":7317:7318  2 */\n      0x02\n        /* \"solidity.sol\":7309:7313  hola */\n      dup2\n        /* \"solidity.sol\":7314:7315  1 */\n      0x01\n        /* \"solidity.sol\":7309:7316  hola[1] */\n      dup2\n      mload\n      dup2\n      lt\n      tag_337\n      jumpi\n      tag_338\n      tag_301\n      jump\t// in\n    tag_338:\n    tag_337:\n      0x20\n      mul\n      0x20\n      add\n      add\n        /* \"solidity.sol\":7309:7318  hola[1]=2 */\n      dup2\n      dup2\n      mstore\n      pop\n      pop\n        /* \"solidity.sol\":7337:7341  hola */\n      dup1\n        /* \"solidity.sol\":7342:7346  hola */\n      dup2\n        /* \"solidity.sol\":7342:7353  hola.length */\n      mload\n        /* \"solidity.sol\":7329:7354  return (hola,hola.length) */\n      swap3\n      pop\n      swap3\n      pop\n      pop\n        /* \"solidity.sol\":7147:7408  function varArrMem(uint256 _i) external pure returns(uint256[] memory,uint256) {... */\n      swap2\n      pop\n      swap2\n      jump\t// out\n        /* \"solidity.sol\":525:626  function underflow() external pure returns (int8) {... */\n    tag_196:\n        /* \"solidity.sol\":569:573  int8 */\n      0x00\n        /* \"solidity.sol\":613:615  -1 */\n      0xffffffffffffffffffffffffffffffffffffffffffffffffffffffffffffffff\n        /* \"solidity.sol\":595:609  type(int8).min */\n      0xffffffffffffffffffffffffffffffffffffffffffffffffffffffffffffff80\n        /* \"solidity.sol\":595:616  type(int8).min / (-1) */\n      tag_340\n      swap2\n      swap1\n      tag_341\n      jump\t// in\n    tag_340:\n        /* \"solidity.sol\":586:618  return ( type(int8).min / (-1) ) */\n      swap1\n      pop\n        /* \"solidity.sol\":525:626  function underflow() external pure returns (int8) {... */\n      swap1\n      jump\t// out\n        /* \"solidity.sol\":4834:4866  string public curso=\"Blockchain\" */\n    tag_201:\n      0x09\n      dup1\n      sload\n      tag_342\n      swap1\n      tag_218\n      jump\t// in\n    tag_342:\n      dup1\n      0x1f\n      add\n      0x20\n      dup1\n      swap2\n      div\n      mul\n      0x20\n      add\n      mload(0x40)\n      swap1\n      dup2\n      add\n      0x40\n      mstore\n      dup1\n      swap3\n      swap2\n      swap1\n      dup2\n      dup2\n      mstore\n      0x20\n      add\n      dup3\n      dup1\n      sload\n      tag_343\n      swap1\n      tag_218\n      jump\t// in\n    tag_343:\n      dup1\n      iszero\n      tag_344\n      jumpi\n      dup1\n      0x1f\n      lt\n      tag_345\n      jumpi\n      0x0100\n      dup1\n      dup4\n      sload\n      div\n      mul\n      dup4\n      mstore\n      swap2\n      0x20\n      add\n      swap2\n      jump(tag_344)\n    tag_345:\n      dup3\n      add\n      swap2\n      swap1\n      0x00\n      mstore\n      keccak256(0x00, 0x20)\n      swap1\n    tag_346:\n      dup2\n      sload\n      dup2\n      mstore\n      swap1\n      0x01\n      add\n      swap1\n      0x20\n      add\n      dup1\n      dup4\n      gt\n      tag_346\n      jumpi\n      dup3\n      swap1\n      sub\n      0x1f\n      and\n      dup3\n      add\n      swap2\n    tag_344:\n      pop\n      pop\n      pop\n      pop\n      pop\n      dup2\n      jump\t// out\n        /* \"solidity.sol\":2899:3027  function _bytes3Setter(bytes calldata _byteArray) external { // ver memory vs calldata... */\n    tag_207:\n        /* \"solidity.sol\":3009:3019  _byteArray */\n      dup2\n      dup2\n        /* \"solidity.sol\":2995:3006  _bytesArray */\n      0x05\n        /* \"solidity.sol\":2995:3019  _bytesArray = _byteArray */\n      swap2\n      dup3\n      tag_348\n      swap3\n      swap2\n      swap1\n      tag_349\n      jump\t// in\n    tag_348:\n      pop\n        /* \"solidity.sol\":2899:3027  function _bytes3Setter(bytes calldata _byteArray) external { // ver memory vs calldata... */\n      pop\n      pop\n      jump\t// out\n        /* \"solidity.sol\":931:1053  function underflow2() external pure returns (uint16) {... */\n    tag_210:\n        /* \"solidity.sol\":976:982  uint16 */\n      0x00\n        /* \"solidity.sol\":995:1003  uint16 a */\n      0x00\n        /* \"solidity.sol\":1012:1016  true */\n      0x01\n        /* \"solidity.sol\":1012:1024  true ? 1 : 0 */\n      tag_351\n      jumpi\n        /* \"solidity.sol\":1023:1024  0 */\n      0x00\n        /* \"solidity.sol\":1012:1024  true ? 1 : 0 */\n      jump(tag_352)\n    tag_351:\n        /* \"solidity.sol\":1019:1020  1 */\n      0x01\n        /* \"solidity.sol\":1012:1024  true ? 1 : 0 */\n    tag_352:\n        /* \"solidity.sol\":1005:1008  255 */\n      0xff\n        /* \"solidity.sol\":1005:1025  255 + (true ? 1 : 0) */\n      tag_353\n      swap2\n      swap1\n      tag_354\n      jump\t// in\n    tag_353:\n        /* \"solidity.sol\":995:1025  uint16 a= 255 + (true ? 1 : 0) */\n      0xff\n      and\n      swap1\n      pop\n        /* \"solidity.sol\":1044:1045  a */\n      dup1\n        /* \"solidity.sol\":1037:1045  return a */\n      swap2\n      pop\n      pop\n        /* \"solidity.sol\":931:1053  function underflow2() external pure returns (uint16) {... */\n      swap1\n      jump\t// out\n        /* \"solidity.sol\":3490:3742  function compararMoneda(bool _choice) external pure returns(bool)... */\n    tag_215:\n        /* \"solidity.sol\":3550:3554  bool */\n      0x00\n        /* \"solidity.sol\":3575:3582  _choice */\n      dup2\n        /* \"solidity.sol\":3572:3735  if(_choice){... */\n      iszero\n      tag_356\n      jumpi\n        /* \"solidity.sol\":3632:3639  1 ether */\n      0x0de0b6b3a7640000\n        /* \"solidity.sol\":3605:3628  1000000000000000000 wei */\n      dup1\n        /* \"solidity.sol\":3605:3639  1000000000000000000 wei == 1 ether */\n      eq\n        /* \"solidity.sol\":3598:3640  return(1000000000000000000 wei == 1 ether) */\n      swap1\n      pop\n      jump(tag_355)\n        /* \"solidity.sol\":3572:3735  if(_choice){... */\n    tag_356:\n        /* \"solidity.sol\":3715:3722  1 ether */\n      0x0de0b6b3a7640000\n        /* \"solidity.sol\":3688:3711  1400000000000000000 wei */\n      0x136dcc951d8c0000\n        /* \"solidity.sol\":3688:3722  1400000000000000000 wei == 1 ether */\n      eq\n        /* \"solidity.sol\":3681:3723  return(1400000000000000000 wei == 1 ether) */\n      swap1\n      pop\n        /* \"solidity.sol\":3490:3742  function compararMoneda(bool _choice) external pure returns(bool)... */\n    tag_355:\n      swap2\n      swap1\n      pop\n      jump\t// out\n        /* \"solidity.sol\":787:878  function count() internal returns(bool) {... */\n    tag_259:\n        /* \"solidity.sol\":821:825  bool */\n      0x00\n        /* \"solidity.sol\":838:845  counter */\n      0x00\n      0x00\n        /* \"solidity.sol\":838:847  counter++ */\n      dup2\n      sload\n      dup1\n      swap3\n      swap2\n      swap1\n      tag_359\n      swap1\n      tag_240\n      jump\t// in\n    tag_359:\n      swap2\n      swap1\n      pop\n      sstore\n      pop\n        /* \"solidity.sol\":865:869  true */\n      0x01\n        /* \"solidity.sol\":858:870  return(true) */\n      swap1\n      pop\n        /* \"solidity.sol\":787:878  function count() internal returns(bool) {... */\n      swap1\n      jump\t// out\n    tag_245:\n      mload(0x40)\n      dup1\n      0x40\n      add\n      0x40\n      mstore\n      dup1\n      0x60\n      dup2\n      mstore\n      0x20\n      add\n      0x00\n      dup2\n      mstore\n      pop\n      swap1\n      jump\t// out\n        /* \"#utility.yul\":88:205   */\n    tag_361:\n        /* \"#utility.yul\":197:198   */\n      0x00\n        /* \"#utility.yul\":194:195   */\n      0x00\n        /* \"#utility.yul\":187:199   */\n      revert\n        /* \"#utility.yul\":211:328   */\n    tag_362:\n        /* \"#utility.yul\":320:321   */\n      0x00\n        /* \"#utility.yul\":317:318   */\n      0x00\n        /* \"#utility.yul\":310:322   */\n      revert\n        /* \"#utility.yul\":334:460   */\n    tag_363:\n        /* \"#utility.yul\":371:378   */\n      0x00\n        /* \"#utility.yul\":411:453   */\n      0xffffffffffffffffffffffffffffffffffffffff\n        /* \"#utility.yul\":404:409   */\n      dup3\n        /* \"#utility.yul\":400:454   */\n      and\n        /* \"#utility.yul\":389:454   */\n      swap1\n      pop\n        /* \"#utility.yul\":334:460   */\n      swap2\n      swap1\n      pop\n      jump\t// out\n        /* \"#utility.yul\":466:562   */\n    tag_364:\n        /* \"#utility.yul\":503:510   */\n      0x00\n        /* \"#utility.yul\":532:556   */\n      tag_467\n        /* \"#utility.yul\":550:555   */\n      dup3\n        /* \"#utility.yul\":532:556   */\n      tag_363\n      jump\t// in\n    tag_467:\n        /* \"#utility.yul\":521:556   */\n      swap1\n      pop\n        /* \"#utility.yul\":466:562   */\n      swap2\n      swap1\n      pop\n      jump\t// out\n        /* \"#utility.yul\":568:690   */\n    tag_365:\n        /* \"#utility.yul\":641:665   */\n      tag_469\n        /* \"#utility.yul\":659:664   */\n      dup2\n        /* \"#utility.yul\":641:665   */\n      tag_364\n      jump\t// in\n    tag_469:\n        /* \"#utility.yul\":634:639   */\n      dup2\n        /* \"#utility.yul\":631:666   */\n      eq\n        /* \"#utility.yul\":621:684   */\n      tag_470\n      jumpi\n        /* \"#utility.yul\":680:681   */\n      0x00\n        /* \"#utility.yul\":677:678   */\n      0x00\n        /* \"#utility.yul\":670:682   */\n      revert\n        /* \"#utility.yul\":621:684   */\n    tag_470:\n        /* \"#utility.yul\":568:690   */\n      pop\n      jump\t// out\n        /* \"#utility.yul\":696:835   */\n    tag_366:\n        /* \"#utility.yul\":742:747   */\n      0x00\n        /* \"#utility.yul\":780:786   */\n      dup2\n        /* \"#utility.yul\":767:787   */\n      calldataload\n        /* \"#utility.yul\":758:787   */\n      swap1\n      pop\n        /* \"#utility.yul\":796:829   */\n      tag_472\n        /* \"#utility.yul\":823:828   */\n      dup2\n        /* \"#utility.yul\":796:829   */\n      tag_365\n      jump\t// in\n    tag_472:\n        /* \"#utility.yul\":696:835   */\n      swap3\n      swap2\n      pop\n      pop\n      jump\t// out\n        /* \"#utility.yul\":841:1170   */\n    tag_48:\n        /* \"#utility.yul\":900:906   */\n      0x00\n        /* \"#utility.yul\":949:951   */\n      0x20\n        /* \"#utility.yul\":937:946   */\n      dup3\n        /* \"#utility.yul\":928:935   */\n      dup5\n        /* \"#utility.yul\":924:947   */\n      sub\n        /* \"#utility.yul\":920:952   */\n      slt\n        /* \"#utility.yul\":917:1036   */\n      iszero\n      tag_474\n      jumpi\n        /* \"#utility.yul\":955:1034   */\n      tag_475\n      tag_361\n      jump\t// in\n    tag_475:\n        /* \"#utility.yul\":917:1036   */\n    tag_474:\n        /* \"#utility.yul\":1075:1076   */\n      0x00\n        /* \"#utility.yul\":1100:1153   */\n      tag_476\n        /* \"#utility.yul\":1145:1152   */\n      dup5\n        /* \"#utility.yul\":1136:1142   */\n      dup3\n        /* \"#utility.yul\":1125:1134   */\n      dup6\n        /* \"#utility.yul\":1121:1143   */\n      add\n        /* \"#utility.yul\":1100:1153   */\n      tag_366\n      jump\t// in\n    tag_476:\n        /* \"#utility.yul\":1090:1153   */\n      swap2\n      pop\n        /* \"#utility.yul\":1046:1163   */\n      pop\n        /* \"#utility.yul\":841:1170   */\n      swap3\n      swap2\n      pop\n      pop\n      jump\t// out\n        /* \"#utility.yul\":1176:1275   */\n    tag_367:\n        /* \"#utility.yul\":1228:1234   */\n      0x00\n        /* \"#utility.yul\":1262:1267   */\n      dup2\n        /* \"#utility.yul\":1256:1268   */\n      mload\n        /* \"#utility.yul\":1246:1268   */\n      swap1\n      pop\n        /* \"#utility.yul\":1176:1275   */\n      swap2\n      swap1\n      pop\n      jump\t// out\n        /* \"#utility.yul\":1281:1450   */\n    tag_368:\n        /* \"#utility.yul\":1365:1376   */\n      0x00\n        /* \"#utility.yul\":1399:1405   */\n      dup3\n        /* \"#utility.yul\":1394:1397   */\n      dup3\n        /* \"#utility.yul\":1387:1406   */\n      mstore\n        /* \"#utility.yul\":1439:1443   */\n      0x20\n        /* \"#utility.yul\":1434:1437   */\n      dup3\n        /* \"#utility.yul\":1430:1444   */\n      add\n        /* \"#utility.yul\":1415:1444   */\n      swap1\n      pop\n        /* \"#utility.yul\":1281:1450   */\n      swap3\n      swap2\n      pop\n      pop\n      jump\t// out\n        /* \"#utility.yul\":1456:1595   */\n    tag_369:\n        /* \"#utility.yul\":1545:1551   */\n      dup3\n        /* \"#utility.yul\":1540:1543   */\n      dup2\n        /* \"#utility.yul\":1535:1538   */\n      dup4\n        /* \"#utility.yul\":1529:1552   */\n      mcopy\n        /* \"#utility.yul\":1586:1587   */\n      0x00\n        /* \"#utility.yul\":1577:1583   */\n      dup4\n        /* \"#utility.yul\":1572:1575   */\n      dup4\n        /* \"#utility.yul\":1568:1584   */\n      add\n        /* \"#utility.yul\":1561:1588   */\n      mstore\n        /* \"#utility.yul\":1456:1595   */\n      pop\n      pop\n      pop\n      jump\t// out\n        /* \"#utility.yul\":1601:1703   */\n    tag_370:\n        /* \"#utility.yul\":1642:1648   */\n      0x00\n        /* \"#utility.yul\":1693:1695   */\n      0x1f\n        /* \"#utility.yul\":1689:1696   */\n      not\n        /* \"#utility.yul\":1684:1686   */\n      0x1f\n        /* \"#utility.yul\":1677:1682   */\n      dup4\n        /* \"#utility.yul\":1673:1687   */\n      add\n        /* \"#utility.yul\":1669:1697   */\n      and\n        /* \"#utility.yul\":1659:1697   */\n      swap1\n      pop\n        /* \"#utility.yul\":1601:1703   */\n      swap2\n      swap1\n      pop\n      jump\t// out\n        /* \"#utility.yul\":1709:2086   */\n    tag_371:\n        /* \"#utility.yul\":1797:1800   */\n      0x00\n        /* \"#utility.yul\":1825:1864   */\n      tag_482\n        /* \"#utility.yul\":1858:1863   */\n      dup3\n        /* \"#utility.yul\":1825:1864   */\n      tag_367\n      jump\t// in\n    tag_482:\n        /* \"#utility.yul\":1880:1951   */\n      tag_483\n        /* \"#utility.yul\":1944:1950   */\n      dup2\n        /* \"#utility.yul\":1939:1942   */\n      dup6\n        /* \"#utility.yul\":1880:1951   */\n      tag_368\n      jump\t// in\n    tag_483:\n        /* \"#utility.yul\":1873:1951   */\n      swap4\n      pop\n        /* \"#utility.yul\":1960:2025   */\n      tag_484\n        /* \"#utility.yul\":2018:2024   */\n      dup2\n        /* \"#utility.yul\":2013:2016   */\n      dup6\n        /* \"#utility.yul\":2006:2010   */\n      0x20\n        /* \"#utility.yul\":1999:2004   */\n      dup7\n        /* \"#utility.yul\":1995:2011   */\n      add\n        /* \"#utility.yul\":1960:2025   */\n      tag_369\n      jump\t// in\n    tag_484:\n        /* \"#utility.yul\":2050:2079   */\n      tag_485\n        /* \"#utility.yul\":2072:2078   */\n      dup2\n        /* \"#utility.yul\":2050:2079   */\n      tag_370\n      jump\t// in\n    tag_485:\n        /* \"#utility.yul\":2045:2048   */\n      dup5\n        /* \"#utility.yul\":2041:2080   */\n      add\n        /* \"#utility.yul\":2034:2080   */\n      swap2\n      pop\n        /* \"#utility.yul\":1801:2086   */\n      pop\n        /* \"#utility.yul\":1709:2086   */\n      swap3\n      swap2\n      pop\n      pop\n      jump\t// out\n        /* \"#utility.yul\":2092:2169   */\n    tag_372:\n        /* \"#utility.yul\":2129:2136   */\n      0x00\n        /* \"#utility.yul\":2158:2163   */\n      dup2\n        /* \"#utility.yul\":2147:2163   */\n      swap1\n      pop\n        /* \"#utility.yul\":2092:2169   */\n      swap2\n      swap1\n      pop\n      jump\t// out\n        /* \"#utility.yul\":2175:2293   */\n    tag_373:\n        /* \"#utility.yul\":2262:2286   */\n      tag_488\n        /* \"#utility.yul\":2280:2285   */\n      dup2\n        /* \"#utility.yul\":2262:2286   */\n      tag_372\n      jump\t// in\n    tag_488:\n        /* \"#utility.yul\":2257:2260   */\n      dup3\n        /* \"#utility.yul\":2250:2287   */\n      mstore\n        /* \"#utility.yul\":2175:2293   */\n      pop\n      pop\n      jump\t// out\n        /* \"#utility.yul\":2299:2722   */\n    tag_51:\n        /* \"#utility.yul\":2440:2444   */\n      0x00\n        /* \"#utility.yul\":2478:2480   */\n      0x40\n        /* \"#utility.yul\":2467:2476   */\n      dup3\n        /* \"#utility.yul\":2463:2481   */\n      add\n        /* \"#utility.yul\":2455:2481   */\n      swap1\n      pop\n        /* \"#utility.yul\":2527:2536   */\n      dup2\n        /* \"#utility.yul\":2521:2525   */\n      dup2\n        /* \"#utility.yul\":2517:2537   */\n      sub\n        /* \"#utility.yul\":2513:2514   */\n      0x00\n        /* \"#utility.yul\":2502:2511   */\n      dup4\n        /* \"#utility.yul\":2498:2515   */\n      add\n        /* \"#utility.yul\":2491:2538   */\n      mstore\n        /* \"#utility.yul\":2555:2633   */\n      tag_490\n        /* \"#utility.yul\":2628:2632   */\n      dup2\n        /* \"#utility.yul\":2619:2625   */\n      dup6\n        /* \"#utility.yul\":2555:2633   */\n      tag_371\n      jump\t// in\n    tag_490:\n        /* \"#utility.yul\":2547:2633   */\n      swap1\n      pop\n        /* \"#utility.yul\":2643:2715   */\n      tag_491\n        /* \"#utility.yul\":2711:2713   */\n      0x20\n        /* \"#utility.yul\":2700:2709   */\n      dup4\n        /* \"#utility.yul\":2696:2714   */\n      add\n        /* \"#utility.yul\":2687:2693   */\n      dup5\n        /* \"#utility.yul\":2643:2715   */\n      tag_373\n      jump\t// in\n    tag_491:\n        /* \"#utility.yul\":2299:2722   */\n      swap4\n      swap3\n      pop\n      pop\n      pop\n      jump\t// out\n        /* \"#utility.yul\":2728:2826   */\n    tag_374:\n        /* \"#utility.yul\":2779:2785   */\n      0x00\n        /* \"#utility.yul\":2813:2818   */\n      dup2\n        /* \"#utility.yul\":2807:2819   */\n      mload\n        /* \"#utility.yul\":2797:2819   */\n      swap1\n      pop\n        /* \"#utility.yul\":2728:2826   */\n      swap2\n      swap1\n      pop\n      jump\t// out\n        /* \"#utility.yul\":2832:3000   */\n    tag_375:\n        /* \"#utility.yul\":2915:2926   */\n      0x00\n        /* \"#utility.yul\":2949:2955   */\n      dup3\n        /* \"#utility.yul\":2944:2947   */\n      dup3\n        /* \"#utility.yul\":2937:2956   */\n      mstore\n        /* \"#utility.yul\":2989:2993   */\n      0x20\n        /* \"#utility.yul\":2984:2987   */\n      dup3\n        /* \"#utility.yul\":2980:2994   */\n      add\n        /* \"#utility.yul\":2965:2994   */\n      swap1\n      pop\n        /* \"#utility.yul\":2832:3000   */\n      swap3\n      swap2\n      pop\n      pop\n      jump\t// out\n        /* \"#utility.yul\":3006:3379   */\n    tag_376:\n        /* \"#utility.yul\":3092:3095   */\n      0x00\n        /* \"#utility.yul\":3120:3158   */\n      tag_495\n        /* \"#utility.yul\":3152:3157   */\n      dup3\n        /* \"#utility.yul\":3120:3158   */\n      tag_374\n      jump\t// in\n    tag_495:\n        /* \"#utility.yul\":3174:3244   */\n      tag_496\n        /* \"#utility.yul\":3237:3243   */\n      dup2\n        /* \"#utility.yul\":3232:3235   */\n      dup6\n        /* \"#utility.yul\":3174:3244   */\n      tag_375\n      jump\t// in\n    tag_496:\n        /* \"#utility.yul\":3167:3244   */\n      swap4\n      pop\n        /* \"#utility.yul\":3253:3318   */\n      tag_497\n        /* \"#utility.yul\":3311:3317   */\n      dup2\n        /* \"#utility.yul\":3306:3309   */\n      dup6\n        /* \"#utility.yul\":3299:3303   */\n      0x20\n        /* \"#utility.yul\":3292:3297   */\n      dup7\n        /* \"#utility.yul\":3288:3304   */\n      add\n        /* \"#utility.yul\":3253:3318   */\n      tag_369\n      jump\t// in\n    tag_497:\n        /* \"#utility.yul\":3343:3372   */\n      tag_498\n        /* \"#utility.yul\":3365:3371   */\n      dup2\n        /* \"#utility.yul\":3343:3372   */\n      tag_370\n      jump\t// in\n    tag_498:\n        /* \"#utility.yul\":3338:3341   */\n      dup5\n        /* \"#utility.yul\":3334:3373   */\n      add\n        /* \"#utility.yul\":3327:3373   */\n      swap2\n      pop\n        /* \"#utility.yul\":3096:3379   */\n      pop\n        /* \"#utility.yul\":3006:3379   */\n      swap3\n      swap2\n      pop\n      pop\n      jump\t// out\n        /* \"#utility.yul\":3385:3694   */\n    tag_56:\n        /* \"#utility.yul\":3496:3500   */\n      0x00\n        /* \"#utility.yul\":3534:3536   */\n      0x20\n        /* \"#utility.yul\":3523:3532   */\n      dup3\n        /* \"#utility.yul\":3519:3537   */\n      add\n        /* \"#utility.yul\":3511:3537   */\n      swap1\n      pop\n        /* \"#utility.yul\":3583:3592   */\n      dup2\n        /* \"#utility.yul\":3577:3581   */\n      dup2\n        /* \"#utility.yul\":3573:3593   */\n      sub\n        /* \"#utility.yul\":3569:3570   */\n      0x00\n        /* \"#utility.yul\":3558:3567   */\n      dup4\n        /* \"#utility.yul\":3554:3571   */\n      add\n        /* \"#utility.yul\":3547:3594   */\n      mstore\n        /* \"#utility.yul\":3611:3687   */\n      tag_500\n        /* \"#utility.yul\":3682:3686   */\n      dup2\n        /* \"#utility.yul\":3673:3679   */\n      dup5\n        /* \"#utility.yul\":3611:3687   */\n      tag_376\n      jump\t// in\n    tag_500:\n        /* \"#utility.yul\":3603:3687   */\n      swap1\n      pop\n        /* \"#utility.yul\":3385:3694   */\n      swap3\n      swap2\n      pop\n      pop\n      jump\t// out\n        /* \"#utility.yul\":3700:3789   */\n    tag_377:\n        /* \"#utility.yul\":3736:3743   */\n      0x00\n        /* \"#utility.yul\":3776:3782   */\n      0xffff\n        /* \"#utility.yul\":3769:3774   */\n      dup3\n        /* \"#utility.yul\":3765:3783   */\n      and\n        /* \"#utility.yul\":3754:3783   */\n      swap1\n      pop\n        /* \"#utility.yul\":3700:3789   */\n      swap2\n      swap1\n      pop\n      jump\t// out\n        /* \"#utility.yul\":3795:3915   */\n    tag_378:\n        /* \"#utility.yul\":3867:3890   */\n      tag_503\n        /* \"#utility.yul\":3884:3889   */\n      dup2\n        /* \"#utility.yul\":3867:3890   */\n      tag_377\n      jump\t// in\n    tag_503:\n        /* \"#utility.yul\":3860:3865   */\n      dup2\n        /* \"#utility.yul\":3857:3891   */\n      eq\n        /* \"#utility.yul\":3847:3909   */\n      tag_504\n      jumpi\n        /* \"#utility.yul\":3905:3906   */\n      0x00\n        /* \"#utility.yul\":3902:3903   */\n      0x00\n        /* \"#utility.yul\":3895:3907   */\n      revert\n        /* \"#utility.yul\":3847:3909   */\n    tag_504:\n        /* \"#utility.yul\":3795:3915   */\n      pop\n      jump\t// out\n        /* \"#utility.yul\":3921:4058   */\n    tag_379:\n        /* \"#utility.yul\":3966:3971   */\n      0x00\n        /* \"#utility.yul\":4004:4010   */\n      dup2\n        /* \"#utility.yul\":3991:4011   */\n      calldataload\n        /* \"#utility.yul\":3982:4011   */\n      swap1\n      pop\n        /* \"#utility.yul\":4020:4052   */\n      tag_506\n        /* \"#utility.yul\":4046:4051   */\n      dup2\n        /* \"#utility.yul\":4020:4052   */\n      tag_378\n      jump\t// in\n    tag_506:\n        /* \"#utility.yul\":3921:4058   */\n      swap3\n      swap2\n      pop\n      pop\n      jump\t// out\n        /* \"#utility.yul\":4064:4391   */\n    tag_60:\n        /* \"#utility.yul\":4122:4128   */\n      0x00\n        /* \"#utility.yul\":4171:4173   */\n      0x20\n        /* \"#utility.yul\":4159:4168   */\n      dup3\n        /* \"#utility.yul\":4150:4157   */\n      dup5\n        /* \"#utility.yul\":4146:4169   */\n      sub\n        /* \"#utility.yul\":4142:4174   */\n      slt\n        /* \"#utility.yul\":4139:4258   */\n      iszero\n      tag_508\n      jumpi\n        /* \"#utility.yul\":4177:4256   */\n      tag_509\n      tag_361\n      jump\t// in\n    tag_509:\n        /* \"#utility.yul\":4139:4258   */\n    tag_508:\n        /* \"#utility.yul\":4297:4298   */\n      0x00\n        /* \"#utility.yul\":4322:4374   */\n      tag_510\n        /* \"#utility.yul\":4366:4373   */\n      dup5\n        /* \"#utility.yul\":4357:4363   */\n      dup3\n        /* \"#utility.yul\":4346:4355   */\n      dup6\n        /* \"#utility.yul\":4342:4364   */\n      add\n        /* \"#utility.yul\":4322:4374   */\n      tag_379\n      jump\t// in\n    tag_510:\n        /* \"#utility.yul\":4312:4374   */\n      swap2\n      pop\n        /* \"#utility.yul\":4268:4384   */\n      pop\n        /* \"#utility.yul\":4064:4391   */\n      swap3\n      swap2\n      pop\n      pop\n      jump\t// out\n        /* \"#utility.yul\":4397:4487   */\n    tag_380:\n        /* \"#utility.yul\":4431:4438   */\n      0x00\n        /* \"#utility.yul\":4474:4479   */\n      dup2\n        /* \"#utility.yul\":4467:4480   */\n      iszero\n        /* \"#utility.yul\":4460:4481   */\n      iszero\n        /* \"#utility.yul\":4449:4481   */\n      swap1\n      pop\n        /* \"#utility.yul\":4397:4487   */\n      swap2\n      swap1\n      pop\n      jump\t// out\n        /* \"#utility.yul\":4493:4609   */\n    tag_381:\n        /* \"#utility.yul\":4563:4584   */\n      tag_513\n        /* \"#utility.yul\":4578:4583   */\n      dup2\n        /* \"#utility.yul\":4563:4584   */\n      tag_380\n      jump\t// in\n    tag_513:\n        /* \"#utility.yul\":4556:4561   */\n      dup2\n        /* \"#utility.yul\":4553:4585   */\n      eq\n        /* \"#utility.yul\":4543:4603   */\n      tag_514\n      jumpi\n        /* \"#utility.yul\":4599:4600   */\n      0x00\n        /* \"#utility.yul\":4596:4597   */\n      0x00\n        /* \"#utility.yul\":4589:4601   */\n      revert\n        /* \"#utility.yul\":4543:4603   */\n    tag_514:\n        /* \"#utility.yul\":4493:4609   */\n      pop\n      jump\t// out\n        /* \"#utility.yul\":4615:4748   */\n    tag_382:\n        /* \"#utility.yul\":4658:4663   */\n      0x00\n        /* \"#utility.yul\":4696:4702   */\n      dup2\n        /* \"#utility.yul\":4683:4703   */\n      calldataload\n        /* \"#utility.yul\":4674:4703   */\n      swap1\n      pop\n        /* \"#utility.yul\":4712:4742   */\n      tag_516\n        /* \"#utility.yul\":4736:4741   */\n      dup2\n        /* \"#utility.yul\":4712:4742   */\n      tag_381\n      jump\t// in\n    tag_516:\n        /* \"#utility.yul\":4615:4748   */\n      swap3\n      swap2\n      pop\n      pop\n      jump\t// out\n        /* \"#utility.yul\":4754:5077   */\n    tag_65:\n        /* \"#utility.yul\":4810:4816   */\n      0x00\n        /* \"#utility.yul\":4859:4861   */\n      0x20\n        /* \"#utility.yul\":4847:4856   */\n      dup3\n        /* \"#utility.yul\":4838:4845   */\n      dup5\n        /* \"#utility.yul\":4834:4857   */\n      sub\n        /* \"#utility.yul\":4830:4862   */\n      slt\n        /* \"#utility.yul\":4827:4946   */\n      iszero\n      tag_518\n      jumpi\n        /* \"#utility.yul\":4865:4944   */\n      tag_519\n      tag_361\n      jump\t// in\n    tag_519:\n        /* \"#utility.yul\":4827:4946   */\n    tag_518:\n        /* \"#utility.yul\":4985:4986   */\n      0x00\n        /* \"#utility.yul\":5010:5060   */\n      tag_520\n        /* \"#utility.yul\":5052:5059   */\n      dup5\n        /* \"#utility.yul\":5043:5049   */\n      dup3\n        /* \"#utility.yul\":5032:5041   */\n      dup6\n        /* \"#utility.yul\":5028:5050   */\n      add\n        /* \"#utility.yul\":5010:5060   */\n      tag_382\n      jump\t// in\n    tag_520:\n        /* \"#utility.yul\":5000:5060   */\n      swap2\n      pop\n        /* \"#utility.yul\":4956:5070   */\n      pop\n        /* \"#utility.yul\":4754:5077   */\n      swap3\n      swap2\n      pop\n      pop\n      jump\t// out\n        /* \"#utility.yul\":5083:5232   */\n    tag_383:\n        /* \"#utility.yul\":5119:5126   */\n      0x00\n        /* \"#utility.yul\":5159:5225   */\n      0xffff000000000000000000000000000000000000000000000000000000000000\n        /* \"#utility.yul\":5152:5157   */\n      dup3\n        /* \"#utility.yul\":5148:5226   */\n      and\n        /* \"#utility.yul\":5137:5226   */\n      swap1\n      pop\n        /* \"#utility.yul\":5083:5232   */\n      swap2\n      swap1\n      pop\n      jump\t// out\n        /* \"#utility.yul\":5238:5353   */\n    tag_384:\n        /* \"#utility.yul\":5323:5346   */\n      tag_523\n        /* \"#utility.yul\":5340:5345   */\n      dup2\n        /* \"#utility.yul\":5323:5346   */\n      tag_383\n      jump\t// in\n    tag_523:\n        /* \"#utility.yul\":5318:5321   */\n      dup3\n        /* \"#utility.yul\":5311:5347   */\n      mstore\n        /* \"#utility.yul\":5238:5353   */\n      pop\n      pop\n      jump\t// out\n        /* \"#utility.yul\":5359:5577   */\n    tag_71:\n        /* \"#utility.yul\":5450:5454   */\n      0x00\n        /* \"#utility.yul\":5488:5490   */\n      0x20\n        /* \"#utility.yul\":5477:5486   */\n      dup3\n        /* \"#utility.yul\":5473:5491   */\n      add\n        /* \"#utility.yul\":5465:5491   */\n      swap1\n      pop\n        /* \"#utility.yul\":5501:5570   */\n      tag_525\n        /* \"#utility.yul\":5567:5568   */\n      0x00\n        /* \"#utility.yul\":5556:5565   */\n      dup4\n        /* \"#utility.yul\":5552:5569   */\n      add\n        /* \"#utility.yul\":5543:5549   */\n      dup5\n        /* \"#utility.yul\":5501:5570   */\n      tag_384\n      jump\t// in\n    tag_525:\n        /* \"#utility.yul\":5359:5577   */\n      swap3\n      swap2\n      pop\n      pop\n      jump\t// out\n        /* \"#utility.yul\":5583:5705   */\n    tag_385:\n        /* \"#utility.yul\":5656:5680   */\n      tag_527\n        /* \"#utility.yul\":5674:5679   */\n      dup2\n        /* \"#utility.yul\":5656:5680   */\n      tag_372\n      jump\t// in\n    tag_527:\n        /* \"#utility.yul\":5649:5654   */\n      dup2\n        /* \"#utility.yul\":5646:5681   */\n      eq\n        /* \"#utility.yul\":5636:5699   */\n      tag_528\n      jumpi\n        /* \"#utility.yul\":5695:5696   */\n      0x00\n        /* \"#utility.yul\":5692:5693   */\n      0x00\n        /* \"#utility.yul\":5685:5697   */\n      revert\n        /* \"#utility.yul\":5636:5699   */\n    tag_528:\n        /* \"#utility.yul\":5583:5705   */\n      pop\n      jump\t// out\n        /* \"#utility.yul\":5711:5850   */\n    tag_386:\n        /* \"#utility.yul\":5757:5762   */\n      0x00\n        /* \"#utility.yul\":5795:5801   */\n      dup2\n        /* \"#utility.yul\":5782:5802   */\n      calldataload\n        /* \"#utility.yul\":5773:5802   */\n      swap1\n      pop\n        /* \"#utility.yul\":5811:5844   */\n      tag_530\n        /* \"#utility.yul\":5838:5843   */\n      dup2\n        /* \"#utility.yul\":5811:5844   */\n      tag_385\n      jump\t// in\n    tag_530:\n        /* \"#utility.yul\":5711:5850   */\n      swap3\n      swap2\n      pop\n      pop\n      jump\t// out\n        /* \"#utility.yul\":5856:6185   */\n    tag_75:\n        /* \"#utility.yul\":5915:5921   */\n      0x00\n        /* \"#utility.yul\":5964:5966   */\n      0x20\n        /* \"#utility.yul\":5952:5961   */\n      dup3\n        /* \"#utility.yul\":5943:5950   */\n      dup5\n        /* \"#utility.yul\":5939:5962   */\n      sub\n        /* \"#utility.yul\":5935:5967   */\n      slt\n        /* \"#utility.yul\":5932:6051   */\n      iszero\n      tag_532\n      jumpi\n        /* \"#utility.yul\":5970:6049   */\n      tag_533\n      tag_361\n      jump\t// in\n    tag_533:\n        /* \"#utility.yul\":5932:6051   */\n    tag_532:\n        /* \"#utility.yul\":6090:6091   */\n      0x00\n        /* \"#utility.yul\":6115:6168   */\n      tag_534\n        /* \"#utility.yul\":6160:6167   */\n      dup5\n        /* \"#utility.yul\":6151:6157   */\n      dup3\n        /* \"#utility.yul\":6140:6149   */\n      dup6\n        /* \"#utility.yul\":6136:6158   */\n      add\n        /* \"#utility.yul\":6115:6168   */\n      tag_386\n      jump\t// in\n    tag_534:\n        /* \"#utility.yul\":6105:6168   */\n      swap2\n      pop\n        /* \"#utility.yul\":6061:6178   */\n      pop\n        /* \"#utility.yul\":5856:6185   */\n      swap3\n      swap2\n      pop\n      pop\n      jump\t// out\n        /* \"#utility.yul\":6191:6284   */\n    tag_387:\n        /* \"#utility.yul\":6227:6234   */\n      0x00\n        /* \"#utility.yul\":6267:6277   */\n      0xffffffff\n        /* \"#utility.yul\":6260:6265   */\n      dup3\n        /* \"#utility.yul\":6256:6278   */\n      and\n        /* \"#utility.yul\":6245:6278   */\n      swap1\n      pop\n        /* \"#utility.yul\":6191:6284   */\n      swap2\n      swap1\n      pop\n      jump\t// out\n        /* \"#utility.yul\":6290:6405   */\n    tag_388:\n        /* \"#utility.yul\":6375:6398   */\n      tag_537\n        /* \"#utility.yul\":6392:6397   */\n      dup2\n        /* \"#utility.yul\":6375:6398   */\n      tag_387\n      jump\t// in\n    tag_537:\n        /* \"#utility.yul\":6370:6373   */\n      dup3\n        /* \"#utility.yul\":6363:6399   */\n      mstore\n        /* \"#utility.yul\":6290:6405   */\n      pop\n      pop\n      jump\t// out\n        /* \"#utility.yul\":6411:6629   */\n    tag_78:\n        /* \"#utility.yul\":6502:6506   */\n      0x00\n        /* \"#utility.yul\":6540:6542   */\n      0x20\n        /* \"#utility.yul\":6529:6538   */\n      dup3\n        /* \"#utility.yul\":6525:6543   */\n      add\n        /* \"#utility.yul\":6517:6543   */\n      swap1\n      pop\n        /* \"#utility.yul\":6553:6622   */\n      tag_539\n        /* \"#utility.yul\":6619:6620   */\n      0x00\n        /* \"#utility.yul\":6608:6617   */\n      dup4\n        /* \"#utility.yul\":6604:6621   */\n      add\n        /* \"#utility.yul\":6595:6601   */\n      dup5\n        /* \"#utility.yul\":6553:6622   */\n      tag_388\n      jump\t// in\n    tag_539:\n        /* \"#utility.yul\":6411:6629   */\n      swap3\n      swap2\n      pop\n      pop\n      jump\t// out\n        /* \"#utility.yul\":6635:6784   */\n    tag_389:\n        /* \"#utility.yul\":6671:6678   */\n      0x00\n        /* \"#utility.yul\":6711:6777   */\n      0xff00000000000000000000000000000000000000000000000000000000000000\n        /* \"#utility.yul\":6704:6709   */\n      dup3\n        /* \"#utility.yul\":6700:6778   */\n      and\n        /* \"#utility.yul\":6689:6778   */\n      swap1\n      pop\n        /* \"#utility.yul\":6635:6784   */\n      swap2\n      swap1\n      pop\n      jump\t// out\n        /* \"#utility.yul\":6790:6905   */\n    tag_390:\n        /* \"#utility.yul\":6875:6898   */\n      tag_542\n        /* \"#utility.yul\":6892:6897   */\n      dup2\n        /* \"#utility.yul\":6875:6898   */\n      tag_389\n      jump\t// in\n    tag_542:\n        /* \"#utility.yul\":6870:6873   */\n      dup3\n        /* \"#utility.yul\":6863:6899   */\n      mstore\n        /* \"#utility.yul\":6790:6905   */\n      pop\n      pop\n      jump\t// out\n        /* \"#utility.yul\":6911:7129   */\n    tag_83:\n        /* \"#utility.yul\":7002:7006   */\n      0x00\n        /* \"#utility.yul\":7040:7042   */\n      0x20\n        /* \"#utility.yul\":7029:7038   */\n      dup3\n        /* \"#utility.yul\":7025:7043   */\n      add\n        /* \"#utility.yul\":7017:7043   */\n      swap1\n      pop\n        /* \"#utility.yul\":7053:7122   */\n      tag_544\n        /* \"#utility.yul\":7119:7120   */\n      0x00\n        /* \"#utility.yul\":7108:7117   */\n      dup4\n        /* \"#utility.yul\":7104:7121   */\n      add\n        /* \"#utility.yul\":7095:7101   */\n      dup5\n        /* \"#utility.yul\":7053:7122   */\n      tag_390\n      jump\t// in\n    tag_544:\n        /* \"#utility.yul\":6911:7129   */\n      swap3\n      swap2\n      pop\n      pop\n      jump\t// out\n        /* \"#utility.yul\":7135:7252   */\n    tag_391:\n        /* \"#utility.yul\":7244:7245   */\n      0x00\n        /* \"#utility.yul\":7241:7242   */\n      0x00\n        /* \"#utility.yul\":7234:7246   */\n      revert\n        /* \"#utility.yul\":7258:7375   */\n    tag_392:\n        /* \"#utility.yul\":7367:7368   */\n      0x00\n        /* \"#utility.yul\":7364:7365   */\n      0x00\n        /* \"#utility.yul\":7357:7369   */\n      revert\n        /* \"#utility.yul\":7381:7498   */\n    tag_393:\n        /* \"#utility.yul\":7490:7491   */\n      0x00\n        /* \"#utility.yul\":7487:7488   */\n      0x00\n        /* \"#utility.yul\":7480:7492   */\n      revert\n        /* \"#utility.yul\":7518:8071   */\n    tag_394:\n        /* \"#utility.yul\":7576:7584   */\n      0x00\n        /* \"#utility.yul\":7586:7592   */\n      0x00\n        /* \"#utility.yul\":7636:7639   */\n      dup4\n        /* \"#utility.yul\":7629:7633   */\n      0x1f\n        /* \"#utility.yul\":7621:7627   */\n      dup5\n        /* \"#utility.yul\":7617:7634   */\n      add\n        /* \"#utility.yul\":7613:7640   */\n      slt\n        /* \"#utility.yul\":7603:7725   */\n      tag_549\n      jumpi\n        /* \"#utility.yul\":7644:7723   */\n      tag_550\n      tag_391\n      jump\t// in\n    tag_550:\n        /* \"#utility.yul\":7603:7725   */\n    tag_549:\n        /* \"#utility.yul\":7757:7763   */\n      dup3\n        /* \"#utility.yul\":7744:7764   */\n      calldataload\n        /* \"#utility.yul\":7734:7764   */\n      swap1\n      pop\n        /* \"#utility.yul\":7787:7805   */\n      0xffffffffffffffff\n        /* \"#utility.yul\":7779:7785   */\n      dup2\n        /* \"#utility.yul\":7776:7806   */\n      gt\n        /* \"#utility.yul\":7773:7890   */\n      iszero\n      tag_551\n      jumpi\n        /* \"#utility.yul\":7809:7888   */\n      tag_552\n      tag_392\n      jump\t// in\n    tag_552:\n        /* \"#utility.yul\":7773:7890   */\n    tag_551:\n        /* \"#utility.yul\":7923:7927   */\n      0x20\n        /* \"#utility.yul\":7915:7921   */\n      dup4\n        /* \"#utility.yul\":7911:7928   */\n      add\n        /* \"#utility.yul\":7899:7928   */\n      swap2\n      pop\n        /* \"#utility.yul\":7977:7980   */\n      dup4\n        /* \"#utility.yul\":7969:7973   */\n      0x01\n        /* \"#utility.yul\":7961:7967   */\n      dup3\n        /* \"#utility.yul\":7957:7974   */\n      mul\n        /* \"#utility.yul\":7947:7955   */\n      dup4\n        /* \"#utility.yul\":7943:7975   */\n      add\n        /* \"#utility.yul\":7940:7981   */\n      gt\n        /* \"#utility.yul\":7937:8065   */\n      iszero\n      tag_553\n      jumpi\n        /* \"#utility.yul\":7984:8063   */\n      tag_554\n      tag_393\n      jump\t// in\n    tag_554:\n        /* \"#utility.yul\":7937:8065   */\n    tag_553:\n        /* \"#utility.yul\":7518:8071   */\n      swap3\n      pop\n      swap3\n      swap1\n      pop\n      jump\t// out\n        /* \"#utility.yul\":8077:8751   */\n    tag_87:\n        /* \"#utility.yul\":8157:8163   */\n      0x00\n        /* \"#utility.yul\":8165:8171   */\n      0x00\n        /* \"#utility.yul\":8173:8179   */\n      0x00\n        /* \"#utility.yul\":8222:8224   */\n      0x40\n        /* \"#utility.yul\":8210:8219   */\n      dup5\n        /* \"#utility.yul\":8201:8208   */\n      dup7\n        /* \"#utility.yul\":8197:8220   */\n      sub\n        /* \"#utility.yul\":8193:8225   */\n      slt\n        /* \"#utility.yul\":8190:8309   */\n      iszero\n      tag_556\n      jumpi\n        /* \"#utility.yul\":8228:8307   */\n      tag_557\n      tag_361\n      jump\t// in\n    tag_557:\n        /* \"#utility.yul\":8190:8309   */\n    tag_556:\n        /* \"#utility.yul\":8376:8377   */\n      0x00\n        /* \"#utility.yul\":8365:8374   */\n      dup5\n        /* \"#utility.yul\":8361:8378   */\n      add\n        /* \"#utility.yul\":8348:8379   */\n      calldataload\n        /* \"#utility.yul\":8406:8424   */\n      0xffffffffffffffff\n        /* \"#utility.yul\":8398:8404   */\n      dup2\n        /* \"#utility.yul\":8395:8425   */\n      gt\n        /* \"#utility.yul\":8392:8509   */\n      iszero\n      tag_558\n      jumpi\n        /* \"#utility.yul\":8428:8507   */\n      tag_559\n      tag_362\n      jump\t// in\n    tag_559:\n        /* \"#utility.yul\":8392:8509   */\n    tag_558:\n        /* \"#utility.yul\":8541:8606   */\n      tag_560\n        /* \"#utility.yul\":8598:8605   */\n      dup7\n        /* \"#utility.yul\":8589:8595   */\n      dup3\n        /* \"#utility.yul\":8578:8587   */\n      dup8\n        /* \"#utility.yul\":8574:8596   */\n      add\n        /* \"#utility.yul\":8541:8606   */\n      tag_394\n      jump\t// in\n    tag_560:\n        /* \"#utility.yul\":8523:8606   */\n      swap4\n      pop\n      swap4\n      pop\n        /* \"#utility.yul\":8319:8616   */\n      pop\n        /* \"#utility.yul\":8655:8657   */\n      0x20\n        /* \"#utility.yul\":8681:8734   */\n      tag_561\n        /* \"#utility.yul\":8726:8733   */\n      dup7\n        /* \"#utility.yul\":8717:8723   */\n      dup3\n        /* \"#utility.yul\":8706:8715   */\n      dup8\n        /* \"#utility.yul\":8702:8724   */\n      add\n        /* \"#utility.yul\":8681:8734   */\n      tag_386\n      jump\t// in\n    tag_561:\n        /* \"#utility.yul\":8671:8734   */\n      swap2\n      pop\n        /* \"#utility.yul\":8626:8744   */\n      pop\n        /* \"#utility.yul\":8077:8751   */\n      swap3\n      pop\n      swap3\n      pop\n      swap3\n      jump\t// out\n        /* \"#utility.yul\":8757:8906   */\n    tag_395:\n        /* \"#utility.yul\":8793:8800   */\n      0x00\n        /* \"#utility.yul\":8833:8899   */\n      0xffffffff00000000000000000000000000000000000000000000000000000000\n        /* \"#utility.yul\":8826:8831   */\n      dup3\n        /* \"#utility.yul\":8822:8900   */\n      and\n        /* \"#utility.yul\":8811:8900   */\n      swap1\n      pop\n        /* \"#utility.yul\":8757:8906   */\n      swap2\n      swap1\n      pop\n      jump\t// out\n        /* \"#utility.yul\":8912:9027   */\n    tag_396:\n        /* \"#utility.yul\":8997:9020   */\n      tag_564\n        /* \"#utility.yul\":9014:9019   */\n      dup2\n        /* \"#utility.yul\":8997:9020   */\n      tag_395\n      jump\t// in\n    tag_564:\n        /* \"#utility.yul\":8992:8995   */\n      dup3\n        /* \"#utility.yul\":8985:9021   */\n      mstore\n        /* \"#utility.yul\":8912:9027   */\n      pop\n      pop\n      jump\t// out\n        /* \"#utility.yul\":9033:9558   */\n    tag_93:\n        /* \"#utility.yul\":9198:9202   */\n      0x00\n        /* \"#utility.yul\":9236:9238   */\n      0x60\n        /* \"#utility.yul\":9225:9234   */\n      dup3\n        /* \"#utility.yul\":9221:9239   */\n      add\n        /* \"#utility.yul\":9213:9239   */\n      swap1\n      pop\n        /* \"#utility.yul\":9285:9294   */\n      dup2\n        /* \"#utility.yul\":9279:9283   */\n      dup2\n        /* \"#utility.yul\":9275:9295   */\n      sub\n        /* \"#utility.yul\":9271:9272   */\n      0x00\n        /* \"#utility.yul\":9260:9269   */\n      dup4\n        /* \"#utility.yul\":9256:9273   */\n      add\n        /* \"#utility.yul\":9249:9296   */\n      mstore\n        /* \"#utility.yul\":9313:9389   */\n      tag_566\n        /* \"#utility.yul\":9384:9388   */\n      dup2\n        /* \"#utility.yul\":9375:9381   */\n      dup7\n        /* \"#utility.yul\":9313:9389   */\n      tag_376\n      jump\t// in\n    tag_566:\n        /* \"#utility.yul\":9305:9389   */\n      swap1\n      pop\n        /* \"#utility.yul\":9399:9471   */\n      tag_567\n        /* \"#utility.yul\":9467:9469   */\n      0x20\n        /* \"#utility.yul\":9456:9465   */\n      dup4\n        /* \"#utility.yul\":9452:9470   */\n      add\n        /* \"#utility.yul\":9443:9449   */\n      dup6\n        /* \"#utility.yul\":9399:9471   */\n      tag_373\n      jump\t// in\n    tag_567:\n        /* \"#utility.yul\":9481:9551   */\n      tag_568\n        /* \"#utility.yul\":9547:9549   */\n      0x40\n        /* \"#utility.yul\":9536:9545   */\n      dup4\n        /* \"#utility.yul\":9532:9550   */\n      add\n        /* \"#utility.yul\":9523:9529   */\n      dup5\n        /* \"#utility.yul\":9481:9551   */\n      tag_396\n      jump\t// in\n    tag_568:\n        /* \"#utility.yul\":9033:9558   */\n      swap5\n      swap4\n      pop\n      pop\n      pop\n      pop\n      jump\t// out\n        /* \"#utility.yul\":9564:10438   */\n    tag_97:\n        /* \"#utility.yul\":9656:9662   */\n      0x00\n        /* \"#utility.yul\":9664:9670   */\n      0x00\n        /* \"#utility.yul\":9672:9678   */\n      0x00\n        /* \"#utility.yul\":9680:9686   */\n      0x00\n        /* \"#utility.yul\":9729:9731   */\n      0x40\n        /* \"#utility.yul\":9717:9726   */\n      dup6\n        /* \"#utility.yul\":9708:9715   */\n      dup8\n        /* \"#utility.yul\":9704:9727   */\n      sub\n        /* \"#utility.yul\":9700:9732   */\n      slt\n        /* \"#utility.yul\":9697:9816   */\n      iszero\n      tag_570\n      jumpi\n        /* \"#utility.yul\":9735:9814   */\n      tag_571\n      tag_361\n      jump\t// in\n    tag_571:\n        /* \"#utility.yul\":9697:9816   */\n    tag_570:\n        /* \"#utility.yul\":9883:9884   */\n      0x00\n        /* \"#utility.yul\":9872:9881   */\n      dup6\n        /* \"#utility.yul\":9868:9885   */\n      add\n        /* \"#utility.yul\":9855:9886   */\n      calldataload\n        /* \"#utility.yul\":9913:9931   */\n      0xffffffffffffffff\n        /* \"#utility.yul\":9905:9911   */\n      dup2\n        /* \"#utility.yul\":9902:9932   */\n      gt\n        /* \"#utility.yul\":9899:10016   */\n      iszero\n      tag_572\n      jumpi\n        /* \"#utility.yul\":9935:10014   */\n      tag_573\n      tag_362\n      jump\t// in\n    tag_573:\n        /* \"#utility.yul\":9899:10016   */\n    tag_572:\n        /* \"#utility.yul\":10048:10113   */\n      tag_574\n        /* \"#utility.yul\":10105:10112   */\n      dup8\n        /* \"#utility.yul\":10096:10102   */\n      dup3\n        /* \"#utility.yul\":10085:10094   */\n      dup9\n        /* \"#utility.yul\":10081:10103   */\n      add\n        /* \"#utility.yul\":10048:10113   */\n      tag_394\n      jump\t// in\n    tag_574:\n        /* \"#utility.yul\":10030:10113   */\n      swap5\n      pop\n      swap5\n      pop\n        /* \"#utility.yul\":9826:10123   */\n      pop\n        /* \"#utility.yul\":10190:10192   */\n      0x20\n        /* \"#utility.yul\":10179:10188   */\n      dup6\n        /* \"#utility.yul\":10175:10193   */\n      add\n        /* \"#utility.yul\":10162:10194   */\n      calldataload\n        /* \"#utility.yul\":10221:10239   */\n      0xffffffffffffffff\n        /* \"#utility.yul\":10213:10219   */\n      dup2\n        /* \"#utility.yul\":10210:10240   */\n      gt\n        /* \"#utility.yul\":10207:10324   */\n      iszero\n      tag_575\n      jumpi\n        /* \"#utility.yul\":10243:10322   */\n      tag_576\n      tag_362\n      jump\t// in\n    tag_576:\n        /* \"#utility.yul\":10207:10324   */\n    tag_575:\n        /* \"#utility.yul\":10356:10421   */\n      tag_577\n        /* \"#utility.yul\":10413:10420   */\n      dup8\n        /* \"#utility.yul\":10404:10410   */\n      dup3\n        /* \"#utility.yul\":10393:10402   */\n      dup9\n        /* \"#utility.yul\":10389:10411   */\n      add\n        /* \"#utility.yul\":10356:10421   */\n      tag_394\n      jump\t// in\n    tag_577:\n        /* \"#utility.yul\":10338:10421   */\n      swap3\n      pop\n      swap3\n      pop\n        /* \"#utility.yul\":10133:10431   */\n      pop\n        /* \"#utility.yul\":9564:10438   */\n      swap3\n      swap6\n      swap2\n      swap5\n      pop\n      swap3\n      pop\n      jump\t// out\n        /* \"#utility.yul\":10444:10757   */\n    tag_100:\n        /* \"#utility.yul\":10557:10561   */\n      0x00\n        /* \"#utility.yul\":10595:10597   */\n      0x20\n        /* \"#utility.yul\":10584:10593   */\n      dup3\n        /* \"#utility.yul\":10580:10598   */\n      add\n        /* \"#utility.yul\":10572:10598   */\n      swap1\n      pop\n        /* \"#utility.yul\":10644:10653   */\n      dup2\n        /* \"#utility.yul\":10638:10642   */\n      dup2\n        /* \"#utility.yul\":10634:10654   */\n      sub\n        /* \"#utility.yul\":10630:10631   */\n      0x00\n        /* \"#utility.yul\":10619:10628   */\n      dup4\n        /* \"#utility.yul\":10615:10632   */\n      add\n        /* \"#utility.yul\":10608:10655   */\n      mstore\n        /* \"#utility.yul\":10672:10750   */\n      tag_579\n        /* \"#utility.yul\":10745:10749   */\n      dup2\n        /* \"#utility.yul\":10736:10742   */\n      dup5\n        /* \"#utility.yul\":10672:10750   */\n      tag_371\n      jump\t// in\n    tag_579:\n        /* \"#utility.yul\":10664:10750   */\n      swap1\n      pop\n        /* \"#utility.yul\":10444:10757   */\n      swap3\n      swap2\n      pop\n      pop\n      jump\t// out\n        /* \"#utility.yul\":10763:10985   */\n    tag_107:\n        /* \"#utility.yul\":10856:10860   */\n      0x00\n        /* \"#utility.yul\":10894:10896   */\n      0x20\n        /* \"#utility.yul\":10883:10892   */\n      dup3\n        /* \"#utility.yul\":10879:10897   */\n      add\n        /* \"#utility.yul\":10871:10897   */\n      swap1\n      pop\n        /* \"#utility.yul\":10907:10978   */\n      tag_581\n        /* \"#utility.yul\":10975:10976   */\n      0x00\n        /* \"#utility.yul\":10964:10973   */\n      dup4\n        /* \"#utility.yul\":10960:10977   */\n      add\n        /* \"#utility.yul\":10951:10957   */\n      dup5\n        /* \"#utility.yul\":10907:10978   */\n      tag_373\n      jump\t// in\n    tag_581:\n        /* \"#utility.yul\":10763:10985   */\n      swap3\n      swap2\n      pop\n      pop\n      jump\t// out\n        /* \"#utility.yul\":10991:11128   */\n    tag_397:\n        /* \"#utility.yul\":11081:11087   */\n      0x00\n        /* \"#utility.yul\":11115:11120   */\n      dup2\n        /* \"#utility.yul\":11109:11121   */\n      mload\n        /* \"#utility.yul\":11099:11121   */\n      swap1\n      pop\n        /* \"#utility.yul\":10991:11128   */\n      swap2\n      swap1\n      pop\n      jump\t// out\n        /* \"#utility.yul\":11134:11341   */\n    tag_398:\n        /* \"#utility.yul\":11256:11267   */\n      0x00\n        /* \"#utility.yul\":11290:11296   */\n      dup3\n        /* \"#utility.yul\":11285:11288   */\n      dup3\n        /* \"#utility.yul\":11278:11297   */\n      mstore\n        /* \"#utility.yul\":11330:11334   */\n      0x20\n        /* \"#utility.yul\":11325:11328   */\n      dup3\n        /* \"#utility.yul\":11321:11335   */\n      add\n        /* \"#utility.yul\":11306:11335   */\n      swap1\n      pop\n        /* \"#utility.yul\":11134:11341   */\n      swap3\n      swap2\n      pop\n      pop\n      jump\t// out\n        /* \"#utility.yul\":11347:11502   */\n    tag_399:\n        /* \"#utility.yul\":11437:11441   */\n      0x00\n        /* \"#utility.yul\":11460:11463   */\n      dup2\n        /* \"#utility.yul\":11452:11463   */\n      swap1\n      pop\n        /* \"#utility.yul\":11490:11494   */\n      0x20\n        /* \"#utility.yul\":11485:11488   */\n      dup3\n        /* \"#utility.yul\":11481:11495   */\n      add\n        /* \"#utility.yul\":11473:11495   */\n      swap1\n      pop\n        /* \"#utility.yul\":11347:11502   */\n      swap2\n      swap1\n      pop\n      jump\t// out\n        /* \"#utility.yul\":11508:11667   */\n    tag_400:\n        /* \"#utility.yul\":11582:11593   */\n      0x00\n        /* \"#utility.yul\":11616:11622   */\n      dup3\n        /* \"#utility.yul\":11611:11614   */\n      dup3\n        /* \"#utility.yul\":11604:11623   */\n      mstore\n        /* \"#utility.yul\":11656:11660   */\n      0x20\n        /* \"#utility.yul\":11651:11654   */\n      dup3\n        /* \"#utility.yul\":11647:11661   */\n      add\n        /* \"#utility.yul\":11632:11661   */\n      swap1\n      pop\n        /* \"#utility.yul\":11508:11667   */\n      swap3\n      swap2\n      pop\n      pop\n      jump\t// out\n        /* \"#utility.yul\":11673:12030   */\n    tag_401:\n        /* \"#utility.yul\":11751:11754   */\n      0x00\n        /* \"#utility.yul\":11779:11818   */\n      tag_587\n        /* \"#utility.yul\":11812:11817   */\n      dup3\n        /* \"#utility.yul\":11779:11818   */\n      tag_367\n      jump\t// in\n    tag_587:\n        /* \"#utility.yul\":11834:11895   */\n      tag_588\n        /* \"#utility.yul\":11888:11894   */\n      dup2\n        /* \"#utility.yul\":11883:11886   */\n      dup6\n        /* \"#utility.yul\":11834:11895   */\n      tag_400\n      jump\t// in\n    tag_588:\n        /* \"#utility.yul\":11827:11895   */\n      swap4\n      pop\n        /* \"#utility.yul\":11904:11969   */\n      tag_589\n        /* \"#utility.yul\":11962:11968   */\n      dup2\n        /* \"#utility.yul\":11957:11960   */\n      dup6\n        /* \"#utility.yul\":11950:11954   */\n      0x20\n        /* \"#utility.yul\":11943:11948   */\n      dup7\n        /* \"#utility.yul\":11939:11955   */\n      add\n        /* \"#utility.yul\":11904:11969   */\n      tag_369\n      jump\t// in\n    tag_589:\n        /* \"#utility.yul\":11994:12023   */\n      tag_590\n        /* \"#utility.yul\":12016:12022   */\n      dup2\n        /* \"#utility.yul\":11994:12023   */\n      tag_370\n      jump\t// in\n    tag_590:\n        /* \"#utility.yul\":11989:11992   */\n      dup5\n        /* \"#utility.yul\":11985:12024   */\n      add\n        /* \"#utility.yul\":11978:12024   */\n      swap2\n      pop\n        /* \"#utility.yul\":11755:12030   */\n      pop\n        /* \"#utility.yul\":11673:12030   */\n      swap3\n      swap2\n      pop\n      pop\n      jump\t// out\n        /* \"#utility.yul\":12036:12144   */\n    tag_402:\n        /* \"#utility.yul\":12113:12137   */\n      tag_592\n        /* \"#utility.yul\":12131:12136   */\n      dup2\n        /* \"#utility.yul\":12113:12137   */\n      tag_372\n      jump\t// in\n    tag_592:\n        /* \"#utility.yul\":12108:12111   */\n      dup3\n        /* \"#utility.yul\":12101:12138   */\n      mstore\n        /* \"#utility.yul\":12036:12144   */\n      pop\n      pop\n      jump\t// out\n        /* \"#utility.yul\":12198:12788   */\n    tag_403:\n        /* \"#utility.yul\":12303:12306   */\n      0x00\n        /* \"#utility.yul\":12339:12343   */\n      0x40\n        /* \"#utility.yul\":12334:12337   */\n      dup4\n        /* \"#utility.yul\":12330:12344   */\n      add\n        /* \"#utility.yul\":12426:12430   */\n      0x00\n        /* \"#utility.yul\":12419:12424   */\n      dup4\n        /* \"#utility.yul\":12415:12431   */\n      add\n        /* \"#utility.yul\":12409:12432   */\n      mload\n        /* \"#utility.yul\":12479:12482   */\n      dup5\n        /* \"#utility.yul\":12473:12477   */\n      dup3\n        /* \"#utility.yul\":12469:12483   */\n      sub\n        /* \"#utility.yul\":12462:12466   */\n      0x00\n        /* \"#utility.yul\":12457:12460   */\n      dup7\n        /* \"#utility.yul\":12453:12467   */\n      add\n        /* \"#utility.yul\":12446:12484   */\n      mstore\n        /* \"#utility.yul\":12505:12578   */\n      tag_594\n        /* \"#utility.yul\":12573:12577   */\n      dup3\n        /* \"#utility.yul\":12559:12571   */\n      dup3\n        /* \"#utility.yul\":12505:12578   */\n      tag_401\n      jump\t// in\n    tag_594:\n        /* \"#utility.yul\":12497:12578   */\n      swap2\n      pop\n        /* \"#utility.yul\":12354:12589   */\n      pop\n        /* \"#utility.yul\":12669:12673   */\n      0x20\n        /* \"#utility.yul\":12662:12667   */\n      dup4\n        /* \"#utility.yul\":12658:12674   */\n      add\n        /* \"#utility.yul\":12652:12675   */\n      mload\n        /* \"#utility.yul\":12688:12751   */\n      tag_595\n        /* \"#utility.yul\":12745:12749   */\n      0x20\n        /* \"#utility.yul\":12740:12743   */\n      dup7\n        /* \"#utility.yul\":12736:12750   */\n      add\n        /* \"#utility.yul\":12722:12734   */\n      dup3\n        /* \"#utility.yul\":12688:12751   */\n      tag_402\n      jump\t// in\n    tag_595:\n        /* \"#utility.yul\":12599:12761   */\n      pop\n        /* \"#utility.yul\":12778:12782   */\n      dup1\n        /* \"#utility.yul\":12771:12782   */\n      swap2\n      pop\n        /* \"#utility.yul\":12308:12788   */\n      pop\n        /* \"#utility.yul\":12198:12788   */\n      swap3\n      swap2\n      pop\n      pop\n      jump\t// out\n        /* \"#utility.yul\":12794:13042   */\n    tag_404:\n        /* \"#utility.yul\":12909:12919   */\n      0x00\n        /* \"#utility.yul\":12944:13036   */\n      tag_597\n        /* \"#utility.yul\":13032:13035   */\n      dup4\n        /* \"#utility.yul\":13024:13030   */\n      dup4\n        /* \"#utility.yul\":12944:13036   */\n      tag_403\n      jump\t// in\n    tag_597:\n        /* \"#utility.yul\":12930:13036   */\n      swap1\n      pop\n        /* \"#utility.yul\":12794:13042   */\n      swap3\n      swap2\n      pop\n      pop\n      jump\t// out\n        /* \"#utility.yul\":13048:13184   */\n    tag_405:\n        /* \"#utility.yul\":13141:13145   */\n      0x00\n        /* \"#utility.yul\":13173:13177   */\n      0x20\n        /* \"#utility.yul\":13168:13171   */\n      dup3\n        /* \"#utility.yul\":13164:13178   */\n      add\n        /* \"#utility.yul\":13156:13178   */\n      swap1\n      pop\n        /* \"#utility.yul\":13048:13184   */\n      swap2\n      swap1\n      pop\n      jump\t// out\n        /* \"#utility.yul\":13242:14337   */\n    tag_406:\n        /* \"#utility.yul\":13407:13410   */\n      0x00\n        /* \"#utility.yul\":13436:13513   */\n      tag_600\n        /* \"#utility.yul\":13507:13512   */\n      dup3\n        /* \"#utility.yul\":13436:13513   */\n      tag_397\n      jump\t// in\n    tag_600:\n        /* \"#utility.yul\":13529:13638   */\n      tag_601\n        /* \"#utility.yul\":13631:13637   */\n      dup2\n        /* \"#utility.yul\":13626:13629   */\n      dup6\n        /* \"#utility.yul\":13529:13638   */\n      tag_398\n      jump\t// in\n    tag_601:\n        /* \"#utility.yul\":13522:13638   */\n      swap4\n      pop\n        /* \"#utility.yul\":13664:13667   */\n      dup4\n        /* \"#utility.yul\":13709:13713   */\n      0x20\n        /* \"#utility.yul\":13701:13707   */\n      dup3\n        /* \"#utility.yul\":13697:13714   */\n      mul\n        /* \"#utility.yul\":13692:13695   */\n      dup6\n        /* \"#utility.yul\":13688:13715   */\n      add\n        /* \"#utility.yul\":13739:13818   */\n      tag_602\n        /* \"#utility.yul\":13812:13817   */\n      dup6\n        /* \"#utility.yul\":13739:13818   */\n      tag_399\n      jump\t// in\n    tag_602:\n        /* \"#utility.yul\":13841:13848   */\n      dup1\n        /* \"#utility.yul\":13872:13873   */\n      0x00\n        /* \"#utility.yul\":13857:14292   */\n    tag_603:\n        /* \"#utility.yul\":13882:13888   */\n      dup6\n        /* \"#utility.yul\":13879:13880   */\n      dup2\n        /* \"#utility.yul\":13876:13889   */\n      lt\n        /* \"#utility.yul\":13857:14292   */\n      iszero\n      tag_605\n      jumpi\n        /* \"#utility.yul\":13953:13962   */\n      dup5\n        /* \"#utility.yul\":13947:13951   */\n      dup5\n        /* \"#utility.yul\":13943:13963   */\n      sub\n        /* \"#utility.yul\":13938:13941   */\n      dup10\n        /* \"#utility.yul\":13931:13964   */\n      mstore\n        /* \"#utility.yul\":14004:14010   */\n      dup2\n        /* \"#utility.yul\":13998:14011   */\n      mload\n        /* \"#utility.yul\":14032:14142   */\n      tag_606\n        /* \"#utility.yul\":14137:14141   */\n      dup6\n        /* \"#utility.yul\":14122:14135   */\n      dup3\n        /* \"#utility.yul\":14032:14142   */\n      tag_404\n      jump\t// in\n    tag_606:\n        /* \"#utility.yul\":14024:14142   */\n      swap5\n      pop\n        /* \"#utility.yul\":14165:14248   */\n      tag_607\n        /* \"#utility.yul\":14241:14247   */\n      dup4\n        /* \"#utility.yul\":14165:14248   */\n      tag_405\n      jump\t// in\n    tag_607:\n        /* \"#utility.yul\":14155:14248   */\n      swap3\n      pop\n        /* \"#utility.yul\":14277:14281   */\n      0x20\n        /* \"#utility.yul\":14272:14275   */\n      dup11\n        /* \"#utility.yul\":14268:14282   */\n      add\n        /* \"#utility.yul\":14261:14282   */\n      swap10\n      pop\n        /* \"#utility.yul\":13917:14292   */\n      pop\n        /* \"#utility.yul\":13904:13905   */\n      0x01\n        /* \"#utility.yul\":13901:13902   */\n      dup2\n        /* \"#utility.yul\":13897:13906   */\n      add\n        /* \"#utility.yul\":13892:13906   */\n      swap1\n      pop\n        /* \"#utility.yul\":13857:14292   */\n      jump(tag_603)\n    tag_605:\n        /* \"#utility.yul\":13861:13875   */\n      pop\n        /* \"#utility.yul\":14308:14312   */\n      dup3\n        /* \"#utility.yul\":14301:14312   */\n      swap8\n      pop\n        /* \"#utility.yul\":14328:14331   */\n      dup8\n        /* \"#utility.yul\":14321:14331   */\n      swap6\n      pop\n        /* \"#utility.yul\":13412:14337   */\n      pop\n      pop\n      pop\n      pop\n      pop\n        /* \"#utility.yul\":13242:14337   */\n      swap3\n      swap2\n      pop\n      pop\n      jump\t// out\n        /* \"#utility.yul\":14343:14808   */\n    tag_112:\n        /* \"#utility.yul\":14532:14536   */\n      0x00\n        /* \"#utility.yul\":14570:14572   */\n      0x20\n        /* \"#utility.yul\":14559:14568   */\n      dup3\n        /* \"#utility.yul\":14555:14573   */\n      add\n        /* \"#utility.yul\":14547:14573   */\n      swap1\n      pop\n        /* \"#utility.yul\":14619:14628   */\n      dup2\n        /* \"#utility.yul\":14613:14617   */\n      dup2\n        /* \"#utility.yul\":14609:14629   */\n      sub\n        /* \"#utility.yul\":14605:14606   */\n      0x00\n        /* \"#utility.yul\":14594:14603   */\n      dup4\n        /* \"#utility.yul\":14590:14607   */\n      add\n        /* \"#utility.yul\":14583:14630   */\n      mstore\n        /* \"#utility.yul\":14647:14801   */\n      tag_609\n        /* \"#utility.yul\":14796:14800   */\n      dup2\n        /* \"#utility.yul\":14787:14793   */\n      dup5\n        /* \"#utility.yul\":14647:14801   */\n      tag_406\n      jump\t// in\n    tag_609:\n        /* \"#utility.yul\":14639:14801   */\n      swap1\n      pop\n        /* \"#utility.yul\":14343:14808   */\n      swap3\n      swap2\n      pop\n      pop\n      jump\t// out\n        /* \"#utility.yul\":14814:14932   */\n    tag_407:\n        /* \"#utility.yul\":14901:14925   */\n      tag_611\n        /* \"#utility.yul\":14919:14924   */\n      dup2\n        /* \"#utility.yul\":14901:14925   */\n      tag_364\n      jump\t// in\n    tag_611:\n        /* \"#utility.yul\":14896:14899   */\n      dup3\n        /* \"#utility.yul\":14889:14926   */\n      mstore\n        /* \"#utility.yul\":14814:14932   */\n      pop\n      pop\n      jump\t// out\n        /* \"#utility.yul\":14938:15491   */\n    tag_117:\n        /* \"#utility.yul\":15115:15119   */\n      0x00\n        /* \"#utility.yul\":15153:15156   */\n      0x80\n        /* \"#utility.yul\":15142:15151   */\n      dup3\n        /* \"#utility.yul\":15138:15157   */\n      add\n        /* \"#utility.yul\":15130:15157   */\n      swap1\n      pop\n        /* \"#utility.yul\":15167:15238   */\n      tag_613\n        /* \"#utility.yul\":15235:15236   */\n      0x00\n        /* \"#utility.yul\":15224:15233   */\n      dup4\n        /* \"#utility.yul\":15220:15237   */\n      add\n        /* \"#utility.yul\":15211:15217   */\n      dup8\n        /* \"#utility.yul\":15167:15238   */\n      tag_373\n      jump\t// in\n    tag_613:\n        /* \"#utility.yul\":15248:15320   */\n      tag_614\n        /* \"#utility.yul\":15316:15318   */\n      0x20\n        /* \"#utility.yul\":15305:15314   */\n      dup4\n        /* \"#utility.yul\":15301:15319   */\n      add\n        /* \"#utility.yul\":15292:15298   */\n      dup7\n        /* \"#utility.yul\":15248:15320   */\n      tag_373\n      jump\t// in\n    tag_614:\n        /* \"#utility.yul\":15330:15402   */\n      tag_615\n        /* \"#utility.yul\":15398:15400   */\n      0x40\n        /* \"#utility.yul\":15387:15396   */\n      dup4\n        /* \"#utility.yul\":15383:15401   */\n      add\n        /* \"#utility.yul\":15374:15380   */\n      dup6\n        /* \"#utility.yul\":15330:15402   */\n      tag_373\n      jump\t// in\n    tag_615:\n        /* \"#utility.yul\":15412:15484   */\n      tag_616\n        /* \"#utility.yul\":15480:15482   */\n      0x60\n        /* \"#utility.yul\":15469:15478   */\n      dup4\n        /* \"#utility.yul\":15465:15483   */\n      add\n        /* \"#utility.yul\":15456:15462   */\n      dup5\n        /* \"#utility.yul\":15412:15484   */\n      tag_407\n      jump\t// in\n    tag_616:\n        /* \"#utility.yul\":14938:15491   */\n      swap6\n      swap5\n      pop\n      pop\n      pop\n      pop\n      pop\n      jump\t// out\n        /* \"#utility.yul\":15497:15829   */\n    tag_137:\n        /* \"#utility.yul\":15618:15622   */\n      0x00\n        /* \"#utility.yul\":15656:15658   */\n      0x40\n        /* \"#utility.yul\":15645:15654   */\n      dup3\n        /* \"#utility.yul\":15641:15659   */\n      add\n        /* \"#utility.yul\":15633:15659   */\n      swap1\n      pop\n        /* \"#utility.yul\":15669:15740   */\n      tag_618\n        /* \"#utility.yul\":15737:15738   */\n      0x00\n        /* \"#utility.yul\":15726:15735   */\n      dup4\n        /* \"#utility.yul\":15722:15739   */\n      add\n        /* \"#utility.yul\":15713:15719   */\n      dup6\n        /* \"#utility.yul\":15669:15740   */\n      tag_373\n      jump\t// in\n    tag_618:\n        /* \"#utility.yul\":15750:15822   */\n      tag_619\n        /* \"#utility.yul\":15818:15820   */\n      0x20\n        /* \"#utility.yul\":15807:15816   */\n      dup4\n        /* \"#utility.yul\":15803:15821   */\n      add\n        /* \"#utility.yul\":15794:15800   */\n      dup5\n        /* \"#utility.yul\":15750:15822   */\n      tag_407\n      jump\t// in\n    tag_619:\n        /* \"#utility.yul\":15497:15829   */\n      swap4\n      swap3\n      pop\n      pop\n      pop\n      jump\t// out\n        /* \"#utility.yul\":15835:15944   */\n    tag_408:\n        /* \"#utility.yul\":15916:15937   */\n      tag_621\n        /* \"#utility.yul\":15931:15936   */\n      dup2\n        /* \"#utility.yul\":15916:15937   */\n      tag_380\n      jump\t// in\n    tag_621:\n        /* \"#utility.yul\":15911:15914   */\n      dup3\n        /* \"#utility.yul\":15904:15938   */\n      mstore\n        /* \"#utility.yul\":15835:15944   */\n      pop\n      pop\n      jump\t// out\n        /* \"#utility.yul\":15950:16160   */\n    tag_143:\n        /* \"#utility.yul\":16037:16041   */\n      0x00\n        /* \"#utility.yul\":16075:16077   */\n      0x20\n        /* \"#utility.yul\":16064:16073   */\n      dup3\n        /* \"#utility.yul\":16060:16078   */\n      add\n        /* \"#utility.yul\":16052:16078   */\n      swap1\n      pop\n        /* \"#utility.yul\":16088:16153   */\n      tag_623\n        /* \"#utility.yul\":16150:16151   */\n      0x00\n        /* \"#utility.yul\":16139:16148   */\n      dup4\n        /* \"#utility.yul\":16135:16152   */\n      add\n        /* \"#utility.yul\":16126:16132   */\n      dup5\n        /* \"#utility.yul\":16088:16153   */\n      tag_408\n      jump\t// in\n    tag_623:\n        /* \"#utility.yul\":15950:16160   */\n      swap3\n      swap2\n      pop\n      pop\n      jump\t// out\n        /* \"#utility.yul\":16166:16286   */\n    tag_409:\n        /* \"#utility.yul\":16238:16261   */\n      tag_625\n        /* \"#utility.yul\":16255:16260   */\n      dup2\n        /* \"#utility.yul\":16238:16261   */\n      tag_389\n      jump\t// in\n    tag_625:\n        /* \"#utility.yul\":16231:16236   */\n      dup2\n        /* \"#utility.yul\":16228:16262   */\n      eq\n        /* \"#utility.yul\":16218:16280   */\n      tag_626\n      jumpi\n        /* \"#utility.yul\":16276:16277   */\n      0x00\n        /* \"#utility.yul\":16273:16274   */\n      0x00\n        /* \"#utility.yul\":16266:16278   */\n      revert\n        /* \"#utility.yul\":16218:16280   */\n    tag_626:\n        /* \"#utility.yul\":16166:16286   */\n      pop\n      jump\t// out\n        /* \"#utility.yul\":16292:16429   */\n    tag_410:\n        /* \"#utility.yul\":16337:16342   */\n      0x00\n        /* \"#utility.yul\":16375:16381   */\n      dup2\n        /* \"#utility.yul\":16362:16382   */\n      calldataload\n        /* \"#utility.yul\":16353:16382   */\n      swap1\n      pop\n        /* \"#utility.yul\":16391:16423   */\n      tag_628\n        /* \"#utility.yul\":16417:16422   */\n      dup2\n        /* \"#utility.yul\":16391:16423   */\n      tag_409\n      jump\t// in\n    tag_628:\n        /* \"#utility.yul\":16292:16429   */\n      swap3\n      swap2\n      pop\n      pop\n      jump\t// out\n        /* \"#utility.yul\":16435:16762   */\n    tag_153:\n        /* \"#utility.yul\":16493:16499   */\n      0x00\n        /* \"#utility.yul\":16542:16544   */\n      0x20\n        /* \"#utility.yul\":16530:16539   */\n      dup3\n        /* \"#utility.yul\":16521:16528   */\n      dup5\n        /* \"#utility.yul\":16517:16540   */\n      sub\n        /* \"#utility.yul\":16513:16545   */\n      slt\n        /* \"#utility.yul\":16510:16629   */\n      iszero\n      tag_630\n      jumpi\n        /* \"#utility.yul\":16548:16627   */\n      tag_631\n      tag_361\n      jump\t// in\n    tag_631:\n        /* \"#utility.yul\":16510:16629   */\n    tag_630:\n        /* \"#utility.yul\":16668:16669   */\n      0x00\n        /* \"#utility.yul\":16693:16745   */\n      tag_632\n        /* \"#utility.yul\":16737:16744   */\n      dup5\n        /* \"#utility.yul\":16728:16734   */\n      dup3\n        /* \"#utility.yul\":16717:16726   */\n      dup6\n        /* \"#utility.yul\":16713:16735   */\n      add\n        /* \"#utility.yul\":16693:16745   */\n      tag_410\n      jump\t// in\n    tag_632:\n        /* \"#utility.yul\":16683:16745   */\n      swap2\n      pop\n        /* \"#utility.yul\":16639:16755   */\n      pop\n        /* \"#utility.yul\":16435:16762   */\n      swap3\n      swap2\n      pop\n      pop\n      jump\t// out\n        /* \"#utility.yul\":16768:16888   */\n    tag_411:\n        /* \"#utility.yul\":16840:16863   */\n      tag_634\n        /* \"#utility.yul\":16857:16862   */\n      dup2\n        /* \"#utility.yul\":16840:16863   */\n      tag_387\n      jump\t// in\n    tag_634:\n        /* \"#utility.yul\":16833:16838   */\n      dup2\n        /* \"#utility.yul\":16830:16864   */\n      eq\n        /* \"#utility.yul\":16820:16882   */\n      tag_635\n      jumpi\n        /* \"#utility.yul\":16878:16879   */\n      0x00\n        /* \"#utility.yul\":16875:16876   */\n      0x00\n        /* \"#utility.yul\":16868:16880   */\n      revert\n        /* \"#utility.yul\":16820:16882   */\n    tag_635:\n        /* \"#utility.yul\":16768:16888   */\n      pop\n      jump\t// out\n        /* \"#utility.yul\":16894:17031   */\n    tag_412:\n        /* \"#utility.yul\":16939:16944   */\n      0x00\n        /* \"#utility.yul\":16977:16983   */\n      dup2\n        /* \"#utility.yul\":16964:16984   */\n      calldataload\n        /* \"#utility.yul\":16955:16984   */\n      swap1\n      pop\n        /* \"#utility.yul\":16993:17025   */\n      tag_637\n        /* \"#utility.yul\":17019:17024   */\n      dup2\n        /* \"#utility.yul\":16993:17025   */\n      tag_411\n      jump\t// in\n    tag_637:\n        /* \"#utility.yul\":16894:17031   */\n      swap3\n      swap2\n      pop\n      pop\n      jump\t// out\n        /* \"#utility.yul\":17037:17364   */\n    tag_158:\n        /* \"#utility.yul\":17095:17101   */\n      0x00\n        /* \"#utility.yul\":17144:17146   */\n      0x20\n        /* \"#utility.yul\":17132:17141   */\n      dup3\n        /* \"#utility.yul\":17123:17130   */\n      dup5\n        /* \"#utility.yul\":17119:17142   */\n      sub\n        /* \"#utility.yul\":17115:17147   */\n      slt\n        /* \"#utility.yul\":17112:17231   */\n      iszero\n      tag_639\n      jumpi\n        /* \"#utility.yul\":17150:17229   */\n      tag_640\n      tag_361\n      jump\t// in\n    tag_640:\n        /* \"#utility.yul\":17112:17231   */\n    tag_639:\n        /* \"#utility.yul\":17270:17271   */\n      0x00\n        /* \"#utility.yul\":17295:17347   */\n      tag_641\n        /* \"#utility.yul\":17339:17346   */\n      dup5\n        /* \"#utility.yul\":17330:17336   */\n      dup3\n        /* \"#utility.yul\":17319:17328   */\n      dup6\n        /* \"#utility.yul\":17315:17337   */\n      add\n        /* \"#utility.yul\":17295:17347   */\n      tag_412\n      jump\t// in\n    tag_641:\n        /* \"#utility.yul\":17285:17347   */\n      swap2\n      pop\n        /* \"#utility.yul\":17241:17357   */\n      pop\n        /* \"#utility.yul\":17037:17364   */\n      swap3\n      swap2\n      pop\n      pop\n      jump\t// out\n        /* \"#utility.yul\":17370:17550   */\n    tag_321:\n        /* \"#utility.yul\":17418:17495   */\n      0x4e487b7100000000000000000000000000000000000000000000000000000000\n        /* \"#utility.yul\":17415:17416   */\n      0x00\n        /* \"#utility.yul\":17408:17496   */\n      mstore\n        /* \"#utility.yul\":17515:17519   */\n      0x21\n        /* \"#utility.yul\":17512:17513   */\n      0x04\n        /* \"#utility.yul\":17505:17520   */\n      mstore\n        /* \"#utility.yul\":17539:17543   */\n      0x24\n        /* \"#utility.yul\":17536:17537   */\n      0x00\n        /* \"#utility.yul\":17529:17544   */\n      revert\n        /* \"#utility.yul\":17556:17671   */\n    tag_413:\n        /* \"#utility.yul\":17639:17640   */\n      0x02\n        /* \"#utility.yul\":17632:17637   */\n      dup2\n        /* \"#utility.yul\":17629:17641   */\n      lt\n        /* \"#utility.yul\":17619:17665   */\n      tag_644\n      jumpi\n        /* \"#utility.yul\":17645:17663   */\n      tag_645\n      tag_321\n      jump\t// in\n    tag_645:\n        /* \"#utility.yul\":17619:17665   */\n    tag_644:\n        /* \"#utility.yul\":17556:17671   */\n      pop\n      jump\t// out\n        /* \"#utility.yul\":17677:17808   */\n    tag_414:\n        /* \"#utility.yul\":17724:17731   */\n      0x00\n        /* \"#utility.yul\":17753:17758   */\n      dup2\n        /* \"#utility.yul\":17742:17758   */\n      swap1\n      pop\n        /* \"#utility.yul\":17759:17802   */\n      tag_647\n        /* \"#utility.yul\":17796:17801   */\n      dup3\n        /* \"#utility.yul\":17759:17802   */\n      tag_413\n      jump\t// in\n    tag_647:\n        /* \"#utility.yul\":17677:17808   */\n      swap2\n      swap1\n      pop\n      jump\t// out\n        /* \"#utility.yul\":17814:17945   */\n    tag_415:\n        /* \"#utility.yul\":17872:17881   */\n      0x00\n        /* \"#utility.yul\":17905:17939   */\n      tag_649\n        /* \"#utility.yul\":17933:17938   */\n      dup3\n        /* \"#utility.yul\":17905:17939   */\n      tag_414\n      jump\t// in\n    tag_649:\n        /* \"#utility.yul\":17892:17939   */\n      swap1\n      pop\n        /* \"#utility.yul\":17814:17945   */\n      swap2\n      swap1\n      pop\n      jump\t// out\n        /* \"#utility.yul\":17951:18098   */\n    tag_416:\n        /* \"#utility.yul\":18046:18091   */\n      tag_651\n        /* \"#utility.yul\":18085:18090   */\n      dup2\n        /* \"#utility.yul\":18046:18091   */\n      tag_415\n      jump\t// in\n    tag_651:\n        /* \"#utility.yul\":18041:18044   */\n      dup3\n        /* \"#utility.yul\":18034:18092   */\n      mstore\n        /* \"#utility.yul\":17951:18098   */\n      pop\n      pop\n      jump\t// out\n        /* \"#utility.yul\":18104:18342   */\n    tag_173:\n        /* \"#utility.yul\":18205:18209   */\n      0x00\n        /* \"#utility.yul\":18243:18245   */\n      0x20\n        /* \"#utility.yul\":18232:18241   */\n      dup3\n        /* \"#utility.yul\":18228:18246   */\n      add\n        /* \"#utility.yul\":18220:18246   */\n      swap1\n      pop\n        /* \"#utility.yul\":18256:18335   */\n      tag_653\n        /* \"#utility.yul\":18332:18333   */\n      0x00\n        /* \"#utility.yul\":18321:18330   */\n      dup4\n        /* \"#utility.yul\":18317:18334   */\n      add\n        /* \"#utility.yul\":18308:18314   */\n      dup5\n        /* \"#utility.yul\":18256:18335   */\n      tag_416\n      jump\t// in\n    tag_653:\n        /* \"#utility.yul\":18104:18342   */\n      swap3\n      swap2\n      pop\n      pop\n      jump\t// out\n        /* \"#utility.yul\":18348:18437   */\n    tag_417:\n        /* \"#utility.yul\":18382:18389   */\n      0x00\n        /* \"#utility.yul\":18425:18430   */\n      dup2\n        /* \"#utility.yul\":18422:18423   */\n      0x00\n        /* \"#utility.yul\":18411:18431   */\n      signextend\n        /* \"#utility.yul\":18400:18431   */\n      swap1\n      pop\n        /* \"#utility.yul\":18348:18437   */\n      swap2\n      swap1\n      pop\n      jump\t// out\n        /* \"#utility.yul\":18443:18552   */\n    tag_418:\n        /* \"#utility.yul\":18524:18545   */\n      tag_656\n        /* \"#utility.yul\":18539:18544   */\n      dup2\n        /* \"#utility.yul\":18524:18545   */\n      tag_417\n      jump\t// in\n    tag_656:\n        /* \"#utility.yul\":18519:18522   */\n      dup3\n        /* \"#utility.yul\":18512:18546   */\n      mstore\n        /* \"#utility.yul\":18443:18552   */\n      pop\n      pop\n      jump\t// out\n        /* \"#utility.yul\":18558:18866   */\n    tag_178:\n        /* \"#utility.yul\":18667:18671   */\n      0x00\n        /* \"#utility.yul\":18705:18707   */\n      0x40\n        /* \"#utility.yul\":18694:18703   */\n      dup3\n        /* \"#utility.yul\":18690:18708   */\n      add\n        /* \"#utility.yul\":18682:18708   */\n      swap1\n      pop\n        /* \"#utility.yul\":18718:18783   */\n      tag_658\n        /* \"#utility.yul\":18780:18781   */\n      0x00\n        /* \"#utility.yul\":18769:18778   */\n      dup4\n        /* \"#utility.yul\":18765:18782   */\n      add\n        /* \"#utility.yul\":18756:18762   */\n      dup6\n        /* \"#utility.yul\":18718:18783   */\n      tag_418\n      jump\t// in\n    tag_658:\n        /* \"#utility.yul\":18793:18859   */\n      tag_659\n        /* \"#utility.yul\":18855:18857   */\n      0x20\n        /* \"#utility.yul\":18844:18853   */\n      dup4\n        /* \"#utility.yul\":18840:18858   */\n      add\n        /* \"#utility.yul\":18831:18837   */\n      dup5\n        /* \"#utility.yul\":18793:18859   */\n      tag_418\n      jump\t// in\n    tag_659:\n        /* \"#utility.yul\":18558:18866   */\n      swap4\n      swap3\n      pop\n      pop\n      pop\n      jump\t// out\n        /* \"#utility.yul\":18872:18987   */\n    tag_419:\n        /* \"#utility.yul\":18957:18980   */\n      tag_661\n        /* \"#utility.yul\":18974:18979   */\n      dup2\n        /* \"#utility.yul\":18957:18980   */\n      tag_377\n      jump\t// in\n    tag_661:\n        /* \"#utility.yul\":18952:18955   */\n      dup3\n        /* \"#utility.yul\":18945:18981   */\n      mstore\n        /* \"#utility.yul\":18872:18987   */\n      pop\n      pop\n      jump\t// out\n        /* \"#utility.yul\":18993:19211   */\n    tag_184:\n        /* \"#utility.yul\":19084:19088   */\n      0x00\n        /* \"#utility.yul\":19122:19124   */\n      0x20\n        /* \"#utility.yul\":19111:19120   */\n      dup3\n        /* \"#utility.yul\":19107:19125   */\n      add\n        /* \"#utility.yul\":19099:19125   */\n      swap1\n      pop\n        /* \"#utility.yul\":19135:19204   */\n      tag_663\n        /* \"#utility.yul\":19201:19202   */\n      0x00\n        /* \"#utility.yul\":19190:19199   */\n      dup4\n        /* \"#utility.yul\":19186:19203   */\n      add\n        /* \"#utility.yul\":19177:19183   */\n      dup5\n        /* \"#utility.yul\":19135:19204   */\n      tag_419\n      jump\t// in\n    tag_663:\n        /* \"#utility.yul\":18993:19211   */\n      swap3\n      swap2\n      pop\n      pop\n      jump\t// out\n        /* \"#utility.yul\":19217:19331   */\n    tag_420:\n        /* \"#utility.yul\":19284:19290   */\n      0x00\n        /* \"#utility.yul\":19318:19323   */\n      dup2\n        /* \"#utility.yul\":19312:19324   */\n      mload\n        /* \"#utility.yul\":19302:19324   */\n      swap1\n      pop\n        /* \"#utility.yul\":19217:19331   */\n      swap2\n      swap1\n      pop\n      jump\t// out\n        /* \"#utility.yul\":19337:19521   */\n    tag_421:\n        /* \"#utility.yul\":19436:19447   */\n      0x00\n        /* \"#utility.yul\":19470:19476   */\n      dup3\n        /* \"#utility.yul\":19465:19468   */\n      dup3\n        /* \"#utility.yul\":19458:19477   */\n      mstore\n        /* \"#utility.yul\":19510:19514   */\n      0x20\n        /* \"#utility.yul\":19505:19508   */\n      dup3\n        /* \"#utility.yul\":19501:19515   */\n      add\n        /* \"#utility.yul\":19486:19515   */\n      swap1\n      pop\n        /* \"#utility.yul\":19337:19521   */\n      swap3\n      swap2\n      pop\n      pop\n      jump\t// out\n        /* \"#utility.yul\":19527:19659   */\n    tag_422:\n        /* \"#utility.yul\":19594:19598   */\n      0x00\n        /* \"#utility.yul\":19617:19620   */\n      dup2\n        /* \"#utility.yul\":19609:19620   */\n      swap1\n      pop\n        /* \"#utility.yul\":19647:19651   */\n      0x20\n        /* \"#utility.yul\":19642:19645   */\n      dup3\n        /* \"#utility.yul\":19638:19652   */\n      add\n        /* \"#utility.yul\":19630:19652   */\n      swap1\n      pop\n        /* \"#utility.yul\":19527:19659   */\n      swap2\n      swap1\n      pop\n      jump\t// out\n        /* \"#utility.yul\":19665:19844   */\n    tag_423:\n        /* \"#utility.yul\":19734:19744   */\n      0x00\n        /* \"#utility.yul\":19755:19801   */\n      tag_668\n        /* \"#utility.yul\":19797:19800   */\n      dup4\n        /* \"#utility.yul\":19789:19795   */\n      dup4\n        /* \"#utility.yul\":19755:19801   */\n      tag_402\n      jump\t// in\n    tag_668:\n        /* \"#utility.yul\":19833:19837   */\n      0x20\n        /* \"#utility.yul\":19828:19831   */\n      dup4\n        /* \"#utility.yul\":19824:19838   */\n      add\n        /* \"#utility.yul\":19810:19838   */\n      swap1\n      pop\n        /* \"#utility.yul\":19665:19844   */\n      swap3\n      swap2\n      pop\n      pop\n      jump\t// out\n        /* \"#utility.yul\":19850:19963   */\n    tag_424:\n        /* \"#utility.yul\":19920:19924   */\n      0x00\n        /* \"#utility.yul\":19952:19956   */\n      0x20\n        /* \"#utility.yul\":19947:19950   */\n      dup3\n        /* \"#utility.yul\":19943:19957   */\n      add\n        /* \"#utility.yul\":19935:19957   */\n      swap1\n      pop\n        /* \"#utility.yul\":19850:19963   */\n      swap2\n      swap1\n      pop\n      jump\t// out\n        /* \"#utility.yul\":19999:20731   */\n    tag_425:\n        /* \"#utility.yul\":20118:20121   */\n      0x00\n        /* \"#utility.yul\":20147:20201   */\n      tag_671\n        /* \"#utility.yul\":20195:20200   */\n      dup3\n        /* \"#utility.yul\":20147:20201   */\n      tag_420\n      jump\t// in\n    tag_671:\n        /* \"#utility.yul\":20217:20303   */\n      tag_672\n        /* \"#utility.yul\":20296:20302   */\n      dup2\n        /* \"#utility.yul\":20291:20294   */\n      dup6\n        /* \"#utility.yul\":20217:20303   */\n      tag_421\n      jump\t// in\n    tag_672:\n        /* \"#utility.yul\":20210:20303   */\n      swap4\n      pop\n        /* \"#utility.yul\":20327:20383   */\n      tag_673\n        /* \"#utility.yul\":20377:20382   */\n      dup4\n        /* \"#utility.yul\":20327:20383   */\n      tag_422\n      jump\t// in\n    tag_673:\n        /* \"#utility.yul\":20406:20413   */\n      dup1\n        /* \"#utility.yul\":20437:20438   */\n      0x00\n        /* \"#utility.yul\":20422:20706   */\n    tag_674:\n        /* \"#utility.yul\":20447:20453   */\n      dup4\n        /* \"#utility.yul\":20444:20445   */\n      dup2\n        /* \"#utility.yul\":20441:20454   */\n      lt\n        /* \"#utility.yul\":20422:20706   */\n      iszero\n      tag_676\n      jumpi\n        /* \"#utility.yul\":20523:20529   */\n      dup2\n        /* \"#utility.yul\":20517:20530   */\n      mload\n        /* \"#utility.yul\":20550:20613   */\n      tag_677\n        /* \"#utility.yul\":20609:20612   */\n      dup9\n        /* \"#utility.yul\":20594:20607   */\n      dup3\n        /* \"#utility.yul\":20550:20613   */\n      tag_423\n      jump\t// in\n    tag_677:\n        /* \"#utility.yul\":20543:20613   */\n      swap8\n      pop\n        /* \"#utility.yul\":20636:20696   */\n      tag_678\n        /* \"#utility.yul\":20689:20695   */\n      dup4\n        /* \"#utility.yul\":20636:20696   */\n      tag_424\n      jump\t// in\n    tag_678:\n        /* \"#utility.yul\":20626:20696   */\n      swap3\n      pop\n        /* \"#utility.yul\":20482:20706   */\n      pop\n        /* \"#utility.yul\":20469:20470   */\n      0x01\n        /* \"#utility.yul\":20466:20467   */\n      dup2\n        /* \"#utility.yul\":20462:20471   */\n      add\n        /* \"#utility.yul\":20457:20471   */\n      swap1\n      pop\n        /* \"#utility.yul\":20422:20706   */\n      jump(tag_674)\n    tag_676:\n        /* \"#utility.yul\":20426:20440   */\n      pop\n        /* \"#utility.yul\":20722:20725   */\n      dup6\n        /* \"#utility.yul\":20715:20725   */\n      swap4\n      pop\n        /* \"#utility.yul\":20123:20731   */\n      pop\n      pop\n      pop\n        /* \"#utility.yul\":19999:20731   */\n      swap3\n      swap2\n      pop\n      pop\n      jump\t// out\n        /* \"#utility.yul\":20737:21220   */\n    tag_193:\n        /* \"#utility.yul\":20908:20912   */\n      0x00\n        /* \"#utility.yul\":20946:20948   */\n      0x40\n        /* \"#utility.yul\":20935:20944   */\n      dup3\n        /* \"#utility.yul\":20931:20949   */\n      add\n        /* \"#utility.yul\":20923:20949   */\n      swap1\n      pop\n        /* \"#utility.yul\":20995:21004   */\n      dup2\n        /* \"#utility.yul\":20989:20993   */\n      dup2\n        /* \"#utility.yul\":20985:21005   */\n      sub\n        /* \"#utility.yul\":20981:20982   */\n      0x00\n        /* \"#utility.yul\":20970:20979   */\n      dup4\n        /* \"#utility.yul\":20966:20983   */\n      add\n        /* \"#utility.yul\":20959:21006   */\n      mstore\n        /* \"#utility.yul\":21023:21131   */\n      tag_680\n        /* \"#utility.yul\":21126:21130   */\n      dup2\n        /* \"#utility.yul\":21117:21123   */\n      dup6\n        /* \"#utility.yul\":21023:21131   */\n      tag_425\n      jump\t// in\n    tag_680:\n        /* \"#utility.yul\":21015:21131   */\n      swap1\n      pop\n        /* \"#utility.yul\":21141:21213   */\n      tag_681\n        /* \"#utility.yul\":21209:21211   */\n      0x20\n        /* \"#utility.yul\":21198:21207   */\n      dup4\n        /* \"#utility.yul\":21194:21212   */\n      add\n        /* \"#utility.yul\":21185:21191   */\n      dup5\n        /* \"#utility.yul\":21141:21213   */\n      tag_373\n      jump\t// in\n    tag_681:\n        /* \"#utility.yul\":20737:21220   */\n      swap4\n      swap3\n      pop\n      pop\n      pop\n      jump\t// out\n        /* \"#utility.yul\":21226:21436   */\n    tag_198:\n        /* \"#utility.yul\":21313:21317   */\n      0x00\n        /* \"#utility.yul\":21351:21353   */\n      0x20\n        /* \"#utility.yul\":21340:21349   */\n      dup3\n        /* \"#utility.yul\":21336:21354   */\n      add\n        /* \"#utility.yul\":21328:21354   */\n      swap1\n      pop\n        /* \"#utility.yul\":21364:21429   */\n      tag_683\n        /* \"#utility.yul\":21426:21427   */\n      0x00\n        /* \"#utility.yul\":21415:21424   */\n      dup4\n        /* \"#utility.yul\":21411:21428   */\n      add\n        /* \"#utility.yul\":21402:21408   */\n      dup5\n        /* \"#utility.yul\":21364:21429   */\n      tag_418\n      jump\t// in\n    tag_683:\n        /* \"#utility.yul\":21226:21436   */\n      swap3\n      swap2\n      pop\n      pop\n      jump\t// out\n        /* \"#utility.yul\":21455:22007   */\n    tag_426:\n        /* \"#utility.yul\":21512:21520   */\n      0x00\n        /* \"#utility.yul\":21522:21528   */\n      0x00\n        /* \"#utility.yul\":21572:21575   */\n      dup4\n        /* \"#utility.yul\":21565:21569   */\n      0x1f\n        /* \"#utility.yul\":21557:21563   */\n      dup5\n        /* \"#utility.yul\":21553:21570   */\n      add\n        /* \"#utility.yul\":21549:21576   */\n      slt\n        /* \"#utility.yul\":21539:21661   */\n      tag_685\n      jumpi\n        /* \"#utility.yul\":21580:21659   */\n      tag_686\n      tag_391\n      jump\t// in\n    tag_686:\n        /* \"#utility.yul\":21539:21661   */\n    tag_685:\n        /* \"#utility.yul\":21693:21699   */\n      dup3\n        /* \"#utility.yul\":21680:21700   */\n      calldataload\n        /* \"#utility.yul\":21670:21700   */\n      swap1\n      pop\n        /* \"#utility.yul\":21723:21741   */\n      0xffffffffffffffff\n        /* \"#utility.yul\":21715:21721   */\n      dup2\n        /* \"#utility.yul\":21712:21742   */\n      gt\n        /* \"#utility.yul\":21709:21826   */\n      iszero\n      tag_687\n      jumpi\n        /* \"#utility.yul\":21745:21824   */\n      tag_688\n      tag_392\n      jump\t// in\n    tag_688:\n        /* \"#utility.yul\":21709:21826   */\n    tag_687:\n        /* \"#utility.yul\":21859:21863   */\n      0x20\n        /* \"#utility.yul\":21851:21857   */\n      dup4\n        /* \"#utility.yul\":21847:21864   */\n      add\n        /* \"#utility.yul\":21835:21864   */\n      swap2\n      pop\n        /* \"#utility.yul\":21913:21916   */\n      dup4\n        /* \"#utility.yul\":21905:21909   */\n      0x01\n        /* \"#utility.yul\":21897:21903   */\n      dup3\n        /* \"#utility.yul\":21893:21910   */\n      mul\n        /* \"#utility.yul\":21883:21891   */\n      dup4\n        /* \"#utility.yul\":21879:21911   */\n      add\n        /* \"#utility.yul\":21876:21917   */\n      gt\n        /* \"#utility.yul\":21873:22001   */\n      iszero\n      tag_689\n      jumpi\n        /* \"#utility.yul\":21920:21999   */\n      tag_690\n      tag_393\n      jump\t// in\n    tag_690:\n        /* \"#utility.yul\":21873:22001   */\n    tag_689:\n        /* \"#utility.yul\":21455:22007   */\n      swap3\n      pop\n      swap3\n      swap1\n      pop\n      jump\t// out\n        /* \"#utility.yul\":22013:22540   */\n    tag_206:\n        /* \"#utility.yul\":22083:22089   */\n      0x00\n        /* \"#utility.yul\":22091:22097   */\n      0x00\n        /* \"#utility.yul\":22140:22142   */\n      0x20\n        /* \"#utility.yul\":22128:22137   */\n      dup4\n        /* \"#utility.yul\":22119:22126   */\n      dup6\n        /* \"#utility.yul\":22115:22138   */\n      sub\n        /* \"#utility.yul\":22111:22143   */\n      slt\n        /* \"#utility.yul\":22108:22227   */\n      iszero\n      tag_692\n      jumpi\n        /* \"#utility.yul\":22146:22225   */\n      tag_693\n      tag_361\n      jump\t// in\n    tag_693:\n        /* \"#utility.yul\":22108:22227   */\n    tag_692:\n        /* \"#utility.yul\":22294:22295   */\n      0x00\n        /* \"#utility.yul\":22283:22292   */\n      dup4\n        /* \"#utility.yul\":22279:22296   */\n      add\n        /* \"#utility.yul\":22266:22297   */\n      calldataload\n        /* \"#utility.yul\":22324:22342   */\n      0xffffffffffffffff\n        /* \"#utility.yul\":22316:22322   */\n      dup2\n        /* \"#utility.yul\":22313:22343   */\n      gt\n        /* \"#utility.yul\":22310:22427   */\n      iszero\n      tag_694\n      jumpi\n        /* \"#utility.yul\":22346:22425   */\n      tag_695\n      tag_362\n      jump\t// in\n    tag_695:\n        /* \"#utility.yul\":22310:22427   */\n    tag_694:\n        /* \"#utility.yul\":22459:22523   */\n      tag_696\n        /* \"#utility.yul\":22515:22522   */\n      dup6\n        /* \"#utility.yul\":22506:22512   */\n      dup3\n        /* \"#utility.yul\":22495:22504   */\n      dup7\n        /* \"#utility.yul\":22491:22513   */\n      add\n        /* \"#utility.yul\":22459:22523   */\n      tag_426\n      jump\t// in\n    tag_696:\n        /* \"#utility.yul\":22441:22523   */\n      swap3\n      pop\n      swap3\n      pop\n        /* \"#utility.yul\":22237:22533   */\n      pop\n        /* \"#utility.yul\":22013:22540   */\n      swap3\n      pop\n      swap3\n      swap1\n      pop\n      jump\t// out\n        /* \"#utility.yul\":22546:22726   */\n    tag_427:\n        /* \"#utility.yul\":22594:22671   */\n      0x4e487b7100000000000000000000000000000000000000000000000000000000\n        /* \"#utility.yul\":22591:22592   */\n      0x00\n        /* \"#utility.yul\":22584:22672   */\n      mstore\n        /* \"#utility.yul\":22691:22695   */\n      0x22\n        /* \"#utility.yul\":22688:22689   */\n      0x04\n        /* \"#utility.yul\":22681:22696   */\n      mstore\n        /* \"#utility.yul\":22715:22719   */\n      0x24\n        /* \"#utility.yul\":22712:22713   */\n      0x00\n        /* \"#utility.yul\":22705:22720   */\n      revert\n        /* \"#utility.yul\":22732:23052   */\n    tag_218:\n        /* \"#utility.yul\":22776:22782   */\n      0x00\n        /* \"#utility.yul\":22813:22814   */\n      0x02\n        /* \"#utility.yul\":22807:22811   */\n      dup3\n        /* \"#utility.yul\":22803:22815   */\n      div\n        /* \"#utility.yul\":22793:22815   */\n      swap1\n      pop\n        /* \"#utility.yul\":22860:22861   */\n      0x01\n        /* \"#utility.yul\":22854:22858   */\n      dup3\n        /* \"#utility.yul\":22850:22862   */\n      and\n        /* \"#utility.yul\":22881:22899   */\n      dup1\n        /* \"#utility.yul\":22871:22952   */\n      tag_699\n      jumpi\n        /* \"#utility.yul\":22937:22941   */\n      0x7f\n        /* \"#utility.yul\":22929:22935   */\n      dup3\n        /* \"#utility.yul\":22925:22942   */\n      and\n        /* \"#utility.yul\":22915:22942   */\n      swap2\n      pop\n        /* \"#utility.yul\":22871:22952   */\n    tag_699:\n        /* \"#utility.yul\":22999:23001   */\n      0x20\n        /* \"#utility.yul\":22991:22997   */\n      dup3\n        /* \"#utility.yul\":22988:23002   */\n      lt\n        /* \"#utility.yul\":22968:22986   */\n      dup2\n        /* \"#utility.yul\":22965:23003   */\n      sub\n        /* \"#utility.yul\":22962:23046   */\n      tag_700\n      jumpi\n        /* \"#utility.yul\":23018:23036   */\n      tag_701\n      tag_427\n      jump\t// in\n    tag_701:\n        /* \"#utility.yul\":22962:23046   */\n    tag_700:\n        /* \"#utility.yul\":22783:23052   */\n      pop\n        /* \"#utility.yul\":22732:23052   */\n      swap2\n      swap1\n      pop\n      jump\t// out\n        /* \"#utility.yul\":23058:23238   */\n    tag_234:\n        /* \"#utility.yul\":23106:23183   */\n      0x4e487b7100000000000000000000000000000000000000000000000000000000\n        /* \"#utility.yul\":23103:23104   */\n      0x00\n        /* \"#utility.yul\":23096:23184   */\n      mstore\n        /* \"#utility.yul\":23203:23207   */\n      0x01\n        /* \"#utility.yul\":23200:23201   */\n      0x04\n        /* \"#utility.yul\":23193:23208   */\n      mstore\n        /* \"#utility.yul\":23227:23231   */\n      0x24\n        /* \"#utility.yul\":23224:23225   */\n      0x00\n        /* \"#utility.yul\":23217:23232   */\n      revert\n        /* \"#utility.yul\":23244:23411   */\n    tag_428:\n        /* \"#utility.yul\":23384:23403   */\n      0x31206e6f20657320696775616c20612030000000000000000000000000000000\n        /* \"#utility.yul\":23380:23381   */\n      0x00\n        /* \"#utility.yul\":23372:23378   */\n      dup3\n        /* \"#utility.yul\":23368:23382   */\n      add\n        /* \"#utility.yul\":23361:23404   */\n      mstore\n        /* \"#utility.yul\":23244:23411   */\n      pop\n      jump\t// out\n        /* \"#utility.yul\":23417:23783   */\n    tag_429:\n        /* \"#utility.yul\":23559:23562   */\n      0x00\n        /* \"#utility.yul\":23580:23647   */\n      tag_705\n        /* \"#utility.yul\":23644:23646   */\n      0x11\n        /* \"#utility.yul\":23639:23642   */\n      dup4\n        /* \"#utility.yul\":23580:23647   */\n      tag_368\n      jump\t// in\n    tag_705:\n        /* \"#utility.yul\":23573:23647   */\n      swap2\n      pop\n        /* \"#utility.yul\":23656:23749   */\n      tag_706\n        /* \"#utility.yul\":23745:23748   */\n      dup3\n        /* \"#utility.yul\":23656:23749   */\n      tag_428\n      jump\t// in\n    tag_706:\n        /* \"#utility.yul\":23774:23776   */\n      0x20\n        /* \"#utility.yul\":23769:23772   */\n      dup3\n        /* \"#utility.yul\":23765:23777   */\n      add\n        /* \"#utility.yul\":23758:23777   */\n      swap1\n      pop\n        /* \"#utility.yul\":23417:23783   */\n      swap2\n      swap1\n      pop\n      jump\t// out\n        /* \"#utility.yul\":23789:24208   */\n    tag_238:\n        /* \"#utility.yul\":23955:23959   */\n      0x00\n        /* \"#utility.yul\":23993:23995   */\n      0x20\n        /* \"#utility.yul\":23982:23991   */\n      dup3\n        /* \"#utility.yul\":23978:23996   */\n      add\n        /* \"#utility.yul\":23970:23996   */\n      swap1\n      pop\n        /* \"#utility.yul\":24042:24051   */\n      dup2\n        /* \"#utility.yul\":24036:24040   */\n      dup2\n        /* \"#utility.yul\":24032:24052   */\n      sub\n        /* \"#utility.yul\":24028:24029   */\n      0x00\n        /* \"#utility.yul\":24017:24026   */\n      dup4\n        /* \"#utility.yul\":24013:24030   */\n      add\n        /* \"#utility.yul\":24006:24053   */\n      mstore\n        /* \"#utility.yul\":24070:24201   */\n      tag_708\n        /* \"#utility.yul\":24196:24200   */\n      dup2\n        /* \"#utility.yul\":24070:24201   */\n      tag_429\n      jump\t// in\n    tag_708:\n        /* \"#utility.yul\":24062:24201   */\n      swap1\n      pop\n        /* \"#utility.yul\":23789:24208   */\n      swap2\n      swap1\n      pop\n      jump\t// out\n        /* \"#utility.yul\":24214:24394   */\n    tag_430:\n        /* \"#utility.yul\":24262:24339   */\n      0x4e487b7100000000000000000000000000000000000000000000000000000000\n        /* \"#utility.yul\":24259:24260   */\n      0x00\n        /* \"#utility.yul\":24252:24340   */\n      mstore\n        /* \"#utility.yul\":24359:24363   */\n      0x11\n        /* \"#utility.yul\":24356:24357   */\n      0x04\n        /* \"#utility.yul\":24349:24364   */\n      mstore\n        /* \"#utility.yul\":24383:24387   */\n      0x24\n        /* \"#utility.yul\":24380:24381   */\n      0x00\n        /* \"#utility.yul\":24373:24388   */\n      revert\n        /* \"#utility.yul\":24400:24633   */\n    tag_240:\n        /* \"#utility.yul\":24439:24442   */\n      0x00\n        /* \"#utility.yul\":24462:24486   */\n      tag_711\n        /* \"#utility.yul\":24480:24485   */\n      dup3\n        /* \"#utility.yul\":24462:24486   */\n      tag_372\n      jump\t// in\n    tag_711:\n        /* \"#utility.yul\":24453:24486   */\n      swap2\n      pop\n        /* \"#utility.yul\":24508:24574   */\n      0xffffffffffffffffffffffffffffffffffffffffffffffffffffffffffffffff\n        /* \"#utility.yul\":24501:24506   */\n      dup3\n        /* \"#utility.yul\":24498:24575   */\n      sub\n        /* \"#utility.yul\":24495:24598   */\n      tag_712\n      jumpi\n        /* \"#utility.yul\":24578:24596   */\n      tag_713\n      tag_430\n      jump\t// in\n    tag_713:\n        /* \"#utility.yul\":24495:24598   */\n    tag_712:\n        /* \"#utility.yul\":24625:24626   */\n      0x01\n        /* \"#utility.yul\":24618:24623   */\n      dup3\n        /* \"#utility.yul\":24614:24627   */\n      add\n        /* \"#utility.yul\":24607:24627   */\n      swap1\n      pop\n        /* \"#utility.yul\":24400:24633   */\n      swap2\n      swap1\n      pop\n      jump\t// out\n        /* \"#utility.yul\":24639:24819   */\n    tag_333:\n        /* \"#utility.yul\":24687:24764   */\n      0x4e487b7100000000000000000000000000000000000000000000000000000000\n        /* \"#utility.yul\":24684:24685   */\n      0x00\n        /* \"#utility.yul\":24677:24765   */\n      mstore\n        /* \"#utility.yul\":24784:24788   */\n      0x41\n        /* \"#utility.yul\":24781:24782   */\n      0x04\n        /* \"#utility.yul\":24774:24789   */\n      mstore\n        /* \"#utility.yul\":24808:24812   */\n      0x24\n        /* \"#utility.yul\":24805:24806   */\n      0x00\n        /* \"#utility.yul\":24798:24813   */\n      revert\n        /* \"#utility.yul\":24825:24966   */\n    tag_431:\n        /* \"#utility.yul\":24874:24878   */\n      0x00\n        /* \"#utility.yul\":24897:24900   */\n      dup2\n        /* \"#utility.yul\":24889:24900   */\n      swap1\n      pop\n        /* \"#utility.yul\":24920:24923   */\n      dup2\n        /* \"#utility.yul\":24917:24918   */\n      0x00\n        /* \"#utility.yul\":24910:24924   */\n      mstore\n        /* \"#utility.yul\":24954:24958   */\n      0x20\n        /* \"#utility.yul\":24951:24952   */\n      0x00\n        /* \"#utility.yul\":24941:24959   */\n      keccak256\n        /* \"#utility.yul\":24933:24959   */\n      swap1\n      pop\n        /* \"#utility.yul\":24825:24966   */\n      swap2\n      swap1\n      pop\n      jump\t// out\n        /* \"#utility.yul\":24972:25065   */\n    tag_432:\n        /* \"#utility.yul\":25009:25015   */\n      0x00\n        /* \"#utility.yul\":25056:25058   */\n      0x20\n        /* \"#utility.yul\":25051:25053   */\n      0x1f\n        /* \"#utility.yul\":25044:25049   */\n      dup4\n        /* \"#utility.yul\":25040:25054   */\n      add\n        /* \"#utility.yul\":25036:25059   */\n      div\n        /* \"#utility.yul\":25026:25059   */\n      swap1\n      pop\n        /* \"#utility.yul\":24972:25065   */\n      swap2\n      swap1\n      pop\n      jump\t// out\n        /* \"#utility.yul\":25071:25178   */\n    tag_433:\n        /* \"#utility.yul\":25115:25123   */\n      0x00\n        /* \"#utility.yul\":25165:25170   */\n      dup3\n        /* \"#utility.yul\":25159:25163   */\n      dup3\n        /* \"#utility.yul\":25155:25171   */\n      shl\n        /* \"#utility.yul\":25134:25171   */\n      swap1\n      pop\n        /* \"#utility.yul\":25071:25178   */\n      swap3\n      swap2\n      pop\n      pop\n      jump\t// out\n        /* \"#utility.yul\":25184:25577   */\n    tag_434:\n        /* \"#utility.yul\":25253:25259   */\n      0x00\n        /* \"#utility.yul\":25303:25304   */\n      0x08\n        /* \"#utility.yul\":25291:25301   */\n      dup4\n        /* \"#utility.yul\":25287:25305   */\n      mul\n        /* \"#utility.yul\":25326:25423   */\n      tag_719\n        /* \"#utility.yul\":25356:25422   */\n      0xffffffffffffffffffffffffffffffffffffffffffffffffffffffffffffffff\n        /* \"#utility.yul\":25345:25354   */\n      dup3\n        /* \"#utility.yul\":25326:25423   */\n      tag_433\n      jump\t// in\n    tag_719:\n        /* \"#utility.yul\":25444:25483   */\n      tag_720\n        /* \"#utility.yul\":25474:25482   */\n      dup7\n        /* \"#utility.yul\":25463:25472   */\n      dup4\n        /* \"#utility.yul\":25444:25483   */\n      tag_433\n      jump\t// in\n    tag_720:\n        /* \"#utility.yul\":25432:25483   */\n      swap6\n      pop\n        /* \"#utility.yul\":25516:25520   */\n      dup1\n        /* \"#utility.yul\":25512:25521   */\n      not\n        /* \"#utility.yul\":25505:25510   */\n      dup5\n        /* \"#utility.yul\":25501:25522   */\n      and\n        /* \"#utility.yul\":25492:25522   */\n      swap4\n      pop\n        /* \"#utility.yul\":25565:25569   */\n      dup1\n        /* \"#utility.yul\":25555:25563   */\n      dup7\n        /* \"#utility.yul\":25551:25570   */\n      and\n        /* \"#utility.yul\":25544:25549   */\n      dup5\n        /* \"#utility.yul\":25541:25571   */\n      or\n        /* \"#utility.yul\":25531:25571   */\n      swap3\n      pop\n        /* \"#utility.yul\":25260:25577   */\n      pop\n      pop\n        /* \"#utility.yul\":25184:25577   */\n      swap4\n      swap3\n      pop\n      pop\n      pop\n      jump\t// out\n        /* \"#utility.yul\":25583:25643   */\n    tag_435:\n        /* \"#utility.yul\":25611:25614   */\n      0x00\n        /* \"#utility.yul\":25632:25637   */\n      dup2\n        /* \"#utility.yul\":25625:25637   */\n      swap1\n      pop\n        /* \"#utility.yul\":25583:25643   */\n      swap2\n      swap1\n      pop\n      jump\t// out\n        /* \"#utility.yul\":25649:25791   */\n    tag_436:\n        /* \"#utility.yul\":25699:25708   */\n      0x00\n        /* \"#utility.yul\":25732:25785   */\n      tag_723\n        /* \"#utility.yul\":25750:25784   */\n      tag_724\n        /* \"#utility.yul\":25759:25783   */\n      tag_725\n        /* \"#utility.yul\":25777:25782   */\n      dup5\n        /* \"#utility.yul\":25759:25783   */\n      tag_372\n      jump\t// in\n    tag_725:\n        /* \"#utility.yul\":25750:25784   */\n      tag_435\n      jump\t// in\n    tag_724:\n        /* \"#utility.yul\":25732:25785   */\n      tag_372\n      jump\t// in\n    tag_723:\n        /* \"#utility.yul\":25719:25785   */\n      swap1\n      pop\n        /* \"#utility.yul\":25649:25791   */\n      swap2\n      swap1\n      pop\n      jump\t// out\n        /* \"#utility.yul\":25797:25872   */\n    tag_437:\n        /* \"#utility.yul\":25840:25843   */\n      0x00\n        /* \"#utility.yul\":25861:25866   */\n      dup2\n        /* \"#utility.yul\":25854:25866   */\n      swap1\n      pop\n        /* \"#utility.yul\":25797:25872   */\n      swap2\n      swap1\n      pop\n      jump\t// out\n        /* \"#utility.yul\":25878:26147   */\n    tag_438:\n        /* \"#utility.yul\":25988:26027   */\n      tag_728\n        /* \"#utility.yul\":26019:26026   */\n      dup4\n        /* \"#utility.yul\":25988:26027   */\n      tag_436\n      jump\t// in\n    tag_728:\n        /* \"#utility.yul\":26049:26140   */\n      tag_729\n        /* \"#utility.yul\":26098:26139   */\n      tag_730\n        /* \"#utility.yul\":26122:26138   */\n      dup3\n        /* \"#utility.yul\":26098:26139   */\n      tag_437\n      jump\t// in\n    tag_730:\n        /* \"#utility.yul\":26090:26096   */\n      dup5\n        /* \"#utility.yul\":26083:26087   */\n      dup5\n        /* \"#utility.yul\":26077:26088   */\n      sload\n        /* \"#utility.yul\":26049:26140   */\n      tag_434\n      jump\t// in\n    tag_729:\n        /* \"#utility.yul\":26043:26047   */\n      dup3\n        /* \"#utility.yul\":26036:26141   */\n      sstore\n        /* \"#utility.yul\":25954:26147   */\n      pop\n        /* \"#utility.yul\":25878:26147   */\n      pop\n      pop\n      pop\n      jump\t// out\n        /* \"#utility.yul\":26153:26226   */\n    tag_439:\n        /* \"#utility.yul\":26198:26201   */\n      0x00\n        /* \"#utility.yul\":26219:26220   */\n      0x00\n        /* \"#utility.yul\":26212:26220   */\n      swap1\n      pop\n        /* \"#utility.yul\":26153:26226   */\n      swap1\n      jump\t// out\n        /* \"#utility.yul\":26232:26421   */\n    tag_440:\n        /* \"#utility.yul\":26309:26341   */\n      tag_733\n      tag_439\n      jump\t// in\n    tag_733:\n        /* \"#utility.yul\":26350:26415   */\n      tag_734\n        /* \"#utility.yul\":26408:26414   */\n      dup2\n        /* \"#utility.yul\":26400:26406   */\n      dup5\n        /* \"#utility.yul\":26394:26398   */\n      dup5\n        /* \"#utility.yul\":26350:26415   */\n      tag_438\n      jump\t// in\n    tag_734:\n        /* \"#utility.yul\":26285:26421   */\n      pop\n        /* \"#utility.yul\":26232:26421   */\n      pop\n      pop\n      jump\t// out\n        /* \"#utility.yul\":26427:26613   */\n    tag_441:\n        /* \"#utility.yul\":26487:26607   */\n    tag_736:\n        /* \"#utility.yul\":26504:26507   */\n      dup2\n        /* \"#utility.yul\":26497:26502   */\n      dup2\n        /* \"#utility.yul\":26494:26508   */\n      lt\n        /* \"#utility.yul\":26487:26607   */\n      iszero\n      tag_738\n      jumpi\n        /* \"#utility.yul\":26558:26597   */\n      tag_739\n        /* \"#utility.yul\":26595:26596   */\n      0x00\n        /* \"#utility.yul\":26588:26593   */\n      dup3\n        /* \"#utility.yul\":26558:26597   */\n      tag_440\n      jump\t// in\n    tag_739:\n        /* \"#utility.yul\":26531:26532   */\n      0x01\n        /* \"#utility.yul\":26524:26529   */\n      dup2\n        /* \"#utility.yul\":26520:26533   */\n      add\n        /* \"#utility.yul\":26511:26533   */\n      swap1\n      pop\n        /* \"#utility.yul\":26487:26607   */\n      jump(tag_736)\n    tag_738:\n        /* \"#utility.yul\":26427:26613   */\n      pop\n      pop\n      jump\t// out\n        /* \"#utility.yul\":26619:27162   */\n    tag_442:\n        /* \"#utility.yul\":26720:26722   */\n      0x1f\n        /* \"#utility.yul\":26715:26718   */\n      dup3\n        /* \"#utility.yul\":26712:26723   */\n      gt\n        /* \"#utility.yul\":26709:27155   */\n      iszero\n      tag_741\n      jumpi\n        /* \"#utility.yul\":26754:26792   */\n      tag_742\n        /* \"#utility.yul\":26786:26791   */\n      dup2\n        /* \"#utility.yul\":26754:26792   */\n      tag_431\n      jump\t// in\n    tag_742:\n        /* \"#utility.yul\":26838:26867   */\n      tag_743\n        /* \"#utility.yul\":26856:26866   */\n      dup5\n        /* \"#utility.yul\":26838:26867   */\n      tag_432\n      jump\t// in\n    tag_743:\n        /* \"#utility.yul\":26828:26836   */\n      dup2\n        /* \"#utility.yul\":26824:26868   */\n      add\n        /* \"#utility.yul\":27021:27023   */\n      0x20\n        /* \"#utility.yul\":27009:27019   */\n      dup6\n        /* \"#utility.yul\":27006:27024   */\n      lt\n        /* \"#utility.yul\":27003:27052   */\n      iszero\n      tag_744\n      jumpi\n        /* \"#utility.yul\":27042:27050   */\n      dup2\n        /* \"#utility.yul\":27027:27050   */\n      swap1\n      pop\n        /* \"#utility.yul\":27003:27052   */\n    tag_744:\n        /* \"#utility.yul\":27065:27145   */\n      tag_745\n        /* \"#utility.yul\":27121:27143   */\n      tag_746\n        /* \"#utility.yul\":27139:27142   */\n      dup6\n        /* \"#utility.yul\":27121:27143   */\n      tag_432\n      jump\t// in\n    tag_746:\n        /* \"#utility.yul\":27111:27119   */\n      dup4\n        /* \"#utility.yul\":27107:27144   */\n      add\n        /* \"#utility.yul\":27094:27105   */\n      dup3\n        /* \"#utility.yul\":27065:27145   */\n      tag_441\n      jump\t// in\n    tag_745:\n        /* \"#utility.yul\":26724:27155   */\n      pop\n      pop\n        /* \"#utility.yul\":26709:27155   */\n    tag_741:\n        /* \"#utility.yul\":26619:27162   */\n      pop\n      pop\n      pop\n      jump\t// out\n        /* \"#utility.yul\":27168:27285   */\n    tag_443:\n        /* \"#utility.yul\":27222:27230   */\n      0x00\n        /* \"#utility.yul\":27272:27277   */\n      dup3\n        /* \"#utility.yul\":27266:27270   */\n      dup3\n        /* \"#utility.yul\":27262:27278   */\n      shr\n        /* \"#utility.yul\":27241:27278   */\n      swap1\n      pop\n        /* \"#utility.yul\":27168:27285   */\n      swap3\n      swap2\n      pop\n      pop\n      jump\t// out\n        /* \"#utility.yul\":27291:27460   */\n    tag_444:\n        /* \"#utility.yul\":27335:27341   */\n      0x00\n        /* \"#utility.yul\":27368:27419   */\n      tag_749\n        /* \"#utility.yul\":27416:27417   */\n      0x00\n        /* \"#utility.yul\":27412:27418   */\n      not\n        /* \"#utility.yul\":27404:27409   */\n      dup5\n        /* \"#utility.yul\":27401:27402   */\n      0x08\n        /* \"#utility.yul\":27397:27410   */\n      mul\n        /* \"#utility.yul\":27368:27419   */\n      tag_443\n      jump\t// in\n    tag_749:\n        /* \"#utility.yul\":27364:27420   */\n      not\n        /* \"#utility.yul\":27449:27453   */\n      dup1\n        /* \"#utility.yul\":27443:27447   */\n      dup4\n        /* \"#utility.yul\":27439:27454   */\n      and\n        /* \"#utility.yul\":27429:27454   */\n      swap2\n      pop\n        /* \"#utility.yul\":27342:27460   */\n      pop\n        /* \"#utility.yul\":27291:27460   */\n      swap3\n      swap2\n      pop\n      pop\n      jump\t// out\n        /* \"#utility.yul\":27465:27760   */\n    tag_445:\n        /* \"#utility.yul\":27541:27545   */\n      0x00\n        /* \"#utility.yul\":27687:27716   */\n      tag_751\n        /* \"#utility.yul\":27712:27715   */\n      dup4\n        /* \"#utility.yul\":27706:27710   */\n      dup4\n        /* \"#utility.yul\":27687:27716   */\n      tag_444\n      jump\t// in\n    tag_751:\n        /* \"#utility.yul\":27679:27716   */\n      swap2\n      pop\n        /* \"#utility.yul\":27749:27752   */\n      dup3\n        /* \"#utility.yul\":27746:27747   */\n      0x02\n        /* \"#utility.yul\":27742:27753   */\n      mul\n        /* \"#utility.yul\":27736:27740   */\n      dup3\n        /* \"#utility.yul\":27733:27754   */\n      or\n        /* \"#utility.yul\":27725:27754   */\n      swap1\n      pop\n        /* \"#utility.yul\":27465:27760   */\n      swap3\n      swap2\n      pop\n      pop\n      jump\t// out\n        /* \"#utility.yul\":27765:29160   */\n    tag_248:\n        /* \"#utility.yul\":27882:27919   */\n      tag_753\n        /* \"#utility.yul\":27915:27918   */\n      dup3\n        /* \"#utility.yul\":27882:27919   */\n      tag_367\n      jump\t// in\n    tag_753:\n        /* \"#utility.yul\":27984:28002   */\n      0xffffffffffffffff\n        /* \"#utility.yul\":27976:27982   */\n      dup2\n        /* \"#utility.yul\":27973:28003   */\n      gt\n        /* \"#utility.yul\":27970:28026   */\n      iszero\n      tag_754\n      jumpi\n        /* \"#utility.yul\":28006:28024   */\n      tag_755\n      tag_333\n      jump\t// in\n    tag_755:\n        /* \"#utility.yul\":27970:28026   */\n    tag_754:\n        /* \"#utility.yul\":28050:28088   */\n      tag_756\n        /* \"#utility.yul\":28082:28086   */\n      dup3\n        /* \"#utility.yul\":28076:28087   */\n      sload\n        /* \"#utility.yul\":28050:28088   */\n      tag_218\n      jump\t// in\n    tag_756:\n        /* \"#utility.yul\":28135:28202   */\n      tag_757\n        /* \"#utility.yul\":28195:28201   */\n      dup3\n        /* \"#utility.yul\":28187:28193   */\n      dup3\n        /* \"#utility.yul\":28181:28185   */\n      dup6\n        /* \"#utility.yul\":28135:28202   */\n      tag_442\n      jump\t// in\n    tag_757:\n        /* \"#utility.yul\":28229:28230   */\n      0x00\n        /* \"#utility.yul\":28253:28257   */\n      0x20\n        /* \"#utility.yul\":28240:28257   */\n      swap1\n      pop\n        /* \"#utility.yul\":28285:28287   */\n      0x1f\n        /* \"#utility.yul\":28277:28283   */\n      dup4\n        /* \"#utility.yul\":28274:28288   */\n      gt\n        /* \"#utility.yul\":28302:28303   */\n      0x01\n        /* \"#utility.yul\":28297:28915   */\n      dup2\n      eq\n      tag_759\n      jumpi\n        /* \"#utility.yul\":28959:28960   */\n      0x00\n        /* \"#utility.yul\":28976:28982   */\n      dup5\n        /* \"#utility.yul\":28973:29050   */\n      iszero\n      tag_760\n      jumpi\n        /* \"#utility.yul\":29025:29034   */\n      dup3\n        /* \"#utility.yul\":29020:29023   */\n      dup8\n        /* \"#utility.yul\":29016:29035   */\n      add\n        /* \"#utility.yul\":29010:29036   */\n      mload\n        /* \"#utility.yul\":29001:29036   */\n      swap1\n      pop\n        /* \"#utility.yul\":28973:29050   */\n    tag_760:\n        /* \"#utility.yul\":29076:29143   */\n      tag_761\n        /* \"#utility.yul\":29136:29142   */\n      dup6\n        /* \"#utility.yul\":29129:29134   */\n      dup3\n        /* \"#utility.yul\":29076:29143   */\n      tag_445\n      jump\t// in\n    tag_761:\n        /* \"#utility.yul\":29070:29074   */\n      dup7\n        /* \"#utility.yul\":29063:29144   */\n      sstore\n        /* \"#utility.yul\":28932:29154   */\n      pop\n        /* \"#utility.yul\":28267:29154   */\n      jump(tag_758)\n        /* \"#utility.yul\":28297:28915   */\n    tag_759:\n        /* \"#utility.yul\":28349:28353   */\n      0x1f\n        /* \"#utility.yul\":28345:28354   */\n      not\n        /* \"#utility.yul\":28337:28343   */\n      dup5\n        /* \"#utility.yul\":28333:28355   */\n      and\n        /* \"#utility.yul\":28383:28420   */\n      tag_762\n        /* \"#utility.yul\":28415:28419   */\n      dup7\n        /* \"#utility.yul\":28383:28420   */\n      tag_431\n      jump\t// in\n    tag_762:\n        /* \"#utility.yul\":28442:28443   */\n      0x00\n        /* \"#utility.yul\":28456:28664   */\n    tag_763:\n        /* \"#utility.yul\":28470:28477   */\n      dup3\n        /* \"#utility.yul\":28467:28468   */\n      dup2\n        /* \"#utility.yul\":28464:28478   */\n      lt\n        /* \"#utility.yul\":28456:28664   */\n      iszero\n      tag_765\n      jumpi\n        /* \"#utility.yul\":28549:28558   */\n      dup5\n        /* \"#utility.yul\":28544:28547   */\n      dup10\n        /* \"#utility.yul\":28540:28559   */\n      add\n        /* \"#utility.yul\":28534:28560   */\n      mload\n        /* \"#utility.yul\":28526:28532   */\n      dup3\n        /* \"#utility.yul\":28519:28561   */\n      sstore\n        /* \"#utility.yul\":28600:28601   */\n      0x01\n        /* \"#utility.yul\":28592:28598   */\n      dup3\n        /* \"#utility.yul\":28588:28602   */\n      add\n        /* \"#utility.yul\":28578:28602   */\n      swap2\n      pop\n        /* \"#utility.yul\":28647:28649   */\n      0x20\n        /* \"#utility.yul\":28636:28645   */\n      dup6\n        /* \"#utility.yul\":28632:28650   */\n      add\n        /* \"#utility.yul\":28619:28650   */\n      swap5\n      pop\n        /* \"#utility.yul\":28493:28497   */\n      0x20\n        /* \"#utility.yul\":28490:28491   */\n      dup2\n        /* \"#utility.yul\":28486:28498   */\n      add\n        /* \"#utility.yul\":28481:28498   */\n      swap1\n      pop\n        /* \"#utility.yul\":28456:28664   */\n      jump(tag_763)\n    tag_765:\n        /* \"#utility.yul\":28692:28698   */\n      dup7\n        /* \"#utility.yul\":28683:28690   */\n      dup4\n        /* \"#utility.yul\":28680:28699   */\n      lt\n        /* \"#utility.yul\":28677:28856   */\n      iszero\n      tag_766\n      jumpi\n        /* \"#utility.yul\":28750:28759   */\n      dup5\n        /* \"#utility.yul\":28745:28748   */\n      dup10\n        /* \"#utility.yul\":28741:28760   */\n      add\n        /* \"#utility.yul\":28735:28761   */\n      mload\n        /* \"#utility.yul\":28793:28841   */\n      tag_767\n        /* \"#utility.yul\":28835:28839   */\n      0x1f\n        /* \"#utility.yul\":28827:28833   */\n      dup10\n        /* \"#utility.yul\":28823:28840   */\n      and\n        /* \"#utility.yul\":28812:28821   */\n      dup3\n        /* \"#utility.yul\":28793:28841   */\n      tag_444\n      jump\t// in\n    tag_767:\n        /* \"#utility.yul\":28785:28791   */\n      dup4\n        /* \"#utility.yul\":28778:28842   */\n      sstore\n        /* \"#utility.yul\":28700:28856   */\n      pop\n        /* \"#utility.yul\":28677:28856   */\n    tag_766:\n        /* \"#utility.yul\":28902:28903   */\n      0x01\n        /* \"#utility.yul\":28898:28899   */\n      0x02\n        /* \"#utility.yul\":28890:28896   */\n      dup9\n        /* \"#utility.yul\":28886:28900   */\n      mul\n        /* \"#utility.yul\":28882:28904   */\n      add\n        /* \"#utility.yul\":28876:28880   */\n      dup9\n        /* \"#utility.yul\":28869:28905   */\n      sstore\n        /* \"#utility.yul\":28304:28915   */\n      pop\n      pop\n      pop\n        /* \"#utility.yul\":28267:29154   */\n    tag_758:\n      pop\n        /* \"#utility.yul\":27857:29160   */\n      pop\n      pop\n      pop\n        /* \"#utility.yul\":27765:29160   */\n      pop\n      pop\n      jump\t// out\n        /* \"#utility.yul\":29166:29313   */\n    tag_446:\n        /* \"#utility.yul\":29267:29278   */\n      0x00\n        /* \"#utility.yul\":29304:29307   */\n      dup2\n        /* \"#utility.yul\":29289:29307   */\n      swap1\n      pop\n        /* \"#utility.yul\":29166:29313   */\n      swap3\n      swap2\n      pop\n      pop\n      jump\t// out\n        /* \"#utility.yul\":29319:29467   */\n    tag_447:\n        /* \"#utility.yul\":29417:29423   */\n      dup3\n        /* \"#utility.yul\":29412:29415   */\n      dup2\n        /* \"#utility.yul\":29407:29410   */\n      dup4\n        /* \"#utility.yul\":29394:29424   */\n      calldatacopy\n        /* \"#utility.yul\":29458:29459   */\n      0x00\n        /* \"#utility.yul\":29449:29455   */\n      dup4\n        /* \"#utility.yul\":29444:29447   */\n      dup4\n        /* \"#utility.yul\":29440:29456   */\n      add\n        /* \"#utility.yul\":29433:29460   */\n      mstore\n        /* \"#utility.yul\":29319:29467   */\n      pop\n      pop\n      pop\n      jump\t// out\n        /* \"#utility.yul\":29495:29822   */\n    tag_448:\n        /* \"#utility.yul\":29609:29612   */\n      0x00\n        /* \"#utility.yul\":29630:29718   */\n      tag_771\n        /* \"#utility.yul\":29711:29717   */\n      dup4\n        /* \"#utility.yul\":29706:29709   */\n      dup6\n        /* \"#utility.yul\":29630:29718   */\n      tag_446\n      jump\t// in\n    tag_771:\n        /* \"#utility.yul\":29623:29718   */\n      swap4\n      pop\n        /* \"#utility.yul\":29728:29784   */\n      tag_772\n        /* \"#utility.yul\":29777:29783   */\n      dup4\n        /* \"#utility.yul\":29772:29775   */\n      dup6\n        /* \"#utility.yul\":29765:29770   */\n      dup5\n        /* \"#utility.yul\":29728:29784   */\n      tag_447\n      jump\t// in\n    tag_772:\n        /* \"#utility.yul\":29809:29815   */\n      dup3\n        /* \"#utility.yul\":29804:29807   */\n      dup5\n        /* \"#utility.yul\":29800:29816   */\n      add\n        /* \"#utility.yul\":29793:29816   */\n      swap1\n      pop\n        /* \"#utility.yul\":29495:29822   */\n      swap4\n      swap3\n      pop\n      pop\n      pop\n      jump\t// out\n        /* \"#utility.yul\":29828:30119   */\n    tag_252:\n        /* \"#utility.yul\":29968:29971   */\n      0x00\n        /* \"#utility.yul\":29990:30093   */\n      tag_774\n        /* \"#utility.yul\":30089:30092   */\n      dup3\n        /* \"#utility.yul\":30080:30086   */\n      dup5\n        /* \"#utility.yul\":30072:30078   */\n      dup7\n        /* \"#utility.yul\":29990:30093   */\n      tag_448\n      jump\t// in\n    tag_774:\n        /* \"#utility.yul\":29983:30093   */\n      swap2\n      pop\n        /* \"#utility.yul\":30110:30113   */\n      dup2\n        /* \"#utility.yul\":30103:30113   */\n      swap1\n      pop\n        /* \"#utility.yul\":29828:30119   */\n      swap4\n      swap3\n      pop\n      pop\n      pop\n      jump\t// out\n        /* \"#utility.yul\":30125:30204   */\n    tag_449:\n        /* \"#utility.yul\":30164:30171   */\n      0x00\n        /* \"#utility.yul\":30193:30198   */\n      dup2\n        /* \"#utility.yul\":30182:30198   */\n      swap1\n      pop\n        /* \"#utility.yul\":30125:30204   */\n      swap2\n      swap1\n      pop\n      jump\t// out\n        /* \"#utility.yul\":30210:30367   */\n    tag_450:\n        /* \"#utility.yul\":30315:30360   */\n      tag_777\n        /* \"#utility.yul\":30335:30359   */\n      tag_778\n        /* \"#utility.yul\":30353:30358   */\n      dup3\n        /* \"#utility.yul\":30335:30359   */\n      tag_372\n      jump\t// in\n    tag_778:\n        /* \"#utility.yul\":30315:30360   */\n      tag_449\n      jump\t// in\n    tag_777:\n        /* \"#utility.yul\":30310:30313   */\n      dup3\n        /* \"#utility.yul\":30303:30361   */\n      mstore\n        /* \"#utility.yul\":30210:30367   */\n      pop\n      pop\n      jump\t// out\n        /* \"#utility.yul\":30373:30770   */\n    tag_274:\n        /* \"#utility.yul\":30513:30516   */\n      0x00\n        /* \"#utility.yul\":30528:30603   */\n      tag_780\n        /* \"#utility.yul\":30599:30602   */\n      dup3\n        /* \"#utility.yul\":30590:30596   */\n      dup6\n        /* \"#utility.yul\":30528:30603   */\n      tag_450\n      jump\t// in\n    tag_780:\n        /* \"#utility.yul\":30628:30630   */\n      0x20\n        /* \"#utility.yul\":30623:30626   */\n      dup3\n        /* \"#utility.yul\":30619:30631   */\n      add\n        /* \"#utility.yul\":30612:30631   */\n      swap2\n      pop\n        /* \"#utility.yul\":30641:30716   */\n      tag_781\n        /* \"#utility.yul\":30712:30715   */\n      dup3\n        /* \"#utility.yul\":30703:30709   */\n      dup5\n        /* \"#utility.yul\":30641:30716   */\n      tag_450\n      jump\t// in\n    tag_781:\n        /* \"#utility.yul\":30741:30743   */\n      0x20\n        /* \"#utility.yul\":30736:30739   */\n      dup3\n        /* \"#utility.yul\":30732:30744   */\n      add\n        /* \"#utility.yul\":30725:30744   */\n      swap2\n      pop\n        /* \"#utility.yul\":30761:30764   */\n      dup2\n        /* \"#utility.yul\":30754:30764   */\n      swap1\n      pop\n        /* \"#utility.yul\":30373:30770   */\n      swap4\n      swap3\n      pop\n      pop\n      pop\n      jump\t// out\n        /* \"#utility.yul\":30776:30956   */\n    tag_451:\n        /* \"#utility.yul\":30824:30901   */\n      0x4e487b7100000000000000000000000000000000000000000000000000000000\n        /* \"#utility.yul\":30821:30822   */\n      0x00\n        /* \"#utility.yul\":30814:30902   */\n      mstore\n        /* \"#utility.yul\":30921:30925   */\n      0x12\n        /* \"#utility.yul\":30918:30919   */\n      0x04\n        /* \"#utility.yul\":30911:30926   */\n      mstore\n        /* \"#utility.yul\":30945:30949   */\n      0x24\n        /* \"#utility.yul\":30942:30943   */\n      0x00\n        /* \"#utility.yul\":30935:30950   */\n      revert\n        /* \"#utility.yul\":30962:31138   */\n    tag_276:\n        /* \"#utility.yul\":30994:30995   */\n      0x00\n        /* \"#utility.yul\":31011:31031   */\n      tag_784\n        /* \"#utility.yul\":31029:31030   */\n      dup3\n        /* \"#utility.yul\":31011:31031   */\n      tag_372\n      jump\t// in\n    tag_784:\n        /* \"#utility.yul\":31006:31031   */\n      swap2\n      pop\n        /* \"#utility.yul\":31045:31065   */\n      tag_785\n        /* \"#utility.yul\":31063:31064   */\n      dup4\n        /* \"#utility.yul\":31045:31065   */\n      tag_372\n      jump\t// in\n    tag_785:\n        /* \"#utility.yul\":31040:31065   */\n      swap3\n      pop\n        /* \"#utility.yul\":31084:31085   */\n      dup3\n        /* \"#utility.yul\":31074:31109   */\n      tag_786\n      jumpi\n        /* \"#utility.yul\":31089:31107   */\n      tag_787\n      tag_451\n      jump\t// in\n    tag_787:\n        /* \"#utility.yul\":31074:31109   */\n    tag_786:\n        /* \"#utility.yul\":31130:31131   */\n      dup3\n        /* \"#utility.yul\":31127:31128   */\n      dup3\n        /* \"#utility.yul\":31123:31132   */\n      mod\n        /* \"#utility.yul\":31118:31132   */\n      swap1\n      pop\n        /* \"#utility.yul\":30962:31138   */\n      swap3\n      swap2\n      pop\n      pop\n      jump\t// out\n        /* \"#utility.yul\":31144:31241   */\n    tag_452:\n        /* \"#utility.yul\":31203:31209   */\n      0x00\n        /* \"#utility.yul\":31231:31234   */\n      dup3\n        /* \"#utility.yul\":31221:31234   */\n      swap1\n      pop\n        /* \"#utility.yul\":31144:31241   */\n      swap3\n      swap2\n      pop\n      pop\n      jump\t// out\n        /* \"#utility.yul\":31247:32650   */\n    tag_282:\n        /* \"#utility.yul\":31371:31415   */\n      tag_790\n        /* \"#utility.yul\":31411:31414   */\n      dup4\n        /* \"#utility.yul\":31406:31409   */\n      dup4\n        /* \"#utility.yul\":31371:31415   */\n      tag_452\n      jump\t// in\n    tag_790:\n        /* \"#utility.yul\":31480:31498   */\n      0xffffffffffffffff\n        /* \"#utility.yul\":31472:31478   */\n      dup2\n        /* \"#utility.yul\":31469:31499   */\n      gt\n        /* \"#utility.yul\":31466:31522   */\n      iszero\n      tag_791\n      jumpi\n        /* \"#utility.yul\":31502:31520   */\n      tag_792\n      tag_333\n      jump\t// in\n    tag_792:\n        /* \"#utility.yul\":31466:31522   */\n    tag_791:\n        /* \"#utility.yul\":31546:31584   */\n      tag_793\n        /* \"#utility.yul\":31578:31582   */\n      dup3\n        /* \"#utility.yul\":31572:31583   */\n      sload\n        /* \"#utility.yul\":31546:31584   */\n      tag_218\n      jump\t// in\n    tag_793:\n        /* \"#utility.yul\":31631:31698   */\n      tag_794\n        /* \"#utility.yul\":31691:31697   */\n      dup3\n        /* \"#utility.yul\":31683:31689   */\n      dup3\n        /* \"#utility.yul\":31677:31681   */\n      dup6\n        /* \"#utility.yul\":31631:31698   */\n      tag_442\n      jump\t// in\n    tag_794:\n        /* \"#utility.yul\":31725:31726   */\n      0x00\n        /* \"#utility.yul\":31754:31756   */\n      0x1f\n        /* \"#utility.yul\":31746:31752   */\n      dup4\n        /* \"#utility.yul\":31743:31757   */\n      gt\n        /* \"#utility.yul\":31771:31772   */\n      0x01\n        /* \"#utility.yul\":31766:32398   */\n      dup2\n      eq\n      tag_796\n      jumpi\n        /* \"#utility.yul\":32442:32443   */\n      0x00\n        /* \"#utility.yul\":32459:32465   */\n      dup5\n        /* \"#utility.yul\":32456:32540   */\n      iszero\n      tag_797\n      jumpi\n        /* \"#utility.yul\":32515:32524   */\n      dup3\n        /* \"#utility.yul\":32510:32513   */\n      dup8\n        /* \"#utility.yul\":32506:32525   */\n      add\n        /* \"#utility.yul\":32493:32526   */\n      calldataload\n        /* \"#utility.yul\":32484:32526   */\n      swap1\n      pop\n        /* \"#utility.yul\":32456:32540   */\n    tag_797:\n        /* \"#utility.yul\":32566:32633   */\n      tag_798\n        /* \"#utility.yul\":32626:32632   */\n      dup6\n        /* \"#utility.yul\":32619:32624   */\n      dup3\n        /* \"#utility.yul\":32566:32633   */\n      tag_445\n      jump\t// in\n    tag_798:\n        /* \"#utility.yul\":32560:32564   */\n      dup7\n        /* \"#utility.yul\":32553:32634   */\n      sstore\n        /* \"#utility.yul\":32415:32644   */\n      pop\n        /* \"#utility.yul\":31736:32644   */\n      jump(tag_795)\n        /* \"#utility.yul\":31766:32398   */\n    tag_796:\n        /* \"#utility.yul\":31818:31822   */\n      0x1f\n        /* \"#utility.yul\":31814:31823   */\n      not\n        /* \"#utility.yul\":31806:31812   */\n      dup5\n        /* \"#utility.yul\":31802:31824   */\n      and\n        /* \"#utility.yul\":31852:31889   */\n      tag_799\n        /* \"#utility.yul\":31884:31888   */\n      dup7\n        /* \"#utility.yul\":31852:31889   */\n      tag_431\n      jump\t// in\n    tag_799:\n        /* \"#utility.yul\":31911:31912   */\n      0x00\n        /* \"#utility.yul\":31925:32140   */\n    tag_800:\n        /* \"#utility.yul\":31939:31946   */\n      dup3\n        /* \"#utility.yul\":31936:31937   */\n      dup2\n        /* \"#utility.yul\":31933:31947   */\n      lt\n        /* \"#utility.yul\":31925:32140   */\n      iszero\n      tag_802\n      jumpi\n        /* \"#utility.yul\":32025:32034   */\n      dup5\n        /* \"#utility.yul\":32020:32023   */\n      dup10\n        /* \"#utility.yul\":32016:32035   */\n      add\n        /* \"#utility.yul\":32003:32036   */\n      calldataload\n        /* \"#utility.yul\":31995:32001   */\n      dup3\n        /* \"#utility.yul\":31988:32037   */\n      sstore\n        /* \"#utility.yul\":32076:32077   */\n      0x01\n        /* \"#utility.yul\":32068:32074   */\n      dup3\n        /* \"#utility.yul\":32064:32078   */\n      add\n        /* \"#utility.yul\":32054:32078   */\n      swap2\n      pop\n        /* \"#utility.yul\":32123:32125   */\n      0x20\n        /* \"#utility.yul\":32112:32121   */\n      dup6\n        /* \"#utility.yul\":32108:32126   */\n      add\n        /* \"#utility.yul\":32095:32126   */\n      swap5\n      pop\n        /* \"#utility.yul\":31962:31966   */\n      0x20\n        /* \"#utility.yul\":31959:31960   */\n      dup2\n        /* \"#utility.yul\":31955:31967   */\n      add\n        /* \"#utility.yul\":31950:31967   */\n      swap1\n      pop\n        /* \"#utility.yul\":31925:32140   */\n      jump(tag_800)\n    tag_802:\n        /* \"#utility.yul\":32168:32174   */\n      dup7\n        /* \"#utility.yul\":32159:32166   */\n      dup4\n        /* \"#utility.yul\":32156:32175   */\n      lt\n        /* \"#utility.yul\":32153:32339   */\n      iszero\n      tag_803\n      jumpi\n        /* \"#utility.yul\":32233:32242   */\n      dup5\n        /* \"#utility.yul\":32228:32231   */\n      dup10\n        /* \"#utility.yul\":32224:32243   */\n      add\n        /* \"#utility.yul\":32211:32244   */\n      calldataload\n        /* \"#utility.yul\":32276:32324   */\n      tag_804\n        /* \"#utility.yul\":32318:32322   */\n      0x1f\n        /* \"#utility.yul\":32310:32316   */\n      dup10\n        /* \"#utility.yul\":32306:32323   */\n      and\n        /* \"#utility.yul\":32295:32304   */\n      dup3\n        /* \"#utility.yul\":32276:32324   */\n      tag_444\n      jump\t// in\n    tag_804:\n        /* \"#utility.yul\":32268:32274   */\n      dup4\n        /* \"#utility.yul\":32261:32325   */\n      sstore\n        /* \"#utility.yul\":32176:32339   */\n      pop\n        /* \"#utility.yul\":32153:32339   */\n    tag_803:\n        /* \"#utility.yul\":32385:32386   */\n      0x01\n        /* \"#utility.yul\":32381:32382   */\n      0x02\n        /* \"#utility.yul\":32373:32379   */\n      dup9\n        /* \"#utility.yul\":32369:32383   */\n      mul\n        /* \"#utility.yul\":32365:32387   */\n      add\n        /* \"#utility.yul\":32359:32363   */\n      dup9\n        /* \"#utility.yul\":32352:32388   */\n      sstore\n        /* \"#utility.yul\":31773:32398   */\n      pop\n      pop\n      pop\n        /* \"#utility.yul\":31736:32644   */\n    tag_795:\n      pop\n        /* \"#utility.yul\":31346:32650   */\n      pop\n      pop\n      pop\n        /* \"#utility.yul\":31247:32650   */\n      pop\n      pop\n      pop\n      jump\t// out\n        /* \"#utility.yul\":32656:32822   */\n    tag_453:\n        /* \"#utility.yul\":32796:32814   */\n      0x6e6f206572657320656c206f776e657200000000000000000000000000000000\n        /* \"#utility.yul\":32792:32793   */\n      0x00\n        /* \"#utility.yul\":32784:32790   */\n      dup3\n        /* \"#utility.yul\":32780:32794   */\n      add\n        /* \"#utility.yul\":32773:32815   */\n      mstore\n        /* \"#utility.yul\":32656:32822   */\n      pop\n      jump\t// out\n        /* \"#utility.yul\":32828:33194   */\n    tag_454:\n        /* \"#utility.yul\":32970:32973   */\n      0x00\n        /* \"#utility.yul\":32991:33058   */\n      tag_807\n        /* \"#utility.yul\":33055:33057   */\n      0x10\n        /* \"#utility.yul\":33050:33053   */\n      dup4\n        /* \"#utility.yul\":32991:33058   */\n      tag_368\n      jump\t// in\n    tag_807:\n        /* \"#utility.yul\":32984:33058   */\n      swap2\n      pop\n        /* \"#utility.yul\":33067:33160   */\n      tag_808\n        /* \"#utility.yul\":33156:33159   */\n      dup3\n        /* \"#utility.yul\":33067:33160   */\n      tag_453\n      jump\t// in\n    tag_808:\n        /* \"#utility.yul\":33185:33187   */\n      0x20\n        /* \"#utility.yul\":33180:33183   */\n      dup3\n        /* \"#utility.yul\":33176:33188   */\n      add\n        /* \"#utility.yul\":33169:33188   */\n      swap1\n      pop\n        /* \"#utility.yul\":32828:33194   */\n      swap2\n      swap1\n      pop\n      jump\t// out\n        /* \"#utility.yul\":33200:33619   */\n    tag_291:\n        /* \"#utility.yul\":33366:33370   */\n      0x00\n        /* \"#utility.yul\":33404:33406   */\n      0x20\n        /* \"#utility.yul\":33393:33402   */\n      dup3\n        /* \"#utility.yul\":33389:33407   */\n      add\n        /* \"#utility.yul\":33381:33407   */\n      swap1\n      pop\n        /* \"#utility.yul\":33453:33462   */\n      dup2\n        /* \"#utility.yul\":33447:33451   */\n      dup2\n        /* \"#utility.yul\":33443:33463   */\n      sub\n        /* \"#utility.yul\":33439:33440   */\n      0x00\n        /* \"#utility.yul\":33428:33437   */\n      dup4\n        /* \"#utility.yul\":33424:33441   */\n      add\n        /* \"#utility.yul\":33417:33464   */\n      mstore\n        /* \"#utility.yul\":33481:33612   */\n      tag_810\n        /* \"#utility.yul\":33607:33611   */\n      dup2\n        /* \"#utility.yul\":33481:33612   */\n      tag_454\n      jump\t// in\n    tag_810:\n        /* \"#utility.yul\":33473:33612   */\n      swap1\n      pop\n        /* \"#utility.yul\":33200:33619   */\n      swap2\n      swap1\n      pop\n      jump\t// out\n        /* \"#utility.yul\":33625:33789   */\n    tag_455:\n        /* \"#utility.yul\":33765:33781   */\n      0x66616c6c6f20656c20656e76696f000000000000000000000000000000000000\n        /* \"#utility.yul\":33761:33762   */\n      0x00\n        /* \"#utility.yul\":33753:33759   */\n      dup3\n        /* \"#utility.yul\":33749:33763   */\n      add\n        /* \"#utility.yul\":33742:33782   */\n      mstore\n        /* \"#utility.yul\":33625:33789   */\n      pop\n      jump\t// out\n        /* \"#utility.yul\":33795:34161   */\n    tag_456:\n        /* \"#utility.yul\":33937:33940   */\n      0x00\n        /* \"#utility.yul\":33958:34025   */\n      tag_813\n        /* \"#utility.yul\":34022:34024   */\n      0x0e\n        /* \"#utility.yul\":34017:34020   */\n      dup4\n        /* \"#utility.yul\":33958:34025   */\n      tag_368\n      jump\t// in\n    tag_813:\n        /* \"#utility.yul\":33951:34025   */\n      swap2\n      pop\n        /* \"#utility.yul\":34034:34127   */\n      tag_814\n        /* \"#utility.yul\":34123:34126   */\n      dup3\n        /* \"#utility.yul\":34034:34127   */\n      tag_455\n      jump\t// in\n    tag_814:\n        /* \"#utility.yul\":34152:34154   */\n      0x20\n        /* \"#utility.yul\":34147:34150   */\n      dup3\n        /* \"#utility.yul\":34143:34155   */\n      add\n        /* \"#utility.yul\":34136:34155   */\n      swap1\n      pop\n        /* \"#utility.yul\":33795:34161   */\n      swap2\n      swap1\n      pop\n      jump\t// out\n        /* \"#utility.yul\":34167:34586   */\n    tag_296:\n        /* \"#utility.yul\":34333:34337   */\n      0x00\n        /* \"#utility.yul\":34371:34373   */\n      0x20\n        /* \"#utility.yul\":34360:34369   */\n      dup3\n        /* \"#utility.yul\":34356:34374   */\n      add\n        /* \"#utility.yul\":34348:34374   */\n      swap1\n      pop\n        /* \"#utility.yul\":34420:34429   */\n      dup2\n        /* \"#utility.yul\":34414:34418   */\n      dup2\n        /* \"#utility.yul\":34410:34430   */\n      sub\n        /* \"#utility.yul\":34406:34407   */\n      0x00\n        /* \"#utility.yul\":34395:34404   */\n      dup4\n        /* \"#utility.yul\":34391:34408   */\n      add\n        /* \"#utility.yul\":34384:34431   */\n      mstore\n        /* \"#utility.yul\":34448:34579   */\n      tag_816\n        /* \"#utility.yul\":34574:34578   */\n      dup2\n        /* \"#utility.yul\":34448:34579   */\n      tag_456\n      jump\t// in\n    tag_816:\n        /* \"#utility.yul\":34440:34579   */\n      swap1\n      pop\n        /* \"#utility.yul\":34167:34586   */\n      swap2\n      swap1\n      pop\n      jump\t// out\n        /* \"#utility.yul\":34592:34772   */\n    tag_301:\n        /* \"#utility.yul\":34640:34717   */\n      0x4e487b7100000000000000000000000000000000000000000000000000000000\n        /* \"#utility.yul\":34637:34638   */\n      0x00\n        /* \"#utility.yul\":34630:34718   */\n      mstore\n        /* \"#utility.yul\":34737:34741   */\n      0x32\n        /* \"#utility.yul\":34734:34735   */\n      0x04\n        /* \"#utility.yul\":34727:34742   */\n      mstore\n        /* \"#utility.yul\":34761:34765   */\n      0x24\n        /* \"#utility.yul\":34758:34759   */\n      0x00\n        /* \"#utility.yul\":34751:34766   */\n      revert\n        /* \"#utility.yul\":34778:34969   */\n    tag_314:\n        /* \"#utility.yul\":34818:34821   */\n      0x00\n        /* \"#utility.yul\":34837:34857   */\n      tag_819\n        /* \"#utility.yul\":34855:34856   */\n      dup3\n        /* \"#utility.yul\":34837:34857   */\n      tag_372\n      jump\t// in\n    tag_819:\n        /* \"#utility.yul\":34832:34857   */\n      swap2\n      pop\n        /* \"#utility.yul\":34871:34891   */\n      tag_820\n        /* \"#utility.yul\":34889:34890   */\n      dup4\n        /* \"#utility.yul\":34871:34891   */\n      tag_372\n      jump\t// in\n    tag_820:\n        /* \"#utility.yul\":34866:34891   */\n      swap3\n      pop\n        /* \"#utility.yul\":34914:34915   */\n      dup3\n        /* \"#utility.yul\":34911:34912   */\n      dup3\n        /* \"#utility.yul\":34907:34916   */\n      add\n        /* \"#utility.yul\":34900:34916   */\n      swap1\n      pop\n        /* \"#utility.yul\":34935:34938   */\n      dup1\n        /* \"#utility.yul\":34932:34933   */\n      dup3\n        /* \"#utility.yul\":34929:34939   */\n      gt\n        /* \"#utility.yul\":34926:34962   */\n      iszero\n      tag_821\n      jumpi\n        /* \"#utility.yul\":34942:34960   */\n      tag_822\n      tag_430\n      jump\t// in\n    tag_822:\n        /* \"#utility.yul\":34926:34962   */\n    tag_821:\n        /* \"#utility.yul\":34778:34969   */\n      swap3\n      swap2\n      pop\n      pop\n      jump\t// out\n        /* \"#utility.yul\":34975:35354   */\n    tag_341:\n        /* \"#utility.yul\":35012:35013   */\n      0x00\n        /* \"#utility.yul\":35029:35046   */\n      tag_824\n        /* \"#utility.yul\":35044:35045   */\n      dup3\n        /* \"#utility.yul\":35029:35046   */\n      tag_417\n      jump\t// in\n    tag_824:\n        /* \"#utility.yul\":35024:35046   */\n      swap2\n      pop\n        /* \"#utility.yul\":35060:35077   */\n      tag_825\n        /* \"#utility.yul\":35075:35076   */\n      dup4\n        /* \"#utility.yul\":35060:35077   */\n      tag_417\n      jump\t// in\n    tag_825:\n        /* \"#utility.yul\":35055:35077   */\n      swap3\n      pop\n        /* \"#utility.yul\":35096:35097   */\n      dup3\n        /* \"#utility.yul\":35086:35121   */\n      tag_826\n      jumpi\n        /* \"#utility.yul\":35101:35119   */\n      tag_827\n      tag_451\n      jump\t// in\n    tag_827:\n        /* \"#utility.yul\":35086:35121   */\n    tag_826:\n        /* \"#utility.yul\":35287:35288   */\n      0x01\n        /* \"#utility.yul\":35284:35285   */\n      0x00\n        /* \"#utility.yul\":35280:35289   */\n      sub\n        /* \"#utility.yul\":35277:35278   */\n      dup4\n        /* \"#utility.yul\":35274:35290   */\n      eq\n        /* \"#utility.yul\":35193:35259   */\n      0xffffffffffffffffffffffffffffffffffffffffffffffffffffffffffffff80\n        /* \"#utility.yul\":35190:35191   */\n      dup4\n        /* \"#utility.yul\":35187:35260   */\n      eq\n        /* \"#utility.yul\":35170:35300   */\n      and\n        /* \"#utility.yul\":35167:35323   */\n      iszero\n      tag_828\n      jumpi\n        /* \"#utility.yul\":35303:35321   */\n      tag_829\n      tag_430\n      jump\t// in\n    tag_829:\n        /* \"#utility.yul\":35167:35323   */\n    tag_828:\n        /* \"#utility.yul\":35346:35347   */\n      dup3\n        /* \"#utility.yul\":35343:35344   */\n      dup3\n        /* \"#utility.yul\":35338:35348   */\n      sdiv\n        /* \"#utility.yul\":35333:35348   */\n      swap1\n      pop\n        /* \"#utility.yul\":34975:35354   */\n      swap3\n      swap2\n      pop\n      pop\n      jump\t// out\n        /* \"#utility.yul\":35360:35456   */\n    tag_457:\n        /* \"#utility.yul\":35418:35424   */\n      0x00\n        /* \"#utility.yul\":35446:35449   */\n      dup3\n        /* \"#utility.yul\":35436:35449   */\n      swap1\n      pop\n        /* \"#utility.yul\":35360:35456   */\n      swap3\n      swap2\n      pop\n      pop\n      jump\t// out\n        /* \"#utility.yul\":35462:35602   */\n    tag_458:\n        /* \"#utility.yul\":35510:35514   */\n      0x00\n        /* \"#utility.yul\":35533:35536   */\n      dup2\n        /* \"#utility.yul\":35525:35536   */\n      swap1\n      pop\n        /* \"#utility.yul\":35556:35559   */\n      dup2\n        /* \"#utility.yul\":35553:35554   */\n      0x00\n        /* \"#utility.yul\":35546:35560   */\n      mstore\n        /* \"#utility.yul\":35590:35594   */\n      0x20\n        /* \"#utility.yul\":35587:35588   */\n      0x00\n        /* \"#utility.yul\":35577:35595   */\n      keccak256\n        /* \"#utility.yul\":35569:35595   */\n      swap1\n      pop\n        /* \"#utility.yul\":35462:35602   */\n      swap2\n      swap1\n      pop\n      jump\t// out\n        /* \"#utility.yul\":35608:36149   */\n    tag_459:\n        /* \"#utility.yul\":35708:35710   */\n      0x1f\n        /* \"#utility.yul\":35703:35706   */\n      dup3\n        /* \"#utility.yul\":35700:35711   */\n      gt\n        /* \"#utility.yul\":35697:36142   */\n      iszero\n      tag_833\n      jumpi\n        /* \"#utility.yul\":35742:35779   */\n      tag_834\n        /* \"#utility.yul\":35773:35778   */\n      dup2\n        /* \"#utility.yul\":35742:35779   */\n      tag_458\n      jump\t// in\n    tag_834:\n        /* \"#utility.yul\":35825:35854   */\n      tag_835\n        /* \"#utility.yul\":35843:35853   */\n      dup5\n        /* \"#utility.yul\":35825:35854   */\n      tag_432\n      jump\t// in\n    tag_835:\n        /* \"#utility.yul\":35815:35823   */\n      dup2\n        /* \"#utility.yul\":35811:35855   */\n      add\n        /* \"#utility.yul\":36008:36010   */\n      0x20\n        /* \"#utility.yul\":35996:36006   */\n      dup6\n        /* \"#utility.yul\":35993:36011   */\n      lt\n        /* \"#utility.yul\":35990:36039   */\n      iszero\n      tag_836\n      jumpi\n        /* \"#utility.yul\":36029:36037   */\n      dup2\n        /* \"#utility.yul\":36014:36037   */\n      swap1\n      pop\n        /* \"#utility.yul\":35990:36039   */\n    tag_836:\n        /* \"#utility.yul\":36052:36132   */\n      tag_837\n        /* \"#utility.yul\":36108:36130   */\n      tag_838\n        /* \"#utility.yul\":36126:36129   */\n      dup6\n        /* \"#utility.yul\":36108:36130   */\n      tag_432\n      jump\t// in\n    tag_838:\n        /* \"#utility.yul\":36098:36106   */\n      dup4\n        /* \"#utility.yul\":36094:36131   */\n      add\n        /* \"#utility.yul\":36081:36092   */\n      dup3\n        /* \"#utility.yul\":36052:36132   */\n      tag_441\n      jump\t// in\n    tag_837:\n        /* \"#utility.yul\":35712:36142   */\n      pop\n      pop\n        /* \"#utility.yul\":35697:36142   */\n    tag_833:\n        /* \"#utility.yul\":35608:36149   */\n      pop\n      pop\n      pop\n      jump\t// out\n        /* \"#utility.yul\":36155:37553   */\n    tag_349:\n        /* \"#utility.yul\":36277:36320   */\n      tag_840\n        /* \"#utility.yul\":36316:36319   */\n      dup4\n        /* \"#utility.yul\":36311:36314   */\n      dup4\n        /* \"#utility.yul\":36277:36320   */\n      tag_457\n      jump\t// in\n    tag_840:\n        /* \"#utility.yul\":36385:36403   */\n      0xffffffffffffffff\n        /* \"#utility.yul\":36377:36383   */\n      dup2\n        /* \"#utility.yul\":36374:36404   */\n      gt\n        /* \"#utility.yul\":36371:36427   */\n      iszero\n      tag_841\n      jumpi\n        /* \"#utility.yul\":36407:36425   */\n      tag_842\n      tag_333\n      jump\t// in\n    tag_842:\n        /* \"#utility.yul\":36371:36427   */\n    tag_841:\n        /* \"#utility.yul\":36451:36489   */\n      tag_843\n        /* \"#utility.yul\":36483:36487   */\n      dup3\n        /* \"#utility.yul\":36477:36488   */\n      sload\n        /* \"#utility.yul\":36451:36489   */\n      tag_218\n      jump\t// in\n    tag_843:\n        /* \"#utility.yul\":36536:36602   */\n      tag_844\n        /* \"#utility.yul\":36595:36601   */\n      dup3\n        /* \"#utility.yul\":36587:36593   */\n      dup3\n        /* \"#utility.yul\":36581:36585   */\n      dup6\n        /* \"#utility.yul\":36536:36602   */\n      tag_459\n      jump\t// in\n    tag_844:\n        /* \"#utility.yul\":36629:36630   */\n      0x00\n        /* \"#utility.yul\":36658:36660   */\n      0x1f\n        /* \"#utility.yul\":36650:36656   */\n      dup4\n        /* \"#utility.yul\":36647:36661   */\n      gt\n        /* \"#utility.yul\":36675:36676   */\n      0x01\n        /* \"#utility.yul\":36670:37301   */\n      dup2\n      eq\n      tag_846\n      jumpi\n        /* \"#utility.yul\":37345:37346   */\n      0x00\n        /* \"#utility.yul\":37362:37368   */\n      dup5\n        /* \"#utility.yul\":37359:37443   */\n      iszero\n      tag_847\n      jumpi\n        /* \"#utility.yul\":37418:37427   */\n      dup3\n        /* \"#utility.yul\":37413:37416   */\n      dup8\n        /* \"#utility.yul\":37409:37428   */\n      add\n        /* \"#utility.yul\":37396:37429   */\n      calldataload\n        /* \"#utility.yul\":37387:37429   */\n      swap1\n      pop\n        /* \"#utility.yul\":37359:37443   */\n    tag_847:\n        /* \"#utility.yul\":37469:37536   */\n      tag_848\n        /* \"#utility.yul\":37529:37535   */\n      dup6\n        /* \"#utility.yul\":37522:37527   */\n      dup3\n        /* \"#utility.yul\":37469:37536   */\n      tag_445\n      jump\t// in\n    tag_848:\n        /* \"#utility.yul\":37463:37467   */\n      dup7\n        /* \"#utility.yul\":37456:37537   */\n      sstore\n        /* \"#utility.yul\":37318:37547   */\n      pop\n        /* \"#utility.yul\":36640:37547   */\n      jump(tag_845)\n        /* \"#utility.yul\":36670:37301   */\n    tag_846:\n        /* \"#utility.yul\":36722:36726   */\n      0x1f\n        /* \"#utility.yul\":36718:36727   */\n      not\n        /* \"#utility.yul\":36710:36716   */\n      dup5\n        /* \"#utility.yul\":36706:36728   */\n      and\n        /* \"#utility.yul\":36756:36792   */\n      tag_849\n        /* \"#utility.yul\":36787:36791   */\n      dup7\n        /* \"#utility.yul\":36756:36792   */\n      tag_458\n      jump\t// in\n    tag_849:\n        /* \"#utility.yul\":36814:36815   */\n      0x00\n        /* \"#utility.yul\":36828:37043   */\n    tag_850:\n        /* \"#utility.yul\":36842:36849   */\n      dup3\n        /* \"#utility.yul\":36839:36840   */\n      dup2\n        /* \"#utility.yul\":36836:36850   */\n      lt\n        /* \"#utility.yul\":36828:37043   */\n      iszero\n      tag_852\n      jumpi\n        /* \"#utility.yul\":36928:36937   */\n      dup5\n        /* \"#utility.yul\":36923:36926   */\n      dup10\n        /* \"#utility.yul\":36919:36938   */\n      add\n        /* \"#utility.yul\":36906:36939   */\n      calldataload\n        /* \"#utility.yul\":36898:36904   */\n      dup3\n        /* \"#utility.yul\":36891:36940   */\n      sstore\n        /* \"#utility.yul\":36979:36980   */\n      0x01\n        /* \"#utility.yul\":36971:36977   */\n      dup3\n        /* \"#utility.yul\":36967:36981   */\n      add\n        /* \"#utility.yul\":36957:36981   */\n      swap2\n      pop\n        /* \"#utility.yul\":37026:37028   */\n      0x20\n        /* \"#utility.yul\":37015:37024   */\n      dup6\n        /* \"#utility.yul\":37011:37029   */\n      add\n        /* \"#utility.yul\":36998:37029   */\n      swap5\n      pop\n        /* \"#utility.yul\":36865:36869   */\n      0x20\n        /* \"#utility.yul\":36862:36863   */\n      dup2\n        /* \"#utility.yul\":36858:36870   */\n      add\n        /* \"#utility.yul\":36853:36870   */\n      swap1\n      pop\n        /* \"#utility.yul\":36828:37043   */\n      jump(tag_850)\n    tag_852:\n        /* \"#utility.yul\":37071:37077   */\n      dup7\n        /* \"#utility.yul\":37062:37069   */\n      dup4\n        /* \"#utility.yul\":37059:37078   */\n      lt\n        /* \"#utility.yul\":37056:37242   */\n      iszero\n      tag_853\n      jumpi\n        /* \"#utility.yul\":37136:37145   */\n      dup5\n        /* \"#utility.yul\":37131:37134   */\n      dup10\n        /* \"#utility.yul\":37127:37146   */\n      add\n        /* \"#utility.yul\":37114:37147   */\n      calldataload\n        /* \"#utility.yul\":37179:37227   */\n      tag_854\n        /* \"#utility.yul\":37221:37225   */\n      0x1f\n        /* \"#utility.yul\":37213:37219   */\n      dup10\n        /* \"#utility.yul\":37209:37226   */\n      and\n        /* \"#utility.yul\":37198:37207   */\n      dup3\n        /* \"#utility.yul\":37179:37227   */\n      tag_444\n      jump\t// in\n    tag_854:\n        /* \"#utility.yul\":37171:37177   */\n      dup4\n        /* \"#utility.yul\":37164:37228   */\n      sstore\n        /* \"#utility.yul\":37079:37242   */\n      pop\n        /* \"#utility.yul\":37056:37242   */\n    tag_853:\n        /* \"#utility.yul\":37288:37289   */\n      0x01\n        /* \"#utility.yul\":37284:37285   */\n      0x02\n        /* \"#utility.yul\":37276:37282   */\n      dup9\n        /* \"#utility.yul\":37272:37286   */\n      mul\n        /* \"#utility.yul\":37268:37290   */\n      add\n        /* \"#utility.yul\":37262:37266   */\n      dup9\n        /* \"#utility.yul\":37255:37291   */\n      sstore\n        /* \"#utility.yul\":36677:37301   */\n      pop\n      pop\n      pop\n        /* \"#utility.yul\":36640:37547   */\n    tag_845:\n      pop\n        /* \"#utility.yul\":36252:37553   */\n      pop\n      pop\n      pop\n        /* \"#utility.yul\":36155:37553   */\n      pop\n      pop\n      pop\n      jump\t// out\n        /* \"#utility.yul\":37559:37645   */\n    tag_460:\n        /* \"#utility.yul\":37594:37601   */\n      0x00\n        /* \"#utility.yul\":37634:37638   */\n      0xff\n        /* \"#utility.yul\":37627:37632   */\n      dup3\n        /* \"#utility.yul\":37623:37639   */\n      and\n        /* \"#utility.yul\":37612:37639   */\n      swap1\n      pop\n        /* \"#utility.yul\":37559:37645   */\n      swap2\n      swap1\n      pop\n      jump\t// out\n        /* \"#utility.yul\":37651:37839   */\n    tag_354:\n        /* \"#utility.yul\":37689:37692   */\n      0x00\n        /* \"#utility.yul\":37708:37726   */\n      tag_857\n        /* \"#utility.yul\":37724:37725   */\n      dup3\n        /* \"#utility.yul\":37708:37726   */\n      tag_460\n      jump\t// in\n    tag_857:\n        /* \"#utility.yul\":37703:37726   */\n      swap2\n      pop\n        /* \"#utility.yul\":37740:37758   */\n      tag_858\n        /* \"#utility.yul\":37756:37757   */\n      dup4\n        /* \"#utility.yul\":37740:37758   */\n      tag_460\n      jump\t// in\n    tag_858:\n        /* \"#utility.yul\":37735:37758   */\n      swap3\n      pop\n        /* \"#utility.yul\":37781:37782   */\n      dup3\n        /* \"#utility.yul\":37778:37779   */\n      dup3\n        /* \"#utility.yul\":37774:37783   */\n      add\n        /* \"#utility.yul\":37767:37783   */\n      swap1\n      pop\n        /* \"#utility.yul\":37804:37808   */\n      0xff\n        /* \"#utility.yul\":37799:37802   */\n      dup2\n        /* \"#utility.yul\":37796:37809   */\n      gt\n        /* \"#utility.yul\":37793:37832   */\n      iszero\n      tag_859\n      jumpi\n        /* \"#utility.yul\":37812:37830   */\n      tag_860\n      tag_430\n      jump\t// in\n    tag_860:\n        /* \"#utility.yul\":37793:37832   */\n    tag_859:\n        /* \"#utility.yul\":37651:37839   */\n      swap3\n      swap2\n      pop\n      pop\n      jump\t// out\n\n    auxdata: 0xa2646970667358221220c13f98f187173e5f1c281511fd956f2742d8eb39f68858cc88f4c91ee1e02b1a64736f6c634300081e0033\n}\n",
				"bytecode": {
					"linkReferences": {},
					"object": "60806040527f610000000000000000000000000000000000000000000000000000000000000060045f6101000a81548160ff021916908360f81c02179055507f6162000000000000000000000000000000000000000000000000000000000000600460016101000a81548161ffff021916908360f01c02179055506040518060400160405280600a81526020017f426c6f636b636861696e00000000000000000000000000000000000000000000815250600990816100be9190610341565b503360015f6101000a81548173ffffffffffffffffffffffffffffffffffffffff021916908373ffffffffffffffffffffffffffffffffffffffff160217905550610410565b5f81519050919050565b7f4e487b71000000000000000000000000000000000000000000000000000000005f52604160045260245ffd5b7f4e487b71000000000000000000000000000000000000000000000000000000005f52602260045260245ffd5b5f600282049050600182168061017f57607f821691505b6020821081036101925761019161013b565b5b50919050565b5f819050815f5260205f209050919050565b5f6020601f8301049050919050565b5f82821b905092915050565b5f600883026101f47fffffffffffffffffffffffffffffffffffffffffffffffffffffffffffffffff826101b9565b6101fe86836101b9565b95508019841693508086168417925050509392505050565b5f819050919050565b5f819050919050565b5f61024261023d61023884610216565b61021f565b610216565b9050919050565b5f819050919050565b61025b83610228565b61026f61026782610249565b8484546101c5565b825550505050565b5f5f905090565b610286610277565b610291818484610252565b505050565b5b818110156102b4576102a95f8261027e565b600181019050610297565b5050565b601f8211156102f9576102ca81610198565b6102d3846101aa565b810160208510156102e2578190505b6102f66102ee856101aa565b830182610296565b50505b505050565b5f82821c905092915050565b5f6103195f19846008026102fe565b1980831691505092915050565b5f610331838361030a565b9150826002028217905092915050565b61034a82610104565b67ffffffffffffffff8111156103635761036261010e565b5b61036d8254610168565b6103788282856102b8565b5f60209050601f8311600181146103a9575f8415610397578287015190505b6103a18582610326565b865550610408565b601f1984166103b786610198565b5f5b828110156103de578489015182556001820191506020850194506020810190506103b9565b868310156103fb57848901516103f7601f89168261030a565b8355505b6001600288020188555050505b505050505050565b6128a08061041d5f395ff3fe60806040526004361061020e575f3560e01c80637499854e11610117578063cb737b501161009f578063dc75bec71161006e578063dc75bec714610734578063deafcc411461075e578063ed48111314610788578063eda1d252146107b0578063edb046dc146107da5761020e565b8063cb737b501461067a578063d080bd88146106a5578063d37e5104146106e1578063daf55985146106f75761020e565b80638a9db001116100e65780638a9db00114610599578063960e3e17146105c15780639fb76f1b146105e9578063ac5beef914610626578063c19d93fb146106505761020e565b80637499854e14610506578063826da11d1461053157806383197ef01461056d57806388aa112b146105835761020e565b806332af93f71161019a5780635ae6c085116101695780635ae6c085146104475780635ec01e4d1461047457806361bc221a1461049e57806365eaca04146104c857806372f9b22e146104de5761020e565b806332af93f7146103ad5780634eeca076146103e95780634fb8aaf4146103ff57806353946c2c1461041d5761020e565b80632480cad4116101e15780632480cad4146102c957806327b8a349146102f357806329f789e91461032f5780632d5d677b146103595780632fdbbb9b146103815761020e565b806308b9a761146102125780631882fc111461024f5780631ccb95ea146102795780631f5b1b48146102a1575b5f5ffd5b34801561021d575f5ffd5b5061023860048036038101906102339190611521565b610816565b6040516102469291906115d4565b60405180910390f35b34801561025a575f5ffd5b506102636108bc565b6040516102709190611654565b60405180910390f35b348015610284575f5ffd5b5061029f600480360381019061029a91906116ab565b610948565b005b3480156102ac575f5ffd5b506102c760048036038101906102c2919061170b565b610993565b005b3480156102d4575f5ffd5b506102dd610a0c565b6040516102ea9190611770565b60405180910390f35b3480156102fe575f5ffd5b50610319600480360381019061031491906117b3565b610a1f565b60405161032691906117fc565b60405180910390f35b34801561033a575f5ffd5b50610343610a56565b604051610350919061184f565b60405180910390f35b348015610364575f5ffd5b5061037f600480360381019061037a91906118c9565b610a68565b005b34801561038c575f5ffd5b50610395610b14565b6040516103a493929190611960565b60405180910390f35b3480156103b8575f5ffd5b506103d360048036038101906103ce919061199c565b610b99565b6040516103e09190611a1a565b60405180910390f35b3480156103f4575f5ffd5b506103fd610c4e565b005b610407610c65565b6040516104149190611a3a565b60405180910390f35b348015610428575f5ffd5b50610431610c6c565b60405161043e9190611b9f565b60405180910390f35b348015610452575f5ffd5b5061045b610d61565b60405161046b9493929190611bce565b60405180910390f35b34801561047f575f5ffd5b50610488610d77565b6040516104959190611a3a565b60405180910390f35b3480156104a9575f5ffd5b506104b2610db9565b6040516104bf9190611a3a565b60405180910390f35b3480156104d3575f5ffd5b506104dc610dbe565b005b3480156104e9575f5ffd5b5061050460048036038101906104ff91906118c9565b610e09565b005b348015610511575f5ffd5b5061051a610ea2565b604051610528929190611c11565b60405180910390f35b34801561053c575f5ffd5b506105576004803603810190610552919061170b565b610eae565b6040516105649190611c47565b60405180910390f35b348015610578575f5ffd5b50610581610ed0565b005b34801561058e575f5ffd5b50610597610ee9565b005b3480156105a4575f5ffd5b506105bf60048036038101906105ba9190611c8a565b610ff8565b005b3480156105cc575f5ffd5b506105e760048036038101906105e29190611cdf565b61106e565b005b3480156105f4575f5ffd5b5061060f600480360381019061060a91906117b3565b6110c2565b60405161061d9291906115d4565b60405180910390f35b348015610631575f5ffd5b5061063a611177565b6040516106479190611a3a565b60405180910390f35b34801561065b575f5ffd5b50610664611190565b6040516106719190611d7d565b60405180910390f35b348015610685575f5ffd5b5061068e6111a2565b60405161069c929190611db0565b60405180910390f35b3480156106b0575f5ffd5b506106cb60048036038101906106c691906117b3565b6111cf565b6040516106d89190611de6565b60405180910390f35b3480156106ec575f5ffd5b506106f5611204565b005b348015610702575f5ffd5b5061071d600480360381019061071891906117b3565b611298565b60405161072b929190611ea7565b60405180910390f35b34801561073f575f5ffd5b50610748611337565b6040516107559190611ed5565b60405180910390f35b348015610769575f5ffd5b50610772611389565b60405161077f9190611a1a565b60405180910390f35b348015610793575f5ffd5b506107ae60048036038101906107a99190611f43565b611415565b005b3480156107bb575f5ffd5b506107c461142b565b6040516107d19190611de6565b60405180910390f35b3480156107e5575f5ffd5b5061080060048036038101906107fb919061170b565b611454565b60405161080d9190611c47565b60405180910390f35b6002602052805f5260405f205f91509050805f01805461083590611fbb565b80601f016020809104026020016040519081016040528092919081815260200182805461086190611fbb565b80156108ac5780601f10610883576101008083540402835291602001916108ac565b820191905f5260205f20905b81548152906001019060200180831161088f57829003601f168201915b5050505050908060010154905082565b600580546108c990611fbb565b80601f01602080910402602001604051908101604052809291908181526020018280546108f590611fbb565b80156109405780601f1061091757610100808354040283529160200191610940565b820191905f5260205f20905b81548152906001019060200180831161092357829003601f168201915b505050505081565b600781908060018154018082558091505060019003905f5260205f2090601091828204019190066002029091909190916101000a81548161ffff021916908361ffff16021790555050565b80156109af575f6001146109aa576109a9611feb565b5b6109f3565b5f6001146109f2576040517f08c379a00000000000000000000000000000000000000000000000000000000081526004016109e990612062565b60405180910390fd5b5b5f5f815480929190610a04906120ad565b919050555050565b600460019054906101000a900460f01b81565b60088181548110610a2e575f80fd5b905f5260205f209060089182820401919006600402915054906101000a900463ffffffff1681565b60045f9054906101000a900460f81b81565b610a706114a6565b83838080601f0160208091040260200160405190810160405280939291908181526020018383808284375f81840152601f19601f82011690508083019250505050505050815f018190525081816020018181525050600381908060018154018082558091505060019003905f5260205f2090600202015f909190919091505f820151815f019081610b0191906122c1565b5060208201518160010155505050505050565b60605f5f5f5a90505f36825f357fffffffff000000000000000000000000000000000000000000000000000000001683838080601f0160208091040260200160405190810160405280939291908181526020018383808284375f81840152601f19601f8201169050808301925050505050505092509091925093509350935050909192565b60608282604051610bab9291906123cc565b60405180910390208585604051610bc39291906123cc565b604051809103902003610c0d576040518060400160405280600781526020017f696775616c6573000000000000000000000000000000000000000000000000008152509050610c46565b6040518060400160405280600981526020017f64697374696e746f73000000000000000000000000000000000000000000000081525090505b949350505050565b5f6001148015610c625750610c61611488565b5b50565b5f34905090565b60606003805480602002602001604051908101604052809291908181526020015f905b82821015610d58578382905f5260205f2090600202016040518060400160405290815f82018054610cbf90611fbb565b80601f0160208091040260200160405190810160405280929190818152602001828054610ceb90611fbb565b8015610d365780601f10610d0d57610100808354040283529160200191610d36565b820191905f5260205f20905b815481529060010190602001808311610d1957829003601f168201915b5050505050815260200160018201548152505081526020019060010190610c8f565b50505050905090565b5f5f5f5f44454341935093509350935090919293565b5f5f60644244604051602001610d8e929190612404565b604051602081830303815290604052805190602001205f1c610db0919061245c565b90508091505090565b5f5481565b5f3390508073ffffffffffffffffffffffffffffffffffffffff166108fc4790811502906040515f60405180830381858888f19350505050158015610e05573d5f5f3e3d5ffd5b5050565b828260025f3373ffffffffffffffffffffffffffffffffffffffff1673ffffffffffffffffffffffffffffffffffffffff1681526020019081526020015f205f019182610e57929190612496565b508060025f3373ffffffffffffffffffffffffffffffffffffffff1673ffffffffffffffffffffffffffffffffffffffff1681526020019081526020015f2060010181905550505050565b5f5f3a32915091509091565b5f8115610ec157610e1080149050610ecb565b610e10610e4c1490505b919050565b3373ffffffffffffffffffffffffffffffffffffffff16ff5b3373ffffffffffffffffffffffffffffffffffffffff1660015f9054906101000a900473ffffffffffffffffffffffffffffffffffffffff1673ffffffffffffffffffffffffffffffffffffffff1614610f78576040517f08c379a0000000000000000000000000000000000000000000000000000000008152600401610f6f906125ad565b60405180910390fd5b5f3390505f15158173ffffffffffffffffffffffffffffffffffffffff166108fc4790811502906040515f60405180830381858888f19350505050151503610ff5576040517f08c379a0000000000000000000000000000000000000000000000000000000008152600401610fec90612615565b60405180910390fd5b50565b8060095f815461100790611fbb565b811061101657611015612633565b5b81546001161561103357905f5260205f2090602091828204019190065b601f036101000a81548160ff021916907f01000000000000000000000000000000000000000000000000000000000000008404021790555050565b5f600890508082908060018154018082558091505060019003905f5260205f2090600891828204019190066004029091909190916101000a81548163ffffffff021916908363ffffffff1602179055505050565b600381815481106110d1575f80fd5b905f5260205f2090600202015f91509050805f0180546110f090611fbb565b80601f016020809104026020016040519081016040528092919081815260200182805461111c90611fbb565b80156111675780601f1061113e57610100808354040283529160200191611167565b820191905f5260205f20905b81548152906001019060200180831161114a57829003601f168201915b5050505050908060010154905082565b5f5f6001905080600561118a9190612660565b91505090565b60065f9054906101000a900460ff1681565b5f5f7fffffffffffffffffffffffffffffffffffffffffffffffffffffffffffffff80607f915091509091565b600781815481106111de575f80fd5b905f5260205f209060109182820401919006600202915054906101000a900461ffff1681565b5f600181111561121757611216611d0a565b5b60065f9054906101000a900460ff16600181111561123857611237611d0a565b5b0361126c57600160065f6101000a81548160ff0219169083600181111561126257611261611d0a565b5b0217905550611296565b5f60065f6101000a81548160ff021916908360018111156112905761128f611d0a565b5b02179055505b565b60605f5f8367ffffffffffffffff8111156112b6576112b56120f4565b5b6040519080825280602002602001820160405280156112e45781602001602082028036833780820191505090505b5090506001815f815181106112fc576112fb612633565b5b60200260200101818152505060028160018151811061131e5761131d612633565b5b6020026020010181815250508081519250925050915091565b5f7fffffffffffffffffffffffffffffffffffffffffffffffffffffffffffffffff7fffffffffffffffffffffffffffffffffffffffffffffffffffffffffffffff806113849190612693565b905090565b6009805461139690611fbb565b80601f01602080910402602001604051908101604052809291908181526020018280546113c290611fbb565b801561140d5780601f106113e45761010080835404028352916020019161140d565b820191905f5260205f20905b8154815290600101906020018083116113f057829003601f168201915b505050505081565b81816005918261142692919061275d565b505050565b5f5f6001611439575f61143c565b60015b60ff6114489190612836565b60ff1690508091505090565b5f811561146d57670de0b6b3a764000080149050611483565b670de0b6b3a764000067136dcc951d8c00001490505b919050565b5f5f5f81548092919061149a906120ad565b91905055506001905090565b6040518060400160405280606081526020015f81525090565b5f5ffd5b5f5ffd5b5f73ffffffffffffffffffffffffffffffffffffffff82169050919050565b5f6114f0826114c7565b9050919050565b611500816114e6565b811461150a575f5ffd5b50565b5f8135905061151b816114f7565b92915050565b5f60208284031215611536576115356114bf565b5b5f6115438482850161150d565b91505092915050565b5f81519050919050565b5f82825260208201905092915050565b8281835e5f83830152505050565b5f601f19601f8301169050919050565b5f61158e8261154c565b6115988185611556565b93506115a8818560208601611566565b6115b181611574565b840191505092915050565b5f819050919050565b6115ce816115bc565b82525050565b5f6040820190508181035f8301526115ec8185611584565b90506115fb60208301846115c5565b9392505050565b5f81519050919050565b5f82825260208201905092915050565b5f61162682611602565b611630818561160c565b9350611640818560208601611566565b61164981611574565b840191505092915050565b5f6020820190508181035f83015261166c818461161c565b905092915050565b5f61ffff82169050919050565b61168a81611674565b8114611694575f5ffd5b50565b5f813590506116a581611681565b92915050565b5f602082840312156116c0576116bf6114bf565b5b5f6116cd84828501611697565b91505092915050565b5f8115159050919050565b6116ea816116d6565b81146116f4575f5ffd5b50565b5f81359050611705816116e1565b92915050565b5f602082840312156117205761171f6114bf565b5b5f61172d848285016116f7565b91505092915050565b5f7fffff00000000000000000000000000000000000000000000000000000000000082169050919050565b61176a81611736565b82525050565b5f6020820190506117835f830184611761565b92915050565b611792816115bc565b811461179c575f5ffd5b50565b5f813590506117ad81611789565b92915050565b5f602082840312156117c8576117c76114bf565b5b5f6117d58482850161179f565b91505092915050565b5f63ffffffff82169050919050565b6117f6816117de565b82525050565b5f60208201905061180f5f8301846117ed565b92915050565b5f7fff0000000000000000000000000000000000000000000000000000000000000082169050919050565b61184981611815565b82525050565b5f6020820190506118625f830184611840565b92915050565b5f5ffd5b5f5ffd5b5f5ffd5b5f5f83601f84011261188957611888611868565b5b8235905067ffffffffffffffff8111156118a6576118a561186c565b5b6020830191508360018202830111156118c2576118c1611870565b5b9250929050565b5f5f5f604084860312156118e0576118df6114bf565b5b5f84013567ffffffffffffffff8111156118fd576118fc6114c3565b5b61190986828701611874565b9350935050602061191c8682870161179f565b9150509250925092565b5f7fffffffff0000000000000000000000000000000000000000000000000000000082169050919050565b61195a81611926565b82525050565b5f6060820190508181035f830152611978818661161c565b905061198760208301856115c5565b6119946040830184611951565b949350505050565b5f5f5f5f604085870312156119b4576119b36114bf565b5b5f85013567ffffffffffffffff8111156119d1576119d06114c3565b5b6119dd87828801611874565b9450945050602085013567ffffffffffffffff811115611a00576119ff6114c3565b5b611a0c87828801611874565b925092505092959194509250565b5f6020820190508181035f830152611a328184611584565b905092915050565b5f602082019050611a4d5f8301846115c5565b92915050565b5f81519050919050565b5f82825260208201905092915050565b5f819050602082019050919050565b5f82825260208201905092915050565b5f611a968261154c565b611aa08185611a7c565b9350611ab0818560208601611566565b611ab981611574565b840191505092915050565b611acd816115bc565b82525050565b5f604083015f8301518482035f860152611aed8282611a8c565b9150506020830151611b026020860182611ac4565b508091505092915050565b5f611b188383611ad3565b905092915050565b5f602082019050919050565b5f611b3682611a53565b611b408185611a5d565b935083602082028501611b5285611a6d565b805f5b85811015611b8d5784840389528151611b6e8582611b0d565b9450611b7983611b20565b925060208a01995050600181019050611b55565b50829750879550505050505092915050565b5f6020820190508181035f830152611bb78184611b2c565b905092915050565b611bc8816114e6565b82525050565b5f608082019050611be15f8301876115c5565b611bee60208301866115c5565b611bfb60408301856115c5565b611c086060830184611bbf565b95945050505050565b5f604082019050611c245f8301856115c5565b611c316020830184611bbf565b9392505050565b611c41816116d6565b82525050565b5f602082019050611c5a5f830184611c38565b92915050565b611c6981611815565b8114611c73575f5ffd5b50565b5f81359050611c8481611c60565b92915050565b5f60208284031215611c9f57611c9e6114bf565b5b5f611cac84828501611c76565b91505092915050565b611cbe816117de565b8114611cc8575f5ffd5b50565b5f81359050611cd981611cb5565b92915050565b5f60208284031215611cf457611cf36114bf565b5b5f611d0184828501611ccb565b91505092915050565b7f4e487b71000000000000000000000000000000000000000000000000000000005f52602160045260245ffd5b60028110611d4857611d47611d0a565b5b50565b5f819050611d5882611d37565b919050565b5f611d6782611d4b565b9050919050565b611d7781611d5d565b82525050565b5f602082019050611d905f830184611d6e565b92915050565b5f815f0b9050919050565b611daa81611d96565b82525050565b5f604082019050611dc35f830185611da1565b611dd06020830184611da1565b9392505050565b611de081611674565b82525050565b5f602082019050611df95f830184611dd7565b92915050565b5f81519050919050565b5f82825260208201905092915050565b5f819050602082019050919050565b5f611e338383611ac4565b60208301905092915050565b5f602082019050919050565b5f611e5582611dff565b611e5f8185611e09565b9350611e6a83611e19565b805f5b83811015611e9a578151611e818882611e28565b9750611e8c83611e3f565b925050600181019050611e6d565b5085935050505092915050565b5f6040820190508181035f830152611ebf8185611e4b565b9050611ece60208301846115c5565b9392505050565b5f602082019050611ee85f830184611da1565b92915050565b5f5f83601f840112611f0357611f02611868565b5b8235905067ffffffffffffffff811115611f2057611f1f61186c565b5b602083019150836001820283011115611f3c57611f3b611870565b5b9250929050565b5f5f60208385031215611f5957611f586114bf565b5b5f83013567ffffffffffffffff811115611f7657611f756114c3565b5b611f8285828601611eee565b92509250509250929050565b7f4e487b71000000000000000000000000000000000000000000000000000000005f52602260045260245ffd5b5f6002820490506001821680611fd257607f821691505b602082108103611fe557611fe4611f8e565b5b50919050565b7f4e487b71000000000000000000000000000000000000000000000000000000005f52600160045260245ffd5b7f31206e6f20657320696775616c206120300000000000000000000000000000005f82015250565b5f61204c601183611556565b915061205782612018565b602082019050919050565b5f6020820190508181035f83015261207981612040565b9050919050565b7f4e487b71000000000000000000000000000000000000000000000000000000005f52601160045260245ffd5b5f6120b7826115bc565b91507fffffffffffffffffffffffffffffffffffffffffffffffffffffffffffffffff82036120e9576120e8612080565b5b600182019050919050565b7f4e487b71000000000000000000000000000000000000000000000000000000005f52604160045260245ffd5b5f819050815f5260205f209050919050565b5f6020601f8301049050919050565b5f82821b905092915050565b5f6008830261217d7fffffffffffffffffffffffffffffffffffffffffffffffffffffffffffffffff82612142565b6121878683612142565b95508019841693508086168417925050509392505050565b5f819050919050565b5f6121c26121bd6121b8846115bc565b61219f565b6115bc565b9050919050565b5f819050919050565b6121db836121a8565b6121ef6121e7826121c9565b84845461214e565b825550505050565b5f5f905090565b6122066121f7565b6122118184846121d2565b505050565b5b81811015612234576122295f826121fe565b600181019050612217565b5050565b601f8211156122795761224a81612121565b61225384612133565b81016020851015612262578190505b61227661226e85612133565b830182612216565b50505b505050565b5f82821c905092915050565b5f6122995f198460080261227e565b1980831691505092915050565b5f6122b1838361228a565b9150826002028217905092915050565b6122ca8261154c565b67ffffffffffffffff8111156122e3576122e26120f4565b5b6122ed8254611fbb565b6122f8828285612238565b5f60209050601f831160018114612329575f8415612317578287015190505b61232185826122a6565b865550612388565b601f19841661233786612121565b5f5b8281101561235e57848901518255600182019150602085019450602081019050612339565b8683101561237b5784890151612377601f89168261228a565b8355505b6001600288020188555050505b505050505050565b5f81905092915050565b828183375f83830152505050565b5f6123b38385612390565b93506123c083858461239a565b82840190509392505050565b5f6123d88284866123a8565b91508190509392505050565b5f819050919050565b6123fe6123f9826115bc565b6123e4565b82525050565b5f61240f82856123ed565b60208201915061241f82846123ed565b6020820191508190509392505050565b7f4e487b71000000000000000000000000000000000000000000000000000000005f52601260045260245ffd5b5f612466826115bc565b9150612471836115bc565b9250826124815761248061242f565b5b828206905092915050565b5f82905092915050565b6124a0838361248c565b67ffffffffffffffff8111156124b9576124b86120f4565b5b6124c38254611fbb565b6124ce828285612238565b5f601f8311600181146124fb575f84156124e9578287013590505b6124f385826122a6565b86555061255a565b601f19841661250986612121565b5f5b828110156125305784890135825560018201915060208501945060208101905061250b565b8683101561254d5784890135612549601f89168261228a565b8355505b6001600288020188555050505b50505050505050565b7f6e6f206572657320656c206f776e6572000000000000000000000000000000005f82015250565b5f612597601083611556565b91506125a282612563565b602082019050919050565b5f6020820190508181035f8301526125c48161258b565b9050919050565b7f66616c6c6f20656c20656e76696f0000000000000000000000000000000000005f82015250565b5f6125ff600e83611556565b915061260a826125cb565b602082019050919050565b5f6020820190508181035f83015261262c816125f3565b9050919050565b7f4e487b71000000000000000000000000000000000000000000000000000000005f52603260045260245ffd5b5f61266a826115bc565b9150612675836115bc565b925082820190508082111561268d5761268c612080565b5b92915050565b5f61269d82611d96565b91506126a883611d96565b9250826126b8576126b761242f565b5b60015f0383147fffffffffffffffffffffffffffffffffffffffffffffffffffffffffffffff80831416156126f0576126ef612080565b5b828205905092915050565b5f82905092915050565b5f819050815f5260205f209050919050565b601f8211156127585761272981612705565b61273284612133565b81016020851015612741578190505b61275561274d85612133565b830182612216565b50505b505050565b61276783836126fb565b67ffffffffffffffff8111156127805761277f6120f4565b5b61278a8254611fbb565b612795828285612717565b5f601f8311600181146127c2575f84156127b0578287013590505b6127ba85826122a6565b865550612821565b601f1984166127d086612705565b5f5b828110156127f7578489013582556001820191506020850194506020810190506127d2565b868310156128145784890135612810601f89168261228a565b8355505b6001600288020188555050505b50505050505050565b5f60ff82169050919050565b5f6128408261282a565b915061284b8361282a565b9250828201905060ff81111561286457612863612080565b5b9291505056fea2646970667358221220c13f98f187173e5f1c281511fd956f2742d8eb39f68858cc88f4c91ee1e02b1a64736f6c634300081e0033",
					"opcodes": "PUSH1 0x80 PUSH1 0x40 MSTORE PUSH32 0x6100000000000000000000000000000000000000000000000000000000000000 PUSH1 0x4 PUSH0 PUSH2 0x100 EXP DUP2 SLOAD DUP2 PUSH1 0xFF MUL NOT AND SWAP1 DUP4 PUSH1 0xF8 SHR MUL OR SWAP1 SSTORE POP PUSH32 0x6162000000000000000000000000000000000000000000000000000000000000 PUSH1 0x4 PUSH1 0x1 PUSH2 0x100 EXP DUP2 SLOAD DUP2 PUSH2 0xFFFF MUL NOT AND SWAP1 DUP4 PUSH1 0xF0 SHR MUL OR SWAP1 SSTORE POP PUSH1 0x40 MLOAD DUP1 PUSH1 0x40 ADD PUSH1 0x40 MSTORE DUP1 PUSH1 0xA DUP2 MSTORE PUSH1 0x20 ADD PUSH32 0x426C6F636B636861696E00000000000000000000000000000000000000000000 DUP2 MSTORE POP PUSH1 0x9 SWAP1 DUP2 PUSH2 0xBE SWAP2 SWAP1 PUSH2 0x341 JUMP JUMPDEST POP CALLER PUSH1 0x1 PUSH0 PUSH2 0x100 EXP DUP2 SLOAD DUP2 PUSH20 0xFFFFFFFFFFFFFFFFFFFFFFFFFFFFFFFFFFFFFFFF MUL NOT AND SWAP1 DUP4 PUSH20 0xFFFFFFFFFFFFFFFFFFFFFFFFFFFFFFFFFFFFFFFF AND MUL OR SWAP1 SSTORE POP PUSH2 0x410 JUMP JUMPDEST PUSH0 DUP2 MLOAD SWAP1 POP SWAP2 SWAP1 POP JUMP JUMPDEST PUSH32 0x4E487B7100000000000000000000000000000000000000000000000000000000 PUSH0 MSTORE PUSH1 0x41 PUSH1 0x4 MSTORE PUSH1 0x24 PUSH0 REVERT JUMPDEST PUSH32 0x4E487B7100000000000000000000000000000000000000000000000000000000 PUSH0 MSTORE PUSH1 0x22 PUSH1 0x4 MSTORE PUSH1 0x24 PUSH0 REVERT JUMPDEST PUSH0 PUSH1 0x2 DUP3 DIV SWAP1 POP PUSH1 0x1 DUP3 AND DUP1 PUSH2 0x17F JUMPI PUSH1 0x7F DUP3 AND SWAP2 POP JUMPDEST PUSH1 0x20 DUP3 LT DUP2 SUB PUSH2 0x192 JUMPI PUSH2 0x191 PUSH2 0x13B JUMP JUMPDEST JUMPDEST POP SWAP2 SWAP1 POP JUMP JUMPDEST PUSH0 DUP2 SWAP1 POP DUP2 PUSH0 MSTORE PUSH1 0x20 PUSH0 KECCAK256 SWAP1 POP SWAP2 SWAP1 POP JUMP JUMPDEST PUSH0 PUSH1 0x20 PUSH1 0x1F DUP4 ADD DIV SWAP1 POP SWAP2 SWAP1 POP JUMP JUMPDEST PUSH0 DUP3 DUP3 SHL SWAP1 POP SWAP3 SWAP2 POP POP JUMP JUMPDEST PUSH0 PUSH1 0x8 DUP4 MUL PUSH2 0x1F4 PUSH32 0xFFFFFFFFFFFFFFFFFFFFFFFFFFFFFFFFFFFFFFFFFFFFFFFFFFFFFFFFFFFFFFFF DUP3 PUSH2 0x1B9 JUMP JUMPDEST PUSH2 0x1FE DUP7 DUP4 PUSH2 0x1B9 JUMP JUMPDEST SWAP6 POP DUP1 NOT DUP5 AND SWAP4 POP DUP1 DUP7 AND DUP5 OR SWAP3 POP POP POP SWAP4 SWAP3 POP POP POP JUMP JUMPDEST PUSH0 DUP2 SWAP1 POP SWAP2 SWAP1 POP JUMP JUMPDEST PUSH0 DUP2 SWAP1 POP SWAP2 SWAP1 POP JUMP JUMPDEST PUSH0 PUSH2 0x242 PUSH2 0x23D PUSH2 0x238 DUP5 PUSH2 0x216 JUMP JUMPDEST PUSH2 0x21F JUMP JUMPDEST PUSH2 0x216 JUMP JUMPDEST SWAP1 POP SWAP2 SWAP1 POP JUMP JUMPDEST PUSH0 DUP2 SWAP1 POP SWAP2 SWAP1 POP JUMP JUMPDEST PUSH2 0x25B DUP4 PUSH2 0x228 JUMP JUMPDEST PUSH2 0x26F PUSH2 0x267 DUP3 PUSH2 0x249 JUMP JUMPDEST DUP5 DUP5 SLOAD PUSH2 0x1C5 JUMP JUMPDEST DUP3 SSTORE POP POP POP POP JUMP JUMPDEST PUSH0 PUSH0 SWAP1 POP SWAP1 JUMP JUMPDEST PUSH2 0x286 PUSH2 0x277 JUMP JUMPDEST PUSH2 0x291 DUP2 DUP5 DUP5 PUSH2 0x252 JUMP JUMPDEST POP POP POP JUMP JUMPDEST JUMPDEST DUP2 DUP2 LT ISZERO PUSH2 0x2B4 JUMPI PUSH2 0x2A9 PUSH0 DUP3 PUSH2 0x27E JUMP JUMPDEST PUSH1 0x1 DUP2 ADD SWAP1 POP PUSH2 0x297 JUMP JUMPDEST POP POP JUMP JUMPDEST PUSH1 0x1F DUP3 GT ISZERO PUSH2 0x2F9 JUMPI PUSH2 0x2CA DUP2 PUSH2 0x198 JUMP JUMPDEST PUSH2 0x2D3 DUP5 PUSH2 0x1AA JUMP JUMPDEST DUP2 ADD PUSH1 0x20 DUP6 LT ISZERO PUSH2 0x2E2 JUMPI DUP2 SWAP1 POP JUMPDEST PUSH2 0x2F6 PUSH2 0x2EE DUP6 PUSH2 0x1AA JUMP JUMPDEST DUP4 ADD DUP3 PUSH2 0x296 JUMP JUMPDEST POP POP JUMPDEST POP POP POP JUMP JUMPDEST PUSH0 DUP3 DUP3 SHR SWAP1 POP SWAP3 SWAP2 POP POP JUMP JUMPDEST PUSH0 PUSH2 0x319 PUSH0 NOT DUP5 PUSH1 0x8 MUL PUSH2 0x2FE JUMP JUMPDEST NOT DUP1 DUP4 AND SWAP2 POP POP SWAP3 SWAP2 POP POP JUMP JUMPDEST PUSH0 PUSH2 0x331 DUP4 DUP4 PUSH2 0x30A JUMP JUMPDEST SWAP2 POP DUP3 PUSH1 0x2 MUL DUP3 OR SWAP1 POP SWAP3 SWAP2 POP POP JUMP JUMPDEST PUSH2 0x34A DUP3 PUSH2 0x104 JUMP JUMPDEST PUSH8 0xFFFFFFFFFFFFFFFF DUP2 GT ISZERO PUSH2 0x363 JUMPI PUSH2 0x362 PUSH2 0x10E JUMP JUMPDEST JUMPDEST PUSH2 0x36D DUP3 SLOAD PUSH2 0x168 JUMP JUMPDEST PUSH2 0x378 DUP3 DUP3 DUP6 PUSH2 0x2B8 JUMP JUMPDEST PUSH0 PUSH1 0x20 SWAP1 POP PUSH1 0x1F DUP4 GT PUSH1 0x1 DUP2 EQ PUSH2 0x3A9 JUMPI PUSH0 DUP5 ISZERO PUSH2 0x397 JUMPI DUP3 DUP8 ADD MLOAD SWAP1 POP JUMPDEST PUSH2 0x3A1 DUP6 DUP3 PUSH2 0x326 JUMP JUMPDEST DUP7 SSTORE POP PUSH2 0x408 JUMP JUMPDEST PUSH1 0x1F NOT DUP5 AND PUSH2 0x3B7 DUP7 PUSH2 0x198 JUMP JUMPDEST PUSH0 JUMPDEST DUP3 DUP2 LT ISZERO PUSH2 0x3DE JUMPI DUP5 DUP10 ADD MLOAD DUP3 SSTORE PUSH1 0x1 DUP3 ADD SWAP2 POP PUSH1 0x20 DUP6 ADD SWAP5 POP PUSH1 0x20 DUP2 ADD SWAP1 POP PUSH2 0x3B9 JUMP JUMPDEST DUP7 DUP4 LT ISZERO PUSH2 0x3FB JUMPI DUP5 DUP10 ADD MLOAD PUSH2 0x3F7 PUSH1 0x1F DUP10 AND DUP3 PUSH2 0x30A JUMP JUMPDEST DUP4 SSTORE POP JUMPDEST PUSH1 0x1 PUSH1 0x2 DUP9 MUL ADD DUP9 SSTORE POP POP POP JUMPDEST POP POP POP POP POP POP JUMP JUMPDEST PUSH2 0x28A0 DUP1 PUSH2 0x41D PUSH0 CODECOPY PUSH0 RETURN INVALID PUSH1 0x80 PUSH1 0x40 MSTORE PUSH1 0x4 CALLDATASIZE LT PUSH2 0x20E JUMPI PUSH0 CALLDATALOAD PUSH1 0xE0 SHR DUP1 PUSH4 0x7499854E GT PUSH2 0x117 JUMPI DUP1 PUSH4 0xCB737B50 GT PUSH2 0x9F JUMPI DUP1 PUSH4 0xDC75BEC7 GT PUSH2 0x6E JUMPI DUP1 PUSH4 0xDC75BEC7 EQ PUSH2 0x734 JUMPI DUP1 PUSH4 0xDEAFCC41 EQ PUSH2 0x75E JUMPI DUP1 PUSH4 0xED481113 EQ PUSH2 0x788 JUMPI DUP1 PUSH4 0xEDA1D252 EQ PUSH2 0x7B0 JUMPI DUP1 PUSH4 0xEDB046DC EQ PUSH2 0x7DA JUMPI PUSH2 0x20E JUMP JUMPDEST DUP1 PUSH4 0xCB737B50 EQ PUSH2 0x67A JUMPI DUP1 PUSH4 0xD080BD88 EQ PUSH2 0x6A5 JUMPI DUP1 PUSH4 0xD37E5104 EQ PUSH2 0x6E1 JUMPI DUP1 PUSH4 0xDAF55985 EQ PUSH2 0x6F7 JUMPI PUSH2 0x20E JUMP JUMPDEST DUP1 PUSH4 0x8A9DB001 GT PUSH2 0xE6 JUMPI DUP1 PUSH4 0x8A9DB001 EQ PUSH2 0x599 JUMPI DUP1 PUSH4 0x960E3E17 EQ PUSH2 0x5C1 JUMPI DUP1 PUSH4 0x9FB76F1B EQ PUSH2 0x5E9 JUMPI DUP1 PUSH4 0xAC5BEEF9 EQ PUSH2 0x626 JUMPI DUP1 PUSH4 0xC19D93FB EQ PUSH2 0x650 JUMPI PUSH2 0x20E JUMP JUMPDEST DUP1 PUSH4 0x7499854E EQ PUSH2 0x506 JUMPI DUP1 PUSH4 0x826DA11D EQ PUSH2 0x531 JUMPI DUP1 PUSH4 0x83197EF0 EQ PUSH2 0x56D JUMPI DUP1 PUSH4 0x88AA112B EQ PUSH2 0x583 JUMPI PUSH2 0x20E JUMP JUMPDEST DUP1 PUSH4 0x32AF93F7 GT PUSH2 0x19A JUMPI DUP1 PUSH4 0x5AE6C085 GT PUSH2 0x169 JUMPI DUP1 PUSH4 0x5AE6C085 EQ PUSH2 0x447 JUMPI DUP1 PUSH4 0x5EC01E4D EQ PUSH2 0x474 JUMPI DUP1 PUSH4 0x61BC221A EQ PUSH2 0x49E JUMPI DUP1 PUSH4 0x65EACA04 EQ PUSH2 0x4C8 JUMPI DUP1 PUSH4 0x72F9B22E EQ PUSH2 0x4DE JUMPI PUSH2 0x20E JUMP JUMPDEST DUP1 PUSH4 0x32AF93F7 EQ PUSH2 0x3AD JUMPI DUP1 PUSH4 0x4EECA076 EQ PUSH2 0x3E9 JUMPI DUP1 PUSH4 0x4FB8AAF4 EQ PUSH2 0x3FF JUMPI DUP1 PUSH4 0x53946C2C EQ PUSH2 0x41D JUMPI PUSH2 0x20E JUMP JUMPDEST DUP1 PUSH4 0x2480CAD4 GT PUSH2 0x1E1 JUMPI DUP1 PUSH4 0x2480CAD4 EQ PUSH2 0x2C9 JUMPI DUP1 PUSH4 0x27B8A349 EQ PUSH2 0x2F3 JUMPI DUP1 PUSH4 0x29F789E9 EQ PUSH2 0x32F JUMPI DUP1 PUSH4 0x2D5D677B EQ PUSH2 0x359 JUMPI DUP1 PUSH4 0x2FDBBB9B EQ PUSH2 0x381 JUMPI PUSH2 0x20E JUMP JUMPDEST DUP1 PUSH4 0x8B9A761 EQ PUSH2 0x212 JUMPI DUP1 PUSH4 0x1882FC11 EQ PUSH2 0x24F JUMPI DUP1 PUSH4 0x1CCB95EA EQ PUSH2 0x279 JUMPI DUP1 PUSH4 0x1F5B1B48 EQ PUSH2 0x2A1 JUMPI JUMPDEST PUSH0 PUSH0 REVERT JUMPDEST CALLVALUE DUP1 ISZERO PUSH2 0x21D JUMPI PUSH0 PUSH0 REVERT JUMPDEST POP PUSH2 0x238 PUSH1 0x4 DUP1 CALLDATASIZE SUB DUP2 ADD SWAP1 PUSH2 0x233 SWAP2 SWAP1 PUSH2 0x1521 JUMP JUMPDEST PUSH2 0x816 JUMP JUMPDEST PUSH1 0x40 MLOAD PUSH2 0x246 SWAP3 SWAP2 SWAP1 PUSH2 0x15D4 JUMP JUMPDEST PUSH1 0x40 MLOAD DUP1 SWAP2 SUB SWAP1 RETURN JUMPDEST CALLVALUE DUP1 ISZERO PUSH2 0x25A JUMPI PUSH0 PUSH0 REVERT JUMPDEST POP PUSH2 0x263 PUSH2 0x8BC JUMP JUMPDEST PUSH1 0x40 MLOAD PUSH2 0x270 SWAP2 SWAP1 PUSH2 0x1654 JUMP JUMPDEST PUSH1 0x40 MLOAD DUP1 SWAP2 SUB SWAP1 RETURN JUMPDEST CALLVALUE DUP1 ISZERO PUSH2 0x284 JUMPI PUSH0 PUSH0 REVERT JUMPDEST POP PUSH2 0x29F PUSH1 0x4 DUP1 CALLDATASIZE SUB DUP2 ADD SWAP1 PUSH2 0x29A SWAP2 SWAP1 PUSH2 0x16AB JUMP JUMPDEST PUSH2 0x948 JUMP JUMPDEST STOP JUMPDEST CALLVALUE DUP1 ISZERO PUSH2 0x2AC JUMPI PUSH0 PUSH0 REVERT JUMPDEST POP PUSH2 0x2C7 PUSH1 0x4 DUP1 CALLDATASIZE SUB DUP2 ADD SWAP1 PUSH2 0x2C2 SWAP2 SWAP1 PUSH2 0x170B JUMP JUMPDEST PUSH2 0x993 JUMP JUMPDEST STOP JUMPDEST CALLVALUE DUP1 ISZERO PUSH2 0x2D4 JUMPI PUSH0 PUSH0 REVERT JUMPDEST POP PUSH2 0x2DD PUSH2 0xA0C JUMP JUMPDEST PUSH1 0x40 MLOAD PUSH2 0x2EA SWAP2 SWAP1 PUSH2 0x1770 JUMP JUMPDEST PUSH1 0x40 MLOAD DUP1 SWAP2 SUB SWAP1 RETURN JUMPDEST CALLVALUE DUP1 ISZERO PUSH2 0x2FE JUMPI PUSH0 PUSH0 REVERT JUMPDEST POP PUSH2 0x319 PUSH1 0x4 DUP1 CALLDATASIZE SUB DUP2 ADD SWAP1 PUSH2 0x314 SWAP2 SWAP1 PUSH2 0x17B3 JUMP JUMPDEST PUSH2 0xA1F JUMP JUMPDEST PUSH1 0x40 MLOAD PUSH2 0x326 SWAP2 SWAP1 PUSH2 0x17FC JUMP JUMPDEST PUSH1 0x40 MLOAD DUP1 SWAP2 SUB SWAP1 RETURN JUMPDEST CALLVALUE DUP1 ISZERO PUSH2 0x33A JUMPI PUSH0 PUSH0 REVERT JUMPDEST POP PUSH2 0x343 PUSH2 0xA56 JUMP JUMPDEST PUSH1 0x40 MLOAD PUSH2 0x350 SWAP2 SWAP1 PUSH2 0x184F JUMP JUMPDEST PUSH1 0x40 MLOAD DUP1 SWAP2 SUB SWAP1 RETURN JUMPDEST CALLVALUE DUP1 ISZERO PUSH2 0x364 JUMPI PUSH0 PUSH0 REVERT JUMPDEST POP PUSH2 0x37F PUSH1 0x4 DUP1 CALLDATASIZE SUB DUP2 ADD SWAP1 PUSH2 0x37A SWAP2 SWAP1 PUSH2 0x18C9 JUMP JUMPDEST PUSH2 0xA68 JUMP JUMPDEST STOP JUMPDEST CALLVALUE DUP1 ISZERO PUSH2 0x38C JUMPI PUSH0 PUSH0 REVERT JUMPDEST POP PUSH2 0x395 PUSH2 0xB14 JUMP JUMPDEST PUSH1 0x40 MLOAD PUSH2 0x3A4 SWAP4 SWAP3 SWAP2 SWAP1 PUSH2 0x1960 JUMP JUMPDEST PUSH1 0x40 MLOAD DUP1 SWAP2 SUB SWAP1 RETURN JUMPDEST CALLVALUE DUP1 ISZERO PUSH2 0x3B8 JUMPI PUSH0 PUSH0 REVERT JUMPDEST POP PUSH2 0x3D3 PUSH1 0x4 DUP1 CALLDATASIZE SUB DUP2 ADD SWAP1 PUSH2 0x3CE SWAP2 SWAP1 PUSH2 0x199C JUMP JUMPDEST PUSH2 0xB99 JUMP JUMPDEST PUSH1 0x40 MLOAD PUSH2 0x3E0 SWAP2 SWAP1 PUSH2 0x1A1A JUMP JUMPDEST PUSH1 0x40 MLOAD DUP1 SWAP2 SUB SWAP1 RETURN JUMPDEST CALLVALUE DUP1 ISZERO PUSH2 0x3F4 JUMPI PUSH0 PUSH0 REVERT JUMPDEST POP PUSH2 0x3FD PUSH2 0xC4E JUMP JUMPDEST STOP JUMPDEST PUSH2 0x407 PUSH2 0xC65 JUMP JUMPDEST PUSH1 0x40 MLOAD PUSH2 0x414 SWAP2 SWAP1 PUSH2 0x1A3A JUMP JUMPDEST PUSH1 0x40 MLOAD DUP1 SWAP2 SUB SWAP1 RETURN JUMPDEST CALLVALUE DUP1 ISZERO PUSH2 0x428 JUMPI PUSH0 PUSH0 REVERT JUMPDEST POP PUSH2 0x431 PUSH2 0xC6C JUMP JUMPDEST PUSH1 0x40 MLOAD PUSH2 0x43E SWAP2 SWAP1 PUSH2 0x1B9F JUMP JUMPDEST PUSH1 0x40 MLOAD DUP1 SWAP2 SUB SWAP1 RETURN JUMPDEST CALLVALUE DUP1 ISZERO PUSH2 0x452 JUMPI PUSH0 PUSH0 REVERT JUMPDEST POP PUSH2 0x45B PUSH2 0xD61 JUMP JUMPDEST PUSH1 0x40 MLOAD PUSH2 0x46B SWAP5 SWAP4 SWAP3 SWAP2 SWAP1 PUSH2 0x1BCE JUMP JUMPDEST PUSH1 0x40 MLOAD DUP1 SWAP2 SUB SWAP1 RETURN JUMPDEST CALLVALUE DUP1 ISZERO PUSH2 0x47F JUMPI PUSH0 PUSH0 REVERT JUMPDEST POP PUSH2 0x488 PUSH2 0xD77 JUMP JUMPDEST PUSH1 0x40 MLOAD PUSH2 0x495 SWAP2 SWAP1 PUSH2 0x1A3A JUMP JUMPDEST PUSH1 0x40 MLOAD DUP1 SWAP2 SUB SWAP1 RETURN JUMPDEST CALLVALUE DUP1 ISZERO PUSH2 0x4A9 JUMPI PUSH0 PUSH0 REVERT JUMPDEST POP PUSH2 0x4B2 PUSH2 0xDB9 JUMP JUMPDEST PUSH1 0x40 MLOAD PUSH2 0x4BF SWAP2 SWAP1 PUSH2 0x1A3A JUMP JUMPDEST PUSH1 0x40 MLOAD DUP1 SWAP2 SUB SWAP1 RETURN JUMPDEST CALLVALUE DUP1 ISZERO PUSH2 0x4D3 JUMPI PUSH0 PUSH0 REVERT JUMPDEST POP PUSH2 0x4DC PUSH2 0xDBE JUMP JUMPDEST STOP JUMPDEST CALLVALUE DUP1 ISZERO PUSH2 0x4E9 JUMPI PUSH0 PUSH0 REVERT JUMPDEST POP PUSH2 0x504 PUSH1 0x4 DUP1 CALLDATASIZE SUB DUP2 ADD SWAP1 PUSH2 0x4FF SWAP2 SWAP1 PUSH2 0x18C9 JUMP JUMPDEST PUSH2 0xE09 JUMP JUMPDEST STOP JUMPDEST CALLVALUE DUP1 ISZERO PUSH2 0x511 JUMPI PUSH0 PUSH0 REVERT JUMPDEST POP PUSH2 0x51A PUSH2 0xEA2 JUMP JUMPDEST PUSH1 0x40 MLOAD PUSH2 0x528 SWAP3 SWAP2 SWAP1 PUSH2 0x1C11 JUMP JUMPDEST PUSH1 0x40 MLOAD DUP1 SWAP2 SUB SWAP1 RETURN JUMPDEST CALLVALUE DUP1 ISZERO PUSH2 0x53C JUMPI PUSH0 PUSH0 REVERT JUMPDEST POP PUSH2 0x557 PUSH1 0x4 DUP1 CALLDATASIZE SUB DUP2 ADD SWAP1 PUSH2 0x552 SWAP2 SWAP1 PUSH2 0x170B JUMP JUMPDEST PUSH2 0xEAE JUMP JUMPDEST PUSH1 0x40 MLOAD PUSH2 0x564 SWAP2 SWAP1 PUSH2 0x1C47 JUMP JUMPDEST PUSH1 0x40 MLOAD DUP1 SWAP2 SUB SWAP1 RETURN JUMPDEST CALLVALUE DUP1 ISZERO PUSH2 0x578 JUMPI PUSH0 PUSH0 REVERT JUMPDEST POP PUSH2 0x581 PUSH2 0xED0 JUMP JUMPDEST STOP JUMPDEST CALLVALUE DUP1 ISZERO PUSH2 0x58E JUMPI PUSH0 PUSH0 REVERT JUMPDEST POP PUSH2 0x597 PUSH2 0xEE9 JUMP JUMPDEST STOP JUMPDEST CALLVALUE DUP1 ISZERO PUSH2 0x5A4 JUMPI PUSH0 PUSH0 REVERT JUMPDEST POP PUSH2 0x5BF PUSH1 0x4 DUP1 CALLDATASIZE SUB DUP2 ADD SWAP1 PUSH2 0x5BA SWAP2 SWAP1 PUSH2 0x1C8A JUMP JUMPDEST PUSH2 0xFF8 JUMP JUMPDEST STOP JUMPDEST CALLVALUE DUP1 ISZERO PUSH2 0x5CC JUMPI PUSH0 PUSH0 REVERT JUMPDEST POP PUSH2 0x5E7 PUSH1 0x4 DUP1 CALLDATASIZE SUB DUP2 ADD SWAP1 PUSH2 0x5E2 SWAP2 SWAP1 PUSH2 0x1CDF JUMP JUMPDEST PUSH2 0x106E JUMP JUMPDEST STOP JUMPDEST CALLVALUE DUP1 ISZERO PUSH2 0x5F4 JUMPI PUSH0 PUSH0 REVERT JUMPDEST POP PUSH2 0x60F PUSH1 0x4 DUP1 CALLDATASIZE SUB DUP2 ADD SWAP1 PUSH2 0x60A SWAP2 SWAP1 PUSH2 0x17B3 JUMP JUMPDEST PUSH2 0x10C2 JUMP JUMPDEST PUSH1 0x40 MLOAD PUSH2 0x61D SWAP3 SWAP2 SWAP1 PUSH2 0x15D4 JUMP JUMPDEST PUSH1 0x40 MLOAD DUP1 SWAP2 SUB SWAP1 RETURN JUMPDEST CALLVALUE DUP1 ISZERO PUSH2 0x631 JUMPI PUSH0 PUSH0 REVERT JUMPDEST POP PUSH2 0x63A PUSH2 0x1177 JUMP JUMPDEST PUSH1 0x40 MLOAD PUSH2 0x647 SWAP2 SWAP1 PUSH2 0x1A3A JUMP JUMPDEST PUSH1 0x40 MLOAD DUP1 SWAP2 SUB SWAP1 RETURN JUMPDEST CALLVALUE DUP1 ISZERO PUSH2 0x65B JUMPI PUSH0 PUSH0 REVERT JUMPDEST POP PUSH2 0x664 PUSH2 0x1190 JUMP JUMPDEST PUSH1 0x40 MLOAD PUSH2 0x671 SWAP2 SWAP1 PUSH2 0x1D7D JUMP JUMPDEST PUSH1 0x40 MLOAD DUP1 SWAP2 SUB SWAP1 RETURN JUMPDEST CALLVALUE DUP1 ISZERO PUSH2 0x685 JUMPI PUSH0 PUSH0 REVERT JUMPDEST POP PUSH2 0x68E PUSH2 0x11A2 JUMP JUMPDEST PUSH1 0x40 MLOAD PUSH2 0x69C SWAP3 SWAP2 SWAP1 PUSH2 0x1DB0 JUMP JUMPDEST PUSH1 0x40 MLOAD DUP1 SWAP2 SUB SWAP1 RETURN JUMPDEST CALLVALUE DUP1 ISZERO PUSH2 0x6B0 JUMPI PUSH0 PUSH0 REVERT JUMPDEST POP PUSH2 0x6CB PUSH1 0x4 DUP1 CALLDATASIZE SUB DUP2 ADD SWAP1 PUSH2 0x6C6 SWAP2 SWAP1 PUSH2 0x17B3 JUMP JUMPDEST PUSH2 0x11CF JUMP JUMPDEST PUSH1 0x40 MLOAD PUSH2 0x6D8 SWAP2 SWAP1 PUSH2 0x1DE6 JUMP JUMPDEST PUSH1 0x40 MLOAD DUP1 SWAP2 SUB SWAP1 RETURN JUMPDEST CALLVALUE DUP1 ISZERO PUSH2 0x6EC JUMPI PUSH0 PUSH0 REVERT JUMPDEST POP PUSH2 0x6F5 PUSH2 0x1204 JUMP JUMPDEST STOP JUMPDEST CALLVALUE DUP1 ISZERO PUSH2 0x702 JUMPI PUSH0 PUSH0 REVERT JUMPDEST POP PUSH2 0x71D PUSH1 0x4 DUP1 CALLDATASIZE SUB DUP2 ADD SWAP1 PUSH2 0x718 SWAP2 SWAP1 PUSH2 0x17B3 JUMP JUMPDEST PUSH2 0x1298 JUMP JUMPDEST PUSH1 0x40 MLOAD PUSH2 0x72B SWAP3 SWAP2 SWAP1 PUSH2 0x1EA7 JUMP JUMPDEST PUSH1 0x40 MLOAD DUP1 SWAP2 SUB SWAP1 RETURN JUMPDEST CALLVALUE DUP1 ISZERO PUSH2 0x73F JUMPI PUSH0 PUSH0 REVERT JUMPDEST POP PUSH2 0x748 PUSH2 0x1337 JUMP JUMPDEST PUSH1 0x40 MLOAD PUSH2 0x755 SWAP2 SWAP1 PUSH2 0x1ED5 JUMP JUMPDEST PUSH1 0x40 MLOAD DUP1 SWAP2 SUB SWAP1 RETURN JUMPDEST CALLVALUE DUP1 ISZERO PUSH2 0x769 JUMPI PUSH0 PUSH0 REVERT JUMPDEST POP PUSH2 0x772 PUSH2 0x1389 JUMP JUMPDEST PUSH1 0x40 MLOAD PUSH2 0x77F SWAP2 SWAP1 PUSH2 0x1A1A JUMP JUMPDEST PUSH1 0x40 MLOAD DUP1 SWAP2 SUB SWAP1 RETURN JUMPDEST CALLVALUE DUP1 ISZERO PUSH2 0x793 JUMPI PUSH0 PUSH0 REVERT JUMPDEST POP PUSH2 0x7AE PUSH1 0x4 DUP1 CALLDATASIZE SUB DUP2 ADD SWAP1 PUSH2 0x7A9 SWAP2 SWAP1 PUSH2 0x1F43 JUMP JUMPDEST PUSH2 0x1415 JUMP JUMPDEST STOP JUMPDEST CALLVALUE DUP1 ISZERO PUSH2 0x7BB JUMPI PUSH0 PUSH0 REVERT JUMPDEST POP PUSH2 0x7C4 PUSH2 0x142B JUMP JUMPDEST PUSH1 0x40 MLOAD PUSH2 0x7D1 SWAP2 SWAP1 PUSH2 0x1DE6 JUMP JUMPDEST PUSH1 0x40 MLOAD DUP1 SWAP2 SUB SWAP1 RETURN JUMPDEST CALLVALUE DUP1 ISZERO PUSH2 0x7E5 JUMPI PUSH0 PUSH0 REVERT JUMPDEST POP PUSH2 0x800 PUSH1 0x4 DUP1 CALLDATASIZE SUB DUP2 ADD SWAP1 PUSH2 0x7FB SWAP2 SWAP1 PUSH2 0x170B JUMP JUMPDEST PUSH2 0x1454 JUMP JUMPDEST PUSH1 0x40 MLOAD PUSH2 0x80D SWAP2 SWAP1 PUSH2 0x1C47 JUMP JUMPDEST PUSH1 0x40 MLOAD DUP1 SWAP2 SUB SWAP1 RETURN JUMPDEST PUSH1 0x2 PUSH1 0x20 MSTORE DUP1 PUSH0 MSTORE PUSH1 0x40 PUSH0 KECCAK256 PUSH0 SWAP2 POP SWAP1 POP DUP1 PUSH0 ADD DUP1 SLOAD PUSH2 0x835 SWAP1 PUSH2 0x1FBB JUMP JUMPDEST DUP1 PUSH1 0x1F ADD PUSH1 0x20 DUP1 SWAP2 DIV MUL PUSH1 0x20 ADD PUSH1 0x40 MLOAD SWAP1 DUP2 ADD PUSH1 0x40 MSTORE DUP1 SWAP3 SWAP2 SWAP1 DUP2 DUP2 MSTORE PUSH1 0x20 ADD DUP3 DUP1 SLOAD PUSH2 0x861 SWAP1 PUSH2 0x1FBB JUMP JUMPDEST DUP1 ISZERO PUSH2 0x8AC JUMPI DUP1 PUSH1 0x1F LT PUSH2 0x883 JUMPI PUSH2 0x100 DUP1 DUP4 SLOAD DIV MUL DUP4 MSTORE SWAP2 PUSH1 0x20 ADD SWAP2 PUSH2 0x8AC JUMP JUMPDEST DUP3 ADD SWAP2 SWAP1 PUSH0 MSTORE PUSH1 0x20 PUSH0 KECCAK256 SWAP1 JUMPDEST DUP2 SLOAD DUP2 MSTORE SWAP1 PUSH1 0x1 ADD SWAP1 PUSH1 0x20 ADD DUP1 DUP4 GT PUSH2 0x88F JUMPI DUP3 SWAP1 SUB PUSH1 0x1F AND DUP3 ADD SWAP2 JUMPDEST POP POP POP POP POP SWAP1 DUP1 PUSH1 0x1 ADD SLOAD SWAP1 POP DUP3 JUMP JUMPDEST PUSH1 0x5 DUP1 SLOAD PUSH2 0x8C9 SWAP1 PUSH2 0x1FBB JUMP JUMPDEST DUP1 PUSH1 0x1F ADD PUSH1 0x20 DUP1 SWAP2 DIV MUL PUSH1 0x20 ADD PUSH1 0x40 MLOAD SWAP1 DUP2 ADD PUSH1 0x40 MSTORE DUP1 SWAP3 SWAP2 SWAP1 DUP2 DUP2 MSTORE PUSH1 0x20 ADD DUP3 DUP1 SLOAD PUSH2 0x8F5 SWAP1 PUSH2 0x1FBB JUMP JUMPDEST DUP1 ISZERO PUSH2 0x940 JUMPI DUP1 PUSH1 0x1F LT PUSH2 0x917 JUMPI PUSH2 0x100 DUP1 DUP4 SLOAD DIV MUL DUP4 MSTORE SWAP2 PUSH1 0x20 ADD SWAP2 PUSH2 0x940 JUMP JUMPDEST DUP3 ADD SWAP2 SWAP1 PUSH0 MSTORE PUSH1 0x20 PUSH0 KECCAK256 SWAP1 JUMPDEST DUP2 SLOAD DUP2 MSTORE SWAP1 PUSH1 0x1 ADD SWAP1 PUSH1 0x20 ADD DUP1 DUP4 GT PUSH2 0x923 JUMPI DUP3 SWAP1 SUB PUSH1 0x1F AND DUP3 ADD SWAP2 JUMPDEST POP POP POP POP POP DUP2 JUMP JUMPDEST PUSH1 0x7 DUP2 SWAP1 DUP1 PUSH1 0x1 DUP2 SLOAD ADD DUP1 DUP3 SSTORE DUP1 SWAP2 POP POP PUSH1 0x1 SWAP1 SUB SWAP1 PUSH0 MSTORE PUSH1 0x20 PUSH0 KECCAK256 SWAP1 PUSH1 0x10 SWAP2 DUP3 DUP3 DIV ADD SWAP2 SWAP1 MOD PUSH1 0x2 MUL SWAP1 SWAP2 SWAP1 SWAP2 SWAP1 SWAP2 PUSH2 0x100 EXP DUP2 SLOAD DUP2 PUSH2 0xFFFF MUL NOT AND SWAP1 DUP4 PUSH2 0xFFFF AND MUL OR SWAP1 SSTORE POP POP JUMP JUMPDEST DUP1 ISZERO PUSH2 0x9AF JUMPI PUSH0 PUSH1 0x1 EQ PUSH2 0x9AA JUMPI PUSH2 0x9A9 PUSH2 0x1FEB JUMP JUMPDEST JUMPDEST PUSH2 0x9F3 JUMP JUMPDEST PUSH0 PUSH1 0x1 EQ PUSH2 0x9F2 JUMPI PUSH1 0x40 MLOAD PUSH32 0x8C379A000000000000000000000000000000000000000000000000000000000 DUP2 MSTORE PUSH1 0x4 ADD PUSH2 0x9E9 SWAP1 PUSH2 0x2062 JUMP JUMPDEST PUSH1 0x40 MLOAD DUP1 SWAP2 SUB SWAP1 REVERT JUMPDEST JUMPDEST PUSH0 PUSH0 DUP2 SLOAD DUP1 SWAP3 SWAP2 SWAP1 PUSH2 0xA04 SWAP1 PUSH2 0x20AD JUMP JUMPDEST SWAP2 SWAP1 POP SSTORE POP POP JUMP JUMPDEST PUSH1 0x4 PUSH1 0x1 SWAP1 SLOAD SWAP1 PUSH2 0x100 EXP SWAP1 DIV PUSH1 0xF0 SHL DUP2 JUMP JUMPDEST PUSH1 0x8 DUP2 DUP2 SLOAD DUP2 LT PUSH2 0xA2E JUMPI PUSH0 DUP1 REVERT JUMPDEST SWAP1 PUSH0 MSTORE PUSH1 0x20 PUSH0 KECCAK256 SWAP1 PUSH1 0x8 SWAP2 DUP3 DUP3 DIV ADD SWAP2 SWAP1 MOD PUSH1 0x4 MUL SWAP2 POP SLOAD SWAP1 PUSH2 0x100 EXP SWAP1 DIV PUSH4 0xFFFFFFFF AND DUP2 JUMP JUMPDEST PUSH1 0x4 PUSH0 SWAP1 SLOAD SWAP1 PUSH2 0x100 EXP SWAP1 DIV PUSH1 0xF8 SHL DUP2 JUMP JUMPDEST PUSH2 0xA70 PUSH2 0x14A6 JUMP JUMPDEST DUP4 DUP4 DUP1 DUP1 PUSH1 0x1F ADD PUSH1 0x20 DUP1 SWAP2 DIV MUL PUSH1 0x20 ADD PUSH1 0x40 MLOAD SWAP1 DUP2 ADD PUSH1 0x40 MSTORE DUP1 SWAP4 SWAP3 SWAP2 SWAP1 DUP2 DUP2 MSTORE PUSH1 0x20 ADD DUP4 DUP4 DUP1 DUP3 DUP5 CALLDATACOPY PUSH0 DUP2 DUP5 ADD MSTORE PUSH1 0x1F NOT PUSH1 0x1F DUP3 ADD AND SWAP1 POP DUP1 DUP4 ADD SWAP3 POP POP POP POP POP POP POP DUP2 PUSH0 ADD DUP2 SWAP1 MSTORE POP DUP2 DUP2 PUSH1 0x20 ADD DUP2 DUP2 MSTORE POP POP PUSH1 0x3 DUP2 SWAP1 DUP1 PUSH1 0x1 DUP2 SLOAD ADD DUP1 DUP3 SSTORE DUP1 SWAP2 POP POP PUSH1 0x1 SWAP1 SUB SWAP1 PUSH0 MSTORE PUSH1 0x20 PUSH0 KECCAK256 SWAP1 PUSH1 0x2 MUL ADD PUSH0 SWAP1 SWAP2 SWAP1 SWAP2 SWAP1 SWAP2 POP PUSH0 DUP3 ADD MLOAD DUP2 PUSH0 ADD SWAP1 DUP2 PUSH2 0xB01 SWAP2 SWAP1 PUSH2 0x22C1 JUMP JUMPDEST POP PUSH1 0x20 DUP3 ADD MLOAD DUP2 PUSH1 0x1 ADD SSTORE POP POP POP POP POP POP JUMP JUMPDEST PUSH1 0x60 PUSH0 PUSH0 PUSH0 GAS SWAP1 POP PUSH0 CALLDATASIZE DUP3 PUSH0 CALLDATALOAD PUSH32 0xFFFFFFFF00000000000000000000000000000000000000000000000000000000 AND DUP4 DUP4 DUP1 DUP1 PUSH1 0x1F ADD PUSH1 0x20 DUP1 SWAP2 DIV MUL PUSH1 0x20 ADD PUSH1 0x40 MLOAD SWAP1 DUP2 ADD PUSH1 0x40 MSTORE DUP1 SWAP4 SWAP3 SWAP2 SWAP1 DUP2 DUP2 MSTORE PUSH1 0x20 ADD DUP4 DUP4 DUP1 DUP3 DUP5 CALLDATACOPY PUSH0 DUP2 DUP5 ADD MSTORE PUSH1 0x1F NOT PUSH1 0x1F DUP3 ADD AND SWAP1 POP DUP1 DUP4 ADD SWAP3 POP POP POP POP POP POP POP SWAP3 POP SWAP1 SWAP2 SWAP3 POP SWAP4 POP SWAP4 POP SWAP4 POP POP SWAP1 SWAP2 SWAP3 JUMP JUMPDEST PUSH1 0x60 DUP3 DUP3 PUSH1 0x40 MLOAD PUSH2 0xBAB SWAP3 SWAP2 SWAP1 PUSH2 0x23CC JUMP JUMPDEST PUSH1 0x40 MLOAD DUP1 SWAP2 SUB SWAP1 KECCAK256 DUP6 DUP6 PUSH1 0x40 MLOAD PUSH2 0xBC3 SWAP3 SWAP2 SWAP1 PUSH2 0x23CC JUMP JUMPDEST PUSH1 0x40 MLOAD DUP1 SWAP2 SUB SWAP1 KECCAK256 SUB PUSH2 0xC0D JUMPI PUSH1 0x40 MLOAD DUP1 PUSH1 0x40 ADD PUSH1 0x40 MSTORE DUP1 PUSH1 0x7 DUP2 MSTORE PUSH1 0x20 ADD PUSH32 0x696775616C657300000000000000000000000000000000000000000000000000 DUP2 MSTORE POP SWAP1 POP PUSH2 0xC46 JUMP JUMPDEST PUSH1 0x40 MLOAD DUP1 PUSH1 0x40 ADD PUSH1 0x40 MSTORE DUP1 PUSH1 0x9 DUP2 MSTORE PUSH1 0x20 ADD PUSH32 0x64697374696E746F730000000000000000000000000000000000000000000000 DUP2 MSTORE POP SWAP1 POP JUMPDEST SWAP5 SWAP4 POP POP POP POP JUMP JUMPDEST PUSH0 PUSH1 0x1 EQ DUP1 ISZERO PUSH2 0xC62 JUMPI POP PUSH2 0xC61 PUSH2 0x1488 JUMP JUMPDEST JUMPDEST POP JUMP JUMPDEST PUSH0 CALLVALUE SWAP1 POP SWAP1 JUMP JUMPDEST PUSH1 0x60 PUSH1 0x3 DUP1 SLOAD DUP1 PUSH1 0x20 MUL PUSH1 0x20 ADD PUSH1 0x40 MLOAD SWAP1 DUP2 ADD PUSH1 0x40 MSTORE DUP1 SWAP3 SWAP2 SWAP1 DUP2 DUP2 MSTORE PUSH1 0x20 ADD PUSH0 SWAP1 JUMPDEST DUP3 DUP3 LT ISZERO PUSH2 0xD58 JUMPI DUP4 DUP3 SWAP1 PUSH0 MSTORE PUSH1 0x20 PUSH0 KECCAK256 SWAP1 PUSH1 0x2 MUL ADD PUSH1 0x40 MLOAD DUP1 PUSH1 0x40 ADD PUSH1 0x40 MSTORE SWAP1 DUP2 PUSH0 DUP3 ADD DUP1 SLOAD PUSH2 0xCBF SWAP1 PUSH2 0x1FBB JUMP JUMPDEST DUP1 PUSH1 0x1F ADD PUSH1 0x20 DUP1 SWAP2 DIV MUL PUSH1 0x20 ADD PUSH1 0x40 MLOAD SWAP1 DUP2 ADD PUSH1 0x40 MSTORE DUP1 SWAP3 SWAP2 SWAP1 DUP2 DUP2 MSTORE PUSH1 0x20 ADD DUP3 DUP1 SLOAD PUSH2 0xCEB SWAP1 PUSH2 0x1FBB JUMP JUMPDEST DUP1 ISZERO PUSH2 0xD36 JUMPI DUP1 PUSH1 0x1F LT PUSH2 0xD0D JUMPI PUSH2 0x100 DUP1 DUP4 SLOAD DIV MUL DUP4 MSTORE SWAP2 PUSH1 0x20 ADD SWAP2 PUSH2 0xD36 JUMP JUMPDEST DUP3 ADD SWAP2 SWAP1 PUSH0 MSTORE PUSH1 0x20 PUSH0 KECCAK256 SWAP1 JUMPDEST DUP2 SLOAD DUP2 MSTORE SWAP1 PUSH1 0x1 ADD SWAP1 PUSH1 0x20 ADD DUP1 DUP4 GT PUSH2 0xD19 JUMPI DUP3 SWAP1 SUB PUSH1 0x1F AND DUP3 ADD SWAP2 JUMPDEST POP POP POP POP POP DUP2 MSTORE PUSH1 0x20 ADD PUSH1 0x1 DUP3 ADD SLOAD DUP2 MSTORE POP POP DUP2 MSTORE PUSH1 0x20 ADD SWAP1 PUSH1 0x1 ADD SWAP1 PUSH2 0xC8F JUMP JUMPDEST POP POP POP POP SWAP1 POP SWAP1 JUMP JUMPDEST PUSH0 PUSH0 PUSH0 PUSH0 PREVRANDAO GASLIMIT NUMBER COINBASE SWAP4 POP SWAP4 POP SWAP4 POP SWAP4 POP SWAP1 SWAP2 SWAP3 SWAP4 JUMP JUMPDEST PUSH0 PUSH0 PUSH1 0x64 TIMESTAMP PREVRANDAO PUSH1 0x40 MLOAD PUSH1 0x20 ADD PUSH2 0xD8E SWAP3 SWAP2 SWAP1 PUSH2 0x2404 JUMP JUMPDEST PUSH1 0x40 MLOAD PUSH1 0x20 DUP2 DUP4 SUB SUB DUP2 MSTORE SWAP1 PUSH1 0x40 MSTORE DUP1 MLOAD SWAP1 PUSH1 0x20 ADD KECCAK256 PUSH0 SHR PUSH2 0xDB0 SWAP2 SWAP1 PUSH2 0x245C JUMP JUMPDEST SWAP1 POP DUP1 SWAP2 POP POP SWAP1 JUMP JUMPDEST PUSH0 SLOAD DUP2 JUMP JUMPDEST PUSH0 CALLER SWAP1 POP DUP1 PUSH20 0xFFFFFFFFFFFFFFFFFFFFFFFFFFFFFFFFFFFFFFFF AND PUSH2 0x8FC SELFBALANCE SWAP1 DUP2 ISZERO MUL SWAP1 PUSH1 0x40 MLOAD PUSH0 PUSH1 0x40 MLOAD DUP1 DUP4 SUB DUP2 DUP6 DUP9 DUP9 CALL SWAP4 POP POP POP POP ISZERO DUP1 ISZERO PUSH2 0xE05 JUMPI RETURNDATASIZE PUSH0 PUSH0 RETURNDATACOPY RETURNDATASIZE PUSH0 REVERT JUMPDEST POP POP JUMP JUMPDEST DUP3 DUP3 PUSH1 0x2 PUSH0 CALLER PUSH20 0xFFFFFFFFFFFFFFFFFFFFFFFFFFFFFFFFFFFFFFFF AND PUSH20 0xFFFFFFFFFFFFFFFFFFFFFFFFFFFFFFFFFFFFFFFF AND DUP2 MSTORE PUSH1 0x20 ADD SWAP1 DUP2 MSTORE PUSH1 0x20 ADD PUSH0 KECCAK256 PUSH0 ADD SWAP2 DUP3 PUSH2 0xE57 SWAP3 SWAP2 SWAP1 PUSH2 0x2496 JUMP JUMPDEST POP DUP1 PUSH1 0x2 PUSH0 CALLER PUSH20 0xFFFFFFFFFFFFFFFFFFFFFFFFFFFFFFFFFFFFFFFF AND PUSH20 0xFFFFFFFFFFFFFFFFFFFFFFFFFFFFFFFFFFFFFFFF AND DUP2 MSTORE PUSH1 0x20 ADD SWAP1 DUP2 MSTORE PUSH1 0x20 ADD PUSH0 KECCAK256 PUSH1 0x1 ADD DUP2 SWAP1 SSTORE POP POP POP POP JUMP JUMPDEST PUSH0 PUSH0 GASPRICE ORIGIN SWAP2 POP SWAP2 POP SWAP1 SWAP2 JUMP JUMPDEST PUSH0 DUP2 ISZERO PUSH2 0xEC1 JUMPI PUSH2 0xE10 DUP1 EQ SWAP1 POP PUSH2 0xECB JUMP JUMPDEST PUSH2 0xE10 PUSH2 0xE4C EQ SWAP1 POP JUMPDEST SWAP2 SWAP1 POP JUMP JUMPDEST CALLER PUSH20 0xFFFFFFFFFFFFFFFFFFFFFFFFFFFFFFFFFFFFFFFF AND SELFDESTRUCT JUMPDEST CALLER PUSH20 0xFFFFFFFFFFFFFFFFFFFFFFFFFFFFFFFFFFFFFFFF AND PUSH1 0x1 PUSH0 SWAP1 SLOAD SWAP1 PUSH2 0x100 EXP SWAP1 DIV PUSH20 0xFFFFFFFFFFFFFFFFFFFFFFFFFFFFFFFFFFFFFFFF AND PUSH20 0xFFFFFFFFFFFFFFFFFFFFFFFFFFFFFFFFFFFFFFFF AND EQ PUSH2 0xF78 JUMPI PUSH1 0x40 MLOAD PUSH32 0x8C379A000000000000000000000000000000000000000000000000000000000 DUP2 MSTORE PUSH1 0x4 ADD PUSH2 0xF6F SWAP1 PUSH2 0x25AD JUMP JUMPDEST PUSH1 0x40 MLOAD DUP1 SWAP2 SUB SWAP1 REVERT JUMPDEST PUSH0 CALLER SWAP1 POP PUSH0 ISZERO ISZERO DUP2 PUSH20 0xFFFFFFFFFFFFFFFFFFFFFFFFFFFFFFFFFFFFFFFF AND PUSH2 0x8FC SELFBALANCE SWAP1 DUP2 ISZERO MUL SWAP1 PUSH1 0x40 MLOAD PUSH0 PUSH1 0x40 MLOAD DUP1 DUP4 SUB DUP2 DUP6 DUP9 DUP9 CALL SWAP4 POP POP POP POP ISZERO ISZERO SUB PUSH2 0xFF5 JUMPI PUSH1 0x40 MLOAD PUSH32 0x8C379A000000000000000000000000000000000000000000000000000000000 DUP2 MSTORE PUSH1 0x4 ADD PUSH2 0xFEC SWAP1 PUSH2 0x2615 JUMP JUMPDEST PUSH1 0x40 MLOAD DUP1 SWAP2 SUB SWAP1 REVERT JUMPDEST POP JUMP JUMPDEST DUP1 PUSH1 0x9 PUSH0 DUP2 SLOAD PUSH2 0x1007 SWAP1 PUSH2 0x1FBB JUMP JUMPDEST DUP2 LT PUSH2 0x1016 JUMPI PUSH2 0x1015 PUSH2 0x2633 JUMP JUMPDEST JUMPDEST DUP2 SLOAD PUSH1 0x1 AND ISZERO PUSH2 0x1033 JUMPI SWAP1 PUSH0 MSTORE PUSH1 0x20 PUSH0 KECCAK256 SWAP1 PUSH1 0x20 SWAP2 DUP3 DUP3 DIV ADD SWAP2 SWAP1 MOD JUMPDEST PUSH1 0x1F SUB PUSH2 0x100 EXP DUP2 SLOAD DUP2 PUSH1 0xFF MUL NOT AND SWAP1 PUSH32 0x100000000000000000000000000000000000000000000000000000000000000 DUP5 DIV MUL OR SWAP1 SSTORE POP POP JUMP JUMPDEST PUSH0 PUSH1 0x8 SWAP1 POP DUP1 DUP3 SWAP1 DUP1 PUSH1 0x1 DUP2 SLOAD ADD DUP1 DUP3 SSTORE DUP1 SWAP2 POP POP PUSH1 0x1 SWAP1 SUB SWAP1 PUSH0 MSTORE PUSH1 0x20 PUSH0 KECCAK256 SWAP1 PUSH1 0x8 SWAP2 DUP3 DUP3 DIV ADD SWAP2 SWAP1 MOD PUSH1 0x4 MUL SWAP1 SWAP2 SWAP1 SWAP2 SWAP1 SWAP2 PUSH2 0x100 EXP DUP2 SLOAD DUP2 PUSH4 0xFFFFFFFF MUL NOT AND SWAP1 DUP4 PUSH4 0xFFFFFFFF AND MUL OR SWAP1 SSTORE POP POP POP JUMP JUMPDEST PUSH1 0x3 DUP2 DUP2 SLOAD DUP2 LT PUSH2 0x10D1 JUMPI PUSH0 DUP1 REVERT JUMPDEST SWAP1 PUSH0 MSTORE PUSH1 0x20 PUSH0 KECCAK256 SWAP1 PUSH1 0x2 MUL ADD PUSH0 SWAP2 POP SWAP1 POP DUP1 PUSH0 ADD DUP1 SLOAD PUSH2 0x10F0 SWAP1 PUSH2 0x1FBB JUMP JUMPDEST DUP1 PUSH1 0x1F ADD PUSH1 0x20 DUP1 SWAP2 DIV MUL PUSH1 0x20 ADD PUSH1 0x40 MLOAD SWAP1 DUP2 ADD PUSH1 0x40 MSTORE DUP1 SWAP3 SWAP2 SWAP1 DUP2 DUP2 MSTORE PUSH1 0x20 ADD DUP3 DUP1 SLOAD PUSH2 0x111C SWAP1 PUSH2 0x1FBB JUMP JUMPDEST DUP1 ISZERO PUSH2 0x1167 JUMPI DUP1 PUSH1 0x1F LT PUSH2 0x113E JUMPI PUSH2 0x100 DUP1 DUP4 SLOAD DIV MUL DUP4 MSTORE SWAP2 PUSH1 0x20 ADD SWAP2 PUSH2 0x1167 JUMP JUMPDEST DUP3 ADD SWAP2 SWAP1 PUSH0 MSTORE PUSH1 0x20 PUSH0 KECCAK256 SWAP1 JUMPDEST DUP2 SLOAD DUP2 MSTORE SWAP1 PUSH1 0x1 ADD SWAP1 PUSH1 0x20 ADD DUP1 DUP4 GT PUSH2 0x114A JUMPI DUP3 SWAP1 SUB PUSH1 0x1F AND DUP3 ADD SWAP2 JUMPDEST POP POP POP POP POP SWAP1 DUP1 PUSH1 0x1 ADD SLOAD SWAP1 POP DUP3 JUMP JUMPDEST PUSH0 PUSH0 PUSH1 0x1 SWAP1 POP DUP1 PUSH1 0x5 PUSH2 0x118A SWAP2 SWAP1 PUSH2 0x2660 JUMP JUMPDEST SWAP2 POP POP SWAP1 JUMP JUMPDEST PUSH1 0x6 PUSH0 SWAP1 SLOAD SWAP1 PUSH2 0x100 EXP SWAP1 DIV PUSH1 0xFF AND DUP2 JUMP JUMPDEST PUSH0 PUSH0 PUSH32 0xFFFFFFFFFFFFFFFFFFFFFFFFFFFFFFFFFFFFFFFFFFFFFFFFFFFFFFFFFFFFFF80 PUSH1 0x7F SWAP2 POP SWAP2 POP SWAP1 SWAP2 JUMP JUMPDEST PUSH1 0x7 DUP2 DUP2 SLOAD DUP2 LT PUSH2 0x11DE JUMPI PUSH0 DUP1 REVERT JUMPDEST SWAP1 PUSH0 MSTORE PUSH1 0x20 PUSH0 KECCAK256 SWAP1 PUSH1 0x10 SWAP2 DUP3 DUP3 DIV ADD SWAP2 SWAP1 MOD PUSH1 0x2 MUL SWAP2 POP SLOAD SWAP1 PUSH2 0x100 EXP SWAP1 DIV PUSH2 0xFFFF AND DUP2 JUMP JUMPDEST PUSH0 PUSH1 0x1 DUP2 GT ISZERO PUSH2 0x1217 JUMPI PUSH2 0x1216 PUSH2 0x1D0A JUMP JUMPDEST JUMPDEST PUSH1 0x6 PUSH0 SWAP1 SLOAD SWAP1 PUSH2 0x100 EXP SWAP1 DIV PUSH1 0xFF AND PUSH1 0x1 DUP2 GT ISZERO PUSH2 0x1238 JUMPI PUSH2 0x1237 PUSH2 0x1D0A JUMP JUMPDEST JUMPDEST SUB PUSH2 0x126C JUMPI PUSH1 0x1 PUSH1 0x6 PUSH0 PUSH2 0x100 EXP DUP2 SLOAD DUP2 PUSH1 0xFF MUL NOT AND SWAP1 DUP4 PUSH1 0x1 DUP2 GT ISZERO PUSH2 0x1262 JUMPI PUSH2 0x1261 PUSH2 0x1D0A JUMP JUMPDEST JUMPDEST MUL OR SWAP1 SSTORE POP PUSH2 0x1296 JUMP JUMPDEST PUSH0 PUSH1 0x6 PUSH0 PUSH2 0x100 EXP DUP2 SLOAD DUP2 PUSH1 0xFF MUL NOT AND SWAP1 DUP4 PUSH1 0x1 DUP2 GT ISZERO PUSH2 0x1290 JUMPI PUSH2 0x128F PUSH2 0x1D0A JUMP JUMPDEST JUMPDEST MUL OR SWAP1 SSTORE POP JUMPDEST JUMP JUMPDEST PUSH1 0x60 PUSH0 PUSH0 DUP4 PUSH8 0xFFFFFFFFFFFFFFFF DUP2 GT ISZERO PUSH2 0x12B6 JUMPI PUSH2 0x12B5 PUSH2 0x20F4 JUMP JUMPDEST JUMPDEST PUSH1 0x40 MLOAD SWAP1 DUP1 DUP3 MSTORE DUP1 PUSH1 0x20 MUL PUSH1 0x20 ADD DUP3 ADD PUSH1 0x40 MSTORE DUP1 ISZERO PUSH2 0x12E4 JUMPI DUP2 PUSH1 0x20 ADD PUSH1 0x20 DUP3 MUL DUP1 CALLDATASIZE DUP4 CALLDATACOPY DUP1 DUP3 ADD SWAP2 POP POP SWAP1 POP JUMPDEST POP SWAP1 POP PUSH1 0x1 DUP2 PUSH0 DUP2 MLOAD DUP2 LT PUSH2 0x12FC JUMPI PUSH2 0x12FB PUSH2 0x2633 JUMP JUMPDEST JUMPDEST PUSH1 0x20 MUL PUSH1 0x20 ADD ADD DUP2 DUP2 MSTORE POP POP PUSH1 0x2 DUP2 PUSH1 0x1 DUP2 MLOAD DUP2 LT PUSH2 0x131E JUMPI PUSH2 0x131D PUSH2 0x2633 JUMP JUMPDEST JUMPDEST PUSH1 0x20 MUL PUSH1 0x20 ADD ADD DUP2 DUP2 MSTORE POP POP DUP1 DUP2 MLOAD SWAP3 POP SWAP3 POP POP SWAP2 POP SWAP2 JUMP JUMPDEST PUSH0 PUSH32 0xFFFFFFFFFFFFFFFFFFFFFFFFFFFFFFFFFFFFFFFFFFFFFFFFFFFFFFFFFFFFFFFF PUSH32 0xFFFFFFFFFFFFFFFFFFFFFFFFFFFFFFFFFFFFFFFFFFFFFFFFFFFFFFFFFFFFFF80 PUSH2 0x1384 SWAP2 SWAP1 PUSH2 0x2693 JUMP JUMPDEST SWAP1 POP SWAP1 JUMP JUMPDEST PUSH1 0x9 DUP1 SLOAD PUSH2 0x1396 SWAP1 PUSH2 0x1FBB JUMP JUMPDEST DUP1 PUSH1 0x1F ADD PUSH1 0x20 DUP1 SWAP2 DIV MUL PUSH1 0x20 ADD PUSH1 0x40 MLOAD SWAP1 DUP2 ADD PUSH1 0x40 MSTORE DUP1 SWAP3 SWAP2 SWAP1 DUP2 DUP2 MSTORE PUSH1 0x20 ADD DUP3 DUP1 SLOAD PUSH2 0x13C2 SWAP1 PUSH2 0x1FBB JUMP JUMPDEST DUP1 ISZERO PUSH2 0x140D JUMPI DUP1 PUSH1 0x1F LT PUSH2 0x13E4 JUMPI PUSH2 0x100 DUP1 DUP4 SLOAD DIV MUL DUP4 MSTORE SWAP2 PUSH1 0x20 ADD SWAP2 PUSH2 0x140D JUMP JUMPDEST DUP3 ADD SWAP2 SWAP1 PUSH0 MSTORE PUSH1 0x20 PUSH0 KECCAK256 SWAP1 JUMPDEST DUP2 SLOAD DUP2 MSTORE SWAP1 PUSH1 0x1 ADD SWAP1 PUSH1 0x20 ADD DUP1 DUP4 GT PUSH2 0x13F0 JUMPI DUP3 SWAP1 SUB PUSH1 0x1F AND DUP3 ADD SWAP2 JUMPDEST POP POP POP POP POP DUP2 JUMP JUMPDEST DUP2 DUP2 PUSH1 0x5 SWAP2 DUP3 PUSH2 0x1426 SWAP3 SWAP2 SWAP1 PUSH2 0x275D JUMP JUMPDEST POP POP POP JUMP JUMPDEST PUSH0 PUSH0 PUSH1 0x1 PUSH2 0x1439 JUMPI PUSH0 PUSH2 0x143C JUMP JUMPDEST PUSH1 0x1 JUMPDEST PUSH1 0xFF PUSH2 0x1448 SWAP2 SWAP1 PUSH2 0x2836 JUMP JUMPDEST PUSH1 0xFF AND SWAP1 POP DUP1 SWAP2 POP POP SWAP1 JUMP JUMPDEST PUSH0 DUP2 ISZERO PUSH2 0x146D JUMPI PUSH8 0xDE0B6B3A7640000 DUP1 EQ SWAP1 POP PUSH2 0x1483 JUMP JUMPDEST PUSH8 0xDE0B6B3A7640000 PUSH8 0x136DCC951D8C0000 EQ SWAP1 POP JUMPDEST SWAP2 SWAP1 POP JUMP JUMPDEST PUSH0 PUSH0 PUSH0 DUP2 SLOAD DUP1 SWAP3 SWAP2 SWAP1 PUSH2 0x149A SWAP1 PUSH2 0x20AD JUMP JUMPDEST SWAP2 SWAP1 POP SSTORE POP PUSH1 0x1 SWAP1 POP SWAP1 JUMP JUMPDEST PUSH1 0x40 MLOAD DUP1 PUSH1 0x40 ADD PUSH1 0x40 MSTORE DUP1 PUSH1 0x60 DUP2 MSTORE PUSH1 0x20 ADD PUSH0 DUP2 MSTORE POP SWAP1 JUMP JUMPDEST PUSH0 PUSH0 REVERT JUMPDEST PUSH0 PUSH0 REVERT JUMPDEST PUSH0 PUSH20 0xFFFFFFFFFFFFFFFFFFFFFFFFFFFFFFFFFFFFFFFF DUP3 AND SWAP1 POP SWAP2 SWAP1 POP JUMP JUMPDEST PUSH0 PUSH2 0x14F0 DUP3 PUSH2 0x14C7 JUMP JUMPDEST SWAP1 POP SWAP2 SWAP1 POP JUMP JUMPDEST PUSH2 0x1500 DUP2 PUSH2 0x14E6 JUMP JUMPDEST DUP2 EQ PUSH2 0x150A JUMPI PUSH0 PUSH0 REVERT JUMPDEST POP JUMP JUMPDEST PUSH0 DUP2 CALLDATALOAD SWAP1 POP PUSH2 0x151B DUP2 PUSH2 0x14F7 JUMP JUMPDEST SWAP3 SWAP2 POP POP JUMP JUMPDEST PUSH0 PUSH1 0x20 DUP3 DUP5 SUB SLT ISZERO PUSH2 0x1536 JUMPI PUSH2 0x1535 PUSH2 0x14BF JUMP JUMPDEST JUMPDEST PUSH0 PUSH2 0x1543 DUP5 DUP3 DUP6 ADD PUSH2 0x150D JUMP JUMPDEST SWAP2 POP POP SWAP3 SWAP2 POP POP JUMP JUMPDEST PUSH0 DUP2 MLOAD SWAP1 POP SWAP2 SWAP1 POP JUMP JUMPDEST PUSH0 DUP3 DUP3 MSTORE PUSH1 0x20 DUP3 ADD SWAP1 POP SWAP3 SWAP2 POP POP JUMP JUMPDEST DUP3 DUP2 DUP4 MCOPY PUSH0 DUP4 DUP4 ADD MSTORE POP POP POP JUMP JUMPDEST PUSH0 PUSH1 0x1F NOT PUSH1 0x1F DUP4 ADD AND SWAP1 POP SWAP2 SWAP1 POP JUMP JUMPDEST PUSH0 PUSH2 0x158E DUP3 PUSH2 0x154C JUMP JUMPDEST PUSH2 0x1598 DUP2 DUP6 PUSH2 0x1556 JUMP JUMPDEST SWAP4 POP PUSH2 0x15A8 DUP2 DUP6 PUSH1 0x20 DUP7 ADD PUSH2 0x1566 JUMP JUMPDEST PUSH2 0x15B1 DUP2 PUSH2 0x1574 JUMP JUMPDEST DUP5 ADD SWAP2 POP POP SWAP3 SWAP2 POP POP JUMP JUMPDEST PUSH0 DUP2 SWAP1 POP SWAP2 SWAP1 POP JUMP JUMPDEST PUSH2 0x15CE DUP2 PUSH2 0x15BC JUMP JUMPDEST DUP3 MSTORE POP POP JUMP JUMPDEST PUSH0 PUSH1 0x40 DUP3 ADD SWAP1 POP DUP2 DUP2 SUB PUSH0 DUP4 ADD MSTORE PUSH2 0x15EC DUP2 DUP6 PUSH2 0x1584 JUMP JUMPDEST SWAP1 POP PUSH2 0x15FB PUSH1 0x20 DUP4 ADD DUP5 PUSH2 0x15C5 JUMP JUMPDEST SWAP4 SWAP3 POP POP POP JUMP JUMPDEST PUSH0 DUP2 MLOAD SWAP1 POP SWAP2 SWAP1 POP JUMP JUMPDEST PUSH0 DUP3 DUP3 MSTORE PUSH1 0x20 DUP3 ADD SWAP1 POP SWAP3 SWAP2 POP POP JUMP JUMPDEST PUSH0 PUSH2 0x1626 DUP3 PUSH2 0x1602 JUMP JUMPDEST PUSH2 0x1630 DUP2 DUP6 PUSH2 0x160C JUMP JUMPDEST SWAP4 POP PUSH2 0x1640 DUP2 DUP6 PUSH1 0x20 DUP7 ADD PUSH2 0x1566 JUMP JUMPDEST PUSH2 0x1649 DUP2 PUSH2 0x1574 JUMP JUMPDEST DUP5 ADD SWAP2 POP POP SWAP3 SWAP2 POP POP JUMP JUMPDEST PUSH0 PUSH1 0x20 DUP3 ADD SWAP1 POP DUP2 DUP2 SUB PUSH0 DUP4 ADD MSTORE PUSH2 0x166C DUP2 DUP5 PUSH2 0x161C JUMP JUMPDEST SWAP1 POP SWAP3 SWAP2 POP POP JUMP JUMPDEST PUSH0 PUSH2 0xFFFF DUP3 AND SWAP1 POP SWAP2 SWAP1 POP JUMP JUMPDEST PUSH2 0x168A DUP2 PUSH2 0x1674 JUMP JUMPDEST DUP2 EQ PUSH2 0x1694 JUMPI PUSH0 PUSH0 REVERT JUMPDEST POP JUMP JUMPDEST PUSH0 DUP2 CALLDATALOAD SWAP1 POP PUSH2 0x16A5 DUP2 PUSH2 0x1681 JUMP JUMPDEST SWAP3 SWAP2 POP POP JUMP JUMPDEST PUSH0 PUSH1 0x20 DUP3 DUP5 SUB SLT ISZERO PUSH2 0x16C0 JUMPI PUSH2 0x16BF PUSH2 0x14BF JUMP JUMPDEST JUMPDEST PUSH0 PUSH2 0x16CD DUP5 DUP3 DUP6 ADD PUSH2 0x1697 JUMP JUMPDEST SWAP2 POP POP SWAP3 SWAP2 POP POP JUMP JUMPDEST PUSH0 DUP2 ISZERO ISZERO SWAP1 POP SWAP2 SWAP1 POP JUMP JUMPDEST PUSH2 0x16EA DUP2 PUSH2 0x16D6 JUMP JUMPDEST DUP2 EQ PUSH2 0x16F4 JUMPI PUSH0 PUSH0 REVERT JUMPDEST POP JUMP JUMPDEST PUSH0 DUP2 CALLDATALOAD SWAP1 POP PUSH2 0x1705 DUP2 PUSH2 0x16E1 JUMP JUMPDEST SWAP3 SWAP2 POP POP JUMP JUMPDEST PUSH0 PUSH1 0x20 DUP3 DUP5 SUB SLT ISZERO PUSH2 0x1720 JUMPI PUSH2 0x171F PUSH2 0x14BF JUMP JUMPDEST JUMPDEST PUSH0 PUSH2 0x172D DUP5 DUP3 DUP6 ADD PUSH2 0x16F7 JUMP JUMPDEST SWAP2 POP POP SWAP3 SWAP2 POP POP JUMP JUMPDEST PUSH0 PUSH32 0xFFFF000000000000000000000000000000000000000000000000000000000000 DUP3 AND SWAP1 POP SWAP2 SWAP1 POP JUMP JUMPDEST PUSH2 0x176A DUP2 PUSH2 0x1736 JUMP JUMPDEST DUP3 MSTORE POP POP JUMP JUMPDEST PUSH0 PUSH1 0x20 DUP3 ADD SWAP1 POP PUSH2 0x1783 PUSH0 DUP4 ADD DUP5 PUSH2 0x1761 JUMP JUMPDEST SWAP3 SWAP2 POP POP JUMP JUMPDEST PUSH2 0x1792 DUP2 PUSH2 0x15BC JUMP JUMPDEST DUP2 EQ PUSH2 0x179C JUMPI PUSH0 PUSH0 REVERT JUMPDEST POP JUMP JUMPDEST PUSH0 DUP2 CALLDATALOAD SWAP1 POP PUSH2 0x17AD DUP2 PUSH2 0x1789 JUMP JUMPDEST SWAP3 SWAP2 POP POP JUMP JUMPDEST PUSH0 PUSH1 0x20 DUP3 DUP5 SUB SLT ISZERO PUSH2 0x17C8 JUMPI PUSH2 0x17C7 PUSH2 0x14BF JUMP JUMPDEST JUMPDEST PUSH0 PUSH2 0x17D5 DUP5 DUP3 DUP6 ADD PUSH2 0x179F JUMP JUMPDEST SWAP2 POP POP SWAP3 SWAP2 POP POP JUMP JUMPDEST PUSH0 PUSH4 0xFFFFFFFF DUP3 AND SWAP1 POP SWAP2 SWAP1 POP JUMP JUMPDEST PUSH2 0x17F6 DUP2 PUSH2 0x17DE JUMP JUMPDEST DUP3 MSTORE POP POP JUMP JUMPDEST PUSH0 PUSH1 0x20 DUP3 ADD SWAP1 POP PUSH2 0x180F PUSH0 DUP4 ADD DUP5 PUSH2 0x17ED JUMP JUMPDEST SWAP3 SWAP2 POP POP JUMP JUMPDEST PUSH0 PUSH32 0xFF00000000000000000000000000000000000000000000000000000000000000 DUP3 AND SWAP1 POP SWAP2 SWAP1 POP JUMP JUMPDEST PUSH2 0x1849 DUP2 PUSH2 0x1815 JUMP JUMPDEST DUP3 MSTORE POP POP JUMP JUMPDEST PUSH0 PUSH1 0x20 DUP3 ADD SWAP1 POP PUSH2 0x1862 PUSH0 DUP4 ADD DUP5 PUSH2 0x1840 JUMP JUMPDEST SWAP3 SWAP2 POP POP JUMP JUMPDEST PUSH0 PUSH0 REVERT JUMPDEST PUSH0 PUSH0 REVERT JUMPDEST PUSH0 PUSH0 REVERT JUMPDEST PUSH0 PUSH0 DUP4 PUSH1 0x1F DUP5 ADD SLT PUSH2 0x1889 JUMPI PUSH2 0x1888 PUSH2 0x1868 JUMP JUMPDEST JUMPDEST DUP3 CALLDATALOAD SWAP1 POP PUSH8 0xFFFFFFFFFFFFFFFF DUP2 GT ISZERO PUSH2 0x18A6 JUMPI PUSH2 0x18A5 PUSH2 0x186C JUMP JUMPDEST JUMPDEST PUSH1 0x20 DUP4 ADD SWAP2 POP DUP4 PUSH1 0x1 DUP3 MUL DUP4 ADD GT ISZERO PUSH2 0x18C2 JUMPI PUSH2 0x18C1 PUSH2 0x1870 JUMP JUMPDEST JUMPDEST SWAP3 POP SWAP3 SWAP1 POP JUMP JUMPDEST PUSH0 PUSH0 PUSH0 PUSH1 0x40 DUP5 DUP7 SUB SLT ISZERO PUSH2 0x18E0 JUMPI PUSH2 0x18DF PUSH2 0x14BF JUMP JUMPDEST JUMPDEST PUSH0 DUP5 ADD CALLDATALOAD PUSH8 0xFFFFFFFFFFFFFFFF DUP2 GT ISZERO PUSH2 0x18FD JUMPI PUSH2 0x18FC PUSH2 0x14C3 JUMP JUMPDEST JUMPDEST PUSH2 0x1909 DUP7 DUP3 DUP8 ADD PUSH2 0x1874 JUMP JUMPDEST SWAP4 POP SWAP4 POP POP PUSH1 0x20 PUSH2 0x191C DUP7 DUP3 DUP8 ADD PUSH2 0x179F JUMP JUMPDEST SWAP2 POP POP SWAP3 POP SWAP3 POP SWAP3 JUMP JUMPDEST PUSH0 PUSH32 0xFFFFFFFF00000000000000000000000000000000000000000000000000000000 DUP3 AND SWAP1 POP SWAP2 SWAP1 POP JUMP JUMPDEST PUSH2 0x195A DUP2 PUSH2 0x1926 JUMP JUMPDEST DUP3 MSTORE POP POP JUMP JUMPDEST PUSH0 PUSH1 0x60 DUP3 ADD SWAP1 POP DUP2 DUP2 SUB PUSH0 DUP4 ADD MSTORE PUSH2 0x1978 DUP2 DUP7 PUSH2 0x161C JUMP JUMPDEST SWAP1 POP PUSH2 0x1987 PUSH1 0x20 DUP4 ADD DUP6 PUSH2 0x15C5 JUMP JUMPDEST PUSH2 0x1994 PUSH1 0x40 DUP4 ADD DUP5 PUSH2 0x1951 JUMP JUMPDEST SWAP5 SWAP4 POP POP POP POP JUMP JUMPDEST PUSH0 PUSH0 PUSH0 PUSH0 PUSH1 0x40 DUP6 DUP8 SUB SLT ISZERO PUSH2 0x19B4 JUMPI PUSH2 0x19B3 PUSH2 0x14BF JUMP JUMPDEST JUMPDEST PUSH0 DUP6 ADD CALLDATALOAD PUSH8 0xFFFFFFFFFFFFFFFF DUP2 GT ISZERO PUSH2 0x19D1 JUMPI PUSH2 0x19D0 PUSH2 0x14C3 JUMP JUMPDEST JUMPDEST PUSH2 0x19DD DUP8 DUP3 DUP9 ADD PUSH2 0x1874 JUMP JUMPDEST SWAP5 POP SWAP5 POP POP PUSH1 0x20 DUP6 ADD CALLDATALOAD PUSH8 0xFFFFFFFFFFFFFFFF DUP2 GT ISZERO PUSH2 0x1A00 JUMPI PUSH2 0x19FF PUSH2 0x14C3 JUMP JUMPDEST JUMPDEST PUSH2 0x1A0C DUP8 DUP3 DUP9 ADD PUSH2 0x1874 JUMP JUMPDEST SWAP3 POP SWAP3 POP POP SWAP3 SWAP6 SWAP2 SWAP5 POP SWAP3 POP JUMP JUMPDEST PUSH0 PUSH1 0x20 DUP3 ADD SWAP1 POP DUP2 DUP2 SUB PUSH0 DUP4 ADD MSTORE PUSH2 0x1A32 DUP2 DUP5 PUSH2 0x1584 JUMP JUMPDEST SWAP1 POP SWAP3 SWAP2 POP POP JUMP JUMPDEST PUSH0 PUSH1 0x20 DUP3 ADD SWAP1 POP PUSH2 0x1A4D PUSH0 DUP4 ADD DUP5 PUSH2 0x15C5 JUMP JUMPDEST SWAP3 SWAP2 POP POP JUMP JUMPDEST PUSH0 DUP2 MLOAD SWAP1 POP SWAP2 SWAP1 POP JUMP JUMPDEST PUSH0 DUP3 DUP3 MSTORE PUSH1 0x20 DUP3 ADD SWAP1 POP SWAP3 SWAP2 POP POP JUMP JUMPDEST PUSH0 DUP2 SWAP1 POP PUSH1 0x20 DUP3 ADD SWAP1 POP SWAP2 SWAP1 POP JUMP JUMPDEST PUSH0 DUP3 DUP3 MSTORE PUSH1 0x20 DUP3 ADD SWAP1 POP SWAP3 SWAP2 POP POP JUMP JUMPDEST PUSH0 PUSH2 0x1A96 DUP3 PUSH2 0x154C JUMP JUMPDEST PUSH2 0x1AA0 DUP2 DUP6 PUSH2 0x1A7C JUMP JUMPDEST SWAP4 POP PUSH2 0x1AB0 DUP2 DUP6 PUSH1 0x20 DUP7 ADD PUSH2 0x1566 JUMP JUMPDEST PUSH2 0x1AB9 DUP2 PUSH2 0x1574 JUMP JUMPDEST DUP5 ADD SWAP2 POP POP SWAP3 SWAP2 POP POP JUMP JUMPDEST PUSH2 0x1ACD DUP2 PUSH2 0x15BC JUMP JUMPDEST DUP3 MSTORE POP POP JUMP JUMPDEST PUSH0 PUSH1 0x40 DUP4 ADD PUSH0 DUP4 ADD MLOAD DUP5 DUP3 SUB PUSH0 DUP7 ADD MSTORE PUSH2 0x1AED DUP3 DUP3 PUSH2 0x1A8C JUMP JUMPDEST SWAP2 POP POP PUSH1 0x20 DUP4 ADD MLOAD PUSH2 0x1B02 PUSH1 0x20 DUP7 ADD DUP3 PUSH2 0x1AC4 JUMP JUMPDEST POP DUP1 SWAP2 POP POP SWAP3 SWAP2 POP POP JUMP JUMPDEST PUSH0 PUSH2 0x1B18 DUP4 DUP4 PUSH2 0x1AD3 JUMP JUMPDEST SWAP1 POP SWAP3 SWAP2 POP POP JUMP JUMPDEST PUSH0 PUSH1 0x20 DUP3 ADD SWAP1 POP SWAP2 SWAP1 POP JUMP JUMPDEST PUSH0 PUSH2 0x1B36 DUP3 PUSH2 0x1A53 JUMP JUMPDEST PUSH2 0x1B40 DUP2 DUP6 PUSH2 0x1A5D JUMP JUMPDEST SWAP4 POP DUP4 PUSH1 0x20 DUP3 MUL DUP6 ADD PUSH2 0x1B52 DUP6 PUSH2 0x1A6D JUMP JUMPDEST DUP1 PUSH0 JUMPDEST DUP6 DUP2 LT ISZERO PUSH2 0x1B8D JUMPI DUP5 DUP5 SUB DUP10 MSTORE DUP2 MLOAD PUSH2 0x1B6E DUP6 DUP3 PUSH2 0x1B0D JUMP JUMPDEST SWAP5 POP PUSH2 0x1B79 DUP4 PUSH2 0x1B20 JUMP JUMPDEST SWAP3 POP PUSH1 0x20 DUP11 ADD SWAP10 POP POP PUSH1 0x1 DUP2 ADD SWAP1 POP PUSH2 0x1B55 JUMP JUMPDEST POP DUP3 SWAP8 POP DUP8 SWAP6 POP POP POP POP POP POP SWAP3 SWAP2 POP POP JUMP JUMPDEST PUSH0 PUSH1 0x20 DUP3 ADD SWAP1 POP DUP2 DUP2 SUB PUSH0 DUP4 ADD MSTORE PUSH2 0x1BB7 DUP2 DUP5 PUSH2 0x1B2C JUMP JUMPDEST SWAP1 POP SWAP3 SWAP2 POP POP JUMP JUMPDEST PUSH2 0x1BC8 DUP2 PUSH2 0x14E6 JUMP JUMPDEST DUP3 MSTORE POP POP JUMP JUMPDEST PUSH0 PUSH1 0x80 DUP3 ADD SWAP1 POP PUSH2 0x1BE1 PUSH0 DUP4 ADD DUP8 PUSH2 0x15C5 JUMP JUMPDEST PUSH2 0x1BEE PUSH1 0x20 DUP4 ADD DUP7 PUSH2 0x15C5 JUMP JUMPDEST PUSH2 0x1BFB PUSH1 0x40 DUP4 ADD DUP6 PUSH2 0x15C5 JUMP JUMPDEST PUSH2 0x1C08 PUSH1 0x60 DUP4 ADD DUP5 PUSH2 0x1BBF JUMP JUMPDEST SWAP6 SWAP5 POP POP POP POP POP JUMP JUMPDEST PUSH0 PUSH1 0x40 DUP3 ADD SWAP1 POP PUSH2 0x1C24 PUSH0 DUP4 ADD DUP6 PUSH2 0x15C5 JUMP JUMPDEST PUSH2 0x1C31 PUSH1 0x20 DUP4 ADD DUP5 PUSH2 0x1BBF JUMP JUMPDEST SWAP4 SWAP3 POP POP POP JUMP JUMPDEST PUSH2 0x1C41 DUP2 PUSH2 0x16D6 JUMP JUMPDEST DUP3 MSTORE POP POP JUMP JUMPDEST PUSH0 PUSH1 0x20 DUP3 ADD SWAP1 POP PUSH2 0x1C5A PUSH0 DUP4 ADD DUP5 PUSH2 0x1C38 JUMP JUMPDEST SWAP3 SWAP2 POP POP JUMP JUMPDEST PUSH2 0x1C69 DUP2 PUSH2 0x1815 JUMP JUMPDEST DUP2 EQ PUSH2 0x1C73 JUMPI PUSH0 PUSH0 REVERT JUMPDEST POP JUMP JUMPDEST PUSH0 DUP2 CALLDATALOAD SWAP1 POP PUSH2 0x1C84 DUP2 PUSH2 0x1C60 JUMP JUMPDEST SWAP3 SWAP2 POP POP JUMP JUMPDEST PUSH0 PUSH1 0x20 DUP3 DUP5 SUB SLT ISZERO PUSH2 0x1C9F JUMPI PUSH2 0x1C9E PUSH2 0x14BF JUMP JUMPDEST JUMPDEST PUSH0 PUSH2 0x1CAC DUP5 DUP3 DUP6 ADD PUSH2 0x1C76 JUMP JUMPDEST SWAP2 POP POP SWAP3 SWAP2 POP POP JUMP JUMPDEST PUSH2 0x1CBE DUP2 PUSH2 0x17DE JUMP JUMPDEST DUP2 EQ PUSH2 0x1CC8 JUMPI PUSH0 PUSH0 REVERT JUMPDEST POP JUMP JUMPDEST PUSH0 DUP2 CALLDATALOAD SWAP1 POP PUSH2 0x1CD9 DUP2 PUSH2 0x1CB5 JUMP JUMPDEST SWAP3 SWAP2 POP POP JUMP JUMPDEST PUSH0 PUSH1 0x20 DUP3 DUP5 SUB SLT ISZERO PUSH2 0x1CF4 JUMPI PUSH2 0x1CF3 PUSH2 0x14BF JUMP JUMPDEST JUMPDEST PUSH0 PUSH2 0x1D01 DUP5 DUP3 DUP6 ADD PUSH2 0x1CCB JUMP JUMPDEST SWAP2 POP POP SWAP3 SWAP2 POP POP JUMP JUMPDEST PUSH32 0x4E487B7100000000000000000000000000000000000000000000000000000000 PUSH0 MSTORE PUSH1 0x21 PUSH1 0x4 MSTORE PUSH1 0x24 PUSH0 REVERT JUMPDEST PUSH1 0x2 DUP2 LT PUSH2 0x1D48 JUMPI PUSH2 0x1D47 PUSH2 0x1D0A JUMP JUMPDEST JUMPDEST POP JUMP JUMPDEST PUSH0 DUP2 SWAP1 POP PUSH2 0x1D58 DUP3 PUSH2 0x1D37 JUMP JUMPDEST SWAP2 SWAP1 POP JUMP JUMPDEST PUSH0 PUSH2 0x1D67 DUP3 PUSH2 0x1D4B JUMP JUMPDEST SWAP1 POP SWAP2 SWAP1 POP JUMP JUMPDEST PUSH2 0x1D77 DUP2 PUSH2 0x1D5D JUMP JUMPDEST DUP3 MSTORE POP POP JUMP JUMPDEST PUSH0 PUSH1 0x20 DUP3 ADD SWAP1 POP PUSH2 0x1D90 PUSH0 DUP4 ADD DUP5 PUSH2 0x1D6E JUMP JUMPDEST SWAP3 SWAP2 POP POP JUMP JUMPDEST PUSH0 DUP2 PUSH0 SIGNEXTEND SWAP1 POP SWAP2 SWAP1 POP JUMP JUMPDEST PUSH2 0x1DAA DUP2 PUSH2 0x1D96 JUMP JUMPDEST DUP3 MSTORE POP POP JUMP JUMPDEST PUSH0 PUSH1 0x40 DUP3 ADD SWAP1 POP PUSH2 0x1DC3 PUSH0 DUP4 ADD DUP6 PUSH2 0x1DA1 JUMP JUMPDEST PUSH2 0x1DD0 PUSH1 0x20 DUP4 ADD DUP5 PUSH2 0x1DA1 JUMP JUMPDEST SWAP4 SWAP3 POP POP POP JUMP JUMPDEST PUSH2 0x1DE0 DUP2 PUSH2 0x1674 JUMP JUMPDEST DUP3 MSTORE POP POP JUMP JUMPDEST PUSH0 PUSH1 0x20 DUP3 ADD SWAP1 POP PUSH2 0x1DF9 PUSH0 DUP4 ADD DUP5 PUSH2 0x1DD7 JUMP JUMPDEST SWAP3 SWAP2 POP POP JUMP JUMPDEST PUSH0 DUP2 MLOAD SWAP1 POP SWAP2 SWAP1 POP JUMP JUMPDEST PUSH0 DUP3 DUP3 MSTORE PUSH1 0x20 DUP3 ADD SWAP1 POP SWAP3 SWAP2 POP POP JUMP JUMPDEST PUSH0 DUP2 SWAP1 POP PUSH1 0x20 DUP3 ADD SWAP1 POP SWAP2 SWAP1 POP JUMP JUMPDEST PUSH0 PUSH2 0x1E33 DUP4 DUP4 PUSH2 0x1AC4 JUMP JUMPDEST PUSH1 0x20 DUP4 ADD SWAP1 POP SWAP3 SWAP2 POP POP JUMP JUMPDEST PUSH0 PUSH1 0x20 DUP3 ADD SWAP1 POP SWAP2 SWAP1 POP JUMP JUMPDEST PUSH0 PUSH2 0x1E55 DUP3 PUSH2 0x1DFF JUMP JUMPDEST PUSH2 0x1E5F DUP2 DUP6 PUSH2 0x1E09 JUMP JUMPDEST SWAP4 POP PUSH2 0x1E6A DUP4 PUSH2 0x1E19 JUMP JUMPDEST DUP1 PUSH0 JUMPDEST DUP4 DUP2 LT ISZERO PUSH2 0x1E9A JUMPI DUP2 MLOAD PUSH2 0x1E81 DUP9 DUP3 PUSH2 0x1E28 JUMP JUMPDEST SWAP8 POP PUSH2 0x1E8C DUP4 PUSH2 0x1E3F JUMP JUMPDEST SWAP3 POP POP PUSH1 0x1 DUP2 ADD SWAP1 POP PUSH2 0x1E6D JUMP JUMPDEST POP DUP6 SWAP4 POP POP POP POP SWAP3 SWAP2 POP POP JUMP JUMPDEST PUSH0 PUSH1 0x40 DUP3 ADD SWAP1 POP DUP2 DUP2 SUB PUSH0 DUP4 ADD MSTORE PUSH2 0x1EBF DUP2 DUP6 PUSH2 0x1E4B JUMP JUMPDEST SWAP1 POP PUSH2 0x1ECE PUSH1 0x20 DUP4 ADD DUP5 PUSH2 0x15C5 JUMP JUMPDEST SWAP4 SWAP3 POP POP POP JUMP JUMPDEST PUSH0 PUSH1 0x20 DUP3 ADD SWAP1 POP PUSH2 0x1EE8 PUSH0 DUP4 ADD DUP5 PUSH2 0x1DA1 JUMP JUMPDEST SWAP3 SWAP2 POP POP JUMP JUMPDEST PUSH0 PUSH0 DUP4 PUSH1 0x1F DUP5 ADD SLT PUSH2 0x1F03 JUMPI PUSH2 0x1F02 PUSH2 0x1868 JUMP JUMPDEST JUMPDEST DUP3 CALLDATALOAD SWAP1 POP PUSH8 0xFFFFFFFFFFFFFFFF DUP2 GT ISZERO PUSH2 0x1F20 JUMPI PUSH2 0x1F1F PUSH2 0x186C JUMP JUMPDEST JUMPDEST PUSH1 0x20 DUP4 ADD SWAP2 POP DUP4 PUSH1 0x1 DUP3 MUL DUP4 ADD GT ISZERO PUSH2 0x1F3C JUMPI PUSH2 0x1F3B PUSH2 0x1870 JUMP JUMPDEST JUMPDEST SWAP3 POP SWAP3 SWAP1 POP JUMP JUMPDEST PUSH0 PUSH0 PUSH1 0x20 DUP4 DUP6 SUB SLT ISZERO PUSH2 0x1F59 JUMPI PUSH2 0x1F58 PUSH2 0x14BF JUMP JUMPDEST JUMPDEST PUSH0 DUP4 ADD CALLDATALOAD PUSH8 0xFFFFFFFFFFFFFFFF DUP2 GT ISZERO PUSH2 0x1F76 JUMPI PUSH2 0x1F75 PUSH2 0x14C3 JUMP JUMPDEST JUMPDEST PUSH2 0x1F82 DUP6 DUP3 DUP7 ADD PUSH2 0x1EEE JUMP JUMPDEST SWAP3 POP SWAP3 POP POP SWAP3 POP SWAP3 SWAP1 POP JUMP JUMPDEST PUSH32 0x4E487B7100000000000000000000000000000000000000000000000000000000 PUSH0 MSTORE PUSH1 0x22 PUSH1 0x4 MSTORE PUSH1 0x24 PUSH0 REVERT JUMPDEST PUSH0 PUSH1 0x2 DUP3 DIV SWAP1 POP PUSH1 0x1 DUP3 AND DUP1 PUSH2 0x1FD2 JUMPI PUSH1 0x7F DUP3 AND SWAP2 POP JUMPDEST PUSH1 0x20 DUP3 LT DUP2 SUB PUSH2 0x1FE5 JUMPI PUSH2 0x1FE4 PUSH2 0x1F8E JUMP JUMPDEST JUMPDEST POP SWAP2 SWAP1 POP JUMP JUMPDEST PUSH32 0x4E487B7100000000000000000000000000000000000000000000000000000000 PUSH0 MSTORE PUSH1 0x1 PUSH1 0x4 MSTORE PUSH1 0x24 PUSH0 REVERT JUMPDEST PUSH32 0x31206E6F20657320696775616C20612030000000000000000000000000000000 PUSH0 DUP3 ADD MSTORE POP JUMP JUMPDEST PUSH0 PUSH2 0x204C PUSH1 0x11 DUP4 PUSH2 0x1556 JUMP JUMPDEST SWAP2 POP PUSH2 0x2057 DUP3 PUSH2 0x2018 JUMP JUMPDEST PUSH1 0x20 DUP3 ADD SWAP1 POP SWAP2 SWAP1 POP JUMP JUMPDEST PUSH0 PUSH1 0x20 DUP3 ADD SWAP1 POP DUP2 DUP2 SUB PUSH0 DUP4 ADD MSTORE PUSH2 0x2079 DUP2 PUSH2 0x2040 JUMP JUMPDEST SWAP1 POP SWAP2 SWAP1 POP JUMP JUMPDEST PUSH32 0x4E487B7100000000000000000000000000000000000000000000000000000000 PUSH0 MSTORE PUSH1 0x11 PUSH1 0x4 MSTORE PUSH1 0x24 PUSH0 REVERT JUMPDEST PUSH0 PUSH2 0x20B7 DUP3 PUSH2 0x15BC JUMP JUMPDEST SWAP2 POP PUSH32 0xFFFFFFFFFFFFFFFFFFFFFFFFFFFFFFFFFFFFFFFFFFFFFFFFFFFFFFFFFFFFFFFF DUP3 SUB PUSH2 0x20E9 JUMPI PUSH2 0x20E8 PUSH2 0x2080 JUMP JUMPDEST JUMPDEST PUSH1 0x1 DUP3 ADD SWAP1 POP SWAP2 SWAP1 POP JUMP JUMPDEST PUSH32 0x4E487B7100000000000000000000000000000000000000000000000000000000 PUSH0 MSTORE PUSH1 0x41 PUSH1 0x4 MSTORE PUSH1 0x24 PUSH0 REVERT JUMPDEST PUSH0 DUP2 SWAP1 POP DUP2 PUSH0 MSTORE PUSH1 0x20 PUSH0 KECCAK256 SWAP1 POP SWAP2 SWAP1 POP JUMP JUMPDEST PUSH0 PUSH1 0x20 PUSH1 0x1F DUP4 ADD DIV SWAP1 POP SWAP2 SWAP1 POP JUMP JUMPDEST PUSH0 DUP3 DUP3 SHL SWAP1 POP SWAP3 SWAP2 POP POP JUMP JUMPDEST PUSH0 PUSH1 0x8 DUP4 MUL PUSH2 0x217D PUSH32 0xFFFFFFFFFFFFFFFFFFFFFFFFFFFFFFFFFFFFFFFFFFFFFFFFFFFFFFFFFFFFFFFF DUP3 PUSH2 0x2142 JUMP JUMPDEST PUSH2 0x2187 DUP7 DUP4 PUSH2 0x2142 JUMP JUMPDEST SWAP6 POP DUP1 NOT DUP5 AND SWAP4 POP DUP1 DUP7 AND DUP5 OR SWAP3 POP POP POP SWAP4 SWAP3 POP POP POP JUMP JUMPDEST PUSH0 DUP2 SWAP1 POP SWAP2 SWAP1 POP JUMP JUMPDEST PUSH0 PUSH2 0x21C2 PUSH2 0x21BD PUSH2 0x21B8 DUP5 PUSH2 0x15BC JUMP JUMPDEST PUSH2 0x219F JUMP JUMPDEST PUSH2 0x15BC JUMP JUMPDEST SWAP1 POP SWAP2 SWAP1 POP JUMP JUMPDEST PUSH0 DUP2 SWAP1 POP SWAP2 SWAP1 POP JUMP JUMPDEST PUSH2 0x21DB DUP4 PUSH2 0x21A8 JUMP JUMPDEST PUSH2 0x21EF PUSH2 0x21E7 DUP3 PUSH2 0x21C9 JUMP JUMPDEST DUP5 DUP5 SLOAD PUSH2 0x214E JUMP JUMPDEST DUP3 SSTORE POP POP POP POP JUMP JUMPDEST PUSH0 PUSH0 SWAP1 POP SWAP1 JUMP JUMPDEST PUSH2 0x2206 PUSH2 0x21F7 JUMP JUMPDEST PUSH2 0x2211 DUP2 DUP5 DUP5 PUSH2 0x21D2 JUMP JUMPDEST POP POP POP JUMP JUMPDEST JUMPDEST DUP2 DUP2 LT ISZERO PUSH2 0x2234 JUMPI PUSH2 0x2229 PUSH0 DUP3 PUSH2 0x21FE JUMP JUMPDEST PUSH1 0x1 DUP2 ADD SWAP1 POP PUSH2 0x2217 JUMP JUMPDEST POP POP JUMP JUMPDEST PUSH1 0x1F DUP3 GT ISZERO PUSH2 0x2279 JUMPI PUSH2 0x224A DUP2 PUSH2 0x2121 JUMP JUMPDEST PUSH2 0x2253 DUP5 PUSH2 0x2133 JUMP JUMPDEST DUP2 ADD PUSH1 0x20 DUP6 LT ISZERO PUSH2 0x2262 JUMPI DUP2 SWAP1 POP JUMPDEST PUSH2 0x2276 PUSH2 0x226E DUP6 PUSH2 0x2133 JUMP JUMPDEST DUP4 ADD DUP3 PUSH2 0x2216 JUMP JUMPDEST POP POP JUMPDEST POP POP POP JUMP JUMPDEST PUSH0 DUP3 DUP3 SHR SWAP1 POP SWAP3 SWAP2 POP POP JUMP JUMPDEST PUSH0 PUSH2 0x2299 PUSH0 NOT DUP5 PUSH1 0x8 MUL PUSH2 0x227E JUMP JUMPDEST NOT DUP1 DUP4 AND SWAP2 POP POP SWAP3 SWAP2 POP POP JUMP JUMPDEST PUSH0 PUSH2 0x22B1 DUP4 DUP4 PUSH2 0x228A JUMP JUMPDEST SWAP2 POP DUP3 PUSH1 0x2 MUL DUP3 OR SWAP1 POP SWAP3 SWAP2 POP POP JUMP JUMPDEST PUSH2 0x22CA DUP3 PUSH2 0x154C JUMP JUMPDEST PUSH8 0xFFFFFFFFFFFFFFFF DUP2 GT ISZERO PUSH2 0x22E3 JUMPI PUSH2 0x22E2 PUSH2 0x20F4 JUMP JUMPDEST JUMPDEST PUSH2 0x22ED DUP3 SLOAD PUSH2 0x1FBB JUMP JUMPDEST PUSH2 0x22F8 DUP3 DUP3 DUP6 PUSH2 0x2238 JUMP JUMPDEST PUSH0 PUSH1 0x20 SWAP1 POP PUSH1 0x1F DUP4 GT PUSH1 0x1 DUP2 EQ PUSH2 0x2329 JUMPI PUSH0 DUP5 ISZERO PUSH2 0x2317 JUMPI DUP3 DUP8 ADD MLOAD SWAP1 POP JUMPDEST PUSH2 0x2321 DUP6 DUP3 PUSH2 0x22A6 JUMP JUMPDEST DUP7 SSTORE POP PUSH2 0x2388 JUMP JUMPDEST PUSH1 0x1F NOT DUP5 AND PUSH2 0x2337 DUP7 PUSH2 0x2121 JUMP JUMPDEST PUSH0 JUMPDEST DUP3 DUP2 LT ISZERO PUSH2 0x235E JUMPI DUP5 DUP10 ADD MLOAD DUP3 SSTORE PUSH1 0x1 DUP3 ADD SWAP2 POP PUSH1 0x20 DUP6 ADD SWAP5 POP PUSH1 0x20 DUP2 ADD SWAP1 POP PUSH2 0x2339 JUMP JUMPDEST DUP7 DUP4 LT ISZERO PUSH2 0x237B JUMPI DUP5 DUP10 ADD MLOAD PUSH2 0x2377 PUSH1 0x1F DUP10 AND DUP3 PUSH2 0x228A JUMP JUMPDEST DUP4 SSTORE POP JUMPDEST PUSH1 0x1 PUSH1 0x2 DUP9 MUL ADD DUP9 SSTORE POP POP POP JUMPDEST POP POP POP POP POP POP JUMP JUMPDEST PUSH0 DUP2 SWAP1 POP SWAP3 SWAP2 POP POP JUMP JUMPDEST DUP3 DUP2 DUP4 CALLDATACOPY PUSH0 DUP4 DUP4 ADD MSTORE POP POP POP JUMP JUMPDEST PUSH0 PUSH2 0x23B3 DUP4 DUP6 PUSH2 0x2390 JUMP JUMPDEST SWAP4 POP PUSH2 0x23C0 DUP4 DUP6 DUP5 PUSH2 0x239A JUMP JUMPDEST DUP3 DUP5 ADD SWAP1 POP SWAP4 SWAP3 POP POP POP JUMP JUMPDEST PUSH0 PUSH2 0x23D8 DUP3 DUP5 DUP7 PUSH2 0x23A8 JUMP JUMPDEST SWAP2 POP DUP2 SWAP1 POP SWAP4 SWAP3 POP POP POP JUMP JUMPDEST PUSH0 DUP2 SWAP1 POP SWAP2 SWAP1 POP JUMP JUMPDEST PUSH2 0x23FE PUSH2 0x23F9 DUP3 PUSH2 0x15BC JUMP JUMPDEST PUSH2 0x23E4 JUMP JUMPDEST DUP3 MSTORE POP POP JUMP JUMPDEST PUSH0 PUSH2 0x240F DUP3 DUP6 PUSH2 0x23ED JUMP JUMPDEST PUSH1 0x20 DUP3 ADD SWAP2 POP PUSH2 0x241F DUP3 DUP5 PUSH2 0x23ED JUMP JUMPDEST PUSH1 0x20 DUP3 ADD SWAP2 POP DUP2 SWAP1 POP SWAP4 SWAP3 POP POP POP JUMP JUMPDEST PUSH32 0x4E487B7100000000000000000000000000000000000000000000000000000000 PUSH0 MSTORE PUSH1 0x12 PUSH1 0x4 MSTORE PUSH1 0x24 PUSH0 REVERT JUMPDEST PUSH0 PUSH2 0x2466 DUP3 PUSH2 0x15BC JUMP JUMPDEST SWAP2 POP PUSH2 0x2471 DUP4 PUSH2 0x15BC JUMP JUMPDEST SWAP3 POP DUP3 PUSH2 0x2481 JUMPI PUSH2 0x2480 PUSH2 0x242F JUMP JUMPDEST JUMPDEST DUP3 DUP3 MOD SWAP1 POP SWAP3 SWAP2 POP POP JUMP JUMPDEST PUSH0 DUP3 SWAP1 POP SWAP3 SWAP2 POP POP JUMP JUMPDEST PUSH2 0x24A0 DUP4 DUP4 PUSH2 0x248C JUMP JUMPDEST PUSH8 0xFFFFFFFFFFFFFFFF DUP2 GT ISZERO PUSH2 0x24B9 JUMPI PUSH2 0x24B8 PUSH2 0x20F4 JUMP JUMPDEST JUMPDEST PUSH2 0x24C3 DUP3 SLOAD PUSH2 0x1FBB JUMP JUMPDEST PUSH2 0x24CE DUP3 DUP3 DUP6 PUSH2 0x2238 JUMP JUMPDEST PUSH0 PUSH1 0x1F DUP4 GT PUSH1 0x1 DUP2 EQ PUSH2 0x24FB JUMPI PUSH0 DUP5 ISZERO PUSH2 0x24E9 JUMPI DUP3 DUP8 ADD CALLDATALOAD SWAP1 POP JUMPDEST PUSH2 0x24F3 DUP6 DUP3 PUSH2 0x22A6 JUMP JUMPDEST DUP7 SSTORE POP PUSH2 0x255A JUMP JUMPDEST PUSH1 0x1F NOT DUP5 AND PUSH2 0x2509 DUP7 PUSH2 0x2121 JUMP JUMPDEST PUSH0 JUMPDEST DUP3 DUP2 LT ISZERO PUSH2 0x2530 JUMPI DUP5 DUP10 ADD CALLDATALOAD DUP3 SSTORE PUSH1 0x1 DUP3 ADD SWAP2 POP PUSH1 0x20 DUP6 ADD SWAP5 POP PUSH1 0x20 DUP2 ADD SWAP1 POP PUSH2 0x250B JUMP JUMPDEST DUP7 DUP4 LT ISZERO PUSH2 0x254D JUMPI DUP5 DUP10 ADD CALLDATALOAD PUSH2 0x2549 PUSH1 0x1F DUP10 AND DUP3 PUSH2 0x228A JUMP JUMPDEST DUP4 SSTORE POP JUMPDEST PUSH1 0x1 PUSH1 0x2 DUP9 MUL ADD DUP9 SSTORE POP POP POP JUMPDEST POP POP POP POP POP POP POP JUMP JUMPDEST PUSH32 0x6E6F206572657320656C206F776E657200000000000000000000000000000000 PUSH0 DUP3 ADD MSTORE POP JUMP JUMPDEST PUSH0 PUSH2 0x2597 PUSH1 0x10 DUP4 PUSH2 0x1556 JUMP JUMPDEST SWAP2 POP PUSH2 0x25A2 DUP3 PUSH2 0x2563 JUMP JUMPDEST PUSH1 0x20 DUP3 ADD SWAP1 POP SWAP2 SWAP1 POP JUMP JUMPDEST PUSH0 PUSH1 0x20 DUP3 ADD SWAP1 POP DUP2 DUP2 SUB PUSH0 DUP4 ADD MSTORE PUSH2 0x25C4 DUP2 PUSH2 0x258B JUMP JUMPDEST SWAP1 POP SWAP2 SWAP1 POP JUMP JUMPDEST PUSH32 0x66616C6C6F20656C20656E76696F000000000000000000000000000000000000 PUSH0 DUP3 ADD MSTORE POP JUMP JUMPDEST PUSH0 PUSH2 0x25FF PUSH1 0xE DUP4 PUSH2 0x1556 JUMP JUMPDEST SWAP2 POP PUSH2 0x260A DUP3 PUSH2 0x25CB JUMP JUMPDEST PUSH1 0x20 DUP3 ADD SWAP1 POP SWAP2 SWAP1 POP JUMP JUMPDEST PUSH0 PUSH1 0x20 DUP3 ADD SWAP1 POP DUP2 DUP2 SUB PUSH0 DUP4 ADD MSTORE PUSH2 0x262C DUP2 PUSH2 0x25F3 JUMP JUMPDEST SWAP1 POP SWAP2 SWAP1 POP JUMP JUMPDEST PUSH32 0x4E487B7100000000000000000000000000000000000000000000000000000000 PUSH0 MSTORE PUSH1 0x32 PUSH1 0x4 MSTORE PUSH1 0x24 PUSH0 REVERT JUMPDEST PUSH0 PUSH2 0x266A DUP3 PUSH2 0x15BC JUMP JUMPDEST SWAP2 POP PUSH2 0x2675 DUP4 PUSH2 0x15BC JUMP JUMPDEST SWAP3 POP DUP3 DUP3 ADD SWAP1 POP DUP1 DUP3 GT ISZERO PUSH2 0x268D JUMPI PUSH2 0x268C PUSH2 0x2080 JUMP JUMPDEST JUMPDEST SWAP3 SWAP2 POP POP JUMP JUMPDEST PUSH0 PUSH2 0x269D DUP3 PUSH2 0x1D96 JUMP JUMPDEST SWAP2 POP PUSH2 0x26A8 DUP4 PUSH2 0x1D96 JUMP JUMPDEST SWAP3 POP DUP3 PUSH2 0x26B8 JUMPI PUSH2 0x26B7 PUSH2 0x242F JUMP JUMPDEST JUMPDEST PUSH1 0x1 PUSH0 SUB DUP4 EQ PUSH32 0xFFFFFFFFFFFFFFFFFFFFFFFFFFFFFFFFFFFFFFFFFFFFFFFFFFFFFFFFFFFFFF80 DUP4 EQ AND ISZERO PUSH2 0x26F0 JUMPI PUSH2 0x26EF PUSH2 0x2080 JUMP JUMPDEST JUMPDEST DUP3 DUP3 SDIV SWAP1 POP SWAP3 SWAP2 POP POP JUMP JUMPDEST PUSH0 DUP3 SWAP1 POP SWAP3 SWAP2 POP POP JUMP JUMPDEST PUSH0 DUP2 SWAP1 POP DUP2 PUSH0 MSTORE PUSH1 0x20 PUSH0 KECCAK256 SWAP1 POP SWAP2 SWAP1 POP JUMP JUMPDEST PUSH1 0x1F DUP3 GT ISZERO PUSH2 0x2758 JUMPI PUSH2 0x2729 DUP2 PUSH2 0x2705 JUMP JUMPDEST PUSH2 0x2732 DUP5 PUSH2 0x2133 JUMP JUMPDEST DUP2 ADD PUSH1 0x20 DUP6 LT ISZERO PUSH2 0x2741 JUMPI DUP2 SWAP1 POP JUMPDEST PUSH2 0x2755 PUSH2 0x274D DUP6 PUSH2 0x2133 JUMP JUMPDEST DUP4 ADD DUP3 PUSH2 0x2216 JUMP JUMPDEST POP POP JUMPDEST POP POP POP JUMP JUMPDEST PUSH2 0x2767 DUP4 DUP4 PUSH2 0x26FB JUMP JUMPDEST PUSH8 0xFFFFFFFFFFFFFFFF DUP2 GT ISZERO PUSH2 0x2780 JUMPI PUSH2 0x277F PUSH2 0x20F4 JUMP JUMPDEST JUMPDEST PUSH2 0x278A DUP3 SLOAD PUSH2 0x1FBB JUMP JUMPDEST PUSH2 0x2795 DUP3 DUP3 DUP6 PUSH2 0x2717 JUMP JUMPDEST PUSH0 PUSH1 0x1F DUP4 GT PUSH1 0x1 DUP2 EQ PUSH2 0x27C2 JUMPI PUSH0 DUP5 ISZERO PUSH2 0x27B0 JUMPI DUP3 DUP8 ADD CALLDATALOAD SWAP1 POP JUMPDEST PUSH2 0x27BA DUP6 DUP3 PUSH2 0x22A6 JUMP JUMPDEST DUP7 SSTORE POP PUSH2 0x2821 JUMP JUMPDEST PUSH1 0x1F NOT DUP5 AND PUSH2 0x27D0 DUP7 PUSH2 0x2705 JUMP JUMPDEST PUSH0 JUMPDEST DUP3 DUP2 LT ISZERO PUSH2 0x27F7 JUMPI DUP5 DUP10 ADD CALLDATALOAD DUP3 SSTORE PUSH1 0x1 DUP3 ADD SWAP2 POP PUSH1 0x20 DUP6 ADD SWAP5 POP PUSH1 0x20 DUP2 ADD SWAP1 POP PUSH2 0x27D2 JUMP JUMPDEST DUP7 DUP4 LT ISZERO PUSH2 0x2814 JUMPI DUP5 DUP10 ADD CALLDATALOAD PUSH2 0x2810 PUSH1 0x1F DUP10 AND DUP3 PUSH2 0x228A JUMP JUMPDEST DUP4 SSTORE POP JUMPDEST PUSH1 0x1 PUSH1 0x2 DUP9 MUL ADD DUP9 SSTORE POP POP POP JUMPDEST POP POP POP POP POP POP POP JUMP JUMPDEST PUSH0 PUSH1 0xFF DUP3 AND SWAP1 POP SWAP2 SWAP1 POP JUMP JUMPDEST PUSH0 PUSH2 0x2840 DUP3 PUSH2 0x282A JUMP JUMPDEST SWAP2 POP PUSH2 0x284B DUP4 PUSH2 0x282A JUMP JUMPDEST SWAP3 POP DUP3 DUP3 ADD SWAP1 POP PUSH1 0xFF DUP2 GT ISZERO PUSH2 0x2864 JUMPI PUSH2 0x2863 PUSH2 0x2080 JUMP JUMPDEST JUMPDEST SWAP3 SWAP2 POP POP JUMP INVALID LOG2 PUSH5 0x6970667358 0x22 SLT KECCAK256 0xC1 EXTCODEHASH SWAP9 CALL DUP8 OR RETURNDATACOPY PUSH0 SHR 0x28 ISZERO GT REVERT SWAP6 PUSH16 0x2742D8EB39F68858CC88F4C91EE1E02B BYTE PUSH5 0x736F6C6343 STOP ADDMOD 0x1E STOP CALLER "
				},
				"gasEstimates": {
					"creation": {
						"codeDepositCost": "2080000",
						"executionCost": "infinite",
						"totalCost": "infinite"
					},
					"external": {
						"Counter()": "241",
						"_bytes1()": "2556",
						"_bytes2()": "2563",
						"_bytes3Setter(bytes)": "infinite",
						"_bytesArray()": "infinite",
						"agregarValor(uint16)": "50711",
						"bloque()": "infinite",
						"cargarDatos(string,uint256)": "infinite",
						"cargarDatosArray(string,uint256)": "infinite",
						"comparar(string,string)": "infinite",
						"compararMoneda(bool)": "infinite",
						"compararTiempo(bool)": "infinite",
						"counter()": "2513",
						"curso()": "infinite",
						"destroy()": "27832",
						"getMyInfoArray()": "infinite",
						"intLimits()": "infinite",
						"mensaje()": "infinite",
						"modificarCurso(bytes1)": "29232",
						"modificarReferencia(uint32)": "50699",
						"myInfo(address)": "infinite",
						"myInfoArray(uint256)": "infinite",
						"random()": "infinite",
						"referencia(uint256)": "6607",
						"revertir(bool)": "844",
						"state()": "2687",
						"sumaConstante()": "infinite",
						"toggleState()": "26738",
						"transaccion()": "536",
						"transferEtherAny()": "infinite",
						"transferEtherOwner()": "infinite",
						"underflow()": "infinite",
						"underflow2()": "infinite",
						"valuePushed(uint256)": "6606",
						"valueSent()": "397",
						"varArrMem(uint256)": "infinite"
					},
					"internal": {
						"count()": "24375"
					}
				},
				"methodIdentifiers": {
					"Counter()": "4eeca076",
					"_bytes1()": "29f789e9",
					"_bytes2()": "2480cad4",
					"_bytes3Setter(bytes)": "ed481113",
					"_bytesArray()": "1882fc11",
					"agregarValor(uint16)": "1ccb95ea",
					"bloque()": "5ae6c085",
					"cargarDatos(string,uint256)": "72f9b22e",
					"cargarDatosArray(string,uint256)": "2d5d677b",
					"comparar(string,string)": "32af93f7",
					"compararMoneda(bool)": "edb046dc",
					"compararTiempo(bool)": "826da11d",
					"counter()": "61bc221a",
					"curso()": "deafcc41",
					"destroy()": "83197ef0",
					"getMyInfoArray()": "53946c2c",
					"intLimits()": "cb737b50",
					"mensaje()": "2fdbbb9b",
					"modificarCurso(bytes1)": "8a9db001",
					"modificarReferencia(uint32)": "960e3e17",
					"myInfo(address)": "08b9a761",
					"myInfoArray(uint256)": "9fb76f1b",
					"random()": "5ec01e4d",
					"referencia(uint256)": "27b8a349",
					"revertir(bool)": "1f5b1b48",
					"state()": "c19d93fb",
					"sumaConstante()": "ac5beef9",
					"toggleState()": "d37e5104",
					"transaccion()": "7499854e",
					"transferEtherAny()": "65eaca04",
					"transferEtherOwner()": "88aa112b",
					"underflow()": "dc75bec7",
					"underflow2()": "eda1d252",
					"valuePushed(uint256)": "d080bd88",
					"valueSent()": "4fb8aaf4",
					"varArrMem(uint256)": "daf55985"
				}
			},
			"storageLayout": {
				"storage": [
					{
						"astId": 3,
						"contract": "solidity.sol:test",
						"label": "counter",
						"offset": 0,
						"slot": "0",
						"type": "t_uint256"
					},
					{
						"astId": 5,
						"contract": "solidity.sol:test",
						"label": "owner",
						"offset": 0,
						"slot": "1",
						"type": "t_address"
					},
					{
						"astId": 175,
						"contract": "solidity.sol:test",
						"label": "myInfo",
						"offset": 0,
						"slot": "2",
						"type": "t_mapping(t_address,t_struct(Person)170_storage)"
					},
					{
						"astId": 203,
						"contract": "solidity.sol:test",
						"label": "myInfoArray",
						"offset": 0,
						"slot": "3",
						"type": "t_array(t_struct(Person)170_storage)dyn_storage"
					},
					{
						"astId": 246,
						"contract": "solidity.sol:test",
						"label": "_bytes1",
						"offset": 0,
						"slot": "4",
						"type": "t_bytes1"
					},
					{
						"astId": 249,
						"contract": "solidity.sol:test",
						"label": "_bytes2",
						"offset": 1,
						"slot": "4",
						"type": "t_bytes2"
					},
					{
						"astId": 251,
						"contract": "solidity.sol:test",
						"label": "_bytesArray",
						"offset": 0,
						"slot": "5",
						"type": "t_bytes_storage"
					},
					{
						"astId": 328,
						"contract": "solidity.sol:test",
						"label": "state",
						"offset": 0,
						"slot": "6",
						"type": "t_enum(Estado)325"
					},
					{
						"astId": 352,
						"contract": "solidity.sol:test",
						"label": "valuePushed",
						"offset": 0,
						"slot": "7",
						"type": "t_array(t_uint16)dyn_storage"
					},
					{
						"astId": 367,
						"contract": "solidity.sol:test",
						"label": "referencia",
						"offset": 0,
						"slot": "8",
						"type": "t_array(t_uint32)dyn_storage"
					},
					{
						"astId": 389,
						"contract": "solidity.sol:test",
						"label": "curso",
						"offset": 0,
						"slot": "9",
						"type": "t_string_storage"
					}
				],
				"types": {
					"t_address": {
						"encoding": "inplace",
						"label": "address",
						"numberOfBytes": "20"
					},
					"t_array(t_struct(Person)170_storage)dyn_storage": {
						"base": "t_struct(Person)170_storage",
						"encoding": "dynamic_array",
						"label": "struct test.Person[]",
						"numberOfBytes": "32"
					},
					"t_array(t_uint16)dyn_storage": {
						"base": "t_uint16",
						"encoding": "dynamic_array",
						"label": "uint16[]",
						"numberOfBytes": "32"
					},
					"t_array(t_uint32)dyn_storage": {
						"base": "t_uint32",
						"encoding": "dynamic_array",
						"label": "uint32[]",
						"numberOfBytes": "32"
					},
					"t_bytes1": {
						"encoding": "inplace",
						"label": "bytes1",
						"numberOfBytes": "1"
					},
					"t_bytes2": {
						"encoding": "inplace",
						"label": "bytes2",
						"numberOfBytes": "2"
					},
					"t_bytes_storage": {
						"encoding": "bytes",
						"label": "bytes",
						"numberOfBytes": "32"
					},
					"t_enum(Estado)325": {
						"encoding": "inplace",
						"label": "enum test.Estado",
						"numberOfBytes": "1"
					},
					"t_mapping(t_address,t_struct(Person)170_storage)": {
						"encoding": "mapping",
						"key": "t_address",
						"label": "mapping(address => struct test.Person)",
						"numberOfBytes": "32",
						"value": "t_struct(Person)170_storage"
					},
					"t_string_storage": {
						"encoding": "bytes",
						"label": "string",
						"numberOfBytes": "32"
					},
					"t_struct(Person)170_storage": {
						"encoding": "inplace",
						"label": "struct test.Person",
						"members": [
							{
								"astId": 167,
								"contract": "solidity.sol:test",
								"label": "name",
								"offset": 0,
								"slot": "0",
								"type": "t_string_storage"
							},
							{
								"astId": 169,
								"contract": "solidity.sol:test",
								"label": "id",
								"offset": 0,
								"slot": "1",
								"type": "t_uint256"
							}
						],
						"numberOfBytes": "64"
					},
					"t_uint16": {
						"encoding": "inplace",
						"label": "uint16",
						"numberOfBytes": "2"
					},
					"t_uint256": {
						"encoding": "inplace",
						"label": "uint256",
						"numberOfBytes": "32"
					},
					"t_uint32": {
						"encoding": "inplace",
						"label": "uint32",
						"numberOfBytes": "4"
					}
				}
			},
			"userdoc": {
				"kind": "user",
				"methods": {},
				"version": 1
			}
		}
	}
}