{
	"solidity.sol": {
		"testSup": {
			"abi": [
				{
					"inputs": [
						{
							"internalType": "address",
							"name": "_addr",
							"type": "address"
						}
					],
					"stateMutability": "nonpayable",
					"type": "constructor"
				},
				{
					"inputs": [],
					"name": "callContrato",
					"outputs": [
						{
							"internalType": "int8",
							"name": "",
							"type": "int8"
						},
						{
							"internalType": "int8",
							"name": "",
							"type": "int8"
						}
					],
					"stateMutability": "view",
					"type": "function"
				}
			],
			"devdoc": {
				"kind": "dev",
				"methods": {},
				"version": 1
			},
			"evm": {
				"assembly": "    /* \"solidity.sol\":7475:7699  contract testSup{... */\n  mstore(0x40, 0x80)\n    /* \"solidity.sol\":7520:7585  constructor(address _addr){... */\n  callvalue\n  dup1\n  iszero\n  tag_1\n  jumpi\n  revert(0x00, 0x00)\ntag_1:\n  pop\n  mload(0x40)\n  sub(codesize, bytecodeSize)\n  dup1\n  bytecodeSize\n  dup4\n  codecopy\n  dup2\n  dup2\n  add\n  0x40\n  mstore\n  dup2\n  add\n  swap1\n  tag_2\n  swap2\n  swap1\n  tag_3\n  jump\t// in\ntag_2:\n    /* \"solidity.sol\":7571:7576  _addr */\n  dup1\n    /* \"solidity.sol\":7557:7565  contrato */\n  0x00\n  0x00\n    /* \"solidity.sol\":7557:7577  contrato=test(_addr) */\n  0x0100\n  exp\n  dup2\n  sload\n  dup2\n  0xffffffffffffffffffffffffffffffffffffffff\n  mul\n  not\n  and\n  swap1\n  dup4\n  0xffffffffffffffffffffffffffffffffffffffff\n  and\n  mul\n  or\n  swap1\n  sstore\n  pop\n    /* \"solidity.sol\":7520:7585  constructor(address _addr){... */\n  pop\n    /* \"solidity.sol\":7475:7699  contract testSup{... */\n  jump(tag_6)\n    /* \"#utility.yul\":88:205   */\ntag_8:\n    /* \"#utility.yul\":197:198   */\n  0x00\n    /* \"#utility.yul\":194:195   */\n  0x00\n    /* \"#utility.yul\":187:199   */\n  revert\n    /* \"#utility.yul\":334:460   */\ntag_10:\n    /* \"#utility.yul\":371:378   */\n  0x00\n    /* \"#utility.yul\":411:453   */\n  0xffffffffffffffffffffffffffffffffffffffff\n    /* \"#utility.yul\":404:409   */\n  dup3\n    /* \"#utility.yul\":400:454   */\n  and\n    /* \"#utility.yul\":389:454   */\n  swap1\n  pop\n    /* \"#utility.yul\":334:460   */\n  swap2\n  swap1\n  pop\n  jump\t// out\n    /* \"#utility.yul\":466:562   */\ntag_11:\n    /* \"#utility.yul\":503:510   */\n  0x00\n    /* \"#utility.yul\":532:556   */\n  tag_20\n    /* \"#utility.yul\":550:555   */\n  dup3\n    /* \"#utility.yul\":532:556   */\n  tag_10\n  jump\t// in\ntag_20:\n    /* \"#utility.yul\":521:556   */\n  swap1\n  pop\n    /* \"#utility.yul\":466:562   */\n  swap2\n  swap1\n  pop\n  jump\t// out\n    /* \"#utility.yul\":568:690   */\ntag_12:\n    /* \"#utility.yul\":641:665   */\n  tag_22\n    /* \"#utility.yul\":659:664   */\n  dup2\n    /* \"#utility.yul\":641:665   */\n  tag_11\n  jump\t// in\ntag_22:\n    /* \"#utility.yul\":634:639   */\n  dup2\n    /* \"#utility.yul\":631:666   */\n  eq\n    /* \"#utility.yul\":621:684   */\n  tag_23\n  jumpi\n    /* \"#utility.yul\":680:681   */\n  0x00\n    /* \"#utility.yul\":677:678   */\n  0x00\n    /* \"#utility.yul\":670:682   */\n  revert\n    /* \"#utility.yul\":621:684   */\ntag_23:\n    /* \"#utility.yul\":568:690   */\n  pop\n  jump\t// out\n    /* \"#utility.yul\":696:839   */\ntag_13:\n    /* \"#utility.yul\":753:758   */\n  0x00\n    /* \"#utility.yul\":784:790   */\n  dup2\n    /* \"#utility.yul\":778:791   */\n  mload\n    /* \"#utility.yul\":769:791   */\n  swap1\n  pop\n    /* \"#utility.yul\":800:833   */\n  tag_25\n    /* \"#utility.yul\":827:832   */\n  dup2\n    /* \"#utility.yul\":800:833   */\n  tag_12\n  jump\t// in\ntag_25:\n    /* \"#utility.yul\":696:839   */\n  swap3\n  swap2\n  pop\n  pop\n  jump\t// out\n    /* \"#utility.yul\":845:1196   */\ntag_3:\n    /* \"#utility.yul\":915:921   */\n  0x00\n    /* \"#utility.yul\":964:966   */\n  0x20\n    /* \"#utility.yul\":952:961   */\n  dup3\n    /* \"#utility.yul\":943:950   */\n  dup5\n    /* \"#utility.yul\":939:962   */\n  sub\n    /* \"#utility.yul\":935:967   */\n  slt\n    /* \"#utility.yul\":932:1051   */\n  iszero\n  tag_27\n  jumpi\n    /* \"#utility.yul\":970:1049   */\n  tag_28\n  tag_8\n  jump\t// in\ntag_28:\n    /* \"#utility.yul\":932:1051   */\ntag_27:\n    /* \"#utility.yul\":1090:1091   */\n  0x00\n    /* \"#utility.yul\":1115:1179   */\n  tag_29\n    /* \"#utility.yul\":1171:1178   */\n  dup5\n    /* \"#utility.yul\":1162:1168   */\n  dup3\n    /* \"#utility.yul\":1151:1160   */\n  dup6\n    /* \"#utility.yul\":1147:1169   */\n  add\n    /* \"#utility.yul\":1115:1179   */\n  tag_13\n  jump\t// in\ntag_29:\n    /* \"#utility.yul\":1105:1179   */\n  swap2\n  pop\n    /* \"#utility.yul\":1061:1189   */\n  pop\n    /* \"#utility.yul\":845:1196   */\n  swap3\n  swap2\n  pop\n  pop\n  jump\t// out\n    /* \"solidity.sol\":7475:7699  contract testSup{... */\ntag_6:\n  dataSize(sub_0)\n  dup1\n  dataOffset(sub_0)\n  0x00\n  codecopy\n  0x00\n  return\nstop\n\nsub_0: assembly {\n        /* \"solidity.sol\":7475:7699  contract testSup{... */\n      mstore(0x40, 0x80)\n      callvalue\n      dup1\n      iszero\n      tag_1\n      jumpi\n      revert(0x00, 0x00)\n    tag_1:\n      pop\n      jumpi(tag_2, lt(calldatasize, 0x04))\n      shr(0xe0, calldataload(0x00))\n      dup1\n      0xd9b77650\n      eq\n      tag_3\n      jumpi\n    tag_2:\n      revert(0x00, 0x00)\n        /* \"solidity.sol\":7593:7696  function callContrato() external view returns(int8, int8){... */\n    tag_3:\n      tag_4\n      tag_5\n      jump\t// in\n    tag_4:\n      mload(0x40)\n      tag_6\n      swap3\n      swap2\n      swap1\n      tag_7\n      jump\t// in\n    tag_6:\n      mload(0x40)\n      dup1\n      swap2\n      sub\n      swap1\n      return\n    tag_5:\n        /* \"solidity.sol\":7639:7643  int8 */\n      0x00\n        /* \"solidity.sol\":7645:7649  int8 */\n      0x00\n        /* \"solidity.sol\":7668:7676  contrato */\n      0x00\n      0x00\n      swap1\n      sload\n      swap1\n      0x0100\n      exp\n      swap1\n      div\n      0xffffffffffffffffffffffffffffffffffffffff\n      and\n        /* \"solidity.sol\":7668:7686  contrato.intLimits */\n      0xffffffffffffffffffffffffffffffffffffffff\n      and\n      0xcb737b50\n        /* \"solidity.sol\":7668:7688  contrato.intLimits() */\n      mload(0x40)\n      dup2\n      0xffffffff\n      and\n      0xe0\n      shl\n      dup2\n      mstore\n      0x04\n      add\n      0x40\n      dup1\n      mload\n      dup1\n      dup4\n      sub\n      dup2\n      dup7\n      gas\n      staticcall\n      iszero\n      dup1\n      iszero\n      tag_10\n      jumpi\n      returndatacopy(0x00, 0x00, returndatasize)\n      revert(0x00, returndatasize)\n    tag_10:\n      pop\n      pop\n      pop\n      pop\n      mload(0x40)\n      returndatasize\n      not(0x1f)\n      0x1f\n      dup3\n      add\n      and\n      dup3\n      add\n      dup1\n      0x40\n      mstore\n      pop\n      dup2\n      add\n      swap1\n      tag_11\n      swap2\n      swap1\n      tag_12\n      jump\t// in\n    tag_11:\n        /* \"solidity.sol\":7661:7688  return contrato.intLimits() */\n      swap2\n      pop\n      swap2\n      pop\n        /* \"solidity.sol\":7593:7696  function callContrato() external view returns(int8, int8){... */\n      swap1\n      swap2\n      jump\t// out\n        /* \"#utility.yul\":7:96   */\n    tag_13:\n        /* \"#utility.yul\":41:48   */\n      0x00\n        /* \"#utility.yul\":84:89   */\n      dup2\n        /* \"#utility.yul\":81:82   */\n      0x00\n        /* \"#utility.yul\":70:90   */\n      signextend\n        /* \"#utility.yul\":59:90   */\n      swap1\n      pop\n        /* \"#utility.yul\":7:96   */\n      swap2\n      swap1\n      pop\n      jump\t// out\n        /* \"#utility.yul\":102:211   */\n    tag_14:\n        /* \"#utility.yul\":183:204   */\n      tag_23\n        /* \"#utility.yul\":198:203   */\n      dup2\n        /* \"#utility.yul\":183:204   */\n      tag_13\n      jump\t// in\n    tag_23:\n        /* \"#utility.yul\":178:181   */\n      dup3\n        /* \"#utility.yul\":171:205   */\n      mstore\n        /* \"#utility.yul\":102:211   */\n      pop\n      pop\n      jump\t// out\n        /* \"#utility.yul\":217:525   */\n    tag_7:\n        /* \"#utility.yul\":326:330   */\n      0x00\n        /* \"#utility.yul\":364:366   */\n      0x40\n        /* \"#utility.yul\":353:362   */\n      dup3\n        /* \"#utility.yul\":349:367   */\n      add\n        /* \"#utility.yul\":341:367   */\n      swap1\n      pop\n        /* \"#utility.yul\":377:442   */\n      tag_25\n        /* \"#utility.yul\":439:440   */\n      0x00\n        /* \"#utility.yul\":428:437   */\n      dup4\n        /* \"#utility.yul\":424:441   */\n      add\n        /* \"#utility.yul\":415:421   */\n      dup6\n        /* \"#utility.yul\":377:442   */\n      tag_14\n      jump\t// in\n    tag_25:\n        /* \"#utility.yul\":452:518   */\n      tag_26\n        /* \"#utility.yul\":514:516   */\n      0x20\n        /* \"#utility.yul\":503:512   */\n      dup4\n        /* \"#utility.yul\":499:517   */\n      add\n        /* \"#utility.yul\":490:496   */\n      dup5\n        /* \"#utility.yul\":452:518   */\n      tag_14\n      jump\t// in\n    tag_26:\n        /* \"#utility.yul\":217:525   */\n      swap4\n      swap3\n      pop\n      pop\n      pop\n      jump\t// out\n        /* \"#utility.yul\":612:729   */\n    tag_16:\n        /* \"#utility.yul\":721:722   */\n      0x00\n        /* \"#utility.yul\":718:719   */\n      0x00\n        /* \"#utility.yul\":711:723   */\n      revert\n        /* \"#utility.yul\":858:974   */\n    tag_18:\n        /* \"#utility.yul\":928:949   */\n      tag_31\n        /* \"#utility.yul\":943:948   */\n      dup2\n        /* \"#utility.yul\":928:949   */\n      tag_13\n      jump\t// in\n    tag_31:\n        /* \"#utility.yul\":921:926   */\n      dup2\n        /* \"#utility.yul\":918:950   */\n      eq\n        /* \"#utility.yul\":908:968   */\n      tag_32\n      jumpi\n        /* \"#utility.yul\":964:965   */\n      0x00\n        /* \"#utility.yul\":961:962   */\n      0x00\n        /* \"#utility.yul\":954:966   */\n      revert\n        /* \"#utility.yul\":908:968   */\n    tag_32:\n        /* \"#utility.yul\":858:974   */\n      pop\n      jump\t// out\n        /* \"#utility.yul\":980:1117   */\n    tag_19:\n        /* \"#utility.yul\":1034:1039   */\n      0x00\n        /* \"#utility.yul\":1065:1071   */\n      dup2\n        /* \"#utility.yul\":1059:1072   */\n      mload\n        /* \"#utility.yul\":1050:1072   */\n      swap1\n      pop\n        /* \"#utility.yul\":1081:1111   */\n      tag_34\n        /* \"#utility.yul\":1105:1110   */\n      dup2\n        /* \"#utility.yul\":1081:1111   */\n      tag_18\n      jump\t// in\n    tag_34:\n        /* \"#utility.yul\":980:1117   */\n      swap3\n      swap2\n      pop\n      pop\n      jump\t// out\n        /* \"#utility.yul\":1123:1618   */\n    tag_12:\n        /* \"#utility.yul\":1196:1202   */\n      0x00\n        /* \"#utility.yul\":1204:1210   */\n      0x00\n        /* \"#utility.yul\":1253:1255   */\n      0x40\n        /* \"#utility.yul\":1241:1250   */\n      dup4\n        /* \"#utility.yul\":1232:1239   */\n      dup6\n        /* \"#utility.yul\":1228:1251   */\n      sub\n        /* \"#utility.yul\":1224:1256   */\n      slt\n        /* \"#utility.yul\":1221:1340   */\n      iszero\n      tag_36\n      jumpi\n        /* \"#utility.yul\":1259:1338   */\n      tag_37\n      tag_16\n      jump\t// in\n    tag_37:\n        /* \"#utility.yul\":1221:1340   */\n    tag_36:\n        /* \"#utility.yul\":1379:1380   */\n      0x00\n        /* \"#utility.yul\":1404:1465   */\n      tag_38\n        /* \"#utility.yul\":1457:1464   */\n      dup6\n        /* \"#utility.yul\":1448:1454   */\n      dup3\n        /* \"#utility.yul\":1437:1446   */\n      dup7\n        /* \"#utility.yul\":1433:1455   */\n      add\n        /* \"#utility.yul\":1404:1465   */\n      tag_19\n      jump\t// in\n    tag_38:\n        /* \"#utility.yul\":1394:1465   */\n      swap3\n      pop\n        /* \"#utility.yul\":1350:1475   */\n      pop\n        /* \"#utility.yul\":1514:1516   */\n      0x20\n        /* \"#utility.yul\":1540:1601   */\n      tag_39\n        /* \"#utility.yul\":1593:1600   */\n      dup6\n        /* \"#utility.yul\":1584:1590   */\n      dup3\n        /* \"#utility.yul\":1573:1582   */\n      dup7\n        /* \"#utility.yul\":1569:1591   */\n      add\n        /* \"#utility.yul\":1540:1601   */\n      tag_19\n      jump\t// in\n    tag_39:\n        /* \"#utility.yul\":1530:1601   */\n      swap2\n      pop\n        /* \"#utility.yul\":1485:1611   */\n      pop\n        /* \"#utility.yul\":1123:1618   */\n      swap3\n      pop\n      swap3\n      swap1\n      pop\n      jump\t// out\n\n    auxdata: 0xa2646970667358221220831d9a80e970abe3f80fd7c4648d6537dcf4c4b242749da8afb2ddd890a53a1364736f6c634300081e0033\n}\n",
				"bytecode": {
					"linkReferences": {},
					"object": "608060405234801561000f575f5ffd5b506040516102d13803806102d1833981810160405281019061003191906100d4565b805f5f6101000a81548173ffffffffffffffffffffffffffffffffffffffff021916908373ffffffffffffffffffffffffffffffffffffffff160217905550506100ff565b5f5ffd5b5f73ffffffffffffffffffffffffffffffffffffffff82169050919050565b5f6100a38261007a565b9050919050565b6100b381610099565b81146100bd575f5ffd5b50565b5f815190506100ce816100aa565b92915050565b5f602082840312156100e9576100e8610076565b5b5f6100f6848285016100c0565b91505092915050565b6101c58061010c5f395ff3fe608060405234801561000f575f5ffd5b5060043610610029575f3560e01c8063d9b776501461002d575b5f5ffd5b61003561004c565b6040516100439291906100fc565b60405180910390f35b5f5f5f5f9054906101000a900473ffffffffffffffffffffffffffffffffffffffff1673ffffffffffffffffffffffffffffffffffffffff1663cb737b506040518163ffffffff1660e01b81526004016040805180830381865afa1580156100b6573d5f5f3e3d5ffd5b505050506040513d601f19601f820116820180604052508101906100da9190610151565b915091509091565b5f815f0b9050919050565b6100f6816100e2565b82525050565b5f60408201905061010f5f8301856100ed565b61011c60208301846100ed565b9392505050565b5f5ffd5b610130816100e2565b811461013a575f5ffd5b50565b5f8151905061014b81610127565b92915050565b5f5f6040838503121561016757610166610123565b5b5f6101748582860161013d565b92505060206101858582860161013d565b915050925092905056fea2646970667358221220831d9a80e970abe3f80fd7c4648d6537dcf4c4b242749da8afb2ddd890a53a1364736f6c634300081e0033",
					"opcodes": "PUSH1 0x80 PUSH1 0x40 MSTORE CALLVALUE DUP1 ISZERO PUSH2 0xF JUMPI PUSH0 PUSH0 REVERT JUMPDEST POP PUSH1 0x40 MLOAD PUSH2 0x2D1 CODESIZE SUB DUP1 PUSH2 0x2D1 DUP4 CODECOPY DUP2 DUP2 ADD PUSH1 0x40 MSTORE DUP2 ADD SWAP1 PUSH2 0x31 SWAP2 SWAP1 PUSH2 0xD4 JUMP JUMPDEST DUP1 PUSH0 PUSH0 PUSH2 0x100 EXP DUP2 SLOAD DUP2 PUSH20 0xFFFFFFFFFFFFFFFFFFFFFFFFFFFFFFFFFFFFFFFF MUL NOT AND SWAP1 DUP4 PUSH20 0xFFFFFFFFFFFFFFFFFFFFFFFFFFFFFFFFFFFFFFFF AND MUL OR SWAP1 SSTORE POP POP PUSH2 0xFF JUMP JUMPDEST PUSH0 PUSH0 REVERT JUMPDEST PUSH0 PUSH20 0xFFFFFFFFFFFFFFFFFFFFFFFFFFFFFFFFFFFFFFFF DUP3 AND SWAP1 POP SWAP2 SWAP1 POP JUMP JUMPDEST PUSH0 PUSH2 0xA3 DUP3 PUSH2 0x7A JUMP JUMPDEST SWAP1 POP SWAP2 SWAP1 POP JUMP JUMPDEST PUSH2 0xB3 DUP2 PUSH2 0x99 JUMP JUMPDEST DUP2 EQ PUSH2 0xBD JUMPI PUSH0 PUSH0 REVERT JUMPDEST POP JUMP JUMPDEST PUSH0 DUP2 MLOAD SWAP1 POP PUSH2 0xCE DUP2 PUSH2 0xAA JUMP JUMPDEST SWAP3 SWAP2 POP POP JUMP JUMPDEST PUSH0 PUSH1 0x20 DUP3 DUP5 SUB SLT ISZERO PUSH2 0xE9 JUMPI PUSH2 0xE8 PUSH2 0x76 JUMP JUMPDEST JUMPDEST PUSH0 PUSH2 0xF6 DUP5 DUP3 DUP6 ADD PUSH2 0xC0 JUMP JUMPDEST SWAP2 POP POP SWAP3 SWAP2 POP POP JUMP JUMPDEST PUSH2 0x1C5 DUP1 PUSH2 0x10C PUSH0 CODECOPY PUSH0 RETURN INVALID PUSH1 0x80 PUSH1 0x40 MSTORE CALLVALUE DUP1 ISZERO PUSH2 0xF JUMPI PUSH0 PUSH0 REVERT JUMPDEST POP PUSH1 0x4 CALLDATASIZE LT PUSH2 0x29 JUMPI PUSH0 CALLDATALOAD PUSH1 0xE0 SHR DUP1 PUSH4 0xD9B77650 EQ PUSH2 0x2D JUMPI JUMPDEST PUSH0 PUSH0 REVERT JUMPDEST PUSH2 0x35 PUSH2 0x4C JUMP JUMPDEST PUSH1 0x40 MLOAD PUSH2 0x43 SWAP3 SWAP2 SWAP1 PUSH2 0xFC JUMP JUMPDEST PUSH1 0x40 MLOAD DUP1 SWAP2 SUB SWAP1 RETURN JUMPDEST PUSH0 PUSH0 PUSH0 PUSH0 SWAP1 SLOAD SWAP1 PUSH2 0x100 EXP SWAP1 DIV PUSH20 0xFFFFFFFFFFFFFFFFFFFFFFFFFFFFFFFFFFFFFFFF AND PUSH20 0xFFFFFFFFFFFFFFFFFFFFFFFFFFFFFFFFFFFFFFFF AND PUSH4 0xCB737B50 PUSH1 0x40 MLOAD DUP2 PUSH4 0xFFFFFFFF AND PUSH1 0xE0 SHL DUP2 MSTORE PUSH1 0x4 ADD PUSH1 0x40 DUP1 MLOAD DUP1 DUP4 SUB DUP2 DUP7 GAS STATICCALL ISZERO DUP1 ISZERO PUSH2 0xB6 JUMPI RETURNDATASIZE PUSH0 PUSH0 RETURNDATACOPY RETURNDATASIZE PUSH0 REVERT JUMPDEST POP POP POP POP PUSH1 0x40 MLOAD RETURNDATASIZE PUSH1 0x1F NOT PUSH1 0x1F DUP3 ADD AND DUP3 ADD DUP1 PUSH1 0x40 MSTORE POP DUP2 ADD SWAP1 PUSH2 0xDA SWAP2 SWAP1 PUSH2 0x151 JUMP JUMPDEST SWAP2 POP SWAP2 POP SWAP1 SWAP2 JUMP JUMPDEST PUSH0 DUP2 PUSH0 SIGNEXTEND SWAP1 POP SWAP2 SWAP1 POP JUMP JUMPDEST PUSH2 0xF6 DUP2 PUSH2 0xE2 JUMP JUMPDEST DUP3 MSTORE POP POP JUMP JUMPDEST PUSH0 PUSH1 0x40 DUP3 ADD SWAP1 POP PUSH2 0x10F PUSH0 DUP4 ADD DUP6 PUSH2 0xED JUMP JUMPDEST PUSH2 0x11C PUSH1 0x20 DUP4 ADD DUP5 PUSH2 0xED JUMP JUMPDEST SWAP4 SWAP3 POP POP POP JUMP JUMPDEST PUSH0 PUSH0 REVERT JUMPDEST PUSH2 0x130 DUP2 PUSH2 0xE2 JUMP JUMPDEST DUP2 EQ PUSH2 0x13A JUMPI PUSH0 PUSH0 REVERT JUMPDEST POP JUMP JUMPDEST PUSH0 DUP2 MLOAD SWAP1 POP PUSH2 0x14B DUP2 PUSH2 0x127 JUMP JUMPDEST SWAP3 SWAP2 POP POP JUMP JUMPDEST PUSH0 PUSH0 PUSH1 0x40 DUP4 DUP6 SUB SLT ISZERO PUSH2 0x167 JUMPI PUSH2 0x166 PUSH2 0x123 JUMP JUMPDEST JUMPDEST PUSH0 PUSH2 0x174 DUP6 DUP3 DUP7 ADD PUSH2 0x13D JUMP JUMPDEST SWAP3 POP POP PUSH1 0x20 PUSH2 0x185 DUP6 DUP3 DUP7 ADD PUSH2 0x13D JUMP JUMPDEST SWAP2 POP POP SWAP3 POP SWAP3 SWAP1 POP JUMP INVALID LOG2 PUSH5 0x6970667358 0x22 SLT KECCAK256 DUP4 SAR SWAP11 DUP1 0xE9 PUSH17 0xABE3F80FD7C4648D6537DCF4C4B242749D 0xA8 0xAF 0xB2 0xDD 0xD8 SWAP1 0xA5 GASPRICE SGT PUSH5 0x736F6C6343 STOP ADDMOD 0x1E STOP CALLER "
				},
				"gasEstimates": {
					"creation": {
						"codeDepositCost": "90600",
						"executionCost": "infinite",
						"totalCost": "infinite"
					},
					"external": {
						"callContrato()": "infinite"
					}
				},
				"methodIdentifiers": {
					"callContrato()": "d9b77650"
				}
			},
			"storageLayout": {
				"storage": [
					{
						"astId": 611,
						"contract": "solidity.sol:testSup",
						"label": "contrato",
						"offset": 0,
						"slot": "0",
						"type": "t_contract(test)608"
					}
				],
				"types": {
					"t_contract(test)608": {
						"encoding": "inplace",
						"label": "contract test",
						"numberOfBytes": "20"
					}
				}
			},
			"userdoc": {
				"kind": "user",
				"methods": {},
				"version": 1
			}
		}
	}
}