{
	"Donations.sol": {
		"Donations": {
			"abi": [
				{
					"inputs": [
						{
							"internalType": "address",
							"name": "_beneficiary",
							"type": "address"
						}
					],
					"stateMutability": "nonpayable",
					"type": "constructor"
				},
				{
					"inputs": [
						{
							"internalType": "bytes",
							"name": "reason",
							"type": "bytes"
						}
					],
					"name": "TransactionFailed",
					"type": "error"
				},
				{
					"inputs": [
						{
							"internalType": "address",
							"name": "caller",
							"type": "address"
						},
						{
							"internalType": "address",
							"name": "BENEFICIEARY",
							"type": "address"
						}
					],
					"name": "UnauthorizedWithdrawer",
					"type": "error"
				},
				{
					"anonymous": false,
					"inputs": [
						{
							"indexed": false,
							"internalType": "address",
							"name": "sender",
							"type": "address"
						},
						{
							"indexed": false,
							"internalType": "uint256",
							"name": "amount",
							"type": "uint256"
						}
					],
					"name": "DonationReceived",
					"type": "event"
				},
				{
					"anonymous": false,
					"inputs": [
						{
							"indexed": false,
							"internalType": "address",
							"name": "BENEFICIEARY",
							"type": "address"
						},
						{
							"indexed": false,
							"internalType": "uint256",
							"name": "amount",
							"type": "uint256"
						}
					],
					"name": "WithdrawalPerformed",
					"type": "event"
				},
				{
					"stateMutability": "payable",
					"type": "fallback"
				},
				{
					"inputs": [],
					"name": "BENEFICIARY",
					"outputs": [
						{
							"internalType": "address",
							"name": "",
							"type": "address"
						}
					],
					"stateMutability": "view",
					"type": "function"
				},
				{
					"inputs": [],
					"name": "BENEFICIARY2",
					"outputs": [
						{
							"internalType": "address",
							"name": "",
							"type": "address"
						}
					],
					"stateMutability": "view",
					"type": "function"
				},
				{
					"inputs": [],
					"name": "donate",
					"outputs": [],
					"stateMutability": "payable",
					"type": "function"
				},
				{
					"inputs": [
						{
							"internalType": "address",
							"name": "",
							"type": "address"
						}
					],
					"name": "donations",
					"outputs": [
						{
							"internalType": "uint256",
							"name": "",
							"type": "uint256"
						}
					],
					"stateMutability": "view",
					"type": "function"
				},
				{
					"inputs": [],
					"name": "withdraw",
					"outputs": [
						{
							"internalType": "bytes",
							"name": "data",
							"type": "bytes"
						}
					],
					"stateMutability": "nonpayable",
					"type": "function"
				},
				{
					"stateMutability": "payable",
					"type": "receive"
				}
			],
			"devdoc": {
				"kind": "dev",
				"methods": {},
				"version": 1
			},
			"evm": {
				"assembly": "    /* \"Donations.sol\":61:1771  contract Donations {... */\n  mstore(0x40, 0xa0)\n    /* \"Donations.sol\":747:826  constructor(address _beneficiary) {... */\n  callvalue\n  dup1\n  iszero\n  tag_1\n  jumpi\n  revert(0x00, 0x00)\ntag_1:\n  pop\n  mload(0x40)\n  sub(codesize, bytecodeSize)\n  dup1\n  bytecodeSize\n  dup4\n  codecopy\n  dup2\n  dup2\n  add\n  0x40\n  mstore\n  dup2\n  add\n  swap1\n  tag_2\n  swap2\n  swap1\n  tag_3\n  jump\t// in\ntag_2:\n    /* \"Donations.sol\":806:818  _beneficiary */\n  dup1\n    /* \"Donations.sol\":792:818  BENEFICIARY = _beneficiary */\n  0xffffffffffffffffffffffffffffffffffffffff\n  and\n  0x80\n  dup2\n  0xffffffffffffffffffffffffffffffffffffffff\n  and\n  dup2\n  mstore\n  pop\n  pop\n    /* \"Donations.sol\":747:826  constructor(address _beneficiary) {... */\n  pop\n    /* \"Donations.sol\":61:1771  contract Donations {... */\n  jump(tag_6)\n    /* \"#utility.yul\":88:205   */\ntag_8:\n    /* \"#utility.yul\":197:198   */\n  0x00\n    /* \"#utility.yul\":194:195   */\n  0x00\n    /* \"#utility.yul\":187:199   */\n  revert\n    /* \"#utility.yul\":334:460   */\ntag_10:\n    /* \"#utility.yul\":371:378   */\n  0x00\n    /* \"#utility.yul\":411:453   */\n  0xffffffffffffffffffffffffffffffffffffffff\n    /* \"#utility.yul\":404:409   */\n  dup3\n    /* \"#utility.yul\":400:454   */\n  and\n    /* \"#utility.yul\":389:454   */\n  swap1\n  pop\n    /* \"#utility.yul\":334:460   */\n  swap2\n  swap1\n  pop\n  jump\t// out\n    /* \"#utility.yul\":466:562   */\ntag_11:\n    /* \"#utility.yul\":503:510   */\n  0x00\n    /* \"#utility.yul\":532:556   */\n  tag_20\n    /* \"#utility.yul\":550:555   */\n  dup3\n    /* \"#utility.yul\":532:556   */\n  tag_10\n  jump\t// in\ntag_20:\n    /* \"#utility.yul\":521:556   */\n  swap1\n  pop\n    /* \"#utility.yul\":466:562   */\n  swap2\n  swap1\n  pop\n  jump\t// out\n    /* \"#utility.yul\":568:690   */\ntag_12:\n    /* \"#utility.yul\":641:665   */\n  tag_22\n    /* \"#utility.yul\":659:664   */\n  dup2\n    /* \"#utility.yul\":641:665   */\n  tag_11\n  jump\t// in\ntag_22:\n    /* \"#utility.yul\":634:639   */\n  dup2\n    /* \"#utility.yul\":631:666   */\n  eq\n    /* \"#utility.yul\":621:684   */\n  tag_23\n  jumpi\n    /* \"#utility.yul\":680:681   */\n  0x00\n    /* \"#utility.yul\":677:678   */\n  0x00\n    /* \"#utility.yul\":670:682   */\n  revert\n    /* \"#utility.yul\":621:684   */\ntag_23:\n    /* \"#utility.yul\":568:690   */\n  pop\n  jump\t// out\n    /* \"#utility.yul\":696:839   */\ntag_13:\n    /* \"#utility.yul\":753:758   */\n  0x00\n    /* \"#utility.yul\":784:790   */\n  dup2\n    /* \"#utility.yul\":778:791   */\n  mload\n    /* \"#utility.yul\":769:791   */\n  swap1\n  pop\n    /* \"#utility.yul\":800:833   */\n  tag_25\n    /* \"#utility.yul\":827:832   */\n  dup2\n    /* \"#utility.yul\":800:833   */\n  tag_12\n  jump\t// in\ntag_25:\n    /* \"#utility.yul\":696:839   */\n  swap3\n  swap2\n  pop\n  pop\n  jump\t// out\n    /* \"#utility.yul\":845:1196   */\ntag_3:\n    /* \"#utility.yul\":915:921   */\n  0x00\n    /* \"#utility.yul\":964:966   */\n  0x20\n    /* \"#utility.yul\":952:961   */\n  dup3\n    /* \"#utility.yul\":943:950   */\n  dup5\n    /* \"#utility.yul\":939:962   */\n  sub\n    /* \"#utility.yul\":935:967   */\n  slt\n    /* \"#utility.yul\":932:1051   */\n  iszero\n  tag_27\n  jumpi\n    /* \"#utility.yul\":970:1049   */\n  tag_28\n  tag_8\n  jump\t// in\ntag_28:\n    /* \"#utility.yul\":932:1051   */\ntag_27:\n    /* \"#utility.yul\":1090:1091   */\n  0x00\n    /* \"#utility.yul\":1115:1179   */\n  tag_29\n    /* \"#utility.yul\":1171:1178   */\n  dup5\n    /* \"#utility.yul\":1162:1168   */\n  dup3\n    /* \"#utility.yul\":1151:1160   */\n  dup6\n    /* \"#utility.yul\":1147:1169   */\n  add\n    /* \"#utility.yul\":1115:1179   */\n  tag_13\n  jump\t// in\ntag_29:\n    /* \"#utility.yul\":1105:1179   */\n  swap2\n  pop\n    /* \"#utility.yul\":1061:1189   */\n  pop\n    /* \"#utility.yul\":845:1196   */\n  swap3\n  swap2\n  pop\n  pop\n  jump\t// out\n    /* \"Donations.sol\":61:1771  contract Donations {... */\ntag_6:\n  mload(0x80)\n  codecopy(0x00, dataOffset(sub_0), dataSize(sub_0))\n  0x00\n  assignImmutable(\"0x2a80e1ef1d7842f27f2e6be0972bb708b9a135c38860dbe73c27c3486c34f4de\")\n  return(0x00, dataSize(sub_0))\nstop\n\nsub_0: assembly {\n        /* \"Donations.sol\":61:1771  contract Donations {... */\n      mstore(0x40, 0x80)\n      jumpi(tag_1, lt(calldatasize, 0x04))\n      shr(0xe0, calldataload(0x00))\n      dup1\n      0x2f99c6cc\n      eq\n      tag_3\n      jumpi\n      dup1\n      0x3ccfd60b\n      eq\n      tag_4\n      jumpi\n      dup1\n      0x6904df83\n      eq\n      tag_5\n      jumpi\n      dup1\n      0xcc6cb19a\n      eq\n      tag_6\n      jumpi\n      dup1\n      0xed88c68e\n      eq\n      tag_7\n      jumpi\n      jump(tag_2)\n    tag_1:\n      jumpi(tag_2, calldatasize)\n        /* \"Donations.sol\":897:906  msg.value */\n      callvalue\n        /* \"Donations.sol\":872:881  donations */\n      0x00\n        /* \"Donations.sol\":872:893  donations[msg.sender] */\n      0x00\n        /* \"Donations.sol\":882:892  msg.sender */\n      caller\n        /* \"Donations.sol\":872:893  donations[msg.sender] */\n      0xffffffffffffffffffffffffffffffffffffffff\n      and\n      0xffffffffffffffffffffffffffffffffffffffff\n      and\n      dup2\n      mstore\n      0x20\n      add\n      swap1\n      dup2\n      mstore\n      0x20\n      add\n      0x00\n      keccak256\n      0x00\n        /* \"Donations.sol\":872:906  donations[msg.sender] += msg.value */\n      dup3\n      dup3\n      sload\n      tag_10\n      swap2\n      swap1\n      tag_11\n      jump\t// in\n    tag_10:\n      swap3\n      pop\n      pop\n      dup2\n      swap1\n      sstore\n      pop\n        /* \"Donations.sol\":922:961  DonationReceived(msg.sender, msg.value) */\n      0x264f630d9efa0d07053a31163641d9fcc0adafc9d9e76f1c37c2ce3a558d2c52\n        /* \"Donations.sol\":939:949  msg.sender */\n      caller\n        /* \"Donations.sol\":951:960  msg.value */\n      callvalue\n        /* \"Donations.sol\":922:961  DonationReceived(msg.sender, msg.value) */\n      mload(0x40)\n      tag_12\n      swap3\n      swap2\n      swap1\n      tag_13\n      jump\t// in\n    tag_12:\n      mload(0x40)\n      dup1\n      swap2\n      sub\n      swap1\n      log1\n        /* \"Donations.sol\":61:1771  contract Donations {... */\n      stop\n    tag_2:\n        /* \"Donations.sol\":1041:1050  msg.value */\n      callvalue\n        /* \"Donations.sol\":1016:1025  donations */\n      0x00\n        /* \"Donations.sol\":1016:1037  donations[msg.sender] */\n      0x00\n        /* \"Donations.sol\":1026:1036  msg.sender */\n      caller\n        /* \"Donations.sol\":1016:1037  donations[msg.sender] */\n      0xffffffffffffffffffffffffffffffffffffffff\n      and\n      0xffffffffffffffffffffffffffffffffffffffff\n      and\n      dup2\n      mstore\n      0x20\n      add\n      swap1\n      dup2\n      mstore\n      0x20\n      add\n      0x00\n      keccak256\n      0x00\n        /* \"Donations.sol\":1016:1050  donations[msg.sender] += msg.value */\n      dup3\n      dup3\n      sload\n      tag_16\n      swap2\n      swap1\n      tag_11\n      jump\t// in\n    tag_16:\n      swap3\n      pop\n      pop\n      dup2\n      swap1\n      sstore\n      pop\n        /* \"Donations.sol\":1066:1105  DonationReceived(msg.sender, msg.value) */\n      0x264f630d9efa0d07053a31163641d9fcc0adafc9d9e76f1c37c2ce3a558d2c52\n        /* \"Donations.sol\":1083:1093  msg.sender */\n      caller\n        /* \"Donations.sol\":1095:1104  msg.value */\n      callvalue\n        /* \"Donations.sol\":1066:1105  DonationReceived(msg.sender, msg.value) */\n      mload(0x40)\n      tag_17\n      swap3\n      swap2\n      swap1\n      tag_13\n      jump\t// in\n    tag_17:\n      mload(0x40)\n      dup1\n      swap2\n      sub\n      swap1\n      log1\n        /* \"Donations.sol\":61:1771  contract Donations {... */\n      stop\n        /* \"Donations.sol\":87:123  address immutable public BENEFICIARY */\n    tag_3:\n      callvalue\n      dup1\n      iszero\n      tag_18\n      jumpi\n      revert(0x00, 0x00)\n    tag_18:\n      pop\n      tag_19\n      tag_20\n      jump\t// in\n    tag_19:\n      mload(0x40)\n      tag_21\n      swap2\n      swap1\n      tag_22\n      jump\t// in\n    tag_21:\n      mload(0x40)\n      dup1\n      swap2\n      sub\n      swap1\n      return\n        /* \"Donations.sol\":1272:1511  function withdraw() external onlyBeneficiary returns(bytes memory data) {... */\n    tag_4:\n      callvalue\n      dup1\n      iszero\n      tag_23\n      jumpi\n      revert(0x00, 0x00)\n    tag_23:\n      pop\n      tag_24\n      tag_25\n      jump\t// in\n    tag_24:\n      mload(0x40)\n      tag_26\n      swap2\n      swap1\n      tag_27\n      jump\t// in\n    tag_26:\n      mload(0x40)\n      dup1\n      swap2\n      sub\n      swap1\n      return\n        /* \"Donations.sol\":185:275  address constant public BENEFICIARY2 = address(0x5B38Da6a701c568545dCfcB03FcB875f56beddC4) */\n    tag_5:\n      callvalue\n      dup1\n      iszero\n      tag_28\n      jumpi\n      revert(0x00, 0x00)\n    tag_28:\n      pop\n      tag_29\n      tag_30\n      jump\t// in\n    tag_29:\n      mload(0x40)\n      tag_31\n      swap2\n      swap1\n      tag_22\n      jump\t// in\n    tag_31:\n      mload(0x40)\n      dup1\n      swap2\n      sub\n      swap1\n      return\n        /* \"Donations.sol\":282:327  mapping (address => uint256) public donations */\n    tag_6:\n      callvalue\n      dup1\n      iszero\n      tag_32\n      jumpi\n      revert(0x00, 0x00)\n    tag_32:\n      pop\n      tag_33\n      0x04\n      dup1\n      calldatasize\n      sub\n      dup2\n      add\n      swap1\n      tag_34\n      swap2\n      swap1\n      tag_35\n      jump\t// in\n    tag_34:\n      tag_36\n      jump\t// in\n    tag_33:\n      mload(0x40)\n      tag_37\n      swap2\n      swap1\n      tag_38\n      jump\t// in\n    tag_37:\n      mload(0x40)\n      dup1\n      swap2\n      sub\n      swap1\n      return\n        /* \"Donations.sol\":1121:1264  function donate() external payable {... */\n    tag_7:\n      tag_39\n      tag_40\n      jump\t// in\n    tag_39:\n      stop\n        /* \"Donations.sol\":87:123  address immutable public BENEFICIARY */\n    tag_20:\n      immutable(\"0x2a80e1ef1d7842f27f2e6be0972bb708b9a135c38860dbe73c27c3486c34f4de\")\n      dup2\n      jump\t// out\n        /* \"Donations.sol\":1272:1511  function withdraw() external onlyBeneficiary returns(bytes memory data) {... */\n    tag_25:\n        /* \"Donations.sol\":1325:1342  bytes memory data */\n      0x60\n        /* \"Donations.sol\":652:663  BENEFICIARY */\n      immutable(\"0x2a80e1ef1d7842f27f2e6be0972bb708b9a135c38860dbe73c27c3486c34f4de\")\n        /* \"Donations.sol\":638:663  msg.sender != BENEFICIARY */\n      0xffffffffffffffffffffffffffffffffffffffff\n      and\n        /* \"Donations.sol\":638:648  msg.sender */\n      caller\n        /* \"Donations.sol\":638:663  msg.sender != BENEFICIARY */\n      0xffffffffffffffffffffffffffffffffffffffff\n      and\n      eq\n        /* \"Donations.sol\":634:719  if (msg.sender != BENEFICIARY) revert UnauthorizedWithdrawer(msg.sender, BENEFICIARY) */\n      tag_42\n      jumpi\n        /* \"Donations.sol\":695:705  msg.sender */\n      caller\n        /* \"Donations.sol\":707:718  BENEFICIARY */\n      immutable(\"0x2a80e1ef1d7842f27f2e6be0972bb708b9a135c38860dbe73c27c3486c34f4de\")\n        /* \"Donations.sol\":672:719  UnauthorizedWithdrawer(msg.sender, BENEFICIARY) */\n      mload(0x40)\n      0x0f4b2ef200000000000000000000000000000000000000000000000000000000\n      dup2\n      mstore\n      0x04\n      add\n      tag_43\n      swap3\n      swap2\n      swap1\n      tag_44\n      jump\t// in\n    tag_43:\n      mload(0x40)\n      dup1\n      swap2\n      sub\n      swap1\n      revert\n        /* \"Donations.sol\":634:719  if (msg.sender != BENEFICIARY) revert UnauthorizedWithdrawer(msg.sender, BENEFICIARY) */\n    tag_42:\n        /* \"Donations.sol\":1360:1415  WithdrawalPerformed(BENEFICIARY, address(this).balance) */\n      0x76dd79cbf8ed7f926ec5a76c1a1fccccd398e57e1bb03695c75ece7d64d02c36\n        /* \"Donations.sol\":1380:1391  BENEFICIARY */\n      immutable(\"0x2a80e1ef1d7842f27f2e6be0972bb708b9a135c38860dbe73c27c3486c34f4de\")\n        /* \"Donations.sol\":1393:1414  address(this).balance */\n      selfbalance\n        /* \"Donations.sol\":1360:1415  WithdrawalPerformed(BENEFICIARY, address(this).balance) */\n      mload(0x40)\n      tag_46\n      swap3\n      swap2\n      swap1\n      tag_13\n      jump\t// in\n    tag_46:\n      mload(0x40)\n      dup1\n      swap2\n      sub\n      swap1\n      log1\n        /* \"Donations.sol\":1433:1481  _transferEth(BENEFICIARY, address(this).balance) */\n      tag_47\n        /* \"Donations.sol\":1446:1457  BENEFICIARY */\n      immutable(\"0x2a80e1ef1d7842f27f2e6be0972bb708b9a135c38860dbe73c27c3486c34f4de\")\n        /* \"Donations.sol\":1459:1480  address(this).balance */\n      selfbalance\n        /* \"Donations.sol\":1433:1445  _transferEth */\n      tag_48\n        /* \"Donations.sol\":1433:1481  _transferEth(BENEFICIARY, address(this).balance) */\n      jump\t// in\n    tag_47:\n        /* \"Donations.sol\":1426:1481  data = _transferEth(BENEFICIARY, address(this).balance) */\n      swap1\n      pop\n        /* \"Donations.sol\":1272:1511  function withdraw() external onlyBeneficiary returns(bytes memory data) {... */\n      swap1\n      jump\t// out\n        /* \"Donations.sol\":185:275  address constant public BENEFICIARY2 = address(0x5B38Da6a701c568545dCfcB03FcB875f56beddC4) */\n    tag_30:\n        /* \"Donations.sol\":232:274  0x5B38Da6a701c568545dCfcB03FcB875f56beddC4 */\n      0x5b38da6a701c568545dcfcb03fcb875f56beddc4\n        /* \"Donations.sol\":185:275  address constant public BENEFICIARY2 = address(0x5B38Da6a701c568545dCfcB03FcB875f56beddC4) */\n      dup2\n      jump\t// out\n        /* \"Donations.sol\":282:327  mapping (address => uint256) public donations */\n    tag_36:\n      mstore(0x20, 0x00)\n      dup1\n      0x00\n      mstore\n      keccak256(0x00, 0x40)\n      0x00\n      swap2\n      pop\n      swap1\n      pop\n      sload\n      dup2\n      jump\t// out\n        /* \"Donations.sol\":1121:1264  function donate() external payable {... */\n    tag_40:\n        /* \"Donations.sol\":1192:1201  msg.value */\n      callvalue\n        /* \"Donations.sol\":1167:1176  donations */\n      0x00\n        /* \"Donations.sol\":1167:1188  donations[msg.sender] */\n      0x00\n        /* \"Donations.sol\":1177:1187  msg.sender */\n      caller\n        /* \"Donations.sol\":1167:1188  donations[msg.sender] */\n      0xffffffffffffffffffffffffffffffffffffffff\n      and\n      0xffffffffffffffffffffffffffffffffffffffff\n      and\n      dup2\n      mstore\n      0x20\n      add\n      swap1\n      dup2\n      mstore\n      0x20\n      add\n      0x00\n      keccak256\n      0x00\n        /* \"Donations.sol\":1167:1201  donations[msg.sender] += msg.value */\n      dup3\n      dup3\n      sload\n      tag_50\n      swap2\n      swap1\n      tag_11\n      jump\t// in\n    tag_50:\n      swap3\n      pop\n      pop\n      dup2\n      swap1\n      sstore\n      pop\n        /* \"Donations.sol\":1217:1256  DonationReceived(msg.sender, msg.value) */\n      0x264f630d9efa0d07053a31163641d9fcc0adafc9d9e76f1c37c2ce3a558d2c52\n        /* \"Donations.sol\":1234:1244  msg.sender */\n      caller\n        /* \"Donations.sol\":1246:1255  msg.value */\n      callvalue\n        /* \"Donations.sol\":1217:1256  DonationReceived(msg.sender, msg.value) */\n      mload(0x40)\n      tag_51\n      swap3\n      swap2\n      swap1\n      tag_13\n      jump\t// in\n    tag_51:\n      mload(0x40)\n      dup1\n      swap2\n      sub\n      swap1\n      log1\n        /* \"Donations.sol\":1121:1264  function donate() external payable {... */\n      jump\t// out\n        /* \"Donations.sol\":1519:1766  function _transferEth(address to, uint256 amount) private returns (bytes memory) {... */\n    tag_48:\n        /* \"Donations.sol\":1586:1598  bytes memory */\n      0x60\n        /* \"Donations.sol\":1612:1624  bool success */\n      0x00\n        /* \"Donations.sol\":1626:1643  bytes memory data */\n      0x00\n        /* \"Donations.sol\":1647:1649  to */\n      dup5\n        /* \"Donations.sol\":1647:1654  to.call */\n      0xffffffffffffffffffffffffffffffffffffffff\n      and\n        /* \"Donations.sol\":1661:1667  amount */\n      dup5\n        /* \"Donations.sol\":1647:1672  to.call{value:amount}(\"\") */\n      mload(0x40)\n      tag_53\n      swap1\n      tag_54\n      jump\t// in\n    tag_53:\n      0x00\n      mload(0x40)\n      dup1\n      dup4\n      sub\n      dup2\n      dup6\n      dup8\n      gas\n      call\n      swap3\n      pop\n      pop\n      pop\n      returndatasize\n      dup1\n      0x00\n      dup2\n      eq\n      tag_57\n      jumpi\n      mload(0x40)\n      swap2\n      pop\n      and(add(returndatasize, 0x3f), not(0x1f))\n      dup3\n      add\n      0x40\n      mstore\n      returndatasize\n      dup3\n      mstore\n      returndatasize\n      0x00\n      0x20\n      dup5\n      add\n      returndatacopy\n      jump(tag_56)\n    tag_57:\n      0x60\n      swap2\n      pop\n    tag_56:\n      pop\n        /* \"Donations.sol\":1611:1672  (bool success, bytes memory data) = to.call{value:amount}(\"\") */\n      swap2\n      pop\n      swap2\n      pop\n        /* \"Donations.sol\":1688:1695  success */\n      dup2\n        /* \"Donations.sol\":1683:1736  if (!success) revert TransactionFailed(\"call failed\") */\n      tag_58\n      jumpi\n        /* \"Donations.sol\":1704:1736  TransactionFailed(\"call failed\") */\n      mload(0x40)\n      0xfe3c766700000000000000000000000000000000000000000000000000000000\n      dup2\n      mstore\n      0x04\n      add\n      tag_59\n      swap1\n      tag_60\n      jump\t// in\n    tag_59:\n      mload(0x40)\n      dup1\n      swap2\n      sub\n      swap1\n      revert\n        /* \"Donations.sol\":1683:1736  if (!success) revert TransactionFailed(\"call failed\") */\n    tag_58:\n        /* \"Donations.sol\":1754:1758  data */\n      dup1\n        /* \"Donations.sol\":1747:1758  return data */\n      swap3\n      pop\n      pop\n      pop\n        /* \"Donations.sol\":1519:1766  function _transferEth(address to, uint256 amount) private returns (bytes memory) {... */\n      swap3\n      swap2\n      pop\n      pop\n      jump\t// out\n        /* \"#utility.yul\":7:84   */\n    tag_61:\n        /* \"#utility.yul\":44:51   */\n      0x00\n        /* \"#utility.yul\":73:78   */\n      dup2\n        /* \"#utility.yul\":62:78   */\n      swap1\n      pop\n        /* \"#utility.yul\":7:84   */\n      swap2\n      swap1\n      pop\n      jump\t// out\n        /* \"#utility.yul\":90:270   */\n    tag_62:\n        /* \"#utility.yul\":138:215   */\n      0x4e487b7100000000000000000000000000000000000000000000000000000000\n        /* \"#utility.yul\":135:136   */\n      0x00\n        /* \"#utility.yul\":128:216   */\n      mstore\n        /* \"#utility.yul\":235:239   */\n      0x11\n        /* \"#utility.yul\":232:233   */\n      0x04\n        /* \"#utility.yul\":225:240   */\n      mstore\n        /* \"#utility.yul\":259:263   */\n      0x24\n        /* \"#utility.yul\":256:257   */\n      0x00\n        /* \"#utility.yul\":249:264   */\n      revert\n        /* \"#utility.yul\":276:467   */\n    tag_11:\n        /* \"#utility.yul\":316:319   */\n      0x00\n        /* \"#utility.yul\":335:355   */\n      tag_86\n        /* \"#utility.yul\":353:354   */\n      dup3\n        /* \"#utility.yul\":335:355   */\n      tag_61\n      jump\t// in\n    tag_86:\n        /* \"#utility.yul\":330:355   */\n      swap2\n      pop\n        /* \"#utility.yul\":369:389   */\n      tag_87\n        /* \"#utility.yul\":387:388   */\n      dup4\n        /* \"#utility.yul\":369:389   */\n      tag_61\n      jump\t// in\n    tag_87:\n        /* \"#utility.yul\":364:389   */\n      swap3\n      pop\n        /* \"#utility.yul\":412:413   */\n      dup3\n        /* \"#utility.yul\":409:410   */\n      dup3\n        /* \"#utility.yul\":405:414   */\n      add\n        /* \"#utility.yul\":398:414   */\n      swap1\n      pop\n        /* \"#utility.yul\":433:436   */\n      dup1\n        /* \"#utility.yul\":430:431   */\n      dup3\n        /* \"#utility.yul\":427:437   */\n      gt\n        /* \"#utility.yul\":424:460   */\n      iszero\n      tag_88\n      jumpi\n        /* \"#utility.yul\":440:458   */\n      tag_89\n      tag_62\n      jump\t// in\n    tag_89:\n        /* \"#utility.yul\":424:460   */\n    tag_88:\n        /* \"#utility.yul\":276:467   */\n      swap3\n      swap2\n      pop\n      pop\n      jump\t// out\n        /* \"#utility.yul\":473:599   */\n    tag_63:\n        /* \"#utility.yul\":510:517   */\n      0x00\n        /* \"#utility.yul\":550:592   */\n      0xffffffffffffffffffffffffffffffffffffffff\n        /* \"#utility.yul\":543:548   */\n      dup3\n        /* \"#utility.yul\":539:593   */\n      and\n        /* \"#utility.yul\":528:593   */\n      swap1\n      pop\n        /* \"#utility.yul\":473:599   */\n      swap2\n      swap1\n      pop\n      jump\t// out\n        /* \"#utility.yul\":605:701   */\n    tag_64:\n        /* \"#utility.yul\":642:649   */\n      0x00\n        /* \"#utility.yul\":671:695   */\n      tag_92\n        /* \"#utility.yul\":689:694   */\n      dup3\n        /* \"#utility.yul\":671:695   */\n      tag_63\n      jump\t// in\n    tag_92:\n        /* \"#utility.yul\":660:695   */\n      swap1\n      pop\n        /* \"#utility.yul\":605:701   */\n      swap2\n      swap1\n      pop\n      jump\t// out\n        /* \"#utility.yul\":707:825   */\n    tag_65:\n        /* \"#utility.yul\":794:818   */\n      tag_94\n        /* \"#utility.yul\":812:817   */\n      dup2\n        /* \"#utility.yul\":794:818   */\n      tag_64\n      jump\t// in\n    tag_94:\n        /* \"#utility.yul\":789:792   */\n      dup3\n        /* \"#utility.yul\":782:819   */\n      mstore\n        /* \"#utility.yul\":707:825   */\n      pop\n      pop\n      jump\t// out\n        /* \"#utility.yul\":831:949   */\n    tag_66:\n        /* \"#utility.yul\":918:942   */\n      tag_96\n        /* \"#utility.yul\":936:941   */\n      dup2\n        /* \"#utility.yul\":918:942   */\n      tag_61\n      jump\t// in\n    tag_96:\n        /* \"#utility.yul\":913:916   */\n      dup3\n        /* \"#utility.yul\":906:943   */\n      mstore\n        /* \"#utility.yul\":831:949   */\n      pop\n      pop\n      jump\t// out\n        /* \"#utility.yul\":955:1287   */\n    tag_13:\n        /* \"#utility.yul\":1076:1080   */\n      0x00\n        /* \"#utility.yul\":1114:1116   */\n      0x40\n        /* \"#utility.yul\":1103:1112   */\n      dup3\n        /* \"#utility.yul\":1099:1117   */\n      add\n        /* \"#utility.yul\":1091:1117   */\n      swap1\n      pop\n        /* \"#utility.yul\":1127:1198   */\n      tag_98\n        /* \"#utility.yul\":1195:1196   */\n      0x00\n        /* \"#utility.yul\":1184:1193   */\n      dup4\n        /* \"#utility.yul\":1180:1197   */\n      add\n        /* \"#utility.yul\":1171:1177   */\n      dup6\n        /* \"#utility.yul\":1127:1198   */\n      tag_65\n      jump\t// in\n    tag_98:\n        /* \"#utility.yul\":1208:1280   */\n      tag_99\n        /* \"#utility.yul\":1276:1278   */\n      0x20\n        /* \"#utility.yul\":1265:1274   */\n      dup4\n        /* \"#utility.yul\":1261:1279   */\n      add\n        /* \"#utility.yul\":1252:1258   */\n      dup5\n        /* \"#utility.yul\":1208:1280   */\n      tag_66\n      jump\t// in\n    tag_99:\n        /* \"#utility.yul\":955:1287   */\n      swap4\n      swap3\n      pop\n      pop\n      pop\n      jump\t// out\n        /* \"#utility.yul\":1293:1515   */\n    tag_22:\n        /* \"#utility.yul\":1386:1390   */\n      0x00\n        /* \"#utility.yul\":1424:1426   */\n      0x20\n        /* \"#utility.yul\":1413:1422   */\n      dup3\n        /* \"#utility.yul\":1409:1427   */\n      add\n        /* \"#utility.yul\":1401:1427   */\n      swap1\n      pop\n        /* \"#utility.yul\":1437:1508   */\n      tag_101\n        /* \"#utility.yul\":1505:1506   */\n      0x00\n        /* \"#utility.yul\":1494:1503   */\n      dup4\n        /* \"#utility.yul\":1490:1507   */\n      add\n        /* \"#utility.yul\":1481:1487   */\n      dup5\n        /* \"#utility.yul\":1437:1508   */\n      tag_65\n      jump\t// in\n    tag_101:\n        /* \"#utility.yul\":1293:1515   */\n      swap3\n      swap2\n      pop\n      pop\n      jump\t// out\n        /* \"#utility.yul\":1521:1619   */\n    tag_67:\n        /* \"#utility.yul\":1572:1578   */\n      0x00\n        /* \"#utility.yul\":1606:1611   */\n      dup2\n        /* \"#utility.yul\":1600:1612   */\n      mload\n        /* \"#utility.yul\":1590:1612   */\n      swap1\n      pop\n        /* \"#utility.yul\":1521:1619   */\n      swap2\n      swap1\n      pop\n      jump\t// out\n        /* \"#utility.yul\":1625:1793   */\n    tag_68:\n        /* \"#utility.yul\":1708:1719   */\n      0x00\n        /* \"#utility.yul\":1742:1748   */\n      dup3\n        /* \"#utility.yul\":1737:1740   */\n      dup3\n        /* \"#utility.yul\":1730:1749   */\n      mstore\n        /* \"#utility.yul\":1782:1786   */\n      0x20\n        /* \"#utility.yul\":1777:1780   */\n      dup3\n        /* \"#utility.yul\":1773:1787   */\n      add\n        /* \"#utility.yul\":1758:1787   */\n      swap1\n      pop\n        /* \"#utility.yul\":1625:1793   */\n      swap3\n      swap2\n      pop\n      pop\n      jump\t// out\n        /* \"#utility.yul\":1799:1938   */\n    tag_69:\n        /* \"#utility.yul\":1888:1894   */\n      dup3\n        /* \"#utility.yul\":1883:1886   */\n      dup2\n        /* \"#utility.yul\":1878:1881   */\n      dup4\n        /* \"#utility.yul\":1872:1895   */\n      mcopy\n        /* \"#utility.yul\":1929:1930   */\n      0x00\n        /* \"#utility.yul\":1920:1926   */\n      dup4\n        /* \"#utility.yul\":1915:1918   */\n      dup4\n        /* \"#utility.yul\":1911:1927   */\n      add\n        /* \"#utility.yul\":1904:1931   */\n      mstore\n        /* \"#utility.yul\":1799:1938   */\n      pop\n      pop\n      pop\n      jump\t// out\n        /* \"#utility.yul\":1944:2046   */\n    tag_70:\n        /* \"#utility.yul\":1985:1991   */\n      0x00\n        /* \"#utility.yul\":2036:2038   */\n      0x1f\n        /* \"#utility.yul\":2032:2039   */\n      not\n        /* \"#utility.yul\":2027:2029   */\n      0x1f\n        /* \"#utility.yul\":2020:2025   */\n      dup4\n        /* \"#utility.yul\":2016:2030   */\n      add\n        /* \"#utility.yul\":2012:2040   */\n      and\n        /* \"#utility.yul\":2002:2040   */\n      swap1\n      pop\n        /* \"#utility.yul\":1944:2046   */\n      swap2\n      swap1\n      pop\n      jump\t// out\n        /* \"#utility.yul\":2052:2425   */\n    tag_71:\n        /* \"#utility.yul\":2138:2141   */\n      0x00\n        /* \"#utility.yul\":2166:2204   */\n      tag_107\n        /* \"#utility.yul\":2198:2203   */\n      dup3\n        /* \"#utility.yul\":2166:2204   */\n      tag_67\n      jump\t// in\n    tag_107:\n        /* \"#utility.yul\":2220:2290   */\n      tag_108\n        /* \"#utility.yul\":2283:2289   */\n      dup2\n        /* \"#utility.yul\":2278:2281   */\n      dup6\n        /* \"#utility.yul\":2220:2290   */\n      tag_68\n      jump\t// in\n    tag_108:\n        /* \"#utility.yul\":2213:2290   */\n      swap4\n      pop\n        /* \"#utility.yul\":2299:2364   */\n      tag_109\n        /* \"#utility.yul\":2357:2363   */\n      dup2\n        /* \"#utility.yul\":2352:2355   */\n      dup6\n        /* \"#utility.yul\":2345:2349   */\n      0x20\n        /* \"#utility.yul\":2338:2343   */\n      dup7\n        /* \"#utility.yul\":2334:2350   */\n      add\n        /* \"#utility.yul\":2299:2364   */\n      tag_69\n      jump\t// in\n    tag_109:\n        /* \"#utility.yul\":2389:2418   */\n      tag_110\n        /* \"#utility.yul\":2411:2417   */\n      dup2\n        /* \"#utility.yul\":2389:2418   */\n      tag_70\n      jump\t// in\n    tag_110:\n        /* \"#utility.yul\":2384:2387   */\n      dup5\n        /* \"#utility.yul\":2380:2419   */\n      add\n        /* \"#utility.yul\":2373:2419   */\n      swap2\n      pop\n        /* \"#utility.yul\":2142:2425   */\n      pop\n        /* \"#utility.yul\":2052:2425   */\n      swap3\n      swap2\n      pop\n      pop\n      jump\t// out\n        /* \"#utility.yul\":2431:2740   */\n    tag_27:\n        /* \"#utility.yul\":2542:2546   */\n      0x00\n        /* \"#utility.yul\":2580:2582   */\n      0x20\n        /* \"#utility.yul\":2569:2578   */\n      dup3\n        /* \"#utility.yul\":2565:2583   */\n      add\n        /* \"#utility.yul\":2557:2583   */\n      swap1\n      pop\n        /* \"#utility.yul\":2629:2638   */\n      dup2\n        /* \"#utility.yul\":2623:2627   */\n      dup2\n        /* \"#utility.yul\":2619:2639   */\n      sub\n        /* \"#utility.yul\":2615:2616   */\n      0x00\n        /* \"#utility.yul\":2604:2613   */\n      dup4\n        /* \"#utility.yul\":2600:2617   */\n      add\n        /* \"#utility.yul\":2593:2640   */\n      mstore\n        /* \"#utility.yul\":2657:2733   */\n      tag_112\n        /* \"#utility.yul\":2728:2732   */\n      dup2\n        /* \"#utility.yul\":2719:2725   */\n      dup5\n        /* \"#utility.yul\":2657:2733   */\n      tag_71\n      jump\t// in\n    tag_112:\n        /* \"#utility.yul\":2649:2733   */\n      swap1\n      pop\n        /* \"#utility.yul\":2431:2740   */\n      swap3\n      swap2\n      pop\n      pop\n      jump\t// out\n        /* \"#utility.yul\":2827:2944   */\n    tag_73:\n        /* \"#utility.yul\":2936:2937   */\n      0x00\n        /* \"#utility.yul\":2933:2934   */\n      0x00\n        /* \"#utility.yul\":2926:2938   */\n      revert\n        /* \"#utility.yul\":3073:3195   */\n    tag_75:\n        /* \"#utility.yul\":3146:3170   */\n      tag_117\n        /* \"#utility.yul\":3164:3169   */\n      dup2\n        /* \"#utility.yul\":3146:3170   */\n      tag_64\n      jump\t// in\n    tag_117:\n        /* \"#utility.yul\":3139:3144   */\n      dup2\n        /* \"#utility.yul\":3136:3171   */\n      eq\n        /* \"#utility.yul\":3126:3189   */\n      tag_118\n      jumpi\n        /* \"#utility.yul\":3185:3186   */\n      0x00\n        /* \"#utility.yul\":3182:3183   */\n      0x00\n        /* \"#utility.yul\":3175:3187   */\n      revert\n        /* \"#utility.yul\":3126:3189   */\n    tag_118:\n        /* \"#utility.yul\":3073:3195   */\n      pop\n      jump\t// out\n        /* \"#utility.yul\":3201:3340   */\n    tag_76:\n        /* \"#utility.yul\":3247:3252   */\n      0x00\n        /* \"#utility.yul\":3285:3291   */\n      dup2\n        /* \"#utility.yul\":3272:3292   */\n      calldataload\n        /* \"#utility.yul\":3263:3292   */\n      swap1\n      pop\n        /* \"#utility.yul\":3301:3334   */\n      tag_120\n        /* \"#utility.yul\":3328:3333   */\n      dup2\n        /* \"#utility.yul\":3301:3334   */\n      tag_75\n      jump\t// in\n    tag_120:\n        /* \"#utility.yul\":3201:3340   */\n      swap3\n      swap2\n      pop\n      pop\n      jump\t// out\n        /* \"#utility.yul\":3346:3675   */\n    tag_35:\n        /* \"#utility.yul\":3405:3411   */\n      0x00\n        /* \"#utility.yul\":3454:3456   */\n      0x20\n        /* \"#utility.yul\":3442:3451   */\n      dup3\n        /* \"#utility.yul\":3433:3440   */\n      dup5\n        /* \"#utility.yul\":3429:3452   */\n      sub\n        /* \"#utility.yul\":3425:3457   */\n      slt\n        /* \"#utility.yul\":3422:3541   */\n      iszero\n      tag_122\n      jumpi\n        /* \"#utility.yul\":3460:3539   */\n      tag_123\n      tag_73\n      jump\t// in\n    tag_123:\n        /* \"#utility.yul\":3422:3541   */\n    tag_122:\n        /* \"#utility.yul\":3580:3581   */\n      0x00\n        /* \"#utility.yul\":3605:3658   */\n      tag_124\n        /* \"#utility.yul\":3650:3657   */\n      dup5\n        /* \"#utility.yul\":3641:3647   */\n      dup3\n        /* \"#utility.yul\":3630:3639   */\n      dup6\n        /* \"#utility.yul\":3626:3648   */\n      add\n        /* \"#utility.yul\":3605:3658   */\n      tag_76\n      jump\t// in\n    tag_124:\n        /* \"#utility.yul\":3595:3658   */\n      swap2\n      pop\n        /* \"#utility.yul\":3551:3668   */\n      pop\n        /* \"#utility.yul\":3346:3675   */\n      swap3\n      swap2\n      pop\n      pop\n      jump\t// out\n        /* \"#utility.yul\":3681:3903   */\n    tag_38:\n        /* \"#utility.yul\":3774:3778   */\n      0x00\n        /* \"#utility.yul\":3812:3814   */\n      0x20\n        /* \"#utility.yul\":3801:3810   */\n      dup3\n        /* \"#utility.yul\":3797:3815   */\n      add\n        /* \"#utility.yul\":3789:3815   */\n      swap1\n      pop\n        /* \"#utility.yul\":3825:3896   */\n      tag_126\n        /* \"#utility.yul\":3893:3894   */\n      0x00\n        /* \"#utility.yul\":3882:3891   */\n      dup4\n        /* \"#utility.yul\":3878:3895   */\n      add\n        /* \"#utility.yul\":3869:3875   */\n      dup5\n        /* \"#utility.yul\":3825:3896   */\n      tag_66\n      jump\t// in\n    tag_126:\n        /* \"#utility.yul\":3681:3903   */\n      swap3\n      swap2\n      pop\n      pop\n      jump\t// out\n        /* \"#utility.yul\":3909:4241   */\n    tag_44:\n        /* \"#utility.yul\":4030:4034   */\n      0x00\n        /* \"#utility.yul\":4068:4070   */\n      0x40\n        /* \"#utility.yul\":4057:4066   */\n      dup3\n        /* \"#utility.yul\":4053:4071   */\n      add\n        /* \"#utility.yul\":4045:4071   */\n      swap1\n      pop\n        /* \"#utility.yul\":4081:4152   */\n      tag_128\n        /* \"#utility.yul\":4149:4150   */\n      0x00\n        /* \"#utility.yul\":4138:4147   */\n      dup4\n        /* \"#utility.yul\":4134:4151   */\n      add\n        /* \"#utility.yul\":4125:4131   */\n      dup6\n        /* \"#utility.yul\":4081:4152   */\n      tag_65\n      jump\t// in\n    tag_128:\n        /* \"#utility.yul\":4162:4234   */\n      tag_129\n        /* \"#utility.yul\":4230:4232   */\n      0x20\n        /* \"#utility.yul\":4219:4228   */\n      dup4\n        /* \"#utility.yul\":4215:4233   */\n      add\n        /* \"#utility.yul\":4206:4212   */\n      dup5\n        /* \"#utility.yul\":4162:4234   */\n      tag_65\n      jump\t// in\n    tag_129:\n        /* \"#utility.yul\":3909:4241   */\n      swap4\n      swap3\n      pop\n      pop\n      pop\n      jump\t// out\n        /* \"#utility.yul\":4247:4394   */\n    tag_77:\n        /* \"#utility.yul\":4348:4359   */\n      0x00\n        /* \"#utility.yul\":4385:4388   */\n      dup2\n        /* \"#utility.yul\":4370:4388   */\n      swap1\n      pop\n        /* \"#utility.yul\":4247:4394   */\n      swap3\n      swap2\n      pop\n      pop\n      jump\t// out\n        /* \"#utility.yul\":4400:4514   */\n    tag_78:\n      pop\n      jump\t// out\n        /* \"#utility.yul\":4520:4918   */\n    tag_79:\n        /* \"#utility.yul\":4679:4682   */\n      0x00\n        /* \"#utility.yul\":4700:4783   */\n      tag_133\n        /* \"#utility.yul\":4781:4782   */\n      0x00\n        /* \"#utility.yul\":4776:4779   */\n      dup4\n        /* \"#utility.yul\":4700:4783   */\n      tag_77\n      jump\t// in\n    tag_133:\n        /* \"#utility.yul\":4693:4783   */\n      swap2\n      pop\n        /* \"#utility.yul\":4792:4885   */\n      tag_134\n        /* \"#utility.yul\":4881:4884   */\n      dup3\n        /* \"#utility.yul\":4792:4885   */\n      tag_78\n      jump\t// in\n    tag_134:\n        /* \"#utility.yul\":4910:4911   */\n      0x00\n        /* \"#utility.yul\":4905:4908   */\n      dup3\n        /* \"#utility.yul\":4901:4912   */\n      add\n        /* \"#utility.yul\":4894:4912   */\n      swap1\n      pop\n        /* \"#utility.yul\":4520:4918   */\n      swap2\n      swap1\n      pop\n      jump\t// out\n        /* \"#utility.yul\":4924:5303   */\n    tag_54:\n        /* \"#utility.yul\":5108:5111   */\n      0x00\n        /* \"#utility.yul\":5130:5277   */\n      tag_136\n        /* \"#utility.yul\":5273:5276   */\n      dup3\n        /* \"#utility.yul\":5130:5277   */\n      tag_79\n      jump\t// in\n    tag_136:\n        /* \"#utility.yul\":5123:5277   */\n      swap2\n      pop\n        /* \"#utility.yul\":5294:5297   */\n      dup2\n        /* \"#utility.yul\":5287:5297   */\n      swap1\n      pop\n        /* \"#utility.yul\":4924:5303   */\n      swap2\n      swap1\n      pop\n      jump\t// out\n        /* \"#utility.yul\":5309:5470   */\n    tag_80:\n        /* \"#utility.yul\":5449:5462   */\n      0x63616c6c206661696c6564000000000000000000000000000000000000000000\n        /* \"#utility.yul\":5445:5446   */\n      0x00\n        /* \"#utility.yul\":5437:5443   */\n      dup3\n        /* \"#utility.yul\":5433:5447   */\n      add\n        /* \"#utility.yul\":5426:5463   */\n      mstore\n        /* \"#utility.yul\":5309:5470   */\n      pop\n      jump\t// out\n        /* \"#utility.yul\":5476:5840   */\n    tag_81:\n        /* \"#utility.yul\":5617:5620   */\n      0x00\n        /* \"#utility.yul\":5638:5704   */\n      tag_139\n        /* \"#utility.yul\":5701:5703   */\n      0x0b\n        /* \"#utility.yul\":5696:5699   */\n      dup4\n        /* \"#utility.yul\":5638:5704   */\n      tag_68\n      jump\t// in\n    tag_139:\n        /* \"#utility.yul\":5631:5704   */\n      swap2\n      pop\n        /* \"#utility.yul\":5713:5806   */\n      tag_140\n        /* \"#utility.yul\":5802:5805   */\n      dup3\n        /* \"#utility.yul\":5713:5806   */\n      tag_80\n      jump\t// in\n    tag_140:\n        /* \"#utility.yul\":5831:5833   */\n      0x20\n        /* \"#utility.yul\":5826:5829   */\n      dup3\n        /* \"#utility.yul\":5822:5834   */\n      add\n        /* \"#utility.yul\":5815:5834   */\n      swap1\n      pop\n        /* \"#utility.yul\":5476:5840   */\n      swap2\n      swap1\n      pop\n      jump\t// out\n        /* \"#utility.yul\":5846:6263   */\n    tag_60:\n        /* \"#utility.yul\":6011:6015   */\n      0x00\n        /* \"#utility.yul\":6049:6051   */\n      0x20\n        /* \"#utility.yul\":6038:6047   */\n      dup3\n        /* \"#utility.yul\":6034:6052   */\n      add\n        /* \"#utility.yul\":6026:6052   */\n      swap1\n      pop\n        /* \"#utility.yul\":6098:6107   */\n      dup2\n        /* \"#utility.yul\":6092:6096   */\n      dup2\n        /* \"#utility.yul\":6088:6108   */\n      sub\n        /* \"#utility.yul\":6084:6085   */\n      0x00\n        /* \"#utility.yul\":6073:6082   */\n      dup4\n        /* \"#utility.yul\":6069:6086   */\n      add\n        /* \"#utility.yul\":6062:6109   */\n      mstore\n        /* \"#utility.yul\":6126:6256   */\n      tag_142\n        /* \"#utility.yul\":6251:6255   */\n      dup2\n        /* \"#utility.yul\":6126:6256   */\n      tag_81\n      jump\t// in\n    tag_142:\n        /* \"#utility.yul\":6118:6256   */\n      swap1\n      pop\n        /* \"#utility.yul\":5846:6263   */\n      swap2\n      swap1\n      pop\n      jump\t// out\n\n    auxdata: 0xa2646970667358221220507d791f46524a6cf61bf4fb9ec335f3c0730090512a4867ead75c9141d6f24064736f6c634300081e0033\n}\n",
				"bytecode": {
					"linkReferences": {},
					"object": "60a060405234801561000f575f5ffd5b50604051610927380380610927833981810160405281019061003191906100c9565b8073ffffffffffffffffffffffffffffffffffffffff1660808173ffffffffffffffffffffffffffffffffffffffff1681525050506100f4565b5f5ffd5b5f73ffffffffffffffffffffffffffffffffffffffff82169050919050565b5f6100988261006f565b9050919050565b6100a88161008e565b81146100b2575f5ffd5b50565b5f815190506100c38161009f565b92915050565b5f602082840312156100de576100dd61006b565b5b5f6100eb848285016100b5565b91505092915050565b6080516107ff6101285f395f818161023201528181610258015281816102ac0152818161032b015261036601526107ff5ff3fe60806040526004361061004d575f3560e01c80632f99c6cc1461016c5780633ccfd60b146101965780636904df83146101c0578063cc6cb19a146101ea578063ed88c68e14610226576100df565b366100df57345f5f3373ffffffffffffffffffffffffffffffffffffffff1673ffffffffffffffffffffffffffffffffffffffff1681526020019081526020015f205f82825461009d9190610536565b925050819055507f264f630d9efa0d07053a31163641d9fcc0adafc9d9e76f1c37c2ce3a558d2c5233346040516100d59291906105b7565b60405180910390a1005b345f5f3373ffffffffffffffffffffffffffffffffffffffff1673ffffffffffffffffffffffffffffffffffffffff1681526020019081526020015f205f82825461012a9190610536565b925050819055507f264f630d9efa0d07053a31163641d9fcc0adafc9d9e76f1c37c2ce3a558d2c5233346040516101629291906105b7565b60405180910390a1005b348015610177575f5ffd5b50610180610230565b60405161018d91906105de565b60405180910390f35b3480156101a1575f5ffd5b506101aa610254565b6040516101b79190610667565b60405180910390f35b3480156101cb575f5ffd5b506101d4610390565b6040516101e191906105de565b60405180910390f35b3480156101f5575f5ffd5b50610210600480360381019061020b91906106b5565b6103a8565b60405161021d91906106e0565b60405180910390f35b61022e6103bc565b005b7f000000000000000000000000000000000000000000000000000000000000000081565b60607f000000000000000000000000000000000000000000000000000000000000000073ffffffffffffffffffffffffffffffffffffffff163373ffffffffffffffffffffffffffffffffffffffff161461030857337f00000000000000000000000000000000000000000000000000000000000000006040517f0f4b2ef20000000000000000000000000000000000000000000000000000000081526004016102ff9291906106f9565b60405180910390fd5b7f76dd79cbf8ed7f926ec5a76c1a1fccccd398e57e1bb03695c75ece7d64d02c367f0000000000000000000000000000000000000000000000000000000000000000476040516103599291906105b7565b60405180910390a161038b7f000000000000000000000000000000000000000000000000000000000000000047610449565b905090565b735b38da6a701c568545dcfcb03fcb875f56beddc481565b5f602052805f5260405f205f915090505481565b345f5f3373ffffffffffffffffffffffffffffffffffffffff1673ffffffffffffffffffffffffffffffffffffffff1681526020019081526020015f205f8282546104079190610536565b925050819055507f264f630d9efa0d07053a31163641d9fcc0adafc9d9e76f1c37c2ce3a558d2c52333460405161043f9291906105b7565b60405180910390a1565b60605f5f8473ffffffffffffffffffffffffffffffffffffffff16846040516104719061074d565b5f6040518083038185875af1925050503d805f81146104ab576040519150601f19603f3d011682016040523d82523d5f602084013e6104b0565b606091505b5091509150816104f5576040517ffe3c76670000000000000000000000000000000000000000000000000000000081526004016104ec906107ab565b60405180910390fd5b809250505092915050565b5f819050919050565b7f4e487b71000000000000000000000000000000000000000000000000000000005f52601160045260245ffd5b5f61054082610500565b915061054b83610500565b925082820190508082111561056357610562610509565b5b92915050565b5f73ffffffffffffffffffffffffffffffffffffffff82169050919050565b5f61059282610569565b9050919050565b6105a281610588565b82525050565b6105b181610500565b82525050565b5f6040820190506105ca5f830185610599565b6105d760208301846105a8565b9392505050565b5f6020820190506105f15f830184610599565b92915050565b5f81519050919050565b5f82825260208201905092915050565b8281835e5f83830152505050565b5f601f19601f8301169050919050565b5f610639826105f7565b6106438185610601565b9350610653818560208601610611565b61065c8161061f565b840191505092915050565b5f6020820190508181035f83015261067f818461062f565b905092915050565b5f5ffd5b61069481610588565b811461069e575f5ffd5b50565b5f813590506106af8161068b565b92915050565b5f602082840312156106ca576106c9610687565b5b5f6106d7848285016106a1565b91505092915050565b5f6020820190506106f35f8301846105a8565b92915050565b5f60408201905061070c5f830185610599565b6107196020830184610599565b9392505050565b5f81905092915050565b50565b5f6107385f83610720565b91506107438261072a565b5f82019050919050565b5f6107578261072d565b9150819050919050565b7f63616c6c206661696c65640000000000000000000000000000000000000000005f82015250565b5f610795600b83610601565b91506107a082610761565b602082019050919050565b5f6020820190508181035f8301526107c281610789565b905091905056fea2646970667358221220507d791f46524a6cf61bf4fb9ec335f3c0730090512a4867ead75c9141d6f24064736f6c634300081e0033",
					"opcodes": "PUSH1 0xA0 PUSH1 0x40 MSTORE CALLVALUE DUP1 ISZERO PUSH2 0xF JUMPI PUSH0 PUSH0 REVERT JUMPDEST POP PUSH1 0x40 MLOAD PUSH2 0x927 CODESIZE SUB DUP1 PUSH2 0x927 DUP4 CODECOPY DUP2 DUP2 ADD PUSH1 0x40 MSTORE DUP2 ADD SWAP1 PUSH2 0x31 SWAP2 SWAP1 PUSH2 0xC9 JUMP JUMPDEST DUP1 PUSH20 0xFFFFFFFFFFFFFFFFFFFFFFFFFFFFFFFFFFFFFFFF AND PUSH1 0x80 DUP2 PUSH20 0xFFFFFFFFFFFFFFFFFFFFFFFFFFFFFFFFFFFFFFFF AND DUP2 MSTORE POP POP POP PUSH2 0xF4 JUMP JUMPDEST PUSH0 PUSH0 REVERT JUMPDEST PUSH0 PUSH20 0xFFFFFFFFFFFFFFFFFFFFFFFFFFFFFFFFFFFFFFFF DUP3 AND SWAP1 POP SWAP2 SWAP1 POP JUMP JUMPDEST PUSH0 PUSH2 0x98 DUP3 PUSH2 0x6F JUMP JUMPDEST SWAP1 POP SWAP2 SWAP1 POP JUMP JUMPDEST PUSH2 0xA8 DUP2 PUSH2 0x8E JUMP JUMPDEST DUP2 EQ PUSH2 0xB2 JUMPI PUSH0 PUSH0 REVERT JUMPDEST POP JUMP JUMPDEST PUSH0 DUP2 MLOAD SWAP1 POP PUSH2 0xC3 DUP2 PUSH2 0x9F JUMP JUMPDEST SWAP3 SWAP2 POP POP JUMP JUMPDEST PUSH0 PUSH1 0x20 DUP3 DUP5 SUB SLT ISZERO PUSH2 0xDE JUMPI PUSH2 0xDD PUSH2 0x6B JUMP JUMPDEST JUMPDEST PUSH0 PUSH2 0xEB DUP5 DUP3 DUP6 ADD PUSH2 0xB5 JUMP JUMPDEST SWAP2 POP POP SWAP3 SWAP2 POP POP JUMP JUMPDEST PUSH1 0x80 MLOAD PUSH2 0x7FF PUSH2 0x128 PUSH0 CODECOPY PUSH0 DUP2 DUP2 PUSH2 0x232 ADD MSTORE DUP2 DUP2 PUSH2 0x258 ADD MSTORE DUP2 DUP2 PUSH2 0x2AC ADD MSTORE DUP2 DUP2 PUSH2 0x32B ADD MSTORE PUSH2 0x366 ADD MSTORE PUSH2 0x7FF PUSH0 RETURN INVALID PUSH1 0x80 PUSH1 0x40 MSTORE PUSH1 0x4 CALLDATASIZE LT PUSH2 0x4D JUMPI PUSH0 CALLDATALOAD PUSH1 0xE0 SHR DUP1 PUSH4 0x2F99C6CC EQ PUSH2 0x16C JUMPI DUP1 PUSH4 0x3CCFD60B EQ PUSH2 0x196 JUMPI DUP1 PUSH4 0x6904DF83 EQ PUSH2 0x1C0 JUMPI DUP1 PUSH4 0xCC6CB19A EQ PUSH2 0x1EA JUMPI DUP1 PUSH4 0xED88C68E EQ PUSH2 0x226 JUMPI PUSH2 0xDF JUMP JUMPDEST CALLDATASIZE PUSH2 0xDF JUMPI CALLVALUE PUSH0 PUSH0 CALLER PUSH20 0xFFFFFFFFFFFFFFFFFFFFFFFFFFFFFFFFFFFFFFFF AND PUSH20 0xFFFFFFFFFFFFFFFFFFFFFFFFFFFFFFFFFFFFFFFF AND DUP2 MSTORE PUSH1 0x20 ADD SWAP1 DUP2 MSTORE PUSH1 0x20 ADD PUSH0 KECCAK256 PUSH0 DUP3 DUP3 SLOAD PUSH2 0x9D SWAP2 SWAP1 PUSH2 0x536 JUMP JUMPDEST SWAP3 POP POP DUP2 SWAP1 SSTORE POP PUSH32 0x264F630D9EFA0D07053A31163641D9FCC0ADAFC9D9E76F1C37C2CE3A558D2C52 CALLER CALLVALUE PUSH1 0x40 MLOAD PUSH2 0xD5 SWAP3 SWAP2 SWAP1 PUSH2 0x5B7 JUMP JUMPDEST PUSH1 0x40 MLOAD DUP1 SWAP2 SUB SWAP1 LOG1 STOP JUMPDEST CALLVALUE PUSH0 PUSH0 CALLER PUSH20 0xFFFFFFFFFFFFFFFFFFFFFFFFFFFFFFFFFFFFFFFF AND PUSH20 0xFFFFFFFFFFFFFFFFFFFFFFFFFFFFFFFFFFFFFFFF AND DUP2 MSTORE PUSH1 0x20 ADD SWAP1 DUP2 MSTORE PUSH1 0x20 ADD PUSH0 KECCAK256 PUSH0 DUP3 DUP3 SLOAD PUSH2 0x12A SWAP2 SWAP1 PUSH2 0x536 JUMP JUMPDEST SWAP3 POP POP DUP2 SWAP1 SSTORE POP PUSH32 0x264F630D9EFA0D07053A31163641D9FCC0ADAFC9D9E76F1C37C2CE3A558D2C52 CALLER CALLVALUE PUSH1 0x40 MLOAD PUSH2 0x162 SWAP3 SWAP2 SWAP1 PUSH2 0x5B7 JUMP JUMPDEST PUSH1 0x40 MLOAD DUP1 SWAP2 SUB SWAP1 LOG1 STOP JUMPDEST CALLVALUE DUP1 ISZERO PUSH2 0x177 JUMPI PUSH0 PUSH0 REVERT JUMPDEST POP PUSH2 0x180 PUSH2 0x230 JUMP JUMPDEST PUSH1 0x40 MLOAD PUSH2 0x18D SWAP2 SWAP1 PUSH2 0x5DE JUMP JUMPDEST PUSH1 0x40 MLOAD DUP1 SWAP2 SUB SWAP1 RETURN JUMPDEST CALLVALUE DUP1 ISZERO PUSH2 0x1A1 JUMPI PUSH0 PUSH0 REVERT JUMPDEST POP PUSH2 0x1AA PUSH2 0x254 JUMP JUMPDEST PUSH1 0x40 MLOAD PUSH2 0x1B7 SWAP2 SWAP1 PUSH2 0x667 JUMP JUMPDEST PUSH1 0x40 MLOAD DUP1 SWAP2 SUB SWAP1 RETURN JUMPDEST CALLVALUE DUP1 ISZERO PUSH2 0x1CB JUMPI PUSH0 PUSH0 REVERT JUMPDEST POP PUSH2 0x1D4 PUSH2 0x390 JUMP JUMPDEST PUSH1 0x40 MLOAD PUSH2 0x1E1 SWAP2 SWAP1 PUSH2 0x5DE JUMP JUMPDEST PUSH1 0x40 MLOAD DUP1 SWAP2 SUB SWAP1 RETURN JUMPDEST CALLVALUE DUP1 ISZERO PUSH2 0x1F5 JUMPI PUSH0 PUSH0 REVERT JUMPDEST POP PUSH2 0x210 PUSH1 0x4 DUP1 CALLDATASIZE SUB DUP2 ADD SWAP1 PUSH2 0x20B SWAP2 SWAP1 PUSH2 0x6B5 JUMP JUMPDEST PUSH2 0x3A8 JUMP JUMPDEST PUSH1 0x40 MLOAD PUSH2 0x21D SWAP2 SWAP1 PUSH2 0x6E0 JUMP JUMPDEST PUSH1 0x40 MLOAD DUP1 SWAP2 SUB SWAP1 RETURN JUMPDEST PUSH2 0x22E PUSH2 0x3BC JUMP JUMPDEST STOP JUMPDEST PUSH32 0x0 DUP2 JUMP JUMPDEST PUSH1 0x60 PUSH32 0x0 PUSH20 0xFFFFFFFFFFFFFFFFFFFFFFFFFFFFFFFFFFFFFFFF AND CALLER PUSH20 0xFFFFFFFFFFFFFFFFFFFFFFFFFFFFFFFFFFFFFFFF AND EQ PUSH2 0x308 JUMPI CALLER PUSH32 0x0 PUSH1 0x40 MLOAD PUSH32 0xF4B2EF200000000000000000000000000000000000000000000000000000000 DUP2 MSTORE PUSH1 0x4 ADD PUSH2 0x2FF SWAP3 SWAP2 SWAP1 PUSH2 0x6F9 JUMP JUMPDEST PUSH1 0x40 MLOAD DUP1 SWAP2 SUB SWAP1 REVERT JUMPDEST PUSH32 0x76DD79CBF8ED7F926EC5A76C1A1FCCCCD398E57E1BB03695C75ECE7D64D02C36 PUSH32 0x0 SELFBALANCE PUSH1 0x40 MLOAD PUSH2 0x359 SWAP3 SWAP2 SWAP1 PUSH2 0x5B7 JUMP JUMPDEST PUSH1 0x40 MLOAD DUP1 SWAP2 SUB SWAP1 LOG1 PUSH2 0x38B PUSH32 0x0 SELFBALANCE PUSH2 0x449 JUMP JUMPDEST SWAP1 POP SWAP1 JUMP JUMPDEST PUSH20 0x5B38DA6A701C568545DCFCB03FCB875F56BEDDC4 DUP2 JUMP JUMPDEST PUSH0 PUSH1 0x20 MSTORE DUP1 PUSH0 MSTORE PUSH1 0x40 PUSH0 KECCAK256 PUSH0 SWAP2 POP SWAP1 POP SLOAD DUP2 JUMP JUMPDEST CALLVALUE PUSH0 PUSH0 CALLER PUSH20 0xFFFFFFFFFFFFFFFFFFFFFFFFFFFFFFFFFFFFFFFF AND PUSH20 0xFFFFFFFFFFFFFFFFFFFFFFFFFFFFFFFFFFFFFFFF AND DUP2 MSTORE PUSH1 0x20 ADD SWAP1 DUP2 MSTORE PUSH1 0x20 ADD PUSH0 KECCAK256 PUSH0 DUP3 DUP3 SLOAD PUSH2 0x407 SWAP2 SWAP1 PUSH2 0x536 JUMP JUMPDEST SWAP3 POP POP DUP2 SWAP1 SSTORE POP PUSH32 0x264F630D9EFA0D07053A31163641D9FCC0ADAFC9D9E76F1C37C2CE3A558D2C52 CALLER CALLVALUE PUSH1 0x40 MLOAD PUSH2 0x43F SWAP3 SWAP2 SWAP1 PUSH2 0x5B7 JUMP JUMPDEST PUSH1 0x40 MLOAD DUP1 SWAP2 SUB SWAP1 LOG1 JUMP JUMPDEST PUSH1 0x60 PUSH0 PUSH0 DUP5 PUSH20 0xFFFFFFFFFFFFFFFFFFFFFFFFFFFFFFFFFFFFFFFF AND DUP5 PUSH1 0x40 MLOAD PUSH2 0x471 SWAP1 PUSH2 0x74D JUMP JUMPDEST PUSH0 PUSH1 0x40 MLOAD DUP1 DUP4 SUB DUP2 DUP6 DUP8 GAS CALL SWAP3 POP POP POP RETURNDATASIZE DUP1 PUSH0 DUP2 EQ PUSH2 0x4AB JUMPI PUSH1 0x40 MLOAD SWAP2 POP PUSH1 0x1F NOT PUSH1 0x3F RETURNDATASIZE ADD AND DUP3 ADD PUSH1 0x40 MSTORE RETURNDATASIZE DUP3 MSTORE RETURNDATASIZE PUSH0 PUSH1 0x20 DUP5 ADD RETURNDATACOPY PUSH2 0x4B0 JUMP JUMPDEST PUSH1 0x60 SWAP2 POP JUMPDEST POP SWAP2 POP SWAP2 POP DUP2 PUSH2 0x4F5 JUMPI PUSH1 0x40 MLOAD PUSH32 0xFE3C766700000000000000000000000000000000000000000000000000000000 DUP2 MSTORE PUSH1 0x4 ADD PUSH2 0x4EC SWAP1 PUSH2 0x7AB JUMP JUMPDEST PUSH1 0x40 MLOAD DUP1 SWAP2 SUB SWAP1 REVERT JUMPDEST DUP1 SWAP3 POP POP POP SWAP3 SWAP2 POP POP JUMP JUMPDEST PUSH0 DUP2 SWAP1 POP SWAP2 SWAP1 POP JUMP JUMPDEST PUSH32 0x4E487B7100000000000000000000000000000000000000000000000000000000 PUSH0 MSTORE PUSH1 0x11 PUSH1 0x4 MSTORE PUSH1 0x24 PUSH0 REVERT JUMPDEST PUSH0 PUSH2 0x540 DUP3 PUSH2 0x500 JUMP JUMPDEST SWAP2 POP PUSH2 0x54B DUP4 PUSH2 0x500 JUMP JUMPDEST SWAP3 POP DUP3 DUP3 ADD SWAP1 POP DUP1 DUP3 GT ISZERO PUSH2 0x563 JUMPI PUSH2 0x562 PUSH2 0x509 JUMP JUMPDEST JUMPDEST SWAP3 SWAP2 POP POP JUMP JUMPDEST PUSH0 PUSH20 0xFFFFFFFFFFFFFFFFFFFFFFFFFFFFFFFFFFFFFFFF DUP3 AND SWAP1 POP SWAP2 SWAP1 POP JUMP JUMPDEST PUSH0 PUSH2 0x592 DUP3 PUSH2 0x569 JUMP JUMPDEST SWAP1 POP SWAP2 SWAP1 POP JUMP JUMPDEST PUSH2 0x5A2 DUP2 PUSH2 0x588 JUMP JUMPDEST DUP3 MSTORE POP POP JUMP JUMPDEST PUSH2 0x5B1 DUP2 PUSH2 0x500 JUMP JUMPDEST DUP3 MSTORE POP POP JUMP JUMPDEST PUSH0 PUSH1 0x40 DUP3 ADD SWAP1 POP PUSH2 0x5CA PUSH0 DUP4 ADD DUP6 PUSH2 0x599 JUMP JUMPDEST PUSH2 0x5D7 PUSH1 0x20 DUP4 ADD DUP5 PUSH2 0x5A8 JUMP JUMPDEST SWAP4 SWAP3 POP POP POP JUMP JUMPDEST PUSH0 PUSH1 0x20 DUP3 ADD SWAP1 POP PUSH2 0x5F1 PUSH0 DUP4 ADD DUP5 PUSH2 0x599 JUMP JUMPDEST SWAP3 SWAP2 POP POP JUMP JUMPDEST PUSH0 DUP2 MLOAD SWAP1 POP SWAP2 SWAP1 POP JUMP JUMPDEST PUSH0 DUP3 DUP3 MSTORE PUSH1 0x20 DUP3 ADD SWAP1 POP SWAP3 SWAP2 POP POP JUMP JUMPDEST DUP3 DUP2 DUP4 MCOPY PUSH0 DUP4 DUP4 ADD MSTORE POP POP POP JUMP JUMPDEST PUSH0 PUSH1 0x1F NOT PUSH1 0x1F DUP4 ADD AND SWAP1 POP SWAP2 SWAP1 POP JUMP JUMPDEST PUSH0 PUSH2 0x639 DUP3 PUSH2 0x5F7 JUMP JUMPDEST PUSH2 0x643 DUP2 DUP6 PUSH2 0x601 JUMP JUMPDEST SWAP4 POP PUSH2 0x653 DUP2 DUP6 PUSH1 0x20 DUP7 ADD PUSH2 0x611 JUMP JUMPDEST PUSH2 0x65C DUP2 PUSH2 0x61F JUMP JUMPDEST DUP5 ADD SWAP2 POP POP SWAP3 SWAP2 POP POP JUMP JUMPDEST PUSH0 PUSH1 0x20 DUP3 ADD SWAP1 POP DUP2 DUP2 SUB PUSH0 DUP4 ADD MSTORE PUSH2 0x67F DUP2 DUP5 PUSH2 0x62F JUMP JUMPDEST SWAP1 POP SWAP3 SWAP2 POP POP JUMP JUMPDEST PUSH0 PUSH0 REVERT JUMPDEST PUSH2 0x694 DUP2 PUSH2 0x588 JUMP JUMPDEST DUP2 EQ PUSH2 0x69E JUMPI PUSH0 PUSH0 REVERT JUMPDEST POP JUMP JUMPDEST PUSH0 DUP2 CALLDATALOAD SWAP1 POP PUSH2 0x6AF DUP2 PUSH2 0x68B JUMP JUMPDEST SWAP3 SWAP2 POP POP JUMP JUMPDEST PUSH0 PUSH1 0x20 DUP3 DUP5 SUB SLT ISZERO PUSH2 0x6CA JUMPI PUSH2 0x6C9 PUSH2 0x687 JUMP JUMPDEST JUMPDEST PUSH0 PUSH2 0x6D7 DUP5 DUP3 DUP6 ADD PUSH2 0x6A1 JUMP JUMPDEST SWAP2 POP POP SWAP3 SWAP2 POP POP JUMP JUMPDEST PUSH0 PUSH1 0x20 DUP3 ADD SWAP1 POP PUSH2 0x6F3 PUSH0 DUP4 ADD DUP5 PUSH2 0x5A8 JUMP JUMPDEST SWAP3 SWAP2 POP POP JUMP JUMPDEST PUSH0 PUSH1 0x40 DUP3 ADD SWAP1 POP PUSH2 0x70C PUSH0 DUP4 ADD DUP6 PUSH2 0x599 JUMP JUMPDEST PUSH2 0x719 PUSH1 0x20 DUP4 ADD DUP5 PUSH2 0x599 JUMP JUMPDEST SWAP4 SWAP3 POP POP POP JUMP JUMPDEST PUSH0 DUP2 SWAP1 POP SWAP3 SWAP2 POP POP JUMP JUMPDEST POP JUMP JUMPDEST PUSH0 PUSH2 0x738 PUSH0 DUP4 PUSH2 0x720 JUMP JUMPDEST SWAP2 POP PUSH2 0x743 DUP3 PUSH2 0x72A JUMP JUMPDEST PUSH0 DUP3 ADD SWAP1 POP SWAP2 SWAP1 POP JUMP JUMPDEST PUSH0 PUSH2 0x757 DUP3 PUSH2 0x72D JUMP JUMPDEST SWAP2 POP DUP2 SWAP1 POP SWAP2 SWAP1 POP JUMP JUMPDEST PUSH32 0x63616C6C206661696C6564000000000000000000000000000000000000000000 PUSH0 DUP3 ADD MSTORE POP JUMP JUMPDEST PUSH0 PUSH2 0x795 PUSH1 0xB DUP4 PUSH2 0x601 JUMP JUMPDEST SWAP2 POP PUSH2 0x7A0 DUP3 PUSH2 0x761 JUMP JUMPDEST PUSH1 0x20 DUP3 ADD SWAP1 POP SWAP2 SWAP1 POP JUMP JUMPDEST PUSH0 PUSH1 0x20 DUP3 ADD SWAP1 POP DUP2 DUP2 SUB PUSH0 DUP4 ADD MSTORE PUSH2 0x7C2 DUP2 PUSH2 0x789 JUMP JUMPDEST SWAP1 POP SWAP2 SWAP1 POP JUMP INVALID LOG2 PUSH5 0x6970667358 0x22 SLT KECCAK256 POP PUSH30 0x791F46524A6CF61BF4FB9EC335F3C0730090512A4867EAD75C9141D6F240 PUSH5 0x736F6C6343 STOP ADDMOD 0x1E STOP CALLER "
				},
				"gasEstimates": {
					"creation": {
						"codeDepositCost": "409400",
						"executionCost": "infinite",
						"totalCost": "infinite"
					},
					"external": {
						"": "infinite",
						"BENEFICIARY()": "infinite",
						"BENEFICIARY2()": "395",
						"donate()": "infinite",
						"donations(address)": "2845",
						"withdraw()": "infinite"
					},
					"internal": {
						"_transferEth(address,uint256)": "infinite"
					}
				},
				"methodIdentifiers": {
					"BENEFICIARY()": "2f99c6cc",
					"BENEFICIARY2()": "6904df83",
					"donate()": "ed88c68e",
					"donations(address)": "cc6cb19a",
					"withdraw()": "3ccfd60b"
				}
			},
			"storageLayout": {
				"storage": [
					{
						"astId": 13,
						"contract": "Donations.sol:Donations",
						"label": "donations",
						"offset": 0,
						"slot": "0",
						"type": "t_mapping(t_address,t_uint256)"
					}
				],
				"types": {
					"t_address": {
						"encoding": "inplace",
						"label": "address",
						"numberOfBytes": "20"
					},
					"t_mapping(t_address,t_uint256)": {
						"encoding": "mapping",
						"key": "t_address",
						"label": "mapping(address => uint256)",
						"numberOfBytes": "32",
						"value": "t_uint256"
					},
					"t_uint256": {
						"encoding": "inplace",
						"label": "uint256",
						"numberOfBytes": "32"
					}
				}
			},
			"userdoc": {
				"kind": "user",
				"methods": {},
				"version": 1
			}
		}
	}
}